{
  "_format": "hh-sol-artifact-1",
  "contractName": "ACL",
  "sourceName": "contracts/acl/ACL.sol",
  "abi": [
    {
      "inputs": [],
      "stateMutability": "nonpayable",
      "type": "constructor"
    },
    {
      "inputs": [],
      "name": "CannotRemoveLastAdmin",
      "type": "error"
    },
    {
      "inputs": [],
      "name": "RolesContractIncorrectlyConfigured",
      "type": "error"
    },
    {
      "anonymous": false,
      "inputs": [
        {
          "indexed": false,
          "internalType": "address",
          "name": "previousAdmin",
          "type": "address"
        },
        {
          "indexed": false,
          "internalType": "address",
          "name": "newAdmin",
          "type": "address"
        }
      ],
      "name": "AdminChanged",
      "type": "event"
    },
    {
      "anonymous": false,
      "inputs": [
        {
          "indexed": true,
          "internalType": "address",
          "name": "beacon",
          "type": "address"
        }
      ],
      "name": "BeaconUpgraded",
      "type": "event"
    },
    {
      "anonymous": false,
      "inputs": [
        {
          "indexed": true,
          "internalType": "bytes32",
          "name": "role",
          "type": "bytes32"
        },
        {
          "indexed": true,
          "internalType": "bytes32",
          "name": "previousAdminRole",
          "type": "bytes32"
        },
        {
          "indexed": true,
          "internalType": "bytes32",
          "name": "newAdminRole",
          "type": "bytes32"
        }
      ],
      "name": "RoleAdminChanged",
      "type": "event"
    },
    {
      "anonymous": false,
      "inputs": [
        {
          "indexed": true,
          "internalType": "bytes32",
          "name": "role",
          "type": "bytes32"
        },
        {
          "indexed": true,
          "internalType": "address",
          "name": "account",
          "type": "address"
        },
        {
          "indexed": true,
          "internalType": "address",
          "name": "sender",
          "type": "address"
        }
      ],
      "name": "RoleGranted",
      "type": "event"
    },
    {
      "anonymous": false,
      "inputs": [
        {
          "indexed": true,
          "internalType": "bytes32",
          "name": "role",
          "type": "bytes32"
        },
        {
          "indexed": true,
          "internalType": "address",
          "name": "account",
          "type": "address"
        },
        {
          "indexed": true,
          "internalType": "address",
          "name": "sender",
          "type": "address"
        }
      ],
      "name": "RoleRevoked",
      "type": "event"
    },
    {
      "anonymous": false,
      "inputs": [
        {
          "indexed": true,
          "internalType": "address",
          "name": "implementation",
          "type": "address"
        }
      ],
      "name": "Upgraded",
      "type": "event"
    },
    {
      "inputs": [],
      "name": "DEFAULT_ADMIN_ROLE",
      "outputs": [
        {
          "internalType": "bytes32",
          "name": "",
          "type": "bytes32"
        }
      ],
      "stateMutability": "view",
      "type": "function"
    },
    {
      "inputs": [],
      "name": "adminRole",
      "outputs": [
        {
          "internalType": "bytes32",
          "name": "",
          "type": "bytes32"
        }
      ],
      "stateMutability": "pure",
      "type": "function"
    },
    {
      "inputs": [
        {
          "internalType": "bytes32",
          "name": "role",
          "type": "bytes32"
        },
        {
          "internalType": "address",
          "name": "account",
          "type": "address"
        }
      ],
      "name": "checkRole",
      "outputs": [],
      "stateMutability": "view",
      "type": "function"
    },
    {
      "inputs": [
        {
          "internalType": "bytes32",
          "name": "role",
          "type": "bytes32"
        }
      ],
      "name": "getRoleAdmin",
      "outputs": [
        {
          "internalType": "bytes32",
          "name": "",
          "type": "bytes32"
        }
      ],
      "stateMutability": "view",
      "type": "function"
    },
    {
      "inputs": [
        {
          "internalType": "bytes32",
          "name": "role",
          "type": "bytes32"
        },
        {
          "internalType": "uint256",
          "name": "index",
          "type": "uint256"
        }
      ],
      "name": "getRoleMember",
      "outputs": [
        {
          "internalType": "address",
          "name": "",
          "type": "address"
        }
      ],
      "stateMutability": "view",
      "type": "function"
    },
    {
      "inputs": [
        {
          "internalType": "bytes32",
          "name": "role",
          "type": "bytes32"
        }
      ],
      "name": "getRoleMemberCount",
      "outputs": [
        {
          "internalType": "uint256",
          "name": "",
          "type": "uint256"
        }
      ],
      "stateMutability": "view",
      "type": "function"
    },
    {
      "inputs": [
        {
          "internalType": "bytes32",
          "name": "role",
          "type": "bytes32"
        },
        {
          "internalType": "address",
          "name": "account",
          "type": "address"
        }
      ],
      "name": "grantRole",
      "outputs": [],
      "stateMutability": "nonpayable",
      "type": "function"
    },
    {
      "inputs": [
        {
          "internalType": "bytes32",
          "name": "role",
          "type": "bytes32"
        },
        {
          "internalType": "address",
          "name": "account",
          "type": "address"
        }
      ],
      "name": "hasRole",
      "outputs": [
        {
          "internalType": "bool",
          "name": "",
          "type": "bool"
        }
      ],
      "stateMutability": "view",
      "type": "function"
    },
    {
      "inputs": [],
      "name": "initialize",
      "outputs": [],
      "stateMutability": "nonpayable",
      "type": "function"
    },
    {
      "inputs": [],
      "name": "proxiableUUID",
      "outputs": [
        {
          "internalType": "bytes32",
          "name": "",
          "type": "bytes32"
        }
      ],
      "stateMutability": "view",
      "type": "function"
    },
    {
      "inputs": [
        {
          "internalType": "bytes32",
          "name": "role",
          "type": "bytes32"
        },
        {
          "internalType": "address",
          "name": "account",
          "type": "address"
        }
      ],
      "name": "renounceRole",
      "outputs": [],
      "stateMutability": "nonpayable",
      "type": "function"
    },
    {
      "inputs": [
        {
          "internalType": "bytes32",
          "name": "role",
          "type": "bytes32"
        },
        {
          "internalType": "address",
          "name": "account",
          "type": "address"
        }
      ],
      "name": "revokeRole",
      "outputs": [],
      "stateMutability": "nonpayable",
      "type": "function"
    },
    {
      "inputs": [],
      "name": "supervisorRole",
      "outputs": [
        {
          "internalType": "bytes32",
          "name": "",
          "type": "bytes32"
        }
      ],
      "stateMutability": "pure",
      "type": "function"
    },
    {
      "inputs": [
        {
          "internalType": "bytes4",
          "name": "interfaceId",
          "type": "bytes4"
        }
      ],
      "name": "supportsInterface",
      "outputs": [
        {
          "internalType": "bool",
          "name": "",
          "type": "bool"
        }
      ],
      "stateMutability": "view",
      "type": "function"
    },
    {
      "inputs": [
        {
          "internalType": "address",
          "name": "newImplementation",
          "type": "address"
        }
      ],
      "name": "upgradeTo",
      "outputs": [],
      "stateMutability": "nonpayable",
      "type": "function"
    },
    {
      "inputs": [
        {
          "internalType": "address",
          "name": "newImplementation",
          "type": "address"
        },
        {
          "internalType": "bytes",
          "name": "data",
          "type": "bytes"
        }
      ],
      "name": "upgradeToAndCall",
      "outputs": [],
      "stateMutability": "payable",
      "type": "function"
    }
  ],
  "bytecode": "0x60a0604052306080523480156200001557600080fd5b50600054610100900460ff16620000335760005460ff16156200003d565b6200003d620000e2565b620000a55760405162461bcd60e51b815260206004820152602e60248201527f496e697469616c697a61626c653a20636f6e747261637420697320616c72656160448201526d191e481a5b9a5d1a585b1a5e995960921b606482015260840160405180910390fd5b600054610100900460ff16158015620000c8576000805461ffff19166101011790555b8015620000db576000805461ff00191690555b506200010f565b6000620000fa306200010060201b620007de1760201c565b15905090565b6001600160a01b03163b151590565b60805161160b620001476000396000818161040601528181610446015281816104e50152818161052501526105b4015261160b6000f3fe6080604052600436106100f25760003560e01c806352d1902d1161008a578063a217fddf11610059578063a217fddf14610291578063bc26ddf2146102a6578063ca15c873146102d9578063d547741f146102f957600080fd5b806352d1902d1461020f5780638129fc1c146102245780639010d07c1461023957806391d148541461027157600080fd5b80632f2ff15d116100c65780632f2ff15d1461019c57806336568abe146101bc5780633659cfe6146101dc5780634f1ef286146101fc57600080fd5b80629f2f3c146100f757806301ffc9a71461011a57806312d9a6ad1461014a578063248a9ca31461016c575b600080fd5b34801561010357600080fd5b5060005b6040519081526020015b60405180910390f35b34801561012657600080fd5b5061013a6101353660046111a6565b610319565b6040519015158152602001610111565b34801561015657600080fd5b5061016a6101653660046111ec565b610344565b005b34801561017857600080fd5b50610107610187366004611218565b60009081526065602052604090206001015490565b3480156101a857600080fd5b5061016a6101b73660046111ec565b610352565b3480156101c857600080fd5b5061016a6101d73660046111ec565b61037d565b3480156101e857600080fd5b5061016a6101f7366004611231565b6103fc565b61016a61020a366004611262565b6104db565b34801561021b57600080fd5b506101076105a7565b34801561023057600080fd5b5061016a61065a565b34801561024557600080fd5b50610259610254366004611324565b610757565b6040516001600160a01b039091168152602001610111565b34801561027d57600080fd5b5061013a61028c3660046111ec565b610776565b34801561029d57600080fd5b50610107600081565b3480156102b257600080fd5b507f060c8eced3c6b422fe5573c862b67b9f6e25a3fc7d9543b14f7aee77b138e70d610107565b3480156102e557600080fd5b506101076102f4366004611218565b6107a1565b34801561030557600080fd5b5061016a6103143660046111ec565b6107b8565b60006001600160e01b03198216635a05180f60e01b148061033e575061033e826107ed565b92915050565b61034e8282610822565b5050565b60008281526065602052604090206001015461036e8133610822565b6103788383610886565b505050565b6001600160a01b03811633146103f25760405162461bcd60e51b815260206004820152602f60248201527f416363657373436f6e74726f6c3a2063616e206f6e6c792072656e6f756e636560448201526e103937b632b9903337b91039b2b63360891b60648201526084015b60405180910390fd5b61034e82826108a8565b6001600160a01b037f00000000000000000000000000000000000000000000000000000000000000001630036104445760405162461bcd60e51b81526004016103e990611346565b7f00000000000000000000000000000000000000000000000000000000000000006001600160a01b031661048d60008051602061158f833981519152546001600160a01b031690565b6001600160a01b0316146104b35760405162461bcd60e51b81526004016103e990611392565b6104bc816108e6565b604080516000808252602082019092526104d891839190610943565b50565b6001600160a01b037f00000000000000000000000000000000000000000000000000000000000000001630036105235760405162461bcd60e51b81526004016103e990611346565b7f00000000000000000000000000000000000000000000000000000000000000006001600160a01b031661056c60008051602061158f833981519152546001600160a01b031690565b6001600160a01b0316146105925760405162461bcd60e51b81526004016103e990611392565b61059b826108e6565b61034e82826001610943565b6000306001600160a01b037f000000000000000000000000000000000000000000000000000000000000000016146106475760405162461bcd60e51b815260206004820152603860248201527f555550535570677261646561626c653a206d757374206e6f742062652063616c60448201527f6c6564207468726f7567682064656c656761746563616c6c000000000000000060648201526084016103e9565b5060008051602061158f83398151915290565b600054610100900460ff166106755760005460ff1615610679565b303b155b6106dc5760405162461bcd60e51b815260206004820152602e60248201527f496e697469616c697a61626c653a20636f6e747261637420697320616c72656160448201526d191e481a5b9a5d1a585b1a5e995960921b60648201526084016103e9565b600054610100900460ff161580156106fe576000805461ffff19166101011790555b610706610aae565b61070e610aae565b610719600033610886565b6107437f060c8eced3c6b422fe5573c862b67b9f6e25a3fc7d9543b14f7aee77b138e70d33610886565b80156104d8576000805461ff001916905550565b600082815260976020526040812061076f9083610b1b565b9392505050565b60009182526065602090815260408084206001600160a01b0393909316845291905290205460ff1690565b600081815260976020526040812061033e90610b27565b6000828152606560205260409020600101546107d48133610822565b61037883836108a8565b6001600160a01b03163b151590565b60006001600160e01b03198216637965db0b60e01b148061033e57506301ffc9a760e01b6001600160e01b031983161461033e565b61082c8282610776565b61034e57610844816001600160a01b03166014610b31565b61084f836020610b31565b60405160200161086092919061140a565b60408051601f198184030181529082905262461bcd60e51b82526103e99160040161147f565b6108908282610ccd565b60008281526097602052604090206103789082610d53565b811580156108be57506108ba826107a1565b6001145b156108dc5760405163c13a62ad60e01b815260040160405180910390fd5b61034e8282610d68565b604080516312d9a6ad60e01b8152600060048201819052336024830152915130926312d9a6ad9260448082019391829003018186803b15801561092857600080fd5b505afa15801561093c573d6000803e3d6000fd5b5050505050565b7f4910fdfa16fed3260ed0e7147f7cc6da11a60208b5b9406d12a635614ffd91435460ff16156109765761037883610d8a565b826001600160a01b03166352d1902d6040518163ffffffff1660e01b8152600401602060405180830381865afa9250505080156109d0575060408051601f3d908101601f191682019092526109cd918101906114b2565b60015b610a335760405162461bcd60e51b815260206004820152602e60248201527f45524331393637557067726164653a206e657720696d706c656d656e7461746960448201526d6f6e206973206e6f74205555505360901b60648201526084016103e9565b60008051602061158f8339815191528114610aa25760405162461bcd60e51b815260206004820152602960248201527f45524331393637557067726164653a20756e737570706f727465642070726f786044820152681a58589b195555525160ba1b60648201526084016103e9565b50610378838383610e26565b600054610100900460ff16610b195760405162461bcd60e51b815260206004820152602b60248201527f496e697469616c697a61626c653a20636f6e7472616374206973206e6f74206960448201526a6e697469616c697a696e6760a81b60648201526084016103e9565b565b600061076f8383610e51565b600061033e825490565b60606000610b408360026114e1565b610b4b906002611500565b67ffffffffffffffff811115610b6357610b6361124c565b6040519080825280601f01601f191660200182016040528015610b8d576020820181803683370190505b509050600360fc1b81600081518110610ba857610ba8611518565b60200101906001600160f81b031916908160001a905350600f60fb1b81600181518110610bd757610bd7611518565b60200101906001600160f81b031916908160001a9053506000610bfb8460026114e1565b610c06906001611500565b90505b6001811115610c7e576f181899199a1a9b1b9c1cb0b131b232b360811b85600f1660108110610c3a57610c3a611518565b1a60f81b828281518110610c5057610c50611518565b60200101906001600160f81b031916908160001a90535060049490941c93610c778161152e565b9050610c09565b50831561076f5760405162461bcd60e51b815260206004820181905260248201527f537472696e67733a20686578206c656e67746820696e73756666696369656e7460448201526064016103e9565b610cd78282610776565b61034e5760008281526065602090815260408083206001600160a01b03851684529091529020805460ff19166001179055610d0f3390565b6001600160a01b0316816001600160a01b0316837f2f8788117e7eff1d82e926ec794901d17c78024a50270940304540a733656f0d60405160405180910390a45050565b600061076f836001600160a01b038416610e7b565b610d728282610eca565b60008281526097602052604090206103789082610f31565b6001600160a01b0381163b610df75760405162461bcd60e51b815260206004820152602d60248201527f455243313936373a206e657720696d706c656d656e746174696f6e206973206e60448201526c1bdd08184818dbdb9d1c9858dd609a1b60648201526084016103e9565b60008051602061158f83398151915280546001600160a01b0319166001600160a01b0392909216919091179055565b610e2f83610f46565b600082511180610e3c5750805b1561037857610e4b8383610f86565b50505050565b6000826000018281548110610e6857610e68611518565b9060005260206000200154905092915050565b6000818152600183016020526040812054610ec25750815460018181018455600084815260208082209093018490558454848252828601909352604090209190915561033e565b50600061033e565b610ed48282610776565b1561034e5760008281526065602090815260408083206001600160a01b0385168085529252808320805460ff1916905551339285917ff6391f5c32d9c69d2a47ea670b442974b53935d1edc7fd64eb21e047a839171b9190a45050565b600061076f836001600160a01b03841661107a565b610f4f81610d8a565b6040516001600160a01b038216907fbc7cd75a20ee27fd9adebab32041f755214dbc6bffa90cc0225b39da2e5c2d3b90600090a250565b60606001600160a01b0383163b610fee5760405162461bcd60e51b815260206004820152602660248201527f416464726573733a2064656c65676174652063616c6c20746f206e6f6e2d636f6044820152651b9d1c9858dd60d21b60648201526084016103e9565b600080846001600160a01b0316846040516110099190611545565b600060405180830381855af49150503d8060008114611044576040519150601f19603f3d011682016040523d82523d6000602084013e611049565b606091505b509150915061107182826040518060600160405280602781526020016115af6027913961116d565b95945050505050565b6000818152600183016020526040812054801561116357600061109e600183611561565b85549091506000906110b290600190611561565b90508181146111175760008660000182815481106110d2576110d2611518565b90600052602060002001549050808760000184815481106110f5576110f5611518565b6000918252602080832090910192909255918252600188019052604090208390555b855486908061112857611128611578565b60019003818190600052602060002001600090559055856001016000868152602001908152602001600020600090556001935050505061033e565b600091505061033e565b6060831561117c57508161076f565b82511561118c5782518084602001fd5b8160405162461bcd60e51b81526004016103e9919061147f565b6000602082840312156111b857600080fd5b81356001600160e01b03198116811461076f57600080fd5b80356001600160a01b03811681146111e757600080fd5b919050565b600080604083850312156111ff57600080fd5b8235915061120f602084016111d0565b90509250929050565b60006020828403121561122a57600080fd5b5035919050565b60006020828403121561124357600080fd5b61076f826111d0565b634e487b7160e01b600052604160045260246000fd5b6000806040838503121561127557600080fd5b61127e836111d0565b9150602083013567ffffffffffffffff8082111561129b57600080fd5b818501915085601f8301126112af57600080fd5b8135818111156112c1576112c161124c565b604051601f8201601f19908116603f011681019083821181831017156112e9576112e961124c565b8160405282815288602084870101111561130257600080fd5b8260208601602083013760006020848301015280955050505050509250929050565b6000806040838503121561133757600080fd5b50508035926020909101359150565b6020808252602c908201527f46756e6374696f6e206d7573742062652063616c6c6564207468726f7567682060408201526b19195b1959d85d1958d85b1b60a21b606082015260800190565b6020808252602c908201527f46756e6374696f6e206d7573742062652063616c6c6564207468726f7567682060408201526b6163746976652070726f787960a01b606082015260800190565b60005b838110156113f95781810151838201526020016113e1565b83811115610e4b5750506000910152565b7f416363657373436f6e74726f6c3a206163636f756e74200000000000000000008152600083516114428160178501602088016113de565b7001034b99036b4b9b9b4b733903937b6329607d1b60179184019182015283516114738160288401602088016113de565b01602801949350505050565b602081526000825180602084015261149e8160408501602087016113de565b601f01601f19169190910160400192915050565b6000602082840312156114c457600080fd5b5051919050565b634e487b7160e01b600052601160045260246000fd5b60008160001904831182151516156114fb576114fb6114cb565b500290565b60008219821115611513576115136114cb565b500190565b634e487b7160e01b600052603260045260246000fd5b60008161153d5761153d6114cb565b506000190190565b600082516115578184602087016113de565b9190910192915050565b600082821015611573576115736114cb565b500390565b634e487b7160e01b600052603160045260246000fdfe360894a13ba1a3210667c828492db98dca3e2076cc3735a920a3ca505d382bbc416464726573733a206c6f772d6c6576656c2064656c65676174652063616c6c206661696c6564a2646970667358221220bd64c89d19c9a4a4aaad9f2e0e23521f83960835a059b6c78b0fabb10aae469e64736f6c634300080d0033",
  "linkReferences": {},
  "deployedLinkReferences": {}
}