{
  "_format": "hh-sol-artifact-1",
  "contractName": "ListingStrategyRegistry",
  "sourceName": "contracts/listing/ListingStrategyRegistry.sol",
  "abi": [
    {
      "inputs": [],
      "stateMutability": "nonpayable",
      "type": "constructor"
    },
    {
      "inputs": [],
      "name": "InvalidListingControllerInterface",
      "type": "error"
    },
    {
      "inputs": [
        {
          "internalType": "bytes4",
          "name": "strategyId",
          "type": "bytes4"
        }
      ],
      "name": "ListingStrategyIsAlreadyRegistered",
      "type": "error"
    },
    {
      "inputs": [
        {
          "internalType": "bytes4",
          "name": "provided",
          "type": "bytes4"
        },
        {
          "internalType": "bytes4",
          "name": "required",
          "type": "bytes4"
        }
      ],
      "name": "ListingStrategyMismatch",
      "type": "error"
    },
    {
      "inputs": [
        {
          "internalType": "bytes4",
          "name": "strategyId",
          "type": "bytes4"
        }
      ],
      "name": "UnregisteredListingStrategy",
      "type": "error"
    },
    {
      "anonymous": false,
      "inputs": [
        {
          "indexed": false,
          "internalType": "address",
          "name": "previousAdmin",
          "type": "address"
        },
        {
          "indexed": false,
          "internalType": "address",
          "name": "newAdmin",
          "type": "address"
        }
      ],
      "name": "AdminChanged",
      "type": "event"
    },
    {
      "anonymous": false,
      "inputs": [
        {
          "indexed": true,
          "internalType": "address",
          "name": "beacon",
          "type": "address"
        }
      ],
      "name": "BeaconUpgraded",
      "type": "event"
    },
    {
      "anonymous": false,
      "inputs": [
        {
          "indexed": true,
          "internalType": "bytes4",
          "name": "strategyId",
          "type": "bytes4"
        },
        {
          "indexed": true,
          "internalType": "address",
          "name": "newController",
          "type": "address"
        }
      ],
      "name": "ListingStrategyControllerChanged",
      "type": "event"
    },
    {
      "anonymous": false,
      "inputs": [
        {
          "indexed": true,
          "internalType": "bytes4",
          "name": "strategyId",
          "type": "bytes4"
        },
        {
          "indexed": true,
          "internalType": "address",
          "name": "controller",
          "type": "address"
        }
      ],
      "name": "ListingStrategyRegistered",
      "type": "event"
    },
    {
      "anonymous": false,
      "inputs": [
        {
          "indexed": true,
          "internalType": "address",
          "name": "implementation",
          "type": "address"
        }
      ],
      "name": "Upgraded",
      "type": "event"
    },
    {
      "inputs": [
        {
          "internalType": "bytes4",
          "name": "strategyId",
          "type": "bytes4"
        }
      ],
      "name": "checkRegisteredListingStrategy",
      "outputs": [],
      "stateMutability": "view",
      "type": "function"
    },
    {
      "inputs": [
        {
          "internalType": "address",
          "name": "acl",
          "type": "address"
        }
      ],
      "name": "initialize",
      "outputs": [],
      "stateMutability": "nonpayable",
      "type": "function"
    },
    {
      "inputs": [
        {
          "internalType": "bytes4",
          "name": "strategyId",
          "type": "bytes4"
        }
      ],
      "name": "isRegisteredListingStrategy",
      "outputs": [
        {
          "internalType": "bool",
          "name": "",
          "type": "bool"
        }
      ],
      "stateMutability": "view",
      "type": "function"
    },
    {
      "inputs": [
        {
          "internalType": "bytes4",
          "name": "strategyId",
          "type": "bytes4"
        }
      ],
      "name": "listingController",
      "outputs": [
        {
          "internalType": "address",
          "name": "",
          "type": "address"
        }
      ],
      "stateMutability": "view",
      "type": "function"
    },
    {
      "inputs": [
        {
          "internalType": "bytes4",
          "name": "strategyId",
          "type": "bytes4"
        }
      ],
      "name": "listingStrategy",
      "outputs": [
        {
          "components": [
            {
              "internalType": "address",
              "name": "controller",
              "type": "address"
            }
          ],
          "internalType": "struct IListingStrategyRegistry.StrategyConfig",
          "name": "",
          "type": "tuple"
        }
      ],
      "stateMutability": "view",
      "type": "function"
    },
    {
      "inputs": [],
      "name": "proxiableUUID",
      "outputs": [
        {
          "internalType": "bytes32",
          "name": "",
          "type": "bytes32"
        }
      ],
      "stateMutability": "view",
      "type": "function"
    },
    {
      "inputs": [
        {
          "internalType": "bytes4",
          "name": "strategyId",
          "type": "bytes4"
        },
        {
          "components": [
            {
              "internalType": "address",
              "name": "controller",
              "type": "address"
            }
          ],
          "internalType": "struct IListingStrategyRegistry.StrategyConfig",
          "name": "config",
          "type": "tuple"
        }
      ],
      "name": "registerListingStrategy",
      "outputs": [],
      "stateMutability": "nonpayable",
      "type": "function"
    },
    {
      "inputs": [
        {
          "internalType": "bytes4",
          "name": "strategyId",
          "type": "bytes4"
        },
        {
          "internalType": "address",
          "name": "controller",
          "type": "address"
        }
      ],
      "name": "setListingController",
      "outputs": [],
      "stateMutability": "nonpayable",
      "type": "function"
    },
    {
      "inputs": [
        {
          "internalType": "address",
          "name": "newImplementation",
          "type": "address"
        }
      ],
      "name": "upgradeTo",
      "outputs": [],
      "stateMutability": "nonpayable",
      "type": "function"
    },
    {
      "inputs": [
        {
          "internalType": "address",
          "name": "newImplementation",
          "type": "address"
        },
        {
          "internalType": "bytes",
          "name": "data",
          "type": "bytes"
        }
      ],
      "name": "upgradeToAndCall",
      "outputs": [],
      "stateMutability": "payable",
      "type": "function"
    }
  ],
  "bytecode": "0x60a06040523060805234801561001457600080fd5b50600054610100900460ff166100305760005460ff1615610038565b6100386100d9565b61009f5760405162461bcd60e51b815260206004820152602e60248201527f496e697469616c697a61626c653a20636f6e747261637420697320616c72656160448201526d191e481a5b9a5d1a585b1a5e995960921b606482015260840160405180910390fd5b600054610100900460ff161580156100c1576000805461ffff19166101011790555b80156100d3576000805461ff00191690555b50610103565b60006100ee306100f460201b6108841760201c565b15905090565b6001600160a01b03163b151590565b6080516113116200013b600039600081816102440152818161028d0152818161046b015281816104ab015261053e01526113116000f3fe6080604052600436106100915760003560e01c806352d9a2c91161005957806352d9a2c914610143578063c4d66de81461017b578063c8f249cc1461019b578063c94d3be6146101bb578063d6324606146101db57600080fd5b80631582016d146100965780633659cfe6146100cb578063441e3fc6146100ed5780634f1ef2861461010d57806352d1902d14610120575b600080fd5b3480156100a257600080fd5b506100b66100b1366004610f5d565b610213565b60405190151581526020015b60405180910390f35b3480156100d757600080fd5b506100eb6100e6366004610f8f565b61023a565b005b3480156100f957600080fd5b506100eb610108366004610fac565b610322565b6100eb61011b366004611003565b610461565b34801561012c57600080fd5b50610135610531565b6040519081526020016100c2565b34801561014f57600080fd5b5061016361015e366004610f5d565b6105e4565b60405190516001600160a01b031681526020016100c2565b34801561018757600080fd5b506100eb610196366004610f8f565b610633565b3480156101a757600080fd5b506100eb6101b63660046110c7565b61070f565b3480156101c757600080fd5b506100eb6101d6366004610f5d565b61081f565b3480156101e757600080fd5b506101fb6101f6366004610f5d565b610851565b6040516001600160a01b0390911681526020016100c2565b6001600160e01b0319166000908152609860205260409020546001600160a01b0316151590565b6001600160a01b037f000000000000000000000000000000000000000000000000000000000000000016300361028b5760405162461bcd60e51b815260040161028290611100565b60405180910390fd5b7f00000000000000000000000000000000000000000000000000000000000000006001600160a01b03166102d4600080516020611295833981519152546001600160a01b031690565b6001600160a01b0316146102fa5760405162461bcd60e51b81526004016102829061114c565b61030381610893565b6040805160008082526020820190925261031f91839190610910565b50565b6097546001600160a01b03166001600160a01b03166312d9a6ad6000336040516001600160e01b031960e085901b16815260048101929092526001600160a01b0316602482015260440160006040518083038186803b15801561038457600080fd5b505afa158015610398573d6000803e3d6000fd5b506103b592508491506103b090506020840184610f8f565b610a80565b6103be82610213565b156103e8576040516301dfbfcd60e11b81526001600160e01b031983166004820152602401610282565b6001600160e01b031982166000908152609860205260409020819061040d8282611198565b5061041d90506020820182610f8f565b6001600160a01b0316826001600160e01b0319167fd4617075a3f4d736889329108102247ce46fae9247c3be2faa7dca3d4d59c6c460405160405180910390a35050565b6001600160a01b037f00000000000000000000000000000000000000000000000000000000000000001630036104a95760405162461bcd60e51b815260040161028290611100565b7f00000000000000000000000000000000000000000000000000000000000000006001600160a01b03166104f2600080516020611295833981519152546001600160a01b031690565b6001600160a01b0316146105185760405162461bcd60e51b81526004016102829061114c565b61052182610893565b61052d82826001610910565b5050565b6000306001600160a01b037f000000000000000000000000000000000000000000000000000000000000000016146105d15760405162461bcd60e51b815260206004820152603860248201527f555550535570677261646561626c653a206d757374206e6f742062652063616c60448201527f6c6564207468726f7567682064656c656761746563616c6c00000000000000006064820152608401610282565b5060008051602061129583398151915290565b604080516020810190915260008152816105fd8161081f565b50506001600160e01b031916600090815260986020908152604091829020825191820190925290546001600160a01b0316815290565b600054610100900460ff1661064e5760005460ff1615610652565b303b155b6106b55760405162461bcd60e51b815260206004820152602e60248201527f496e697469616c697a61626c653a20636f6e747261637420697320616c72656160448201526d191e481a5b9a5d1a585b1a5e995960921b6064820152608401610282565b600054610100900460ff161580156106d7576000805461ffff19166101011790555b6106df610b5e565b609780546001600160a01b0319166001600160a01b038416179055801561052d576000805461ff00191690555050565b6097546001600160a01b03166001600160a01b03166312d9a6ad7f060c8eced3c6b422fe5573c862b67b9f6e25a3fc7d9543b14f7aee77b138e70d336040516001600160e01b031960e085901b16815260048101929092526001600160a01b0316602482015260440160006040518083038186803b15801561079057600080fd5b505afa1580156107a4573d6000803e3d6000fd5b50505050816107b28161081f565b6107bc8383610a80565b6001600160e01b0319831660008181526098602052604080822080546001600160a01b0319166001600160a01b03871690811790915590519092917f809a4d189cd54182a3cd3512e88f54fcbc7a8e56c4ebdd67d37e5985a521e70591a3505050565b61082881610213565b61031f57604051631e34d40b60e01b81526001600160e01b031982166004820152602401610282565b60008161085d8161081f565b50506001600160e01b0319166000908152609860205260409020546001600160a01b031690565b6001600160a01b03163b151590565b6097546001600160a01b03166001600160a01b03166312d9a6ad6000336040516001600160e01b031960e085901b16815260048101929092526001600160a01b0316602482015260440160006040518083038186803b1580156108f557600080fd5b505afa158015610909573d6000803e3d6000fd5b5050505050565b7f4910fdfa16fed3260ed0e7147f7cc6da11a60208b5b9406d12a635614ffd91435460ff16156109485761094383610bcb565b505050565b826001600160a01b03166352d1902d6040518163ffffffff1660e01b8152600401602060405180830381865afa9250505080156109a2575060408051601f3d908101601f1916820190925261099f918101906111c1565b60015b610a055760405162461bcd60e51b815260206004820152602e60248201527f45524331393637557067726164653a206e657720696d706c656d656e7461746960448201526d6f6e206973206e6f74205555505360901b6064820152608401610282565b6000805160206112958339815191528114610a745760405162461bcd60e51b815260206004820152602960248201527f45524331393637557067726164653a20756e737570706f727465642070726f786044820152681a58589b195555525160ba1b6064820152608401610282565b50610943838383610c67565b610a9a6001600160a01b0382166301ff9c1f60e11b610c92565b610ab757604051637a0825c160e11b815260040160405180910390fd5b6000816001600160a01b031663492f4e186040518163ffffffff1660e01b8152600401602060405180830381865afa158015610af7573d6000803e3d6000fd5b505050506040513d601f19601f82011682018060405250810190610b1b91906111da565b90506001600160e01b0319808216908416146109435760405163dc5b665760e01b81526001600160e01b0319808316600483015284166024820152604401610282565b600054610100900460ff16610bc95760405162461bcd60e51b815260206004820152602b60248201527f496e697469616c697a61626c653a20636f6e7472616374206973206e6f74206960448201526a6e697469616c697a696e6760a81b6064820152608401610282565b565b6001600160a01b0381163b610c385760405162461bcd60e51b815260206004820152602d60248201527f455243313936373a206e657720696d706c656d656e746174696f6e206973206e60448201526c1bdd08184818dbdb9d1c9858dd609a1b6064820152608401610282565b60008051602061129583398151915280546001600160a01b0319166001600160a01b0392909216919091179055565b610c7083610cb7565b600082511180610c7d5750805b1561094357610c8c8383610cf7565b50505050565b6000610c9d83610deb565b8015610cae5750610cae8383610e1e565b90505b92915050565b610cc081610bcb565b6040516001600160a01b038216907fbc7cd75a20ee27fd9adebab32041f755214dbc6bffa90cc0225b39da2e5c2d3b90600090a250565b60606001600160a01b0383163b610d5f5760405162461bcd60e51b815260206004820152602660248201527f416464726573733a2064656c65676174652063616c6c20746f206e6f6e2d636f6044820152651b9d1c9858dd60d21b6064820152608401610282565b600080846001600160a01b031684604051610d7a9190611223565b600060405180830381855af49150503d8060008114610db5576040519150601f19603f3d011682016040523d82523d6000602084013e610dba565b606091505b5091509150610de282826040518060600160405280602781526020016112b560279139610f07565b95945050505050565b6000610dfe826301ffc9a760e01b610e1e565b8015610cb15750610e17826001600160e01b0319610e1e565b1592915050565b604080516001600160e01b0319831660248083019190915282518083039091018152604490910182526020810180516001600160e01b03166301ffc9a760e01b179052905160009190829081906001600160a01b0387169061753090610e85908690611223565b6000604051808303818686fa925050503d8060008114610ec1576040519150601f19603f3d011682016040523d82523d6000602084013e610ec6565b606091505b5091509150602081511015610ee15760009350505050610cb1565b818015610efd575080806020019051810190610efd919061123f565b9695505050505050565b60608315610f16575081610f40565b825115610f265782518084602001fd5b8160405162461bcd60e51b81526004016102829190611261565b9392505050565b6001600160e01b03198116811461031f57600080fd5b600060208284031215610f6f57600080fd5b8135610f4081610f47565b6001600160a01b038116811461031f57600080fd5b600060208284031215610fa157600080fd5b8135610f4081610f7a565b6000808284036040811215610fc057600080fd5b8335610fcb81610f47565b92506020601f1982011215610fdf57600080fd5b506020830190509250929050565b634e487b7160e01b600052604160045260246000fd5b6000806040838503121561101657600080fd5b823561102181610f7a565b9150602083013567ffffffffffffffff8082111561103e57600080fd5b818501915085601f83011261105257600080fd5b81358181111561106457611064610fed565b604051601f8201601f19908116603f0116810190838211818310171561108c5761108c610fed565b816040528281528860208487010111156110a557600080fd5b8260208601602083013760006020848301015280955050505050509250929050565b600080604083850312156110da57600080fd5b82356110e581610f47565b915060208301356110f581610f7a565b809150509250929050565b6020808252602c908201527f46756e6374696f6e206d7573742062652063616c6c6564207468726f7567682060408201526b19195b1959d85d1958d85b1b60a21b606082015260800190565b6020808252602c908201527f46756e6374696f6e206d7573742062652063616c6c6564207468726f7567682060408201526b6163746976652070726f787960a01b606082015260800190565b81356111a381610f7a565b81546001600160a01b0319166001600160a01b039190911617905550565b6000602082840312156111d357600080fd5b5051919050565b6000602082840312156111ec57600080fd5b8151610f4081610f47565b60005b838110156112125781810151838201526020016111fa565b83811115610c8c5750506000910152565b600082516112358184602087016111f7565b9190910192915050565b60006020828403121561125157600080fd5b81518015158114610f4057600080fd5b60208152600082518060208401526112808160408501602087016111f7565b601f01601f1916919091016040019291505056fe360894a13ba1a3210667c828492db98dca3e2076cc3735a920a3ca505d382bbc416464726573733a206c6f772d6c6576656c2064656c65676174652063616c6c206661696c6564a26469706673582212205c5ae93151545cb66bf5be975fcdd05ad9ccf3d4826be61d8891c79572754e2564736f6c634300080d0033",
  "linkReferences": {},
  "deployedLinkReferences": {}
}