{
  "address": "0xac7A1dA3aBCd700C17De85e4c6f9240C3f418574",
  "abi": [
    {
      "inputs": [
        {
          "internalType": "address",
          "name": "operator",
          "type": "address"
        },
        {
          "internalType": "address",
          "name": "acl",
          "type": "address"
        }
      ],
      "stateMutability": "nonpayable",
      "type": "constructor"
    },
    {
      "inputs": [],
      "name": "AssetDepositIsNotAllowed",
      "type": "error"
    },
    {
      "inputs": [],
      "name": "AssetNotFound",
      "type": "error"
    },
    {
      "inputs": [],
      "name": "AssetReturnIsNotAllowed",
      "type": "error"
    },
    {
      "inputs": [],
      "name": "VaultIsInRecoveryMode",
      "type": "error"
    },
    {
      "anonymous": false,
      "inputs": [
        {
          "indexed": false,
          "internalType": "address",
          "name": "account",
          "type": "address"
        }
      ],
      "name": "Paused",
      "type": "event"
    },
    {
      "anonymous": false,
      "inputs": [
        {
          "indexed": false,
          "internalType": "address",
          "name": "account",
          "type": "address"
        }
      ],
      "name": "RecoveryModeActivated",
      "type": "event"
    },
    {
      "anonymous": false,
      "inputs": [
        {
          "indexed": false,
          "internalType": "address",
          "name": "account",
          "type": "address"
        }
      ],
      "name": "Unpaused",
      "type": "event"
    },
    {
      "inputs": [],
      "name": "assetClass",
      "outputs": [
        {
          "internalType": "bytes4",
          "name": "",
          "type": "bytes4"
        }
      ],
      "stateMutability": "pure",
      "type": "function"
    },
    {
      "inputs": [],
      "name": "isRecovery",
      "outputs": [
        {
          "internalType": "bool",
          "name": "",
          "type": "bool"
        }
      ],
      "stateMutability": "view",
      "type": "function"
    },
    {
      "inputs": [],
      "name": "metahub",
      "outputs": [
        {
          "internalType": "address",
          "name": "",
          "type": "address"
        }
      ],
      "stateMutability": "view",
      "type": "function"
    },
    {
      "inputs": [
        {
          "internalType": "address",
          "name": "operator",
          "type": "address"
        },
        {
          "internalType": "address",
          "name": "from",
          "type": "address"
        },
        {
          "internalType": "uint256",
          "name": "tokenId",
          "type": "uint256"
        },
        {
          "internalType": "bytes",
          "name": "",
          "type": "bytes"
        }
      ],
      "name": "onERC721Received",
      "outputs": [
        {
          "internalType": "bytes4",
          "name": "",
          "type": "bytes4"
        }
      ],
      "stateMutability": "nonpayable",
      "type": "function"
    },
    {
      "inputs": [],
      "name": "pause",
      "outputs": [],
      "stateMutability": "nonpayable",
      "type": "function"
    },
    {
      "inputs": [],
      "name": "paused",
      "outputs": [
        {
          "internalType": "bool",
          "name": "",
          "type": "bool"
        }
      ],
      "stateMutability": "view",
      "type": "function"
    },
    {
      "inputs": [
        {
          "internalType": "address",
          "name": "token",
          "type": "address"
        },
        {
          "internalType": "uint256",
          "name": "tokenId",
          "type": "uint256"
        }
      ],
      "name": "returnToOwner",
      "outputs": [],
      "stateMutability": "nonpayable",
      "type": "function"
    },
    {
      "inputs": [
        {
          "internalType": "bytes4",
          "name": "interfaceId",
          "type": "bytes4"
        }
      ],
      "name": "supportsInterface",
      "outputs": [
        {
          "internalType": "bool",
          "name": "",
          "type": "bool"
        }
      ],
      "stateMutability": "view",
      "type": "function"
    },
    {
      "inputs": [],
      "name": "switchToRecoveryMode",
      "outputs": [],
      "stateMutability": "nonpayable",
      "type": "function"
    },
    {
      "inputs": [],
      "name": "unpause",
      "outputs": [],
      "stateMutability": "nonpayable",
      "type": "function"
    },
    {
      "inputs": [
        {
          "internalType": "contract IERC20",
          "name": "token",
          "type": "address"
        },
        {
          "internalType": "address",
          "name": "to",
          "type": "address"
        },
        {
          "internalType": "uint256",
          "name": "amount",
          "type": "uint256"
        }
      ],
      "name": "withdrawERC20Tokens",
      "outputs": [],
      "stateMutability": "nonpayable",
      "type": "function"
    }
  ],
  "transactionHash": "0x4ef88cbb4e0705e13ce892093d48a66540316cc25a6d90e5b1c1fc142792c922",
  "args": [
    "0x0D27eF3984D8B7772C83FA82A68c18D5a13F4E1d",
    "0x853Ddb5A8f8e2ab07eED3D4ab7f150Bdd630c120"
  ],
  "numDeployments": 1,
  "solcInputHash": "fb9c58b7901af5838d59c545c334f975",
  "bytecode": "0x608060405234801561001057600080fd5b50604051610d87380380610d8783398101604081905261002f91610086565b600080546001600160b01b031916620100006001600160a01b0394851602179055600180546001600160a01b031916919092161790556100b9565b80516001600160a01b038116811461008157600080fd5b919050565b6000806040838503121561009957600080fd5b6100a28361006a565b91506100b06020840161006a565b90509250929050565b610cbf806100c86000396000f3fe608060405234801561001057600080fd5b50600436106100a95760003560e01c8063790317e111610071578063790317e1146101415780637f63fe95146101495780638456cb591461015957806386c9de0514610161578063bcdd1e1314610187578063be2b9a791461019a57600080fd5b806301ffc9a7146100ae578063150b7a02146100d6578063183a7a05146101025780633f4ba83a1461012c5780635c975abb14610136575b600080fd5b6100c16100bc366004610a9a565b6101ad565b60405190151581526020015b60405180910390f35b6100e96100e4366004610adc565b6101d8565b6040516001600160e01b031990911681526020016100cd565b6000546201000090046001600160a01b03166040516001600160a01b0390911681526020016100cd565b61013461027f565b005b60005460ff166100c1565b61013461034d565b600054610100900460ff166100c1565b610134610446565b7f73ad2146b3d3a286642c794379d750360a2d53a3459a11b3e5d6cc900f55f44a6100e9565b610134610195366004610b7b565b610512565b6101346101a8366004610bbc565b6105a6565b60006001600160e01b0319821663be2b9a7960e01b14806101d257506101d2826106db565b92915050565b6000805486906001600160a01b038083166201000090920416148015610201575060005460ff16155b80156102155750600054610100900460ff16155b1561025c57336000908152600260209081526040808320888452909152902080546001600160a01b0319166001600160a01b038816179055630a85bd0160e11b9150610275565b6040516313297ca960e31b815260040160405180910390fd5b5095945050505050565b6001546001600160a01b03166001600160a01b03166312d9a6ad7f060c8eced3c6b422fe5573c862b67b9f6e25a3fc7d9543b14f7aee77b138e70d336040516001600160e01b031960e085901b16815260048101929092526001600160a01b0316602482015260440160006040518083038186803b15801561030057600080fd5b505afa158015610314573d6000803e3d6000fd5b5050600054610100900460ff16159150610343905057604051639a2b7b7760e01b815260040160405180910390fd5b61034b610710565b565b6001546001600160a01b03166001600160a01b03166312d9a6ad6000336040516001600160e01b031960e085901b16815260048101929092526001600160a01b0316602482015260440160006040518083038186803b1580156103af57600080fd5b505afa1580156103c3573d6000803e3d6000fd5b5050600054610100900460ff161591506103f2905057604051639a2b7b7760e01b815260040160405180910390fd5b6000805461ff0019166101001790557f197ee50d3254fb768e6c3ed8f87fee7c1ae45c7eee0d24d41b1c90933678cf866104293390565b6040516001600160a01b03909116815260200160405180910390a1565b6001546001600160a01b03166001600160a01b03166312d9a6ad7f060c8eced3c6b422fe5573c862b67b9f6e25a3fc7d9543b14f7aee77b138e70d336040516001600160e01b031960e085901b16815260048101929092526001600160a01b0316602482015260440160006040518083038186803b1580156104c757600080fd5b505afa1580156104db573d6000803e3d6000fd5b5050600054610100900460ff1615915061050a905057604051639a2b7b7760e01b815260040160405180910390fd5b61034b61078f565b6001546001600160a01b03166001600160a01b03166312d9a6ad6000336040516001600160e01b031960e085901b16815260048101929092526001600160a01b0316602482015260440160006040518083038186803b15801561057457600080fd5b505afa158015610588573d6000803e3d6000fd5b506105a1925050506001600160a01b038416838361080a565b505050565b6000546201000090046001600160a01b0316336001600160a01b03161480156105d2575060005460ff16155b806105e45750600054610100900460ff165b156106c2576001600160a01b038083166000908152600260209081526040808320858452909152902054168061062d5760405163470cbf4760e01b815260040160405180910390fd5b6001600160a01b0383811660008181526002602090815260408083208784529091529081902080546001600160a01b0319169055516323b872dd60e01b8152306004820152918316602483015260448201849052906323b872dd90606401600060405180830381600087803b1580156106a557600080fd5b505af11580156106b9573d6000803e3d6000fd5b50505050505050565b604051631c133bbf60e11b815260040160405180910390fd5b60006001600160e01b031982166327d4cc0160e21b14806101d257506301ffc9a760e01b6001600160e01b03198316146101d2565b60005460ff1661075e5760405162461bcd60e51b815260206004820152601460248201527314185d5cd8589b194e881b9bdd081c185d5cd95960621b60448201526064015b60405180910390fd5b6000805460ff191690557f5db9ee0a495bf2e6ff9c91a7834c1ba4fdd244a5e8aa4e537bd38aeae4b073aa33610429565b60005460ff16156107d55760405162461bcd60e51b815260206004820152601060248201526f14185d5cd8589b194e881c185d5cd95960821b6044820152606401610755565b6000805460ff191660011790557f62e78cea01bee320cd4e420270b5ea74000d11b0c9f74754ebdbfc544b05a2586104293390565b604080516001600160a01b03848116602483015260448083018590528351808403909101815260649092018352602080830180516001600160e01b031663a9059cbb60e01b17905283518085019094528084527f5361666545524332303a206c6f772d6c6576656c2063616c6c206661696c6564908401526105a19286929160009161089a918516908490610917565b8051909150156105a157808060200190518101906108b89190610be8565b6105a15760405162461bcd60e51b815260206004820152602a60248201527f5361666545524332303a204552433230206f7065726174696f6e20646964206e6044820152691bdd081cdd58d8d9595960b21b6064820152608401610755565b60606109268484600085610930565b90505b9392505050565b6060824710156109915760405162461bcd60e51b815260206004820152602660248201527f416464726573733a20696e73756666696369656e742062616c616e636520666f6044820152651c8818d85b1b60d21b6064820152608401610755565b6001600160a01b0385163b6109e85760405162461bcd60e51b815260206004820152601d60248201527f416464726573733a2063616c6c20746f206e6f6e2d636f6e74726163740000006044820152606401610755565b600080866001600160a01b03168587604051610a049190610c3a565b60006040518083038185875af1925050503d8060008114610a41576040519150601f19603f3d011682016040523d82523d6000602084013e610a46565b606091505b5091509150610a56828286610a61565b979650505050505050565b60608315610a70575081610929565b825115610a805782518084602001fd5b8160405162461bcd60e51b81526004016107559190610c56565b600060208284031215610aac57600080fd5b81356001600160e01b03198116811461092957600080fd5b6001600160a01b0381168114610ad957600080fd5b50565b600080600080600060808688031215610af457600080fd5b8535610aff81610ac4565b94506020860135610b0f81610ac4565b935060408601359250606086013567ffffffffffffffff80821115610b3357600080fd5b818801915088601f830112610b4757600080fd5b813581811115610b5657600080fd5b896020828501011115610b6857600080fd5b9699959850939650602001949392505050565b600080600060608486031215610b9057600080fd5b8335610b9b81610ac4565b92506020840135610bab81610ac4565b929592945050506040919091013590565b60008060408385031215610bcf57600080fd5b8235610bda81610ac4565b946020939093013593505050565b600060208284031215610bfa57600080fd5b8151801515811461092957600080fd5b60005b83811015610c25578181015183820152602001610c0d565b83811115610c34576000848401525b50505050565b60008251610c4c818460208701610c0a565b9190910192915050565b6020815260008251806020840152610c75816040850160208701610c0a565b601f01601f1916919091016040019291505056fea2646970667358221220109f5b1cfd0678d8cb32644cd286261eb1587ff258d75170ba0d660b4d838af864736f6c634300080d0033",
  "devdoc": {
    "errors": {
      "AssetDepositIsNotAllowed()": [
        {
          "details": "Thrown when the asset deposit is not allowed, due to the vault state or the caller permissions."
        }
      ],
      "AssetNotFound()": [
        {
          "details": "Thrown when the asset is not is found among vault inventory."
        }
      ],
      "AssetReturnIsNotAllowed()": [
        {
          "details": "Thrown when the asset return is not allowed, due to the vault state or the caller permissions."
        }
      ],
      "VaultIsInRecoveryMode()": [
        {
          "details": "Thrown when the function is called on the vault in recovery mode."
        }
      ]
    },
    "kind": "dev",
    "methods": {
      "assetClass()": {
        "details": "Returns vault asset class.",
        "returns": {
          "_0": "Asset class ID."
        }
      },
      "constructor": {
        "details": "Constructor.",
        "params": {
          "acl": "ACL contract address",
          "operator": "First operator account."
        }
      },
      "isRecovery()": {
        "details": "Returns vault recovery mode flag state.",
        "returns": {
          "_0": "True when the vault is in recovery mode."
        }
      },
      "metahub()": {
        "details": "Returns the Metahub address."
      },
      "onERC721Received(address,address,uint256,bytes)": {
        "details": "Whenever an {IERC721} `tokenId` token is transferred to this contract via {IERC721-safeTransferFrom} by `operator` from `from`, this function is called. It must return its Solidity selector to confirm the token transfer. If any other value is returned or the interface is not implemented by the recipient, the transfer will be reverted. The selector can be obtained in Solidity with `IERC721Receiver.onERC721Received.selector`."
      },
      "pause()": {
        "details": "Pauses the vault."
      },
      "paused()": {
        "details": "Returns true if the contract is paused, and false otherwise."
      },
      "returnToOwner(address,uint256)": {
        "details": "Transfers the asset to the original owner, registered upon deposit. NOTE: The asset is always returns to the owner. There is no way to send the `asset` to an arbitrary address.",
        "params": {
          "token": "Token address.",
          "tokenId": "Token ID."
        }
      },
      "supportsInterface(bytes4)": {
        "details": "Returns true if this contract implements the interface defined by `interfaceId`. See the corresponding https://eips.ethereum.org/EIPS/eip-165#how-interfaces-are-identified[EIP section] to learn more about how these ids are created. This function call must use less than 30 000 gas."
      },
      "switchToRecoveryMode()": {
        "details": "Activates asset recovery mode. Emits a {RecoveryModeActivated} event."
      },
      "unpause()": {
        "details": "Unpauses the vault."
      }
    },
    "stateVariables": {
      "_inventory": {
        "details": "Vault inventory Mapping token address -> token ID -> owner."
      }
    },
    "version": 1
  },
  "userdoc": {
    "kind": "user",
    "methods": {
      "withdrawERC20Tokens(address,address,uint256)": {
        "notice": "Send ERC20 tokens to an address."
      }
    },
    "version": 1
  },
  "storageLayout": {
    "storage": [
      {
        "astId": 4829,
        "contract": "contracts/asset/ERC721/ERC721AssetVault.sol:ERC721AssetVault",
        "label": "_paused",
        "offset": 0,
        "slot": "0",
        "type": "t_bool"
      },
      {
        "astId": 9097,
        "contract": "contracts/asset/ERC721/ERC721AssetVault.sol:ERC721AssetVault",
        "label": "_recovery",
        "offset": 1,
        "slot": "0",
        "type": "t_bool"
      },
      {
        "astId": 9100,
        "contract": "contracts/asset/ERC721/ERC721AssetVault.sol:ERC721AssetVault",
        "label": "_metahub",
        "offset": 2,
        "slot": "0",
        "type": "t_address"
      },
      {
        "astId": 9104,
        "contract": "contracts/asset/ERC721/ERC721AssetVault.sol:ERC721AssetVault",
        "label": "_aclContract",
        "offset": 0,
        "slot": "1",
        "type": "t_contract(IACL)8692"
      },
      {
        "astId": 10089,
        "contract": "contracts/asset/ERC721/ERC721AssetVault.sol:ERC721AssetVault",
        "label": "_inventory",
        "offset": 0,
        "slot": "2",
        "type": "t_mapping(t_address,t_mapping(t_uint256,t_address))"
      }
    ],
    "types": {
      "t_address": {
        "encoding": "inplace",
        "label": "address",
        "numberOfBytes": "20"
      },
      "t_bool": {
        "encoding": "inplace",
        "label": "bool",
        "numberOfBytes": "1"
      },
      "t_contract(IACL)8692": {
        "encoding": "inplace",
        "label": "contract IACL",
        "numberOfBytes": "20"
      },
      "t_mapping(t_address,t_mapping(t_uint256,t_address))": {
        "encoding": "mapping",
        "key": "t_address",
        "label": "mapping(address => mapping(uint256 => address))",
        "numberOfBytes": "32",
        "value": "t_mapping(t_uint256,t_address)"
      },
      "t_mapping(t_uint256,t_address)": {
        "encoding": "mapping",
        "key": "t_uint256",
        "label": "mapping(uint256 => address)",
        "numberOfBytes": "32",
        "value": "t_address"
      },
      "t_uint256": {
        "encoding": "inplace",
        "label": "uint256",
        "numberOfBytes": "32"
      }
    }
  }
}