{
  "address": "0x142aE7Db67b631D308196FA887cFA0Ab0020D748",
  "abi": [
    {
      "inputs": [],
      "name": "AlreadyRented",
      "type": "error"
    },
    {
      "inputs": [
        {
          "internalType": "bytes4",
          "name": "provided",
          "type": "bytes4"
        },
        {
          "internalType": "bytes4",
          "name": "required",
          "type": "bytes4"
        }
      ],
      "name": "AssetClassMismatch",
      "type": "error"
    },
    {
      "inputs": [
        {
          "internalType": "string",
          "name": "reason",
          "type": "string"
        }
      ],
      "name": "AssetIsNotRentable",
      "type": "error"
    },
    {
      "inputs": [],
      "name": "FunctionMustBeCalledThroughDelegatecall",
      "type": "error"
    },
    {
      "inputs": [],
      "name": "IncompatibleWarperInterface",
      "type": "error"
    },
    {
      "inputs": [
        {
          "internalType": "address",
          "name": "warper",
          "type": "address"
        },
        {
          "internalType": "address",
          "name": "asset",
          "type": "address"
        }
      ],
      "name": "InvalidAssetForWarper",
      "type": "error"
    },
    {
      "inputs": [
        {
          "internalType": "uint256",
          "name": "value",
          "type": "uint256"
        }
      ],
      "name": "InvalidERC721Value",
      "type": "error"
    },
    {
      "inputs": [
        {
          "internalType": "uint256",
          "name": "currentTime",
          "type": "uint256"
        },
        {
          "internalType": "uint32",
          "name": "availabilityPeriodStart",
          "type": "uint32"
        },
        {
          "internalType": "uint32",
          "name": "availabilityPeriodEnd",
          "type": "uint32"
        }
      ],
      "name": "WarperIsNotAvailableForRenting",
      "type": "error"
    },
    {
      "inputs": [
        {
          "internalType": "uint32",
          "name": "requestedRentalPeriod",
          "type": "uint32"
        },
        {
          "internalType": "uint32",
          "name": "minRentalPeriod",
          "type": "uint32"
        },
        {
          "internalType": "uint32",
          "name": "maxRentalPeriod",
          "type": "uint32"
        }
      ],
      "name": "WarperRentalPeriodIsOutOfRange",
      "type": "error"
    },
    {
      "anonymous": false,
      "inputs": [
        {
          "components": [
            {
              "components": [
                {
                  "internalType": "bytes4",
                  "name": "class",
                  "type": "bytes4"
                },
                {
                  "internalType": "bytes",
                  "name": "data",
                  "type": "bytes"
                }
              ],
              "internalType": "struct Assets.AssetId",
              "name": "id",
              "type": "tuple"
            },
            {
              "internalType": "uint256",
              "name": "value",
              "type": "uint256"
            }
          ],
          "indexed": false,
          "internalType": "struct Assets.Asset",
          "name": "asset",
          "type": "tuple"
        },
        {
          "indexed": true,
          "internalType": "address",
          "name": "from",
          "type": "address"
        },
        {
          "indexed": true,
          "internalType": "address",
          "name": "to",
          "type": "address"
        },
        {
          "indexed": false,
          "internalType": "bytes",
          "name": "data",
          "type": "bytes"
        }
      ],
      "name": "AssetTransfer",
      "type": "event"
    },
    {
      "inputs": [],
      "name": "assetClass",
      "outputs": [
        {
          "internalType": "bytes4",
          "name": "",
          "type": "bytes4"
        }
      ],
      "stateMutability": "pure",
      "type": "function"
    },
    {
      "inputs": [
        {
          "components": [
            {
              "components": [
                {
                  "internalType": "bytes4",
                  "name": "class",
                  "type": "bytes4"
                },
                {
                  "internalType": "bytes",
                  "name": "data",
                  "type": "bytes"
                }
              ],
              "internalType": "struct Assets.AssetId",
              "name": "id",
              "type": "tuple"
            },
            {
              "internalType": "uint256",
              "name": "value",
              "type": "uint256"
            }
          ],
          "internalType": "struct Assets.Asset",
          "name": "asset",
          "type": "tuple"
        },
        {
          "components": [
            {
              "internalType": "uint256",
              "name": "listingId",
              "type": "uint256"
            },
            {
              "internalType": "address",
              "name": "warper",
              "type": "address"
            },
            {
              "internalType": "address",
              "name": "renter",
              "type": "address"
            },
            {
              "internalType": "uint32",
              "name": "rentalPeriod",
              "type": "uint32"
            },
            {
              "internalType": "address",
              "name": "paymentToken",
              "type": "address"
            }
          ],
          "internalType": "struct Rentings.Params",
          "name": "rentingParams",
          "type": "tuple"
        },
        {
          "internalType": "uint256",
          "name": "universeFee",
          "type": "uint256"
        },
        {
          "internalType": "uint256",
          "name": "listerFee",
          "type": "uint256"
        }
      ],
      "name": "calculatePremiums",
      "outputs": [
        {
          "internalType": "uint256",
          "name": "universePremium",
          "type": "uint256"
        },
        {
          "internalType": "uint256",
          "name": "listerPremium",
          "type": "uint256"
        }
      ],
      "stateMutability": "view",
      "type": "function"
    },
    {
      "inputs": [
        {
          "internalType": "address",
          "name": "warper",
          "type": "address"
        }
      ],
      "name": "checkCompatibleWarper",
      "outputs": [],
      "stateMutability": "view",
      "type": "function"
    },
    {
      "inputs": [
        {
          "components": [
            {
              "internalType": "bytes4",
              "name": "class",
              "type": "bytes4"
            },
            {
              "internalType": "bytes",
              "name": "data",
              "type": "bytes"
            }
          ],
          "internalType": "struct Assets.AssetId",
          "name": "assetId",
          "type": "tuple"
        }
      ],
      "name": "collectionId",
      "outputs": [
        {
          "internalType": "bytes32",
          "name": "",
          "type": "bytes32"
        }
      ],
      "stateMutability": "pure",
      "type": "function"
    },
    {
      "inputs": [
        {
          "internalType": "address",
          "name": "warper",
          "type": "address"
        }
      ],
      "name": "isCompatibleWarper",
      "outputs": [
        {
          "internalType": "bool",
          "name": "",
          "type": "bool"
        }
      ],
      "stateMutability": "view",
      "type": "function"
    },
    {
      "inputs": [
        {
          "internalType": "address",
          "name": "metahub",
          "type": "address"
        },
        {
          "internalType": "address",
          "name": "warper",
          "type": "address"
        },
        {
          "internalType": "address",
          "name": "renter",
          "type": "address"
        }
      ],
      "name": "rentalBalance",
      "outputs": [
        {
          "internalType": "uint256",
          "name": "",
          "type": "uint256"
        }
      ],
      "stateMutability": "view",
      "type": "function"
    },
    {
      "inputs": [
        {
          "internalType": "address",
          "name": "metahub",
          "type": "address"
        },
        {
          "internalType": "address",
          "name": "warper",
          "type": "address"
        },
        {
          "internalType": "uint256",
          "name": "tokenId",
          "type": "uint256"
        }
      ],
      "name": "rentalStatus",
      "outputs": [
        {
          "internalType": "enum Rentings.RentalStatus",
          "name": "",
          "type": "uint8"
        }
      ],
      "stateMutability": "view",
      "type": "function"
    },
    {
      "inputs": [
        {
          "components": [
            {
              "components": [
                {
                  "internalType": "bytes4",
                  "name": "class",
                  "type": "bytes4"
                },
                {
                  "internalType": "bytes",
                  "name": "data",
                  "type": "bytes"
                }
              ],
              "internalType": "struct Assets.AssetId",
              "name": "id",
              "type": "tuple"
            },
            {
              "internalType": "uint256",
              "name": "value",
              "type": "uint256"
            }
          ],
          "internalType": "struct Assets.Asset",
          "name": "asset",
          "type": "tuple"
        },
        {
          "internalType": "address",
          "name": "vault",
          "type": "address"
        }
      ],
      "name": "returnAssetFromVault",
      "outputs": [],
      "stateMutability": "nonpayable",
      "type": "function"
    },
    {
      "inputs": [
        {
          "internalType": "bytes4",
          "name": "interfaceId",
          "type": "bytes4"
        }
      ],
      "name": "supportsInterface",
      "outputs": [
        {
          "internalType": "bool",
          "name": "",
          "type": "bool"
        }
      ],
      "stateMutability": "view",
      "type": "function"
    },
    {
      "inputs": [
        {
          "components": [
            {
              "components": [
                {
                  "internalType": "bytes4",
                  "name": "class",
                  "type": "bytes4"
                },
                {
                  "internalType": "bytes",
                  "name": "data",
                  "type": "bytes"
                }
              ],
              "internalType": "struct Assets.AssetId",
              "name": "id",
              "type": "tuple"
            },
            {
              "internalType": "uint256",
              "name": "value",
              "type": "uint256"
            }
          ],
          "internalType": "struct Assets.Asset",
          "name": "asset",
          "type": "tuple"
        },
        {
          "internalType": "address",
          "name": "from",
          "type": "address"
        },
        {
          "internalType": "address",
          "name": "to",
          "type": "address"
        },
        {
          "internalType": "bytes",
          "name": "data",
          "type": "bytes"
        }
      ],
      "name": "transfer",
      "outputs": [],
      "stateMutability": "nonpayable",
      "type": "function"
    },
    {
      "inputs": [
        {
          "components": [
            {
              "components": [
                {
                  "internalType": "bytes4",
                  "name": "class",
                  "type": "bytes4"
                },
                {
                  "internalType": "bytes",
                  "name": "data",
                  "type": "bytes"
                }
              ],
              "internalType": "struct Assets.AssetId",
              "name": "id",
              "type": "tuple"
            },
            {
              "internalType": "uint256",
              "name": "value",
              "type": "uint256"
            }
          ],
          "internalType": "struct Assets.Asset",
          "name": "asset",
          "type": "tuple"
        },
        {
          "internalType": "address",
          "name": "assetOwner",
          "type": "address"
        },
        {
          "internalType": "address",
          "name": "vault",
          "type": "address"
        }
      ],
      "name": "transferAssetToVault",
      "outputs": [],
      "stateMutability": "nonpayable",
      "type": "function"
    },
    {
      "inputs": [
        {
          "components": [
            {
              "components": [
                {
                  "internalType": "bytes4",
                  "name": "class",
                  "type": "bytes4"
                },
                {
                  "internalType": "bytes",
                  "name": "data",
                  "type": "bytes"
                }
              ],
              "internalType": "struct Assets.AssetId",
              "name": "id",
              "type": "tuple"
            },
            {
              "internalType": "uint256",
              "name": "value",
              "type": "uint256"
            }
          ],
          "internalType": "struct Assets.Asset",
          "name": "asset",
          "type": "tuple"
        },
        {
          "components": [
            {
              "internalType": "uint256",
              "name": "listingId",
              "type": "uint256"
            },
            {
              "internalType": "address",
              "name": "warper",
              "type": "address"
            },
            {
              "internalType": "address",
              "name": "renter",
              "type": "address"
            },
            {
              "internalType": "uint32",
              "name": "rentalPeriod",
              "type": "uint32"
            },
            {
              "internalType": "address",
              "name": "paymentToken",
              "type": "address"
            }
          ],
          "internalType": "struct Rentings.Params",
          "name": "rentingParams",
          "type": "tuple"
        }
      ],
      "name": "validateRentingParams",
      "outputs": [],
      "stateMutability": "view",
      "type": "function"
    },
    {
      "inputs": [
        {
          "components": [
            {
              "components": [
                {
                  "internalType": "bytes4",
                  "name": "class",
                  "type": "bytes4"
                },
                {
                  "internalType": "bytes",
                  "name": "data",
                  "type": "bytes"
                }
              ],
              "internalType": "struct Assets.AssetId",
              "name": "id",
              "type": "tuple"
            },
            {
              "internalType": "uint256",
              "name": "value",
              "type": "uint256"
            }
          ],
          "internalType": "struct Assets.Asset",
          "name": "asset",
          "type": "tuple"
        },
        {
          "internalType": "address",
          "name": "warper",
          "type": "address"
        },
        {
          "internalType": "address",
          "name": "to",
          "type": "address"
        }
      ],
      "name": "warp",
      "outputs": [
        {
          "internalType": "bytes32",
          "name": "collectionId",
          "type": "bytes32"
        },
        {
          "components": [
            {
              "components": [
                {
                  "internalType": "bytes4",
                  "name": "class",
                  "type": "bytes4"
                },
                {
                  "internalType": "bytes",
                  "name": "data",
                  "type": "bytes"
                }
              ],
              "internalType": "struct Assets.AssetId",
              "name": "id",
              "type": "tuple"
            },
            {
              "internalType": "uint256",
              "name": "value",
              "type": "uint256"
            }
          ],
          "internalType": "struct Assets.Asset",
          "name": "warpedAsset",
          "type": "tuple"
        }
      ],
      "stateMutability": "nonpayable",
      "type": "function"
    }
  ],
  "transactionHash": "0x31649f24f6e92e0561a028077a072b621cb584bcc239a94e9cefffaf07d0d3d5",
  "args": [],
  "numDeployments": 1,
  "solcInputHash": "12166c16def6b1b843a72b9a268c7133",
  "bytecode": "0x60a06040523060805234801561001457600080fd5b50608051611b5d61004560003960008181610800015281816108c701528181610abc0152610cb70152611b5d6000f3fe608060405234801561001057600080fd5b50600436106100cf5760003560e01c8063b42ca9e31161008c578063c95eb64d11610066578063c95eb64d146101b3578063e4f75ad3146101d4578063f19e254e146101e7578063f55383ae1461020f57600080fd5b8063b42ca9e31461016c578063b7cc2e7b1461017f578063bfe0af99146101a057600080fd5b806301ffc9a7146100d45780633f09518c146100fc57806361f806471461011c57806369bdbd0e1461013157806386c9de051461014457806389897ace14610159575b600080fd5b6100e76100e236600461116c565b610222565b60405190151581526020015b60405180910390f35b61010f61010a3660046111a3565b61024d565b6040516100f391906111fa565b61012f61012a36600461124c565b6102cd565b005b61012f61013f36600461142e565b6107f6565b6040516339d690a360e11b81526020016100f3565b61012f61016736600461147f565b6108bd565b6100e761017a36600461150b565b610918565b61019261018d366004611528565b61098a565b6040519081526020016100f3565b6101926101ae36600461155c565b610a08565b6101c66101c13660046115a7565b610a91565b6040516100f3929190611698565b61012f6101e23660046116b1565b610cad565b6101fa6101f53660046116e8565b610d16565b604080519283526020830191909152016100f3565b61012f61021d36600461150b565b610ea9565b60006001600160e01b031982166380e9fe1560e01b1480610247575061024782610ed2565b92915050565b6000836001600160a01b03166333a932036102688585610f07565b6040518263ffffffff1660e01b81526004016102849190611746565b602060405180830381865afa1580156102a1573d6000803e3d6000fd5b505050506040513d601f19601f820116820180604052508101906102c59190611759565b949350505050565b6102de6102d98361177a565b610f96565b60006102f0604083016020840161150b565b9050600061030f6103018580611786565b61030a906117a6565b611006565b915060029050610381836001600160a01b0316635a70a2836040518163ffffffff1660e01b8152600401602060405180830381865afa158015610356573d6000803e3d6000fd5b505050506040513d601f19601f8201168201806040525081019061037a91906117b2565b848461024d565b6002811115610392576103926111e4565b036103b057604051633c42e29760e11b815260040160405180910390fd5b60408051600380825260808201909252600091602082016060803683370190505090506370c8db7160e01b816000815181106103ee576103ee6117cf565b60200260200101906001600160e01b03191690816001600160e01b0319168152505063331f761f60e01b8160018151811061042b5761042b6117cf565b60200260200101906001600160e01b03191690816001600160e01b0319168152505063f11107d160e01b81600281518110610468576104686117cf565b6001600160e01b0319909216602092830291909101909101526040516307e78cc160e21b81526000906001600160a01b03851690631f9e3304906104b09085906004016117e5565b600060405180830381865afa1580156104cd573d6000803e3d6000fd5b505050506040513d6000823e601f3d908101601f191682016040526104f59190810190611843565b90508060008151811061050a5761050a6117cf565b6020026020010151156105f357600080856001600160a01b031663d1958f2c6040518163ffffffff1660e01b81526004016040805180830381865afa158015610557573d6000803e3d6000fd5b505050506040513d601f19601f8201168201806040525081019061057b9190611901565b915091508163ffffffff164210806105b7575063ffffffff81166105a56080890160608a01611930565b6105b59063ffffffff164261194d565b115b156105f05760405163a01a0f1b60e01b815242600482015263ffffffff8084166024830152821660448201526064015b60405180910390fd5b50505b80600181518110610606576106066117cf565b60200260200101511561070857600080856001600160a01b031662eb6ac76040518163ffffffff1660e01b81526004016040805180830381865afa158015610652573d6000803e3d6000fd5b505050506040513d601f19601f820116820180604052508101906106769190611901565b909250905063ffffffff82166106926080890160608a01611930565b63ffffffff1610806106be575063ffffffff81166106b66080890160608a01611930565b63ffffffff16115b15610705576106d36080880160608901611930565b60405163420ba8b160e11b815263ffffffff9182166004820152818416602482015290821660448201526064016105e7565b50505b8060028151811061071b5761071b6117cf565b6020026020010151156107ee576000806001600160a01b03861663f11107d161074a60608a0160408b0161150b565b6040516001600160e01b031960e084901b1681526001600160a01b0390911660048201526024810188905260208b01356044820152606401600060405180830381865afa15801561079f573d6000803e3d6000fd5b505050506040513d6000823e601f3d908101601f191682016040526107c79190810190611973565b91509150816107eb578060405163b0df8c7b60e01b81526004016105e791906119fc565b50505b505050505050565b6001600160a01b037f000000000000000000000000000000000000000000000000000000000000000016300361083f57604051637170f3db60e01b815260040160405180910390fd5b61084882610f96565b6000806108588460000151611006565b60405163be2b9a7960e01b81526001600160a01b038084166004830152602482018390529294509092509084169063be2b9a7990604401600060405180830381600087803b1580156108a957600080fd5b505af11580156107eb573d6000803e3d6000fd5b6001600160a01b037f000000000000000000000000000000000000000000000000000000000000000016300361090657604051637170f3db60e01b815260040160405180910390fd5b6109128484848461102a565b50505050565b6040516301ffc9a760e01b81526394d008ef60e01b60048201526000906001600160a01b038316906301ffc9a790602401602060405180830381865afa158015610966573d6000803e3d6000fd5b505050506040513d601f19601f820116820180604052508101906102479190611a0f565b80516000906001600160e01b0319166339d690a360e11b146109f75781517f73ad2146b3d3a286642c794379d750360a2d53a3459a11b3e5d6cc900f55f44a5b604051632e82eea160e11b81526001600160e01b03199283166004820152911660248201526044016105e7565b610247610a0383611101565b61111b565b6000836001600160a01b0316631e347878610a228561111b565b6040516001600160e01b031960e084901b16815260048101919091526001600160a01b0385166024820152604401602060405180830381865afa158015610a6d573d6000803e3d6000fd5b505050506040513d601f19601f820116820180604052508101906102c59190611a2a565b6040805160808101825260009181018281526060808301528152602081018290526001600160a01b037f0000000000000000000000000000000000000000000000000000000000000000163003610afb57604051637170f3db60e01b815260040160405180910390fd5b610b076102d98661177a565b600080610b176103018880611786565b91509150856001600160a01b031663f46c73c66040518163ffffffff1660e01b8152600401602060405180830381865afa158015610b59573d6000803e3d6000fd5b505050506040513d601f19601f82011682018060405250810190610b7d91906117b2565b6001600160a01b0316826001600160a01b031614610bc1576040516307a3e91560e41b81526001600160a01b038088166004830152831660248201526044016105e7565b6040518060400160405280610bd68884610f07565b81526020898101359101529250610bec8661111b565b93506000610bfb30888461024d565b6002811115610c0c57610c0c6111e4565b03610c8557604080516000815260208101918290526394d008ef60e01b9091526001600160a01b038716906394d008ef90610c4e908890859060248101611a43565b600060405180830381600087803b158015610c6857600080fd5b505af1158015610c7c573d6000803e3d6000fd5b50505050610ca3565b604080516000815260208101909152610ca39084903090889061102a565b5050935093915050565b6001600160a01b037f0000000000000000000000000000000000000000000000000000000000000000163003610cf657604051637170f3db60e01b815260040160405180910390fd5b610d118383836040518060200160405280600081525061102a565b505050565b600080610d256102d98761177a565b610d35604086016020870161150b565b6040516301ffc9a760e01b8152632b69db2f60e01b60048201526001600160a01b0391909116906301ffc9a790602401602060405180830381865afa158015610d82573d6000803e3d6000fd5b505050506040513d601f19601f82011682018060405250810190610da69190611a0f565b15610e99576000610dba6103018880611786565b9150610dce9050604087016020880161150b565b6001600160a01b0316632b69db2f610dec6060890160408a0161150b565b8360208b0135610e0260808c0160608d01611930565b6040516001600160e01b031960e087901b1681526001600160a01b0390941660048501526024840192909252604483015263ffffffff1660648201526084810188905260a4810187905260c4016040805180830381865afa158015610e6b573d6000803e3d6000fd5b505050506040513d601f19601f82011682018060405250810190610e8f9190611a73565b9250925050610ea0565b5060009050805b94509492505050565b610eb281610918565b610ecf576040516347ac7e5360e11b815260040160405180910390fd5b50565b60006001600160e01b031982166335c66d6d60e01b148061024757506301ffc9a760e01b6001600160e01b0319831614610247565b6040805180820190915260008152606060208201526040518060400160405280610f4e7f73ad2146b3d3a286642c794379d750360a2d53a3459a11b3e5d6cc900f55f44a90565b6001600160e01b0319168152604080516001600160a01b03871660208281019190915291810186905291019060600160408051601f1981840301815291905290529392505050565b8051516001600160e01b0319166339d690a360e11b14610fd9578051517f73ad2146b3d3a286642c794379d750360a2d53a3459a11b3e5d6cc900f55f44a6109ca565b8060200151600114610ecf5780602001516040516383f261dd60e01b81526004016105e791815260200190565b60008082602001518060200190518101906110219190611a97565b91509150915091565b61103384610f96565b6000806110438660000151611006565b604051635c46a7ef60e11b815291935091506001600160a01b0383169063b88d4fde9061107a908890889086908990600401611ac5565b600060405180830381600087803b15801561109457600080fd5b505af11580156110a8573d6000803e3d6000fd5b50505050836001600160a01b0316856001600160a01b03167ff65cd7509f02971efd9615ae50140cecf872cd4a266e3f6cac29f9b091fb32c788866040516110f1929190611b02565b60405180910390a3505050505050565b6000816020015180602001905181019061024791906117b2565b604080516001600160a01b038316602082015260009101604051602081830303815290604052805190602001209050919050565b80356001600160e01b03198116811461116757600080fd5b919050565b60006020828403121561117e57600080fd5b6111878261114f565b9392505050565b6001600160a01b0381168114610ecf57600080fd5b6000806000606084860312156111b857600080fd5b83356111c38161118e565b925060208401356111d38161118e565b929592945050506040919091013590565b634e487b7160e01b600052602160045260246000fd5b602081016003831061121c57634e487b7160e01b600052602160045260246000fd5b91905290565b60006040828403121561123457600080fd5b50919050565b600060a0828403121561123457600080fd5b60008060c0838503121561125f57600080fd5b82356001600160401b0381111561127557600080fd5b61128185828601611222565b925050611291846020850161123a565b90509250929050565b634e487b7160e01b600052604160045260246000fd5b604080519081016001600160401b03811182821017156112d2576112d261129a565b60405290565b604051601f8201601f191681016001600160401b03811182821017156113005761130061129a565b604052919050565b60006001600160401b038211156113215761132161129a565b50601f01601f191660200190565b600082601f83011261134057600080fd5b813561135361134e82611308565b6112d8565b81815284602083860101111561136857600080fd5b816020850160208301376000918101602001919091529392505050565b60006040828403121561139757600080fd5b61139f6112b0565b90506113aa8261114f565b815260208201356001600160401b038111156113c557600080fd5b6113d18482850161132f565b60208301525092915050565b6000604082840312156113ef57600080fd5b6113f76112b0565b905081356001600160401b0381111561140f57600080fd5b61141b84828501611385565b8252506020820135602082015292915050565b6000806040838503121561144157600080fd5b82356001600160401b0381111561145757600080fd5b611463858286016113dd565b92505060208301356114748161118e565b809150509250929050565b6000806000806080858703121561149557600080fd5b84356001600160401b03808211156114ac57600080fd5b6114b8888389016113dd565b9550602087013591506114ca8261118e565b9093506040860135906114dc8261118e565b909250606086013590808211156114f257600080fd5b506114ff8782880161132f565b91505092959194509250565b60006020828403121561151d57600080fd5b81356111878161118e565b60006020828403121561153a57600080fd5b81356001600160401b0381111561155057600080fd5b6102c584828501611385565b60008060006060848603121561157157600080fd5b833561157c8161118e565b9250602084013561158c8161118e565b9150604084013561159c8161118e565b809150509250925092565b6000806000606084860312156115bc57600080fd5b83356001600160401b038111156115d257600080fd5b6115de86828701611222565b935050602084013561158c8161118e565b60005b8381101561160a5781810151838201526020016115f2565b838111156109125750506000910152565b600081518084526116338160208601602086016115ef565b601f01601f19169290920160200192915050565b63ffffffff60e01b815116825260006020820151604060208501526102c5604085018261161b565b60008151604084526116846040850182611647565b602093840151949093019390935250919050565b8281526040602082015260006102c5604083018461166f565b6000806000606084860312156116c657600080fd5b83356001600160401b038111156116dc57600080fd5b6115de868287016113dd565b60008060008061010085870312156116ff57600080fd5b84356001600160401b0381111561171557600080fd5b61172187828801611222565b945050611731866020870161123a565b939693955050505060c08201359160e0013590565b6020815260006111876020830184611647565b60006020828403121561176b57600080fd5b81516003811061118757600080fd5b600061024736836113dd565b60008235603e1983360301811261179c57600080fd5b9190910192915050565b60006102473683611385565b6000602082840312156117c457600080fd5b81516111878161118e565b634e487b7160e01b600052603260045260246000fd5b6020808252825182820181905260009190848201906040850190845b818110156118275783516001600160e01b03191683529284019291840191600101611801565b50909695505050505050565b8051801515811461116757600080fd5b6000602080838503121561185657600080fd5b82516001600160401b038082111561186d57600080fd5b818501915085601f83011261188157600080fd5b8151818111156118935761189361129a565b8060051b91506118a48483016112d8565b81815291830184019184810190888411156118be57600080fd5b938501935b838510156118e3576118d485611833565b825293850193908501906118c3565b98975050505050505050565b63ffffffff81168114610ecf57600080fd5b6000806040838503121561191457600080fd5b825161191f816118ef565b6020840151909250611474816118ef565b60006020828403121561194257600080fd5b8135611187816118ef565b6000821982111561196e57634e487b7160e01b600052601160045260246000fd5b500190565b6000806040838503121561198657600080fd5b61198f83611833565b915060208301516001600160401b038111156119aa57600080fd5b8301601f810185136119bb57600080fd5b80516119c961134e82611308565b8181528660208385010111156119de57600080fd5b6119ef8260208301602086016115ef565b8093505050509250929050565b602081526000611187602083018461161b565b600060208284031215611a2157600080fd5b61118782611833565b600060208284031215611a3c57600080fd5b5051919050565b60018060a01b0384168152826020820152606060408201526000611a6a606083018461161b565b95945050505050565b60008060408385031215611a8657600080fd5b505080516020909101519092909150565b60008060408385031215611aaa57600080fd5b8251611ab58161118e565b6020939093015192949293505050565b6001600160a01b0385811682528416602082015260408101839052608060608201819052600090611af89083018461161b565b9695505050505050565b604081526000611b15604083018561166f565b8281036020840152611a6a818561161b56fea2646970667358221220c68e5b3dea9d113b815b0e55df8eaa2f91af5faf5b32eea090e66070db73871d64736f6c634300080d0033",
  "devdoc": {
    "errors": {
      "AlreadyRented()": [
        {
          "details": "Thrown upon attempting to rent a warped asset which is already rented."
        }
      ],
      "AssetClassMismatch(bytes4,bytes4)": [
        {
          "details": "Thrown when the asset has invalid class for specific operation.",
          "params": {
            "provided": "Provided class ID.",
            "required": "Required class ID."
          }
        }
      ],
      "AssetIsNotRentable(string)": [
        {
          "details": "Thrown when the asset renting is rejected by warper due to the `reason`."
        }
      ],
      "FunctionMustBeCalledThroughDelegatecall()": [
        {
          "details": "Thrown when a function is called directly and not through a delegatecall."
        }
      ],
      "IncompatibleWarperInterface()": [
        {
          "details": "Thrown if warper interface is not compatible with the controller."
        }
      ],
      "InvalidAssetForWarper(address,address)": [
        {
          "details": "Thrown upon attempting to use the warper with an asset different from the one expected by the warper."
        }
      ],
      "InvalidERC721Value(uint256)": [
        {
          "details": "Thrown when the asset value is invalid for ERC721 token standard."
        }
      ],
      "WarperIsNotAvailableForRenting(uint256,uint32,uint32)": [
        {
          "details": "Thrown when the current time is not withing the warper availability period."
        }
      ],
      "WarperRentalPeriodIsOutOfRange(uint32,uint32,uint32)": [
        {
          "details": "Thrown when the requested rental period is not withing the warper allowed rental period range."
        }
      ]
    },
    "kind": "dev",
    "methods": {
      "assetClass()": {
        "details": "Returns controller asset class.",
        "returns": {
          "_0": "Asset class ID."
        }
      },
      "calculatePremiums(((bytes4,bytes),uint256),(uint256,address,address,uint32,address),uint256,uint256)": {
        "details": "Calculates the universe and/or lister premiums. Those are extra amounts that should be added the the resulting rental fee paid by renter.",
        "params": {
          "asset": "Asset being rented.",
          "listerFee": "The current value of the lister fee component.",
          "rentingParams": "Renting parameters.",
          "universeFee": "The current value of the universe fee component."
        },
        "returns": {
          "listerPremium": "The lister premium amount.",
          "universePremium": "The universe premium amount."
        }
      },
      "checkCompatibleWarper(address)": {
        "details": "Reverts if provided warper is not compatible with the controller."
      },
      "collectionId((bytes4,bytes))": {
        "details": "Decodes asset ID structure and returns collection identifier. The collection ID is byte32 value which is calculated based on the asset class. For example, ERC721 collection can be identified by address only, but for ERC1155 it should be calculated based on address and token ID.",
        "returns": {
          "_0": "Collection ID."
        }
      },
      "isCompatibleWarper(address)": {
        "details": "Validates that the warper interface is supported by the current WarperController.",
        "params": {
          "warper": "Warper whose interface we must validate."
        },
        "returns": {
          "_0": "bool - `true` if warper is supported."
        }
      },
      "rentalBalance(address,address,address)": {
        "details": "Get the active rental balance for a given warper and a renter.      Used in Warper->Metahub communication.",
        "params": {
          "metahub": "Address of the metahub.",
          "renter": "Address of the renter whose active rental counts we need to fetch.",
          "warper": "Address of the warper."
        }
      },
      "rentalStatus(address,address,uint256)": {
        "details": "Get the rental status of a specific token.      Used in Warper->Metahub communication.",
        "params": {
          "metahub": "Address of the metahub.",
          "tokenId": "The token ID to be checked for status.",
          "warper": "Address of the warper."
        }
      },
      "returnAssetFromVault(((bytes4,bytes),uint256),address)": {
        "details": "Transfers asset from the vault contract to the original owner.",
        "params": {
          "asset": "Asset being transferred.",
          "vault": "Asset vault contract address."
        }
      },
      "supportsInterface(bytes4)": {
        "details": "Returns true if this contract implements the interface defined by `interfaceId`. See the corresponding https://eips.ethereum.org/EIPS/eip-165#how-interfaces-are-identified[EIP section] to learn more about how these ids are created. This function call must use less than 30 000 gas."
      },
      "transfer(((bytes4,bytes),uint256),address,address,bytes)": {
        "details": "Transfers asset. Emits a {AssetTransfer} event.",
        "params": {
          "asset": "Asset being transferred.",
          "data": "Auxiliary data.",
          "from": "Asset sender.",
          "to": "Asset recipient."
        }
      },
      "transferAssetToVault(((bytes4,bytes),uint256),address,address)": {
        "details": "Transfers asset from owner to the vault contract.",
        "params": {
          "asset": "Asset being transferred.",
          "assetOwner": "Original asset owner address.",
          "vault": "Asset vault contract address."
        }
      },
      "validateRentingParams(((bytes4,bytes),uint256),(uint256,address,address,uint32,address))": {
        "details": "Validates renting params taking into account various warper mechanics. Throws an error if the specified asset cannot be rented with particular renting parameters.",
        "params": {
          "asset": "Asset being rented.",
          "rentingParams": "Renting parameters."
        }
      },
      "warp(((bytes4,bytes),uint256),address,address)": {
        "details": "Needs to be called with `delegatecall` from Metahub, otherwise warpers will reject the call.",
        "params": {
          "asset": "The asset that must be warped.",
          "to": "The account which will receive the warped asset.",
          "warper": "Warper contract to used for warping."
        },
        "returns": {
          "collectionId": "Warped collection ID.",
          "warpedAsset": "Warper asset structure."
        }
      }
    },
    "version": 1
  },
  "userdoc": {
    "kind": "user",
    "methods": {},
    "version": 1
  },
  "storageLayout": {
    "storage": [],
    "types": null
  }
}