{
  "_format": "hh-sol-artifact-1",
  "contractName": "UniverseToken",
  "sourceName": "contracts/universe/UniverseToken.sol",
  "abi": [
    {
      "inputs": [
        {
          "internalType": "contract IUniverseRegistry",
          "name": "registry",
          "type": "address"
        }
      ],
      "stateMutability": "nonpayable",
      "type": "constructor"
    },
    {
      "inputs": [],
      "name": "CallerIsNotRegistry",
      "type": "error"
    },
    {
      "anonymous": false,
      "inputs": [
        {
          "indexed": true,
          "internalType": "address",
          "name": "owner",
          "type": "address"
        },
        {
          "indexed": true,
          "internalType": "address",
          "name": "approved",
          "type": "address"
        },
        {
          "indexed": true,
          "internalType": "uint256",
          "name": "tokenId",
          "type": "uint256"
        }
      ],
      "name": "Approval",
      "type": "event"
    },
    {
      "anonymous": false,
      "inputs": [
        {
          "indexed": true,
          "internalType": "address",
          "name": "owner",
          "type": "address"
        },
        {
          "indexed": true,
          "internalType": "address",
          "name": "operator",
          "type": "address"
        },
        {
          "indexed": false,
          "internalType": "bool",
          "name": "approved",
          "type": "bool"
        }
      ],
      "name": "ApprovalForAll",
      "type": "event"
    },
    {
      "anonymous": false,
      "inputs": [
        {
          "indexed": true,
          "internalType": "address",
          "name": "from",
          "type": "address"
        },
        {
          "indexed": true,
          "internalType": "address",
          "name": "to",
          "type": "address"
        },
        {
          "indexed": true,
          "internalType": "uint256",
          "name": "tokenId",
          "type": "uint256"
        }
      ],
      "name": "Transfer",
      "type": "event"
    },
    {
      "inputs": [
        {
          "internalType": "address",
          "name": "to",
          "type": "address"
        },
        {
          "internalType": "uint256",
          "name": "tokenId",
          "type": "uint256"
        }
      ],
      "name": "approve",
      "outputs": [],
      "stateMutability": "nonpayable",
      "type": "function"
    },
    {
      "inputs": [
        {
          "internalType": "address",
          "name": "owner",
          "type": "address"
        }
      ],
      "name": "balanceOf",
      "outputs": [
        {
          "internalType": "uint256",
          "name": "",
          "type": "uint256"
        }
      ],
      "stateMutability": "view",
      "type": "function"
    },
    {
      "inputs": [],
      "name": "currentId",
      "outputs": [
        {
          "internalType": "uint256",
          "name": "",
          "type": "uint256"
        }
      ],
      "stateMutability": "view",
      "type": "function"
    },
    {
      "inputs": [
        {
          "internalType": "uint256",
          "name": "tokenId",
          "type": "uint256"
        }
      ],
      "name": "getApproved",
      "outputs": [
        {
          "internalType": "address",
          "name": "",
          "type": "address"
        }
      ],
      "stateMutability": "view",
      "type": "function"
    },
    {
      "inputs": [
        {
          "internalType": "address",
          "name": "owner",
          "type": "address"
        },
        {
          "internalType": "address",
          "name": "operator",
          "type": "address"
        }
      ],
      "name": "isApprovedForAll",
      "outputs": [
        {
          "internalType": "bool",
          "name": "",
          "type": "bool"
        }
      ],
      "stateMutability": "view",
      "type": "function"
    },
    {
      "inputs": [
        {
          "internalType": "address",
          "name": "to",
          "type": "address"
        }
      ],
      "name": "mint",
      "outputs": [
        {
          "internalType": "uint256",
          "name": "tokenId",
          "type": "uint256"
        }
      ],
      "stateMutability": "nonpayable",
      "type": "function"
    },
    {
      "inputs": [],
      "name": "name",
      "outputs": [
        {
          "internalType": "string",
          "name": "",
          "type": "string"
        }
      ],
      "stateMutability": "view",
      "type": "function"
    },
    {
      "inputs": [
        {
          "internalType": "uint256",
          "name": "tokenId",
          "type": "uint256"
        }
      ],
      "name": "ownerOf",
      "outputs": [
        {
          "internalType": "address",
          "name": "",
          "type": "address"
        }
      ],
      "stateMutability": "view",
      "type": "function"
    },
    {
      "inputs": [
        {
          "internalType": "address",
          "name": "from",
          "type": "address"
        },
        {
          "internalType": "address",
          "name": "to",
          "type": "address"
        },
        {
          "internalType": "uint256",
          "name": "tokenId",
          "type": "uint256"
        }
      ],
      "name": "safeTransferFrom",
      "outputs": [],
      "stateMutability": "nonpayable",
      "type": "function"
    },
    {
      "inputs": [
        {
          "internalType": "address",
          "name": "from",
          "type": "address"
        },
        {
          "internalType": "address",
          "name": "to",
          "type": "address"
        },
        {
          "internalType": "uint256",
          "name": "tokenId",
          "type": "uint256"
        },
        {
          "internalType": "bytes",
          "name": "_data",
          "type": "bytes"
        }
      ],
      "name": "safeTransferFrom",
      "outputs": [],
      "stateMutability": "nonpayable",
      "type": "function"
    },
    {
      "inputs": [
        {
          "internalType": "address",
          "name": "operator",
          "type": "address"
        },
        {
          "internalType": "bool",
          "name": "approved",
          "type": "bool"
        }
      ],
      "name": "setApprovalForAll",
      "outputs": [],
      "stateMutability": "nonpayable",
      "type": "function"
    },
    {
      "inputs": [
        {
          "internalType": "bytes4",
          "name": "interfaceId",
          "type": "bytes4"
        }
      ],
      "name": "supportsInterface",
      "outputs": [
        {
          "internalType": "bool",
          "name": "",
          "type": "bool"
        }
      ],
      "stateMutability": "view",
      "type": "function"
    },
    {
      "inputs": [],
      "name": "symbol",
      "outputs": [
        {
          "internalType": "string",
          "name": "",
          "type": "string"
        }
      ],
      "stateMutability": "view",
      "type": "function"
    },
    {
      "inputs": [
        {
          "internalType": "uint256",
          "name": "tokenId",
          "type": "uint256"
        }
      ],
      "name": "tokenURI",
      "outputs": [
        {
          "internalType": "string",
          "name": "",
          "type": "string"
        }
      ],
      "stateMutability": "view",
      "type": "function"
    },
    {
      "inputs": [
        {
          "internalType": "address",
          "name": "from",
          "type": "address"
        },
        {
          "internalType": "address",
          "name": "to",
          "type": "address"
        },
        {
          "internalType": "uint256",
          "name": "tokenId",
          "type": "uint256"
        }
      ],
      "name": "transferFrom",
      "outputs": [],
      "stateMutability": "nonpayable",
      "type": "function"
    }
  ],
  "bytecode": "0x60a06040523480156200001157600080fd5b50604051620017b7380380620017b783398101604081905262000034916200014f565b60408051808201825260078152664951566572736560c81b60208083019182528351808501909452600384526224a8ab60e91b9084015281519192916200007e91600091620000a9565b50805162000094906001906020840190620000a9565b5050506001600160a01b0316608052620001bd565b828054620000b79062000181565b90600052602060002090601f016020900481019282620000db576000855562000126565b82601f10620000f657805160ff191683800117855562000126565b8280016001018555821562000126579182015b828111156200012657825182559160200191906001019062000109565b506200013492915062000138565b5090565b5b8082111562000134576000815560010162000139565b6000602082840312156200016257600080fd5b81516001600160a01b03811681146200017a57600080fd5b9392505050565b600181811c908216806200019657607f821691505b602082108103620001b757634e487b7160e01b600052602260045260246000fd5b50919050565b6080516115d7620001e06000396000818161059d0152610c3c01526115d76000f3fe608060405234801561001057600080fd5b50600436106100f55760003560e01c80636a62784211610097578063b88d4fde11610066578063b88d4fde146101ff578063c87b56dd14610212578063e00dd16114610225578063e985e9c51461022d57600080fd5b80636a627842146101b057806370a08231146101d157806395d89b41146101e4578063a22cb465146101ec57600080fd5b8063095ea7b3116100d3578063095ea7b31461016257806323b872dd1461017757806342842e0e1461018a5780636352211e1461019d57600080fd5b806301ffc9a7146100fa57806306fdde0314610122578063081812fc14610137575b600080fd5b61010d610108366004611050565b610269565b60405190151581526020015b60405180910390f35b61012a610294565b60405161011991906110c5565b61014a6101453660046110d8565b610326565b6040516001600160a01b039091168152602001610119565b610175610170366004611108565b6103c0565b005b610175610185366004611132565b6104d5565b610175610198366004611132565b610506565b61014a6101ab3660046110d8565b610521565b6101c36101be36600461116e565b610598565b604051908152602001610119565b6101c36101df36600461116e565b610604565b61012a61068b565b6101756101fa366004611189565b61069a565b61017561020d366004611234565b6106a9565b61012a6102203660046110d8565b6106e1565b6101c36107bc565b61010d61023b3660046112df565b6001600160a01b03918216600090815260056020908152604080832093909416825291909152205460ff1690565b60006001600160e01b03198216638a6fa92360e01b148061028e575061028e826107cc565b92915050565b6060600080546102a390611312565b80601f01602080910402602001604051908101604052809291908181526020018280546102cf90611312565b801561031c5780601f106102f15761010080835404028352916020019161031c565b820191906000526020600020905b8154815290600101906020018083116102ff57829003601f168201915b5050505050905090565b6000818152600260205260408120546001600160a01b03166103a45760405162461bcd60e51b815260206004820152602c60248201527f4552433732313a20617070726f76656420717565727920666f72206e6f6e657860448201526b34b9ba32b73a103a37b5b2b760a11b60648201526084015b60405180910390fd5b506000908152600460205260409020546001600160a01b031690565b60006103cb82610521565b9050806001600160a01b0316836001600160a01b0316036104385760405162461bcd60e51b815260206004820152602160248201527f4552433732313a20617070726f76616c20746f2063757272656e74206f776e656044820152603960f91b606482015260840161039b565b336001600160a01b03821614806104545750610454813361023b565b6104c65760405162461bcd60e51b815260206004820152603860248201527f4552433732313a20617070726f76652063616c6c6572206973206e6f74206f7760448201527f6e6572206e6f7220617070726f76656420666f7220616c6c0000000000000000606482015260840161039b565b6104d0838361081c565b505050565b6104df338261088a565b6104fb5760405162461bcd60e51b815260040161039b9061134c565b6104d0838383610981565b6104d0838383604051806020016040528060008152506106a9565b6000818152600260205260408120546001600160a01b03168061028e5760405162461bcd60e51b815260206004820152602960248201527f4552433732313a206f776e657220717565727920666f72206e6f6e657869737460448201526832b73a103a37b5b2b760b91b606482015260840161039b565b6000337f00000000000000000000000000000000000000000000000000000000000000006001600160a01b0316146105e3576040516357d4e0e760e01b815260040160405180910390fd5b6105f1600680546001019055565b506006546105ff8282610b1d565b919050565b60006001600160a01b03821661066f5760405162461bcd60e51b815260206004820152602a60248201527f4552433732313a2062616c616e636520717565727920666f7220746865207a65604482015269726f206164647265737360b01b606482015260840161039b565b506001600160a01b031660009081526003602052604090205490565b6060600180546102a390611312565b6106a5338383610b37565b5050565b6106b3338361088a565b6106cf5760405162461bcd60e51b815260040161039b9061134c565b6106db84848484610c05565b50505050565b6000818152600260205260409020546060906001600160a01b03166107605760405162461bcd60e51b815260206004820152602f60248201527f4552433732314d657461646174613a2055524920717565727920666f72206e6f60448201526e3732bc34b9ba32b73a103a37b5b2b760891b606482015260840161039b565b600061076a610c38565b9050600081511161078a57604051806020016040528060008152506107b5565b8061079484610cc0565b6040516020016107a592919061139d565b6040516020818303038152906040525b9392505050565b60006107c760065490565b905090565b60006001600160e01b031982166380ac58cd60e01b14806107fd57506001600160e01b03198216635b5e139f60e01b145b8061028e57506301ffc9a760e01b6001600160e01b031983161461028e565b600081815260046020526040902080546001600160a01b0319166001600160a01b038416908117909155819061085182610521565b6001600160a01b03167f8c5be1e5ebec7d5bd14f71427d1e84f3dd0314c0f7b2291e5b200ac8c7c3b92560405160405180910390a45050565b6000818152600260205260408120546001600160a01b03166109035760405162461bcd60e51b815260206004820152602c60248201527f4552433732313a206f70657261746f7220717565727920666f72206e6f6e657860448201526b34b9ba32b73a103a37b5b2b760a11b606482015260840161039b565b600061090e83610521565b9050806001600160a01b0316846001600160a01b031614806109495750836001600160a01b031661093e84610326565b6001600160a01b0316145b8061097957506001600160a01b0380821660009081526005602090815260408083209388168352929052205460ff165b949350505050565b826001600160a01b031661099482610521565b6001600160a01b0316146109f85760405162461bcd60e51b815260206004820152602560248201527f4552433732313a207472616e736665722066726f6d20696e636f72726563742060448201526437bbb732b960d91b606482015260840161039b565b6001600160a01b038216610a5a5760405162461bcd60e51b8152602060048201526024808201527f4552433732313a207472616e7366657220746f20746865207a65726f206164646044820152637265737360e01b606482015260840161039b565b610a6560008261081c565b6001600160a01b0383166000908152600360205260408120805460019290610a8e9084906113e2565b90915550506001600160a01b0382166000908152600360205260408120805460019290610abc9084906113f9565b909155505060008181526002602052604080822080546001600160a01b0319166001600160a01b0386811691821790925591518493918716917fddf252ad1be2c89b69c2b068fc378daa952ba7f163c4a11628f55a4df523b3ef91a4505050565b6106a5828260405180602001604052806000815250610dc1565b816001600160a01b0316836001600160a01b031603610b985760405162461bcd60e51b815260206004820152601960248201527f4552433732313a20617070726f766520746f2063616c6c657200000000000000604482015260640161039b565b6001600160a01b03838116600081815260056020908152604080832094871680845294825291829020805460ff191686151590811790915591519182527f17307eab39ab6107e8899845ad3d59bd9653f200f220920489ca2b5937696c31910160405180910390a3505050565b610c10848484610981565b610c1c84848484610df4565b6106db5760405162461bcd60e51b815260040161039b90611411565b60607f00000000000000000000000000000000000000000000000000000000000000006001600160a01b03166368ede8236040518163ffffffff1660e01b8152600401600060405180830381865afa158015610c98573d6000803e3d6000fd5b505050506040513d6000823e601f3d908101601f191682016040526107c79190810190611463565b606081600003610ce75750506040805180820190915260018152600360fc1b602082015290565b8160005b8115610d115780610cfb816114da565b9150610d0a9050600a83611509565b9150610ceb565b60008167ffffffffffffffff811115610d2c57610d2c6111c5565b6040519080825280601f01601f191660200182016040528015610d56576020820181803683370190505b5090505b841561097957610d6b6001836113e2565b9150610d78600a8661151d565b610d839060306113f9565b60f81b818381518110610d9857610d98611531565b60200101906001600160f81b031916908160001a905350610dba600a86611509565b9450610d5a565b610dcb8383610ef5565b610dd86000848484610df4565b6104d05760405162461bcd60e51b815260040161039b90611411565b60006001600160a01b0384163b15610eea57604051630a85bd0160e11b81526001600160a01b0385169063150b7a0290610e38903390899088908890600401611547565b6020604051808303816000875af1925050508015610e73575060408051601f3d908101601f19168201909252610e7091810190611584565b60015b610ed0573d808015610ea1576040519150601f19603f3d011682016040523d82523d6000602084013e610ea6565b606091505b508051600003610ec85760405162461bcd60e51b815260040161039b90611411565b805181602001fd5b6001600160e01b031916630a85bd0160e11b149050610979565b506001949350505050565b6001600160a01b038216610f4b5760405162461bcd60e51b815260206004820181905260248201527f4552433732313a206d696e7420746f20746865207a65726f2061646472657373604482015260640161039b565b6000818152600260205260409020546001600160a01b031615610fb05760405162461bcd60e51b815260206004820152601c60248201527f4552433732313a20746f6b656e20616c7265616479206d696e74656400000000604482015260640161039b565b6001600160a01b0382166000908152600360205260408120805460019290610fd99084906113f9565b909155505060008181526002602052604080822080546001600160a01b0319166001600160a01b03861690811790915590518392907fddf252ad1be2c89b69c2b068fc378daa952ba7f163c4a11628f55a4df523b3ef908290a45050565b6001600160e01b03198116811461104d57600080fd5b50565b60006020828403121561106257600080fd5b81356107b581611037565b60005b83811015611088578181015183820152602001611070565b838111156106db5750506000910152565b600081518084526110b181602086016020860161106d565b601f01601f19169290920160200192915050565b6020815260006107b56020830184611099565b6000602082840312156110ea57600080fd5b5035919050565b80356001600160a01b03811681146105ff57600080fd5b6000806040838503121561111b57600080fd5b611124836110f1565b946020939093013593505050565b60008060006060848603121561114757600080fd5b611150846110f1565b925061115e602085016110f1565b9150604084013590509250925092565b60006020828403121561118057600080fd5b6107b5826110f1565b6000806040838503121561119c57600080fd5b6111a5836110f1565b9150602083013580151581146111ba57600080fd5b809150509250929050565b634e487b7160e01b600052604160045260246000fd5b604051601f8201601f1916810167ffffffffffffffff81118282101715611204576112046111c5565b604052919050565b600067ffffffffffffffff821115611226576112266111c5565b50601f01601f191660200190565b6000806000806080858703121561124a57600080fd5b611253856110f1565b9350611261602086016110f1565b925060408501359150606085013567ffffffffffffffff81111561128457600080fd5b8501601f8101871361129557600080fd5b80356112a86112a38261120c565b6111db565b8181528860208385010111156112bd57600080fd5b8160208401602083013760006020838301015280935050505092959194509250565b600080604083850312156112f257600080fd5b6112fb836110f1565b9150611309602084016110f1565b90509250929050565b600181811c9082168061132657607f821691505b60208210810361134657634e487b7160e01b600052602260045260246000fd5b50919050565b60208082526031908201527f4552433732313a207472616e736665722063616c6c6572206973206e6f74206f6040820152701ddb995c881b9bdc88185c1c1c9bdd9959607a1b606082015260800190565b600083516113af81846020880161106d565b8351908301906113c381836020880161106d565b01949350505050565b634e487b7160e01b600052601160045260246000fd5b6000828210156113f4576113f46113cc565b500390565b6000821982111561140c5761140c6113cc565b500190565b60208082526032908201527f4552433732313a207472616e7366657220746f206e6f6e20455243373231526560408201527131b2b4bb32b91034b6b83632b6b2b73a32b960711b606082015260800190565b60006020828403121561147557600080fd5b815167ffffffffffffffff81111561148c57600080fd5b8201601f8101841361149d57600080fd5b80516114ab6112a38261120c565b8181528560208385010111156114c057600080fd5b6114d182602083016020860161106d565b95945050505050565b6000600182016114ec576114ec6113cc565b5060010190565b634e487b7160e01b600052601260045260246000fd5b600082611518576115186114f3565b500490565b60008261152c5761152c6114f3565b500690565b634e487b7160e01b600052603260045260246000fd5b6001600160a01b038581168252841660208201526040810183905260806060820181905260009061157a90830184611099565b9695505050505050565b60006020828403121561159657600080fd5b81516107b58161103756fea2646970667358221220db06592b5146e765d56b53d4abf1dd67d4a674edfbddac67675602699be0325464736f6c634300080d0033",
  "linkReferences": {},
  "deployedLinkReferences": {}
}