{
  "_format": "hh-sol-artifact-1",
  "contractName": "UniverseRegistry",
  "sourceName": "contracts/universe/UniverseRegistry.sol",
  "abi": [
    {
      "inputs": [],
      "stateMutability": "nonpayable",
      "type": "constructor"
    },
    {
      "inputs": [
        {
          "internalType": "address",
          "name": "account",
          "type": "address"
        }
      ],
      "name": "AccountIsNotUniverseOwner",
      "type": "error"
    },
    {
      "inputs": [],
      "name": "EmptyUniverseName",
      "type": "error"
    },
    {
      "inputs": [
        {
          "internalType": "uint256",
          "name": "universeId",
          "type": "uint256"
        }
      ],
      "name": "QueryForNonexistentUniverse",
      "type": "error"
    },
    {
      "anonymous": false,
      "inputs": [
        {
          "indexed": false,
          "internalType": "address",
          "name": "previousAdmin",
          "type": "address"
        },
        {
          "indexed": false,
          "internalType": "address",
          "name": "newAdmin",
          "type": "address"
        }
      ],
      "name": "AdminChanged",
      "type": "event"
    },
    {
      "anonymous": false,
      "inputs": [
        {
          "indexed": true,
          "internalType": "address",
          "name": "beacon",
          "type": "address"
        }
      ],
      "name": "BeaconUpgraded",
      "type": "event"
    },
    {
      "anonymous": false,
      "inputs": [
        {
          "indexed": true,
          "internalType": "uint256",
          "name": "universeId",
          "type": "uint256"
        },
        {
          "indexed": false,
          "internalType": "string",
          "name": "name",
          "type": "string"
        }
      ],
      "name": "UniverseCreated",
      "type": "event"
    },
    {
      "anonymous": false,
      "inputs": [
        {
          "indexed": true,
          "internalType": "uint256",
          "name": "universeId",
          "type": "uint256"
        },
        {
          "indexed": false,
          "internalType": "string",
          "name": "name",
          "type": "string"
        }
      ],
      "name": "UniverseNameChanged",
      "type": "event"
    },
    {
      "anonymous": false,
      "inputs": [
        {
          "indexed": true,
          "internalType": "uint256",
          "name": "universeId",
          "type": "uint256"
        },
        {
          "indexed": false,
          "internalType": "uint16",
          "name": "rentalFeePercent",
          "type": "uint16"
        }
      ],
      "name": "UniverseRentalFeeChanged",
      "type": "event"
    },
    {
      "anonymous": false,
      "inputs": [
        {
          "indexed": true,
          "internalType": "address",
          "name": "implementation",
          "type": "address"
        }
      ],
      "name": "Upgraded",
      "type": "event"
    },
    {
      "inputs": [
        {
          "internalType": "uint256",
          "name": "universeId",
          "type": "uint256"
        },
        {
          "internalType": "address",
          "name": "account",
          "type": "address"
        }
      ],
      "name": "checkUniverseOwner",
      "outputs": [],
      "stateMutability": "view",
      "type": "function"
    },
    {
      "inputs": [
        {
          "components": [
            {
              "internalType": "string",
              "name": "name",
              "type": "string"
            },
            {
              "internalType": "uint16",
              "name": "rentalFeePercent",
              "type": "uint16"
            }
          ],
          "internalType": "struct IUniverseRegistry.UniverseParams",
          "name": "params",
          "type": "tuple"
        }
      ],
      "name": "createUniverse",
      "outputs": [
        {
          "internalType": "uint256",
          "name": "",
          "type": "uint256"
        }
      ],
      "stateMutability": "nonpayable",
      "type": "function"
    },
    {
      "inputs": [
        {
          "internalType": "address",
          "name": "acl",
          "type": "address"
        }
      ],
      "name": "initialize",
      "outputs": [],
      "stateMutability": "nonpayable",
      "type": "function"
    },
    {
      "inputs": [
        {
          "internalType": "uint256",
          "name": "universeId",
          "type": "uint256"
        },
        {
          "internalType": "address",
          "name": "account",
          "type": "address"
        }
      ],
      "name": "isUniverseOwner",
      "outputs": [
        {
          "internalType": "bool",
          "name": "",
          "type": "bool"
        }
      ],
      "stateMutability": "view",
      "type": "function"
    },
    {
      "inputs": [],
      "name": "proxiableUUID",
      "outputs": [
        {
          "internalType": "bytes32",
          "name": "",
          "type": "bytes32"
        }
      ],
      "stateMutability": "view",
      "type": "function"
    },
    {
      "inputs": [
        {
          "internalType": "uint256",
          "name": "universeId",
          "type": "uint256"
        },
        {
          "internalType": "string",
          "name": "name",
          "type": "string"
        }
      ],
      "name": "setUniverseName",
      "outputs": [],
      "stateMutability": "nonpayable",
      "type": "function"
    },
    {
      "inputs": [
        {
          "internalType": "uint256",
          "name": "universeId",
          "type": "uint256"
        },
        {
          "internalType": "uint16",
          "name": "rentalFeePercent",
          "type": "uint16"
        }
      ],
      "name": "setUniverseRentalFeePercent",
      "outputs": [],
      "stateMutability": "nonpayable",
      "type": "function"
    },
    {
      "inputs": [
        {
          "internalType": "string",
          "name": "baseURI",
          "type": "string"
        }
      ],
      "name": "setUniverseTokenBaseURI",
      "outputs": [],
      "stateMutability": "nonpayable",
      "type": "function"
    },
    {
      "inputs": [
        {
          "internalType": "uint256",
          "name": "universeId",
          "type": "uint256"
        }
      ],
      "name": "universe",
      "outputs": [
        {
          "internalType": "string",
          "name": "name",
          "type": "string"
        },
        {
          "internalType": "uint16",
          "name": "rentalFeePercent",
          "type": "uint16"
        }
      ],
      "stateMutability": "view",
      "type": "function"
    },
    {
      "inputs": [
        {
          "internalType": "uint256",
          "name": "universeId",
          "type": "uint256"
        }
      ],
      "name": "universeName",
      "outputs": [
        {
          "internalType": "string",
          "name": "",
          "type": "string"
        }
      ],
      "stateMutability": "view",
      "type": "function"
    },
    {
      "inputs": [
        {
          "internalType": "uint256",
          "name": "universeId",
          "type": "uint256"
        }
      ],
      "name": "universeOwner",
      "outputs": [
        {
          "internalType": "address",
          "name": "",
          "type": "address"
        }
      ],
      "stateMutability": "view",
      "type": "function"
    },
    {
      "inputs": [
        {
          "internalType": "uint256",
          "name": "universeId",
          "type": "uint256"
        }
      ],
      "name": "universeRentalFeePercent",
      "outputs": [
        {
          "internalType": "uint16",
          "name": "rentalFeePercent",
          "type": "uint16"
        }
      ],
      "stateMutability": "view",
      "type": "function"
    },
    {
      "inputs": [],
      "name": "universeToken",
      "outputs": [
        {
          "internalType": "address",
          "name": "",
          "type": "address"
        }
      ],
      "stateMutability": "view",
      "type": "function"
    },
    {
      "inputs": [],
      "name": "universeTokenBaseURI",
      "outputs": [
        {
          "internalType": "string",
          "name": "",
          "type": "string"
        }
      ],
      "stateMutability": "view",
      "type": "function"
    },
    {
      "inputs": [
        {
          "internalType": "address",
          "name": "newImplementation",
          "type": "address"
        }
      ],
      "name": "upgradeTo",
      "outputs": [],
      "stateMutability": "nonpayable",
      "type": "function"
    },
    {
      "inputs": [
        {
          "internalType": "address",
          "name": "newImplementation",
          "type": "address"
        },
        {
          "internalType": "bytes",
          "name": "data",
          "type": "bytes"
        }
      ],
      "name": "upgradeToAndCall",
      "outputs": [],
      "stateMutability": "payable",
      "type": "function"
    }
  ],
  "bytecode": "0x60a0604052306080523480156200001557600080fd5b50600054610100900460ff16620000335760005460ff16156200003d565b6200003d620000e2565b620000a55760405162461bcd60e51b815260206004820152602e60248201527f496e697469616c697a61626c653a20636f6e747261637420697320616c72656160448201526d191e481a5b9a5d1a585b1a5e995960921b606482015260840160405180910390fd5b600054610100900460ff16158015620000c8576000805461ffff19166101011790555b8015620000db576000805461ff00191690555b506200010f565b6000620000fa306200010060201b62000e291760201c565b15905090565b6001600160a01b03163b151590565b60805161326c6200014760003960008181610478015281816104c4015281816108280152818161086b0152610907015261326c6000f3fe608060405260043610620001075760003560e01c80637dc330dc1162000095578063c8cb083f1162000060578063c8cb083f1462000301578063cbf446a51462000337578063ee2d393f146200035c578063eece7a22146200038157600080fd5b80637dc330dc1462000254578063b4a750b61462000279578063b653ff4314620002b7578063c4d66de814620002dc57600080fd5b80634d30e23a11620000d65780634d30e23a14620001c95780634f1ef28614620001fe57806352d1902d146200021557806368ede823146200022d57600080fd5b806323c96ba3146200010c5780632b521ee714620001495780633659cfe6146200017057806340a202311462000195575b600080fd5b3480156200011957600080fd5b50620001316200012b3660046200152a565b620003a1565b60405161ffff90911681526020015b60405180910390f35b3480156200015657600080fd5b506200016e62000168366004620015d7565b620003ce565b005b3480156200017d57600080fd5b506200016e6200018f3660046200164d565b6200046e565b348015620001a257600080fd5b50620001ba620001b43660046200166d565b62000562565b60405190815260200162000140565b348015620001d657600080fd5b50620001ee620001e83660046200152a565b6200074d565b6040516200014092919062001708565b6200016e6200020f36600462001730565b6200081e565b3480156200022257600080fd5b50620001ba620008fa565b3480156200023a57600080fd5b5062000245620009b0565b6040516200014091906200176e565b3480156200026157600080fd5b506200016e6200027336600462001783565b62000a4a565b3480156200028657600080fd5b506200029e620002983660046200152a565b62000a67565b6040516001600160a01b03909116815260200162000140565b348015620002c457600080fd5b506200016e620002d6366004620017ce565b62000aec565b348015620002e957600080fd5b506200016e620002fb3660046200164d565b62000b64565b3480156200030e57600080fd5b50620003266200032036600462001783565b62000ca6565b604051901515815260200162000140565b3480156200034457600080fd5b506200016e62000356366004620017fd565b62000cc8565b3480156200036957600080fd5b50620002456200037b3660046200152a565b62000d74565b3480156200038e57600080fd5b506098546001600160a01b03166200029e565b600081620003af8162000e38565b6000838152609a602052604090206001015461ffff1691505b50919050565b81620003da8162000e38565b818051600003620003fe5760405163012dc89760e51b815260040160405180910390fd5b836200040b813362000e65565b6000858152609a6020908152604090912085516200042c92870190620013f9565b50847f97808322fb8633f15d5011c26c72f5977eed8dcbefb7286c2a158c4a45fcb58b856040516200045f91906200176e565b60405180910390a25050505050565b6001600160a01b037f0000000000000000000000000000000000000000000000000000000000000000163003620004c25760405162461bcd60e51b8152600401620004b99062001874565b60405180910390fd5b7f00000000000000000000000000000000000000000000000000000000000000006001600160a01b03166200050d600080516020620031f0833981519152546001600160a01b031690565b6001600160a01b031614620005365760405162461bcd60e51b8152600401620004b990620018c0565b620005418162000e9b565b604080516000808252602082019092526200055f9183919062000f1a565b50565b60006200057082806200190c565b8080601f0160208091040260200160405190810160405280939291908181526020018383808284376000920182905250845190039250620005c79150505760405163012dc89760e51b815260040160405180910390fd5b6098546000906001600160a01b0316636a627842336040516001600160e01b031960e084901b1681526001600160a01b0390911660048201526024016020604051808303816000875af115801562000623573d6000803e3d6000fd5b505050506040513d601f19601f820116820180604052508101906200064991906200195d565b60408051808201909152909150806200066386806200190c565b8080601f016020809104026020016040519081016040528093929190818152602001838380828437600092019190915250505090825250602090810190620006b2906040880190880162001977565b61ffff1690526000828152609a60209081526040909120825180519192620006e092849290910190620013f9565b50602091909101516001909101805461ffff191661ffff909216919091179055807f78531b7f198c211bbf00d3ca51074d16e1a08e75ff5830dc6581302154f3e6fe6200072e86806200190c565b6040516200073e92919062001995565b60405180910390a29392505050565b60606000826200075d8162000e38565b6000848152609a6020526040902080546200077890620019c4565b80601f0160208091040260200160405190810160405280929190818152602001828054620007a690620019c4565b8015620007f75780601f10620007cb57610100808354040283529160200191620007f7565b820191906000526020600020905b815481529060010190602001808311620007d957829003601f168201915b50505060009687525050609a602052604090942060010154939461ffff9094169392505050565b6001600160a01b037f0000000000000000000000000000000000000000000000000000000000000000163003620008695760405162461bcd60e51b8152600401620004b99062001874565b7f00000000000000000000000000000000000000000000000000000000000000006001600160a01b0316620008b4600080516020620031f0833981519152546001600160a01b031690565b6001600160a01b031614620008dd5760405162461bcd60e51b8152600401620004b990620018c0565b620008e88262000e9b565b620008f68282600162000f1a565b5050565b6000306001600160a01b037f000000000000000000000000000000000000000000000000000000000000000016146200099c5760405162461bcd60e51b815260206004820152603860248201527f555550535570677261646561626c653a206d757374206e6f742062652063616c60448201527f6c6564207468726f7567682064656c656761746563616c6c00000000000000006064820152608401620004b9565b50600080516020620031f083398151915290565b606060998054620009c190620019c4565b80601f0160208091040260200160405190810160405280929190818152602001828054620009ef90620019c4565b801562000a405780601f1062000a145761010080835404028352916020019162000a40565b820191906000526020600020905b81548152906001019060200180831162000a2257829003601f168201915b5050505050905090565b8162000a568162000e38565b62000a62838362000e65565b505050565b60008162000a758162000e38565b6098546040516331a9108f60e11b8152600481018590526001600160a01b0390911690636352211e90602401602060405180830381865afa15801562000abf573d6000803e3d6000fd5b505050506040513d601f19601f8201168201806040525081019062000ae59190620019fa565b9392505050565b8162000af88162000e38565b8262000b05813362000e65565b6000848152609a6020908152604091829020600101805461ffff191661ffff8716908117909155915191825285917f1474fd24718a57a289e0055e96191f44492ad95b736dbc24a687a24fa41ddeac910160405180910390a250505050565b600054610100900460ff1662000b815760005460ff161562000b85565b303b155b62000bea5760405162461bcd60e51b815260206004820152602e60248201527f496e697469616c697a61626c653a20636f6e747261637420697320616c72656160448201526d191e481a5b9a5d1a585b1a5e995960921b6064820152608401620004b9565b600054610100900460ff1615801562000c0d576000805461ffff19166101011790555b62000c1762001092565b609780546001600160a01b0319166001600160a01b038416179055604051309062000c429062001488565b6001600160a01b039091168152602001604051809103906000f08015801562000c6f573d6000803e3d6000fd5b50609880546001600160a01b0319166001600160a01b03929092169190911790558015620008f6576000805461ff00191690555050565b60008262000cb48162000e38565b62000cc0848462001101565b949350505050565b6097546001600160a01b03166001600160a01b03166312d9a6ad7f060c8eced3c6b422fe5573c862b67b9f6e25a3fc7d9543b14f7aee77b138e70d336040516001600160e01b031960e085901b16815260048101929092526001600160a01b0316602482015260440160006040518083038186803b15801562000d4a57600080fd5b505afa15801562000d5f573d6000803e3d6000fd5b5062000a629250609991508490508362001496565b60608162000d828162000e38565b6000838152609a60205260409020805462000d9d90620019c4565b80601f016020809104026020016040519081016040528092919081815260200182805462000dcb90620019c4565b801562000e1c5780601f1062000df05761010080835404028352916020019162000e1c565b820191906000526020600020905b81548152906001019060200180831162000dfe57829003601f168201915b5050505050915050919050565b6001600160a01b03163b151590565b62000e438162001188565b6200055f5760405163fb33401760e01b815260048101829052602401620004b9565b62000e71828262001101565b620008f657604051633ae4bab360e21b81526001600160a01b0382166004820152602401620004b9565b6097546001600160a01b03166001600160a01b03166312d9a6ad6000336040516001600160e01b031960e085901b16815260048101929092526001600160a01b0316602482015260440160006040518083038186803b15801562000efe57600080fd5b505afa15801562000f13573d6000803e3d6000fd5b5050505050565b7f4910fdfa16fed3260ed0e7147f7cc6da11a60208b5b9406d12a635614ffd91435460ff161562000f505762000a6283620011ac565b826001600160a01b03166352d1902d6040518163ffffffff1660e01b8152600401602060405180830381865afa92505050801562000fad575060408051601f3d908101601f1916820190925262000faa918101906200195d565b60015b620010125760405162461bcd60e51b815260206004820152602e60248201527f45524331393637557067726164653a206e657720696d706c656d656e7461746960448201526d6f6e206973206e6f74205555505360901b6064820152608401620004b9565b600080516020620031f08339815191528114620010845760405162461bcd60e51b815260206004820152602960248201527f45524331393637557067726164653a20756e737570706f727465642070726f786044820152681a58589b195555525160ba1b6064820152608401620004b9565b5062000a628383836200124b565b600054610100900460ff16620010ff5760405162461bcd60e51b815260206004820152602b60248201527f496e697469616c697a61626c653a20636f6e7472616374206973206e6f74206960448201526a6e697469616c697a696e6760a81b6064820152608401620004b9565b565b6098546040516331a9108f60e11b8152600481018490526000916001600160a01b0384811692911690636352211e90602401602060405180830381865afa15801562001151573d6000803e3d6000fd5b505050506040513d601f19601f82011682018060405250810190620011779190620019fa565b6001600160a01b0316149392505050565b6000818152609a602052604081208054620011a390620019c4565b15159392505050565b6001600160a01b0381163b6200121b5760405162461bcd60e51b815260206004820152602d60248201527f455243313936373a206e657720696d706c656d656e746174696f6e206973206e60448201526c1bdd08184818dbdb9d1c9858dd609a1b6064820152608401620004b9565b600080516020620031f083398151915280546001600160a01b0319166001600160a01b0392909216919091179055565b62001256836200127c565b600082511180620012645750805b1562000a6257620012768383620012be565b50505050565b6200128781620011ac565b6040516001600160a01b038216907fbc7cd75a20ee27fd9adebab32041f755214dbc6bffa90cc0225b39da2e5c2d3b90600090a250565b60606001600160a01b0383163b620013285760405162461bcd60e51b815260206004820152602660248201527f416464726573733a2064656c65676174652063616c6c20746f206e6f6e2d636f6044820152651b9d1c9858dd60d21b6064820152608401620004b9565b600080846001600160a01b03168460405162001345919062001a1a565b600060405180830381855af49150503d806000811462001382576040519150601f19603f3d011682016040523d82523d6000602084013e62001387565b606091505b5091509150620013b282826040518060600160405280602781526020016200321060279139620013bb565b95945050505050565b60608315620013cc57508162000ae5565b825115620013dd5782518084602001fd5b8160405162461bcd60e51b8152600401620004b991906200176e565b8280546200140790620019c4565b90600052602060002090601f0160209004810192826200142b576000855562001476565b82601f106200144657805160ff191683800117855562001476565b8280016001018555821562001476579182015b828111156200147657825182559160200191906001019062001459565b506200148492915062001513565b5090565b6117b78062001a3983390190565b828054620014a490620019c4565b90600052602060002090601f016020900481019282620014c8576000855562001476565b82601f10620014e35782800160ff1982351617855562001476565b8280016001018555821562001476579182015b8281111562001476578235825591602001919060010190620014f6565b5b8082111562001484576000815560010162001514565b6000602082840312156200153d57600080fd5b5035919050565b634e487b7160e01b600052604160045260246000fd5b600067ffffffffffffffff8084111562001578576200157862001544565b604051601f8501601f19908116603f01168101908282118183101715620015a357620015a362001544565b81604052809350858152868686011115620015bd57600080fd5b858560208301376000602087830101525050509392505050565b60008060408385031215620015eb57600080fd5b82359150602083013567ffffffffffffffff8111156200160a57600080fd5b8301601f810185136200161c57600080fd5b6200162d858235602084016200155a565b9150509250929050565b6001600160a01b03811681146200055f57600080fd5b6000602082840312156200166057600080fd5b813562000ae58162001637565b6000602082840312156200168057600080fd5b813567ffffffffffffffff8111156200169857600080fd5b82016040818503121562000ae557600080fd5b60005b83811015620016c8578181015183820152602001620016ae565b83811115620012765750506000910152565b60008151808452620016f4816020860160208601620016ab565b601f01601f19169290920160200192915050565b6040815260006200171d6040830185620016da565b905061ffff831660208301529392505050565b600080604083850312156200174457600080fd5b8235620017518162001637565b9150602083013567ffffffffffffffff8111156200160a57600080fd5b60208152600062000ae56020830184620016da565b600080604083850312156200179757600080fd5b823591506020830135620017ab8162001637565b809150509250929050565b803561ffff81168114620017c957600080fd5b919050565b60008060408385031215620017e257600080fd5b82359150620017f460208401620017b6565b90509250929050565b600080602083850312156200181157600080fd5b823567ffffffffffffffff808211156200182a57600080fd5b818501915085601f8301126200183f57600080fd5b8135818111156200184f57600080fd5b8660208285010111156200186257600080fd5b60209290920196919550909350505050565b6020808252602c908201527f46756e6374696f6e206d7573742062652063616c6c6564207468726f7567682060408201526b19195b1959d85d1958d85b1b60a21b606082015260800190565b6020808252602c908201527f46756e6374696f6e206d7573742062652063616c6c6564207468726f7567682060408201526b6163746976652070726f787960a01b606082015260800190565b6000808335601e198436030181126200192457600080fd5b83018035915067ffffffffffffffff8211156200194057600080fd5b6020019150368190038213156200195657600080fd5b9250929050565b6000602082840312156200197057600080fd5b5051919050565b6000602082840312156200198a57600080fd5b62000ae582620017b6565b60208152816020820152818360408301376000818301604090810191909152601f909201601f19160101919050565b600181811c90821680620019d957607f821691505b602082108103620003c857634e487b7160e01b600052602260045260246000fd5b60006020828403121562001a0d57600080fd5b815162000ae58162001637565b6000825162001a2e818460208701620016ab565b919091019291505056fe60a06040523480156200001157600080fd5b50604051620017b7380380620017b783398101604081905262000034916200014f565b60408051808201825260078152664951566572736560c81b60208083019182528351808501909452600384526224a8ab60e91b9084015281519192916200007e91600091620000a9565b50805162000094906001906020840190620000a9565b5050506001600160a01b0316608052620001bd565b828054620000b79062000181565b90600052602060002090601f016020900481019282620000db576000855562000126565b82601f10620000f657805160ff191683800117855562000126565b8280016001018555821562000126579182015b828111156200012657825182559160200191906001019062000109565b506200013492915062000138565b5090565b5b8082111562000134576000815560010162000139565b6000602082840312156200016257600080fd5b81516001600160a01b03811681146200017a57600080fd5b9392505050565b600181811c908216806200019657607f821691505b602082108103620001b757634e487b7160e01b600052602260045260246000fd5b50919050565b6080516115d7620001e06000396000818161059d0152610c3c01526115d76000f3fe608060405234801561001057600080fd5b50600436106100f55760003560e01c80636a62784211610097578063b88d4fde11610066578063b88d4fde146101ff578063c87b56dd14610212578063e00dd16114610225578063e985e9c51461022d57600080fd5b80636a627842146101b057806370a08231146101d157806395d89b41146101e4578063a22cb465146101ec57600080fd5b8063095ea7b3116100d3578063095ea7b31461016257806323b872dd1461017757806342842e0e1461018a5780636352211e1461019d57600080fd5b806301ffc9a7146100fa57806306fdde0314610122578063081812fc14610137575b600080fd5b61010d610108366004611050565b610269565b60405190151581526020015b60405180910390f35b61012a610294565b60405161011991906110c5565b61014a6101453660046110d8565b610326565b6040516001600160a01b039091168152602001610119565b610175610170366004611108565b6103c0565b005b610175610185366004611132565b6104d5565b610175610198366004611132565b610506565b61014a6101ab3660046110d8565b610521565b6101c36101be36600461116e565b610598565b604051908152602001610119565b6101c36101df36600461116e565b610604565b61012a61068b565b6101756101fa366004611189565b61069a565b61017561020d366004611234565b6106a9565b61012a6102203660046110d8565b6106e1565b6101c36107bc565b61010d61023b3660046112df565b6001600160a01b03918216600090815260056020908152604080832093909416825291909152205460ff1690565b60006001600160e01b03198216638a6fa92360e01b148061028e575061028e826107cc565b92915050565b6060600080546102a390611312565b80601f01602080910402602001604051908101604052809291908181526020018280546102cf90611312565b801561031c5780601f106102f15761010080835404028352916020019161031c565b820191906000526020600020905b8154815290600101906020018083116102ff57829003601f168201915b5050505050905090565b6000818152600260205260408120546001600160a01b03166103a45760405162461bcd60e51b815260206004820152602c60248201527f4552433732313a20617070726f76656420717565727920666f72206e6f6e657860448201526b34b9ba32b73a103a37b5b2b760a11b60648201526084015b60405180910390fd5b506000908152600460205260409020546001600160a01b031690565b60006103cb82610521565b9050806001600160a01b0316836001600160a01b0316036104385760405162461bcd60e51b815260206004820152602160248201527f4552433732313a20617070726f76616c20746f2063757272656e74206f776e656044820152603960f91b606482015260840161039b565b336001600160a01b03821614806104545750610454813361023b565b6104c65760405162461bcd60e51b815260206004820152603860248201527f4552433732313a20617070726f76652063616c6c6572206973206e6f74206f7760448201527f6e6572206e6f7220617070726f76656420666f7220616c6c0000000000000000606482015260840161039b565b6104d0838361081c565b505050565b6104df338261088a565b6104fb5760405162461bcd60e51b815260040161039b9061134c565b6104d0838383610981565b6104d0838383604051806020016040528060008152506106a9565b6000818152600260205260408120546001600160a01b03168061028e5760405162461bcd60e51b815260206004820152602960248201527f4552433732313a206f776e657220717565727920666f72206e6f6e657869737460448201526832b73a103a37b5b2b760b91b606482015260840161039b565b6000337f00000000000000000000000000000000000000000000000000000000000000006001600160a01b0316146105e3576040516357d4e0e760e01b815260040160405180910390fd5b6105f1600680546001019055565b506006546105ff8282610b1d565b919050565b60006001600160a01b03821661066f5760405162461bcd60e51b815260206004820152602a60248201527f4552433732313a2062616c616e636520717565727920666f7220746865207a65604482015269726f206164647265737360b01b606482015260840161039b565b506001600160a01b031660009081526003602052604090205490565b6060600180546102a390611312565b6106a5338383610b37565b5050565b6106b3338361088a565b6106cf5760405162461bcd60e51b815260040161039b9061134c565b6106db84848484610c05565b50505050565b6000818152600260205260409020546060906001600160a01b03166107605760405162461bcd60e51b815260206004820152602f60248201527f4552433732314d657461646174613a2055524920717565727920666f72206e6f60448201526e3732bc34b9ba32b73a103a37b5b2b760891b606482015260840161039b565b600061076a610c38565b9050600081511161078a57604051806020016040528060008152506107b5565b8061079484610cc0565b6040516020016107a592919061139d565b6040516020818303038152906040525b9392505050565b60006107c760065490565b905090565b60006001600160e01b031982166380ac58cd60e01b14806107fd57506001600160e01b03198216635b5e139f60e01b145b8061028e57506301ffc9a760e01b6001600160e01b031983161461028e565b600081815260046020526040902080546001600160a01b0319166001600160a01b038416908117909155819061085182610521565b6001600160a01b03167f8c5be1e5ebec7d5bd14f71427d1e84f3dd0314c0f7b2291e5b200ac8c7c3b92560405160405180910390a45050565b6000818152600260205260408120546001600160a01b03166109035760405162461bcd60e51b815260206004820152602c60248201527f4552433732313a206f70657261746f7220717565727920666f72206e6f6e657860448201526b34b9ba32b73a103a37b5b2b760a11b606482015260840161039b565b600061090e83610521565b9050806001600160a01b0316846001600160a01b031614806109495750836001600160a01b031661093e84610326565b6001600160a01b0316145b8061097957506001600160a01b0380821660009081526005602090815260408083209388168352929052205460ff165b949350505050565b826001600160a01b031661099482610521565b6001600160a01b0316146109f85760405162461bcd60e51b815260206004820152602560248201527f4552433732313a207472616e736665722066726f6d20696e636f72726563742060448201526437bbb732b960d91b606482015260840161039b565b6001600160a01b038216610a5a5760405162461bcd60e51b8152602060048201526024808201527f4552433732313a207472616e7366657220746f20746865207a65726f206164646044820152637265737360e01b606482015260840161039b565b610a6560008261081c565b6001600160a01b0383166000908152600360205260408120805460019290610a8e9084906113e2565b90915550506001600160a01b0382166000908152600360205260408120805460019290610abc9084906113f9565b909155505060008181526002602052604080822080546001600160a01b0319166001600160a01b0386811691821790925591518493918716917fddf252ad1be2c89b69c2b068fc378daa952ba7f163c4a11628f55a4df523b3ef91a4505050565b6106a5828260405180602001604052806000815250610dc1565b816001600160a01b0316836001600160a01b031603610b985760405162461bcd60e51b815260206004820152601960248201527f4552433732313a20617070726f766520746f2063616c6c657200000000000000604482015260640161039b565b6001600160a01b03838116600081815260056020908152604080832094871680845294825291829020805460ff191686151590811790915591519182527f17307eab39ab6107e8899845ad3d59bd9653f200f220920489ca2b5937696c31910160405180910390a3505050565b610c10848484610981565b610c1c84848484610df4565b6106db5760405162461bcd60e51b815260040161039b90611411565b60607f00000000000000000000000000000000000000000000000000000000000000006001600160a01b03166368ede8236040518163ffffffff1660e01b8152600401600060405180830381865afa158015610c98573d6000803e3d6000fd5b505050506040513d6000823e601f3d908101601f191682016040526107c79190810190611463565b606081600003610ce75750506040805180820190915260018152600360fc1b602082015290565b8160005b8115610d115780610cfb816114da565b9150610d0a9050600a83611509565b9150610ceb565b60008167ffffffffffffffff811115610d2c57610d2c6111c5565b6040519080825280601f01601f191660200182016040528015610d56576020820181803683370190505b5090505b841561097957610d6b6001836113e2565b9150610d78600a8661151d565b610d839060306113f9565b60f81b818381518110610d9857610d98611531565b60200101906001600160f81b031916908160001a905350610dba600a86611509565b9450610d5a565b610dcb8383610ef5565b610dd86000848484610df4565b6104d05760405162461bcd60e51b815260040161039b90611411565b60006001600160a01b0384163b15610eea57604051630a85bd0160e11b81526001600160a01b0385169063150b7a0290610e38903390899088908890600401611547565b6020604051808303816000875af1925050508015610e73575060408051601f3d908101601f19168201909252610e7091810190611584565b60015b610ed0573d808015610ea1576040519150601f19603f3d011682016040523d82523d6000602084013e610ea6565b606091505b508051600003610ec85760405162461bcd60e51b815260040161039b90611411565b805181602001fd5b6001600160e01b031916630a85bd0160e11b149050610979565b506001949350505050565b6001600160a01b038216610f4b5760405162461bcd60e51b815260206004820181905260248201527f4552433732313a206d696e7420746f20746865207a65726f2061646472657373604482015260640161039b565b6000818152600260205260409020546001600160a01b031615610fb05760405162461bcd60e51b815260206004820152601c60248201527f4552433732313a20746f6b656e20616c7265616479206d696e74656400000000604482015260640161039b565b6001600160a01b0382166000908152600360205260408120805460019290610fd99084906113f9565b909155505060008181526002602052604080822080546001600160a01b0319166001600160a01b03861690811790915590518392907fddf252ad1be2c89b69c2b068fc378daa952ba7f163c4a11628f55a4df523b3ef908290a45050565b6001600160e01b03198116811461104d57600080fd5b50565b60006020828403121561106257600080fd5b81356107b581611037565b60005b83811015611088578181015183820152602001611070565b838111156106db5750506000910152565b600081518084526110b181602086016020860161106d565b601f01601f19169290920160200192915050565b6020815260006107b56020830184611099565b6000602082840312156110ea57600080fd5b5035919050565b80356001600160a01b03811681146105ff57600080fd5b6000806040838503121561111b57600080fd5b611124836110f1565b946020939093013593505050565b60008060006060848603121561114757600080fd5b611150846110f1565b925061115e602085016110f1565b9150604084013590509250925092565b60006020828403121561118057600080fd5b6107b5826110f1565b6000806040838503121561119c57600080fd5b6111a5836110f1565b9150602083013580151581146111ba57600080fd5b809150509250929050565b634e487b7160e01b600052604160045260246000fd5b604051601f8201601f1916810167ffffffffffffffff81118282101715611204576112046111c5565b604052919050565b600067ffffffffffffffff821115611226576112266111c5565b50601f01601f191660200190565b6000806000806080858703121561124a57600080fd5b611253856110f1565b9350611261602086016110f1565b925060408501359150606085013567ffffffffffffffff81111561128457600080fd5b8501601f8101871361129557600080fd5b80356112a86112a38261120c565b6111db565b8181528860208385010111156112bd57600080fd5b8160208401602083013760006020838301015280935050505092959194509250565b600080604083850312156112f257600080fd5b6112fb836110f1565b9150611309602084016110f1565b90509250929050565b600181811c9082168061132657607f821691505b60208210810361134657634e487b7160e01b600052602260045260246000fd5b50919050565b60208082526031908201527f4552433732313a207472616e736665722063616c6c6572206973206e6f74206f6040820152701ddb995c881b9bdc88185c1c1c9bdd9959607a1b606082015260800190565b600083516113af81846020880161106d565b8351908301906113c381836020880161106d565b01949350505050565b634e487b7160e01b600052601160045260246000fd5b6000828210156113f4576113f46113cc565b500390565b6000821982111561140c5761140c6113cc565b500190565b60208082526032908201527f4552433732313a207472616e7366657220746f206e6f6e20455243373231526560408201527131b2b4bb32b91034b6b83632b6b2b73a32b960711b606082015260800190565b60006020828403121561147557600080fd5b815167ffffffffffffffff81111561148c57600080fd5b8201601f8101841361149d57600080fd5b80516114ab6112a38261120c565b8181528560208385010111156114c057600080fd5b6114d182602083016020860161106d565b95945050505050565b6000600182016114ec576114ec6113cc565b5060010190565b634e487b7160e01b600052601260045260246000fd5b600082611518576115186114f3565b500490565b60008261152c5761152c6114f3565b500690565b634e487b7160e01b600052603260045260246000fd5b6001600160a01b038581168252841660208201526040810183905260806060820181905260009061157a90830184611099565b9695505050505050565b60006020828403121561159657600080fd5b81516107b58161103756fea2646970667358221220db06592b5146e765d56b53d4abf1dd67d4a674edfbddac67675602699be0325464736f6c634300080d0033360894a13ba1a3210667c828492db98dca3e2076cc3735a920a3ca505d382bbc416464726573733a206c6f772d6c6576656c2064656c65676174652063616c6c206661696c6564a264697066735822122020aeb4ca95f30ee83867e3ba12f8124df4e0783048cd0e98594ea7d8611f177964736f6c634300080d0033",
  "linkReferences": {},
  "deployedLinkReferences": {}
}