{
  "_format": "hh-sol-artifact-1",
  "contractName": "ERC721PresetConfigurable",
  "sourceName": "contracts/warper/ERC721/presets/ERC721PresetConfigurable.sol",
  "abi": [
    {
      "inputs": [],
      "name": "BalanceQueryForZeroAddress",
      "type": "error"
    },
    {
      "inputs": [],
      "name": "CallForwardToZeroAddress",
      "type": "error"
    },
    {
      "inputs": [],
      "name": "CallerIsNotMetahub",
      "type": "error"
    },
    {
      "inputs": [],
      "name": "CallerIsNotWarperAdmin",
      "type": "error"
    },
    {
      "inputs": [],
      "name": "ContractIsAlreadyInitialized",
      "type": "error"
    },
    {
      "inputs": [],
      "name": "ContractIsNotInitializing",
      "type": "error"
    },
    {
      "inputs": [],
      "name": "InvalidAvailabilityPeriodEnd",
      "type": "error"
    },
    {
      "inputs": [],
      "name": "InvalidAvailabilityPeriodStart",
      "type": "error"
    },
    {
      "inputs": [],
      "name": "InvalidMaxRentalPeriod",
      "type": "error"
    },
    {
      "inputs": [],
      "name": "InvalidMinRentalPeriod",
      "type": "error"
    },
    {
      "inputs": [
        {
          "internalType": "address",
          "name": "original",
          "type": "address"
        },
        {
          "internalType": "bytes4",
          "name": "requiredInterfaceId",
          "type": "bytes4"
        }
      ],
      "name": "InvalidOriginalTokenInterface",
      "type": "error"
    },
    {
      "inputs": [],
      "name": "MethodNotAllowed",
      "type": "error"
    },
    {
      "inputs": [],
      "name": "MintToTheZeroAddress",
      "type": "error"
    },
    {
      "inputs": [
        {
          "internalType": "uint256",
          "name": "tokenId",
          "type": "uint256"
        }
      ],
      "name": "OperatorQueryForNonexistentToken",
      "type": "error"
    },
    {
      "inputs": [
        {
          "internalType": "uint256",
          "name": "tokenId",
          "type": "uint256"
        }
      ],
      "name": "OwnerQueryForNonexistentToken",
      "type": "error"
    },
    {
      "inputs": [
        {
          "internalType": "uint256",
          "name": "tokenId",
          "type": "uint256"
        }
      ],
      "name": "TokenIsAlreadyMinted",
      "type": "error"
    },
    {
      "inputs": [
        {
          "internalType": "address",
          "name": "to",
          "type": "address"
        }
      ],
      "name": "TransferToNonERC721ReceiverImplementer",
      "type": "error"
    },
    {
      "inputs": [],
      "name": "TransferToTheZeroAddress",
      "type": "error"
    },
    {
      "inputs": [
        {
          "internalType": "uint256",
          "name": "currentTime",
          "type": "uint256"
        },
        {
          "internalType": "uint32",
          "name": "availabilityPeriodStart",
          "type": "uint32"
        },
        {
          "internalType": "uint32",
          "name": "availabilityPeriodEnd",
          "type": "uint32"
        }
      ],
      "name": "WarperIsNotAvailableForRenting",
      "type": "error"
    },
    {
      "inputs": [
        {
          "internalType": "uint32",
          "name": "requestedRentalPeriod",
          "type": "uint32"
        },
        {
          "internalType": "uint32",
          "name": "minRentalPeriod",
          "type": "uint32"
        },
        {
          "internalType": "uint32",
          "name": "maxRentalPeriod",
          "type": "uint32"
        }
      ],
      "name": "WarperRentalPeriodIsOutOfRange",
      "type": "error"
    },
    {
      "anonymous": false,
      "inputs": [
        {
          "indexed": true,
          "internalType": "address",
          "name": "owner",
          "type": "address"
        },
        {
          "indexed": true,
          "internalType": "address",
          "name": "approved",
          "type": "address"
        },
        {
          "indexed": true,
          "internalType": "uint256",
          "name": "tokenId",
          "type": "uint256"
        }
      ],
      "name": "Approval",
      "type": "event"
    },
    {
      "anonymous": false,
      "inputs": [
        {
          "indexed": true,
          "internalType": "address",
          "name": "owner",
          "type": "address"
        },
        {
          "indexed": true,
          "internalType": "address",
          "name": "operator",
          "type": "address"
        },
        {
          "indexed": false,
          "internalType": "bool",
          "name": "approved",
          "type": "bool"
        }
      ],
      "name": "ApprovalForAll",
      "type": "event"
    },
    {
      "anonymous": false,
      "inputs": [
        {
          "indexed": true,
          "internalType": "address",
          "name": "from",
          "type": "address"
        },
        {
          "indexed": true,
          "internalType": "address",
          "name": "to",
          "type": "address"
        },
        {
          "indexed": true,
          "internalType": "uint256",
          "name": "tokenId",
          "type": "uint256"
        }
      ],
      "name": "Transfer",
      "type": "event"
    },
    {
      "stateMutability": "payable",
      "type": "fallback"
    },
    {
      "inputs": [],
      "name": "__assetClass",
      "outputs": [
        {
          "internalType": "bytes4",
          "name": "",
          "type": "bytes4"
        }
      ],
      "stateMutability": "pure",
      "type": "function"
    },
    {
      "inputs": [],
      "name": "__availabilityPeriodEnd",
      "outputs": [
        {
          "internalType": "uint32",
          "name": "",
          "type": "uint32"
        }
      ],
      "stateMutability": "view",
      "type": "function"
    },
    {
      "inputs": [],
      "name": "__availabilityPeriodRange",
      "outputs": [
        {
          "internalType": "uint32",
          "name": "availabilityPeriodStart",
          "type": "uint32"
        },
        {
          "internalType": "uint32",
          "name": "availabilityPeriodEnd",
          "type": "uint32"
        }
      ],
      "stateMutability": "view",
      "type": "function"
    },
    {
      "inputs": [],
      "name": "__availabilityPeriodStart",
      "outputs": [
        {
          "internalType": "uint32",
          "name": "",
          "type": "uint32"
        }
      ],
      "stateMutability": "view",
      "type": "function"
    },
    {
      "inputs": [
        {
          "internalType": "bytes",
          "name": "config",
          "type": "bytes"
        }
      ],
      "name": "__initialize",
      "outputs": [],
      "stateMutability": "nonpayable",
      "type": "function"
    },
    {
      "inputs": [],
      "name": "__maxRentalPeriod",
      "outputs": [
        {
          "internalType": "uint32",
          "name": "",
          "type": "uint32"
        }
      ],
      "stateMutability": "view",
      "type": "function"
    },
    {
      "inputs": [],
      "name": "__metahub",
      "outputs": [
        {
          "internalType": "address",
          "name": "",
          "type": "address"
        }
      ],
      "stateMutability": "view",
      "type": "function"
    },
    {
      "inputs": [],
      "name": "__minRentalPeriod",
      "outputs": [
        {
          "internalType": "uint32",
          "name": "",
          "type": "uint32"
        }
      ],
      "stateMutability": "view",
      "type": "function"
    },
    {
      "inputs": [],
      "name": "__original",
      "outputs": [
        {
          "internalType": "address",
          "name": "",
          "type": "address"
        }
      ],
      "stateMutability": "view",
      "type": "function"
    },
    {
      "inputs": [],
      "name": "__rentalPeriodRange",
      "outputs": [
        {
          "internalType": "uint32",
          "name": "minRentalPeriod",
          "type": "uint32"
        },
        {
          "internalType": "uint32",
          "name": "maxRentalPeriod",
          "type": "uint32"
        }
      ],
      "stateMutability": "view",
      "type": "function"
    },
    {
      "inputs": [
        {
          "internalType": "uint32",
          "name": "availabilityPeriodEnd",
          "type": "uint32"
        }
      ],
      "name": "__setAvailabilityPeriodEnd",
      "outputs": [],
      "stateMutability": "nonpayable",
      "type": "function"
    },
    {
      "inputs": [
        {
          "internalType": "uint32",
          "name": "availabilityPeriodStart",
          "type": "uint32"
        }
      ],
      "name": "__setAvailabilityPeriodStart",
      "outputs": [],
      "stateMutability": "nonpayable",
      "type": "function"
    },
    {
      "inputs": [
        {
          "internalType": "uint32",
          "name": "maxRentalPeriod",
          "type": "uint32"
        }
      ],
      "name": "__setMaxRentalPeriod",
      "outputs": [],
      "stateMutability": "nonpayable",
      "type": "function"
    },
    {
      "inputs": [
        {
          "internalType": "uint32",
          "name": "minRentalPeriod",
          "type": "uint32"
        }
      ],
      "name": "__setMinRentalPeriod",
      "outputs": [],
      "stateMutability": "nonpayable",
      "type": "function"
    },
    {
      "inputs": [
        {
          "internalType": "bytes4[]",
          "name": "interfaceIds",
          "type": "bytes4[]"
        }
      ],
      "name": "__supportedInterfaces",
      "outputs": [
        {
          "internalType": "bool[]",
          "name": "",
          "type": "bool[]"
        }
      ],
      "stateMutability": "view",
      "type": "function"
    },
    {
      "inputs": [
        {
          "internalType": "address",
          "name": "",
          "type": "address"
        },
        {
          "internalType": "uint256",
          "name": "",
          "type": "uint256"
        }
      ],
      "name": "approve",
      "outputs": [],
      "stateMutability": "nonpayable",
      "type": "function"
    },
    {
      "inputs": [
        {
          "internalType": "address",
          "name": "owner",
          "type": "address"
        }
      ],
      "name": "balanceOf",
      "outputs": [
        {
          "internalType": "uint256",
          "name": "",
          "type": "uint256"
        }
      ],
      "stateMutability": "view",
      "type": "function"
    },
    {
      "inputs": [
        {
          "internalType": "uint256",
          "name": "",
          "type": "uint256"
        }
      ],
      "name": "getApproved",
      "outputs": [
        {
          "internalType": "address",
          "name": "",
          "type": "address"
        }
      ],
      "stateMutability": "view",
      "type": "function"
    },
    {
      "inputs": [
        {
          "internalType": "address",
          "name": "",
          "type": "address"
        },
        {
          "internalType": "address",
          "name": "",
          "type": "address"
        }
      ],
      "name": "isApprovedForAll",
      "outputs": [
        {
          "internalType": "bool",
          "name": "",
          "type": "bool"
        }
      ],
      "stateMutability": "view",
      "type": "function"
    },
    {
      "inputs": [
        {
          "internalType": "address",
          "name": "to",
          "type": "address"
        },
        {
          "internalType": "uint256",
          "name": "tokenId",
          "type": "uint256"
        },
        {
          "internalType": "bytes",
          "name": "data",
          "type": "bytes"
        }
      ],
      "name": "mint",
      "outputs": [],
      "stateMutability": "nonpayable",
      "type": "function"
    },
    {
      "inputs": [
        {
          "internalType": "bytes[]",
          "name": "data",
          "type": "bytes[]"
        }
      ],
      "name": "multicall",
      "outputs": [
        {
          "internalType": "bytes[]",
          "name": "results",
          "type": "bytes[]"
        }
      ],
      "stateMutability": "nonpayable",
      "type": "function"
    },
    {
      "inputs": [
        {
          "internalType": "uint256",
          "name": "tokenId",
          "type": "uint256"
        }
      ],
      "name": "ownerOf",
      "outputs": [
        {
          "internalType": "address",
          "name": "",
          "type": "address"
        }
      ],
      "stateMutability": "view",
      "type": "function"
    },
    {
      "inputs": [
        {
          "internalType": "address",
          "name": "from",
          "type": "address"
        },
        {
          "internalType": "address",
          "name": "to",
          "type": "address"
        },
        {
          "internalType": "uint256",
          "name": "tokenId",
          "type": "uint256"
        }
      ],
      "name": "safeTransferFrom",
      "outputs": [],
      "stateMutability": "nonpayable",
      "type": "function"
    },
    {
      "inputs": [
        {
          "internalType": "address",
          "name": "from",
          "type": "address"
        },
        {
          "internalType": "address",
          "name": "to",
          "type": "address"
        },
        {
          "internalType": "uint256",
          "name": "tokenId",
          "type": "uint256"
        },
        {
          "internalType": "bytes",
          "name": "data",
          "type": "bytes"
        }
      ],
      "name": "safeTransferFrom",
      "outputs": [],
      "stateMutability": "nonpayable",
      "type": "function"
    },
    {
      "inputs": [
        {
          "internalType": "address",
          "name": "",
          "type": "address"
        },
        {
          "internalType": "bool",
          "name": "",
          "type": "bool"
        }
      ],
      "name": "setApprovalForAll",
      "outputs": [],
      "stateMutability": "nonpayable",
      "type": "function"
    },
    {
      "inputs": [
        {
          "internalType": "bytes4",
          "name": "interfaceId",
          "type": "bytes4"
        }
      ],
      "name": "supportsInterface",
      "outputs": [
        {
          "internalType": "bool",
          "name": "",
          "type": "bool"
        }
      ],
      "stateMutability": "view",
      "type": "function"
    },
    {
      "inputs": [
        {
          "internalType": "address",
          "name": "from",
          "type": "address"
        },
        {
          "internalType": "address",
          "name": "to",
          "type": "address"
        },
        {
          "internalType": "uint256",
          "name": "tokenId",
          "type": "uint256"
        }
      ],
      "name": "transferFrom",
      "outputs": [],
      "stateMutability": "nonpayable",
      "type": "function"
    },
    {
      "stateMutability": "payable",
      "type": "receive"
    }
  ],
  "bytecode": "0x608060405234801561001057600080fd5b50612244806100206000396000f3fe60806040526004361061019f5760003560e01c80638993dafd116100ec578063b88d4fde1161008a578063e846a5a911610064578063e846a5a9146104d6578063e985e9c5146104f8578063f46c73c614610513578063ffd5b31714610528576101ae565b8063b88d4fde14610481578063c566b080146104a1578063d1958f2c146104c1576101ae565b8063986e9115116100c6578063986e91151461040f578063a22cb46514610424578063ab9a8dcd1461043f578063ac9650d814610454576101ae565b80638993dafd146103af5780638d796a37146103cf57806394d008ef146103ef576101ae565b80632a58f7ac116101595780635a70a283116101335780635a70a283146103225780635e88e74a146103375780636352211e1461036157806370a0823114610381576101ae565b80632a58f7ac146102c257806342842e0e146102e257806356a872bd14610302576101ae565b8062eb6ac7146101b657806301ffc9a7146101ed578063081812fc1461021d578063095ea7b3146102555780631f9e33041461027557806323b872dd146102a2576101ae565b366101ae576101ac61053d565b005b6101ac61053d565b3480156101c257600080fd5b506101cb61054f565b6040805163ffffffff9384168152929091166020830152015b60405180910390f35b3480156101f957600080fd5b5061020d610208366004611aa1565b610563565b60405190151581526020016101e4565b34801561022957600080fd5b5061023d610238366004611abe565b6105ac565b6040516001600160a01b0390911681526020016101e4565b34801561026157600080fd5b506101ac610270366004611aec565b6105c7565b34801561028157600080fd5b50610295610290366004611b5f565b6105e0565b6040516101e49190611c11565b3480156102ae57600080fd5b506101ac6102bd366004611c57565b6105ec565b3480156102ce57600080fd5b506101ac6102dd366004611c98565b6105fc565b3480156102ee57600080fd5b506101ac6102fd366004611c57565b6106e6565b34801561030e57600080fd5b506101ac61031d366004611c98565b610701565b34801561032e57600080fd5b5061023d6107e8565b34801561034357600080fd5b5061034c6107f7565b60405163ffffffff90911681526020016101e4565b34801561036d57600080fd5b5061023d61037c366004611abe565b610809565b34801561038d57600080fd5b506103a161039c366004611cbe565b610944565b6040519081526020016101e4565b3480156103bb57600080fd5b506101ac6103ca366004611cdb565b610a0d565b3480156103db57600080fd5b506101ac6103ea366004611c98565b610b92565b3480156103fb57600080fd5b506101ac61040a366004611dbd565b610c78565b34801561041b57600080fd5b5061034c610d6d565b34801561043057600080fd5b506101ac610270366004611e24565b34801561044b57600080fd5b5061034c610d78565b34801561046057600080fd5b5061047461046f366004611e5d565b610d83565b6040516101e49190611f18565b34801561048d57600080fd5b506101ac61049c366004611f7a565b610e71565b3480156104ad57600080fd5b506101ac6104bc366004611c98565b610e7d565b3480156104cd57600080fd5b506101cb610f64565b3480156104e257600080fd5b506040516339d690a360e11b81526020016101e4565b34801561050457600080fd5b5061020d610238366004611fe6565b34801561051f57600080fd5b5061023d610f6f565b34801561053457600080fd5b5061034c610f79565b61054d610548610f84565b610fc3565b565b60008061055a611010565b90939092509050565b60006001600160e01b03198216638993dafd60e01b1480610588575061058882611059565b80610597575061059782611099565b806105a657506105a6826110d9565b92915050565b60006040516341f8b8eb60e11b815260040160405180910390fd5b6040516341f8b8eb60e11b815260040160405180910390fd5b60606105a63083611119565b6105f78383836111dc565b505050565b6106046112a2565b6001600160a01b031663882080d330336040516001600160e01b031960e085901b1681526001600160a01b03928316600482015291166024820152604401602060405180830381865afa15801561065f573d6000803e3d6000fd5b505050506040513d601f19601f820116820180604052508101906106839190612014565b61069f57604051621c9ee960e91b815260040160405180910390fd5b60006106a96112d2565b9150508063ffffffff168263ffffffff16106106d85760405163e652891d60e01b815260040160405180910390fd5b6106e28282611304565b5050565b6105f783838360405180602001604052806000815250610e71565b6107096112a2565b6001600160a01b031663882080d330336040516001600160e01b031960e085901b1681526001600160a01b03928316600482015291166024820152604401602060405180830381865afa158015610764573d6000803e3d6000fd5b505050506040513d601f19601f820116820180604052508101906107889190612014565b6107a457604051621c9ee960e91b815260040160405180910390fd5b60006107ae611010565b9150508063ffffffff168263ffffffff1611156107de5760405163dea1d81f60e01b815260040160405180910390fd5b6106e28282611350565b60006107f26112a2565b905090565b6000806108026112d2565b5092915050565b600080610814611396565b90506000816001600160a01b0316633f09518c61082f6112a2565b6040516001600160e01b031960e084901b1681526001600160a01b03909116600482015230602482015260448101879052606401602060405180830381865afa158015610880573d6000803e3d6000fd5b505050506040513d601f19601f820116820180604052508101906108a49190612031565b905060008160028111156108ba576108ba612052565b036108e05760405163e4c0734760e01b8152600481018590526024015b60405180910390fd5b60018160028111156108f4576108f4612052565b03610909576109016112a2565b949350505050565b50506000828152602081905260409020546001600160a01b0316806105a65760405163e4c0734760e01b8152600481018490526024016108d7565b60006001600160a01b03821661096d576040516323d3ad8160e21b815260040160405180910390fd5b6000610977611396565b9050806001600160a01b031663bfe0af996109906112a2565b6040516001600160e01b031960e084901b1681526001600160a01b0391821660048201523060248201529086166044820152606401602060405180830381865afa1580156109e2573d6000803e3d6000fd5b505050506040513d601f19601f82011682018060405250810190610a069190612068565b9392505050565b6000610a2e610a2b60016000805160206121ef833981519152612097565b90565b5460ff16610a6e57610a64610a2b60017f37e69e8e563db672cb7e105d3e1915d10ef53975d285d458a13e70818bf53d27612097565b5460ff1615610a72565b303b155b1590508015610a935760405162ea7fe560e71b815260040160405180910390fd5b6000610ab1610a2b60016000805160206121ef833981519152612097565b5460ff161590508015610b29576001610adb610a2b826000805160206121ef833981519152612097565b805460ff19169115159190911790556001610b19610a2b827f37e69e8e563db672cb7e105d3e1915d10ef53975d285d458a13e70818bf53d27612097565b805460ff19169115159190911790555b600080610b3885870187611fe6565b91509150610b46828261140a565b610b4e611462565b610b566114ae565b50508015610b8c576000610b7c610a2b60016000805160206121ef833981519152612097565b805460ff19169115159190911790555b50505050565b610b9a6112a2565b6001600160a01b031663882080d330336040516001600160e01b031960e085901b1681526001600160a01b03928316600482015291166024820152604401602060405180830381865afa158015610bf5573d6000803e3d6000fd5b505050506040513d601f19601f82011682018060405250810190610c199190612014565b610c3557604051621c9ee960e91b815260040160405180910390fd5b6000610c3f6112d2565b5090508163ffffffff168163ffffffff1610610c6e57604051636b97294960e11b815260040160405180910390fd5b6106e28183611304565b6001600160a01b038316610c9f5760405163c96c2a0b60e01b815260040160405180910390fd5b6000828152602081905260409020546001600160a01b031615610cd8576040516376b78f6560e01b8152600481018390526024016108d7565b610ce4600084846114fa565b60008281526020819052604080822080546001600160a01b0319166001600160a01b03871690811790915590518492907fddf252ad1be2c89b69c2b068fc378daa952ba7f163c4a11628f55a4df523b3ef908290a4610d466000848484611533565b6105f75760405162aae5b760e01b81526001600160a01b03841660048201526024016108d7565b600080610a06611010565b600080610802611010565b60608167ffffffffffffffff811115610d9e57610d9e611b18565b604051908082528060200260200182016040528015610dd157816020015b6060815260200190600190039081610dbc5790505b50905060005b8281101561080257610e4130858584818110610df557610df56120ae565b9050602002810190610e0791906120c4565b8080601f01602080910402602001604051908101604052809392919081815260200183838082843760009201919091525061163e92505050565b828281518110610e5357610e536120ae565b60200260200101819052508080610e6990612112565b915050610dd7565b610b8c84848484611663565b610e856112a2565b6001600160a01b031663882080d330336040516001600160e01b031960e085901b1681526001600160a01b03928316600482015291166024820152604401602060405180830381865afa158015610ee0573d6000803e3d6000fd5b505050506040513d601f19601f82011682018060405250810190610f049190612014565b610f2057604051621c9ee960e91b815260040160405180910390fd5b6000610f2a611010565b5090508163ffffffff168163ffffffff161115610f5a5760405163077f3cbd60e11b815260040160405180910390fd5b6106e28183611350565b60008061055a6112d2565b60006107f2610f84565b600080610a066112d2565b6000610fb4610a2b60017f1cd3cead3f33d5ed74fb83a237e17d126ef505cbae350d3d0ffce421e3a1d144612097565b546001600160a01b0316919050565b6001600160a01b038116610fea5760405163eb0308d160e01b815260040160405180910390fd5b34366000803760008036600084865af13d6000803e80801561100b573d6000f35b3d6000fd5b60008080611042610a2b60017f1b3d86ed8dfe582174d4360a5614978a5ce792b2850c12fe4f73655644f0ae46612097565b5463ffffffff602082901c81169591169350915050565b60006001600160e01b031982166394d008ef60e01b148061108a57506001600160e01b031982166380ac58cd60e01b145b806105a657506105a6826116a1565b60006001600160e01b0319821663a7219d9b60e01b14806110ca57506001600160e01b031982166370c8db7160e01b145b806105a657506105a682611059565b60006001600160e01b031982166393cec23d60e01b148061110a57506001600160e01b0319821663331f761f60e01b145b806105a657506105a682611099565b60606000825167ffffffffffffffff81111561113757611137611b18565b604051908082528060200260200182016040528015611160578160200160208202803683370190505b50905061116c846116f3565b15610a065760005b83518110156111d4576111a085858381518110611193576111936120ae565b6020026020010151611726565b8282815181106111b2576111b26120ae565b91151560209283029190910190910152806111cc81612112565b915050611174565b509392505050565b6000818152602081905260409020546001600160a01b03166112145760405163074fede760e51b8152600481018290526024016108d7565b6001600160a01b03821661123b5760405163671d1add60e11b815260040160405180910390fd5b6112468383836114fa565b60008181526020819052604080822080546001600160a01b0319166001600160a01b0386811691821790925591518493918716917fddf252ad1be2c89b69c2b068fc378daa952ba7f163c4a11628f55a4df523b3ef91a4505050565b6000610fb4610a2b60017fc57d320c8f1e45a5114285d6f31191434d3d45422aff570b70ab6787e45bcf00612097565b60008080611042610a2b60017f339f5f72bc92a5319eb93a988a231d1edc8fd9d738d9b83b98fdc16b8304d846612097565b67ffffffff00000000602083901b1663ffffffff8216178061134a610a2b60017f339f5f72bc92a5319eb93a988a231d1edc8fd9d738d9b83b98fdc16b8304d846612097565b55505050565b67ffffffff00000000602083901b1663ffffffff8216178061134a610a2b60017f1b3d86ed8dfe582174d4360a5614978a5ce792b2850c12fe4f73655644f0ae46612097565b60006113a06112a2565b60405163ebf03f4960e01b81523060048201526001600160a01b03919091169063ebf03f4990602401602060405180830381865afa1580156113e6573d6000803e3d6000fd5b505050506040513d601f19601f820116820180604052508101906107f2919061212b565b611426610a2b60016000805160206121ef833981519152612097565b5460ff16611447576040516369be8d9360e11b815260040160405180910390fd5b6114508261180f565b6114598261181b565b6106e2816118a8565b61147e610a2b60016000805160206121ef833981519152612097565b5460ff1661149f576040516369be8d9360e11b815260040160405180910390fd5b61054d600063ffffffff611304565b6114ca610a2b60016000805160206121ef833981519152612097565b5460ff166114eb576040516369be8d9360e11b815260040160405180910390fd5b61054d600063ffffffff611350565b6115026112a2565b6001600160a01b0316336001600160a01b0316146105f75760405163323b4eed60e11b815260040160405180910390fd5b60006001600160a01b0384163b61154c57506001610901565b604051630a85bd0160e11b81526001600160a01b0385169063150b7a029061157e903390899088908890600401612148565b6020604051808303816000875af19250505080156115b9575060408051601f3d908101601f191682019092526115b69181019061217b565b60015b611621573d8080156115e7576040519150601f19603f3d011682016040523d82523d6000602084013e6115ec565b606091505b5080516000036116195760405162aae5b760e01b81526001600160a01b03861660048201526024016108d7565b805181602001fd5b6001600160e01b031916630a85bd0160e11b149050949350505050565b6060610a0683836040518060600160405280602781526020016121c860279139611914565b61166e8484846111dc565b61167a84848484611533565b610b8c5760405162aae5b760e01b81526001600160a01b03841660048201526024016108d7565b60006001600160e01b03198216630b3888fd60e31b14806116d257506001600160e01b031982166301ffc9a760e01b145b806105a657506105a6826116e4610f84565b6001600160a01b0316906119e7565b6000611706826301ffc9a760e01b611726565b80156105a6575061171f826001600160e01b0319611726565b1592915050565b604080516001600160e01b0319831660248083019190915282518083039091018152604490910182526020810180516001600160e01b03166301ffc9a760e01b179052905160009190829081906001600160a01b038716906175309061178d908690612198565b6000604051808303818686fa925050503d80600081146117c9576040519150601f19603f3d011682016040523d82523d6000602084013e6117ce565b606091505b50915091506020815110156117e957600093505050506105a6565b8180156118055750808060200190518101906118059190612014565b9695505050505050565b61181881611a03565b50565b611837610a2b60016000805160206121ef833981519152612097565b5460ff16611858576040516369be8d9360e11b815260040160405180910390fd5b80611887610a2b60017f1cd3cead3f33d5ed74fb83a237e17d126ef505cbae350d3d0ffce421e3a1d144612097565b80546001600160a01b0319166001600160a01b039290921691909117905550565b6118c4610a2b60016000805160206121ef833981519152612097565b5460ff166118e5576040516369be8d9360e11b815260040160405180910390fd5b80611887610a2b60017fc57d320c8f1e45a5114285d6f31191434d3d45422aff570b70ab6787e45bcf00612097565b60606001600160a01b0384163b61197c5760405162461bcd60e51b815260206004820152602660248201527f416464726573733a2064656c65676174652063616c6c20746f206e6f6e2d636f6044820152651b9d1c9858dd60d21b60648201526084016108d7565b600080856001600160a01b0316856040516119979190612198565b600060405180830381855af49150503d80600081146119d2576040519150601f19603f3d011682016040523d82523d6000602084013e6119d7565b606091505b5091509150611805828286611a52565b60006119f2836116f3565b8015610a065750610a068383611726565b611a1d6001600160a01b038216635b5e139f60e01b6119e7565b6118185760405163c30175c560e01b81526001600160a01b0382166004820152635b5e139f60e01b60248201526044016108d7565b60608315611a61575081610a06565b825115611a715782518084602001fd5b8160405162461bcd60e51b81526004016108d791906121b4565b6001600160e01b03198116811461181857600080fd5b600060208284031215611ab357600080fd5b8135610a0681611a8b565b600060208284031215611ad057600080fd5b5035919050565b6001600160a01b038116811461181857600080fd5b60008060408385031215611aff57600080fd5b8235611b0a81611ad7565b946020939093013593505050565b634e487b7160e01b600052604160045260246000fd5b604051601f8201601f1916810167ffffffffffffffff81118282101715611b5757611b57611b18565b604052919050565b60006020808385031215611b7257600080fd5b823567ffffffffffffffff80821115611b8a57600080fd5b818501915085601f830112611b9e57600080fd5b813581811115611bb057611bb0611b18565b8060051b9150611bc1848301611b2e565b8181529183018401918481019088841115611bdb57600080fd5b938501935b83851015611c055784359250611bf583611a8b565b8282529385019390850190611be0565b98975050505050505050565b6020808252825182820181905260009190848201906040850190845b81811015611c4b578351151583529284019291840191600101611c2d565b50909695505050505050565b600080600060608486031215611c6c57600080fd5b8335611c7781611ad7565b92506020840135611c8781611ad7565b929592945050506040919091013590565b600060208284031215611caa57600080fd5b813563ffffffff81168114610a0657600080fd5b600060208284031215611cd057600080fd5b8135610a0681611ad7565b60008060208385031215611cee57600080fd5b823567ffffffffffffffff80821115611d0657600080fd5b818501915085601f830112611d1a57600080fd5b813581811115611d2957600080fd5b866020828501011115611d3b57600080fd5b60209290920196919550909350505050565b600082601f830112611d5e57600080fd5b813567ffffffffffffffff811115611d7857611d78611b18565b611d8b601f8201601f1916602001611b2e565b818152846020838601011115611da057600080fd5b816020850160208301376000918101602001919091529392505050565b600080600060608486031215611dd257600080fd5b8335611ddd81611ad7565b925060208401359150604084013567ffffffffffffffff811115611e0057600080fd5b611e0c86828701611d4d565b9150509250925092565b801515811461181857600080fd5b60008060408385031215611e3757600080fd5b8235611e4281611ad7565b91506020830135611e5281611e16565b809150509250929050565b60008060208385031215611e7057600080fd5b823567ffffffffffffffff80821115611e8857600080fd5b818501915085601f830112611e9c57600080fd5b813581811115611eab57600080fd5b8660208260051b8501011115611d3b57600080fd5b60005b83811015611edb578181015183820152602001611ec3565b83811115610b8c5750506000910152565b60008151808452611f04816020860160208601611ec0565b601f01601f19169290920160200192915050565b6000602080830181845280855180835260408601915060408160051b870101925083870160005b82811015611f6d57603f19888603018452611f5b858351611eec565b94509285019290850190600101611f3f565b5092979650505050505050565b60008060008060808587031215611f9057600080fd5b8435611f9b81611ad7565b93506020850135611fab81611ad7565b925060408501359150606085013567ffffffffffffffff811115611fce57600080fd5b611fda87828801611d4d565b91505092959194509250565b60008060408385031215611ff957600080fd5b823561200481611ad7565b91506020830135611e5281611ad7565b60006020828403121561202657600080fd5b8151610a0681611e16565b60006020828403121561204357600080fd5b815160038110610a0657600080fd5b634e487b7160e01b600052602160045260246000fd5b60006020828403121561207a57600080fd5b5051919050565b634e487b7160e01b600052601160045260246000fd5b6000828210156120a9576120a9612081565b500390565b634e487b7160e01b600052603260045260246000fd5b6000808335601e198436030181126120db57600080fd5b83018035915067ffffffffffffffff8211156120f657600080fd5b60200191503681900382131561210b57600080fd5b9250929050565b60006001820161212457612124612081565b5060010190565b60006020828403121561213d57600080fd5b8151610a0681611ad7565b6001600160a01b038581168252841660208201526040810183905260806060820181905260009061180590830184611eec565b60006020828403121561218d57600080fd5b8151610a0681611a8b565b600082516121aa818460208701611ec0565b9190910192915050565b602081526000610a066020830184611eec56fe416464726573733a206c6f772d6c6576656c2064656c65676174652063616c6c206661696c6564c2221768d9692f01d28cc433c84b2dc197fbcc867663b61d61e17ca4877697faa2646970667358221220ab9edd9534860f1652abb022f3d64fbf84fbdcbadca0108c47c62f12fb7f3ad764736f6c634300080d0033",
  "linkReferences": {},
  "deployedLinkReferences": {}
}