{
  "_format": "hh-sol-artifact-1",
  "contractName": "ERC721WarperControllerMock",
  "sourceName": "contracts/mocks/ERC721WarperControllerMock.sol",
  "abi": [
    {
      "inputs": [],
      "name": "AlreadyRented",
      "type": "error"
    },
    {
      "inputs": [
        {
          "internalType": "bytes4",
          "name": "provided",
          "type": "bytes4"
        },
        {
          "internalType": "bytes4",
          "name": "required",
          "type": "bytes4"
        }
      ],
      "name": "AssetClassMismatch",
      "type": "error"
    },
    {
      "inputs": [
        {
          "internalType": "string",
          "name": "reason",
          "type": "string"
        }
      ],
      "name": "AssetIsNotRentable",
      "type": "error"
    },
    {
      "inputs": [],
      "name": "FunctionMustBeCalledThroughDelegatecall",
      "type": "error"
    },
    {
      "inputs": [],
      "name": "IncompatibleWarperInterface",
      "type": "error"
    },
    {
      "inputs": [
        {
          "internalType": "address",
          "name": "warper",
          "type": "address"
        },
        {
          "internalType": "address",
          "name": "asset",
          "type": "address"
        }
      ],
      "name": "InvalidAssetForWarper",
      "type": "error"
    },
    {
      "inputs": [
        {
          "internalType": "uint256",
          "name": "value",
          "type": "uint256"
        }
      ],
      "name": "InvalidERC721Value",
      "type": "error"
    },
    {
      "inputs": [
        {
          "internalType": "uint256",
          "name": "currentTime",
          "type": "uint256"
        },
        {
          "internalType": "uint32",
          "name": "availabilityPeriodStart",
          "type": "uint32"
        },
        {
          "internalType": "uint32",
          "name": "availabilityPeriodEnd",
          "type": "uint32"
        }
      ],
      "name": "WarperIsNotAvailableForRenting",
      "type": "error"
    },
    {
      "inputs": [
        {
          "internalType": "uint32",
          "name": "requestedRentalPeriod",
          "type": "uint32"
        },
        {
          "internalType": "uint32",
          "name": "minRentalPeriod",
          "type": "uint32"
        },
        {
          "internalType": "uint32",
          "name": "maxRentalPeriod",
          "type": "uint32"
        }
      ],
      "name": "WarperRentalPeriodIsOutOfRange",
      "type": "error"
    },
    {
      "anonymous": false,
      "inputs": [
        {
          "components": [
            {
              "components": [
                {
                  "internalType": "bytes4",
                  "name": "class",
                  "type": "bytes4"
                },
                {
                  "internalType": "bytes",
                  "name": "data",
                  "type": "bytes"
                }
              ],
              "internalType": "struct Assets.AssetId",
              "name": "id",
              "type": "tuple"
            },
            {
              "internalType": "uint256",
              "name": "value",
              "type": "uint256"
            }
          ],
          "indexed": false,
          "internalType": "struct Assets.Asset",
          "name": "asset",
          "type": "tuple"
        },
        {
          "indexed": true,
          "internalType": "address",
          "name": "from",
          "type": "address"
        },
        {
          "indexed": true,
          "internalType": "address",
          "name": "to",
          "type": "address"
        },
        {
          "indexed": false,
          "internalType": "bytes",
          "name": "data",
          "type": "bytes"
        }
      ],
      "name": "AssetTransfer",
      "type": "event"
    },
    {
      "inputs": [],
      "name": "assetClass",
      "outputs": [
        {
          "internalType": "bytes4",
          "name": "",
          "type": "bytes4"
        }
      ],
      "stateMutability": "pure",
      "type": "function"
    },
    {
      "inputs": [
        {
          "components": [
            {
              "components": [
                {
                  "internalType": "bytes4",
                  "name": "class",
                  "type": "bytes4"
                },
                {
                  "internalType": "bytes",
                  "name": "data",
                  "type": "bytes"
                }
              ],
              "internalType": "struct Assets.AssetId",
              "name": "id",
              "type": "tuple"
            },
            {
              "internalType": "uint256",
              "name": "value",
              "type": "uint256"
            }
          ],
          "internalType": "struct Assets.Asset",
          "name": "",
          "type": "tuple"
        },
        {
          "components": [
            {
              "internalType": "uint256",
              "name": "listingId",
              "type": "uint256"
            },
            {
              "internalType": "address",
              "name": "warper",
              "type": "address"
            },
            {
              "internalType": "address",
              "name": "renter",
              "type": "address"
            },
            {
              "internalType": "uint32",
              "name": "rentalPeriod",
              "type": "uint32"
            },
            {
              "internalType": "address",
              "name": "paymentToken",
              "type": "address"
            }
          ],
          "internalType": "struct Rentings.Params",
          "name": "",
          "type": "tuple"
        },
        {
          "internalType": "uint256",
          "name": "",
          "type": "uint256"
        },
        {
          "internalType": "uint256",
          "name": "",
          "type": "uint256"
        }
      ],
      "name": "calculatePremiums",
      "outputs": [
        {
          "internalType": "uint256",
          "name": "",
          "type": "uint256"
        },
        {
          "internalType": "uint256",
          "name": "",
          "type": "uint256"
        }
      ],
      "stateMutability": "view",
      "type": "function"
    },
    {
      "inputs": [
        {
          "internalType": "address",
          "name": "warper",
          "type": "address"
        }
      ],
      "name": "checkCompatibleWarper",
      "outputs": [],
      "stateMutability": "view",
      "type": "function"
    },
    {
      "inputs": [
        {
          "components": [
            {
              "internalType": "bytes4",
              "name": "class",
              "type": "bytes4"
            },
            {
              "internalType": "bytes",
              "name": "data",
              "type": "bytes"
            }
          ],
          "internalType": "struct Assets.AssetId",
          "name": "assetId",
          "type": "tuple"
        }
      ],
      "name": "collectionId",
      "outputs": [
        {
          "internalType": "bytes32",
          "name": "",
          "type": "bytes32"
        }
      ],
      "stateMutability": "pure",
      "type": "function"
    },
    {
      "inputs": [
        {
          "internalType": "address",
          "name": "warper",
          "type": "address"
        }
      ],
      "name": "isCompatibleWarper",
      "outputs": [
        {
          "internalType": "bool",
          "name": "",
          "type": "bool"
        }
      ],
      "stateMutability": "view",
      "type": "function"
    },
    {
      "inputs": [
        {
          "internalType": "address",
          "name": "metahub",
          "type": "address"
        },
        {
          "internalType": "address",
          "name": "warper",
          "type": "address"
        },
        {
          "internalType": "address",
          "name": "renter",
          "type": "address"
        }
      ],
      "name": "rentalBalance",
      "outputs": [
        {
          "internalType": "uint256",
          "name": "",
          "type": "uint256"
        }
      ],
      "stateMutability": "view",
      "type": "function"
    },
    {
      "inputs": [
        {
          "internalType": "address",
          "name": "metahub",
          "type": "address"
        },
        {
          "internalType": "address",
          "name": "warper",
          "type": "address"
        },
        {
          "internalType": "uint256",
          "name": "tokenId",
          "type": "uint256"
        }
      ],
      "name": "rentalStatus",
      "outputs": [
        {
          "internalType": "enum Rentings.RentalStatus",
          "name": "",
          "type": "uint8"
        }
      ],
      "stateMutability": "view",
      "type": "function"
    },
    {
      "inputs": [
        {
          "components": [
            {
              "components": [
                {
                  "internalType": "bytes4",
                  "name": "class",
                  "type": "bytes4"
                },
                {
                  "internalType": "bytes",
                  "name": "data",
                  "type": "bytes"
                }
              ],
              "internalType": "struct Assets.AssetId",
              "name": "id",
              "type": "tuple"
            },
            {
              "internalType": "uint256",
              "name": "value",
              "type": "uint256"
            }
          ],
          "internalType": "struct Assets.Asset",
          "name": "asset",
          "type": "tuple"
        },
        {
          "internalType": "address",
          "name": "vault",
          "type": "address"
        }
      ],
      "name": "returnAssetFromVault",
      "outputs": [],
      "stateMutability": "nonpayable",
      "type": "function"
    },
    {
      "inputs": [
        {
          "internalType": "uint256",
          "name": "universePremium",
          "type": "uint256"
        },
        {
          "internalType": "uint256",
          "name": "listerPremium",
          "type": "uint256"
        }
      ],
      "name": "setPremiums",
      "outputs": [],
      "stateMutability": "nonpayable",
      "type": "function"
    },
    {
      "inputs": [
        {
          "internalType": "bytes4",
          "name": "interfaceId",
          "type": "bytes4"
        }
      ],
      "name": "supportsInterface",
      "outputs": [
        {
          "internalType": "bool",
          "name": "",
          "type": "bool"
        }
      ],
      "stateMutability": "view",
      "type": "function"
    },
    {
      "inputs": [
        {
          "components": [
            {
              "components": [
                {
                  "internalType": "bytes4",
                  "name": "class",
                  "type": "bytes4"
                },
                {
                  "internalType": "bytes",
                  "name": "data",
                  "type": "bytes"
                }
              ],
              "internalType": "struct Assets.AssetId",
              "name": "id",
              "type": "tuple"
            },
            {
              "internalType": "uint256",
              "name": "value",
              "type": "uint256"
            }
          ],
          "internalType": "struct Assets.Asset",
          "name": "asset",
          "type": "tuple"
        },
        {
          "internalType": "address",
          "name": "from",
          "type": "address"
        },
        {
          "internalType": "address",
          "name": "to",
          "type": "address"
        },
        {
          "internalType": "bytes",
          "name": "data",
          "type": "bytes"
        }
      ],
      "name": "transfer",
      "outputs": [],
      "stateMutability": "nonpayable",
      "type": "function"
    },
    {
      "inputs": [
        {
          "components": [
            {
              "components": [
                {
                  "internalType": "bytes4",
                  "name": "class",
                  "type": "bytes4"
                },
                {
                  "internalType": "bytes",
                  "name": "data",
                  "type": "bytes"
                }
              ],
              "internalType": "struct Assets.AssetId",
              "name": "id",
              "type": "tuple"
            },
            {
              "internalType": "uint256",
              "name": "value",
              "type": "uint256"
            }
          ],
          "internalType": "struct Assets.Asset",
          "name": "asset",
          "type": "tuple"
        },
        {
          "internalType": "address",
          "name": "assetOwner",
          "type": "address"
        },
        {
          "internalType": "address",
          "name": "vault",
          "type": "address"
        }
      ],
      "name": "transferAssetToVault",
      "outputs": [],
      "stateMutability": "nonpayable",
      "type": "function"
    },
    {
      "inputs": [
        {
          "components": [
            {
              "components": [
                {
                  "internalType": "bytes4",
                  "name": "class",
                  "type": "bytes4"
                },
                {
                  "internalType": "bytes",
                  "name": "data",
                  "type": "bytes"
                }
              ],
              "internalType": "struct Assets.AssetId",
              "name": "id",
              "type": "tuple"
            },
            {
              "internalType": "uint256",
              "name": "value",
              "type": "uint256"
            }
          ],
          "internalType": "struct Assets.Asset",
          "name": "asset",
          "type": "tuple"
        },
        {
          "components": [
            {
              "internalType": "uint256",
              "name": "listingId",
              "type": "uint256"
            },
            {
              "internalType": "address",
              "name": "warper",
              "type": "address"
            },
            {
              "internalType": "address",
              "name": "renter",
              "type": "address"
            },
            {
              "internalType": "uint32",
              "name": "rentalPeriod",
              "type": "uint32"
            },
            {
              "internalType": "address",
              "name": "paymentToken",
              "type": "address"
            }
          ],
          "internalType": "struct Rentings.Params",
          "name": "rentingParams",
          "type": "tuple"
        }
      ],
      "name": "validateRentingParams",
      "outputs": [],
      "stateMutability": "view",
      "type": "function"
    },
    {
      "inputs": [
        {
          "components": [
            {
              "components": [
                {
                  "internalType": "bytes4",
                  "name": "class",
                  "type": "bytes4"
                },
                {
                  "internalType": "bytes",
                  "name": "data",
                  "type": "bytes"
                }
              ],
              "internalType": "struct Assets.AssetId",
              "name": "id",
              "type": "tuple"
            },
            {
              "internalType": "uint256",
              "name": "value",
              "type": "uint256"
            }
          ],
          "internalType": "struct Assets.Asset",
          "name": "asset",
          "type": "tuple"
        },
        {
          "internalType": "address",
          "name": "warper",
          "type": "address"
        },
        {
          "internalType": "address",
          "name": "to",
          "type": "address"
        }
      ],
      "name": "warp",
      "outputs": [
        {
          "internalType": "bytes32",
          "name": "collectionId",
          "type": "bytes32"
        },
        {
          "components": [
            {
              "components": [
                {
                  "internalType": "bytes4",
                  "name": "class",
                  "type": "bytes4"
                },
                {
                  "internalType": "bytes",
                  "name": "data",
                  "type": "bytes"
                }
              ],
              "internalType": "struct Assets.AssetId",
              "name": "id",
              "type": "tuple"
            },
            {
              "internalType": "uint256",
              "name": "value",
              "type": "uint256"
            }
          ],
          "internalType": "struct Assets.Asset",
          "name": "warpedAsset",
          "type": "tuple"
        }
      ],
      "stateMutability": "nonpayable",
      "type": "function"
    }
  ],
  "bytecode": "0x60a06040523060805234801561001457600080fd5b50608051611a066100456000396000818161083e0152818161090501528181610afa0152610cf50152611a066000f3fe608060405234801561001057600080fd5b50600436106100ea5760003560e01c8063b42ca9e31161008c578063c95eb64d11610066578063c95eb64d146101e7578063e4f75ad314610208578063f19e254e1461021b578063f55383ae1461024d57600080fd5b8063b42ca9e3146101a0578063b7cc2e7b146101b3578063bfe0af99146101d457600080fd5b806361f80647116100c857806361f806471461015257806369bdbd0e1461016557806386c9de051461017857806389897ace1461018d57600080fd5b806301ffc9a7146100ef5780633f09518c1461011757806359b84b7e14610137575b600080fd5b6101026100fd366004611017565b610260565b60405190151581526020015b60405180910390f35b61012a61012536600461104e565b61028b565b60405161010e91906110a5565b6101506101453660046110cd565b600091909155600155565b005b610150610160366004611119565b61030b565b6101506101733660046112fb565b610834565b6040516339d690a360e11b815260200161010e565b61015061019b36600461134c565b6108fb565b6101026101ae3660046113d8565b610956565b6101c66101c13660046113f5565b6109c8565b60405190815260200161010e565b6101c66101e2366004611429565b610a46565b6101fa6101f5366004611474565b610acf565b60405161010e929190611565565b61015061021636600461157e565b610ceb565b6102386102293660046115b5565b60005460015494509492505050565b6040805192835260208301919091520161010e565b61015061025b3660046113d8565b610d54565b60006001600160e01b031982166380e9fe1560e01b1480610285575061028582610d7d565b92915050565b6000836001600160a01b03166333a932036102a68585610db2565b6040518263ffffffff1660e01b81526004016102c29190611613565b602060405180830381865afa1580156102df573d6000803e3d6000fd5b505050506040513d601f19601f820116820180604052508101906103039190611626565b949350505050565b61031c61031783611647565b610e41565b600061032e60408301602084016113d8565b9050600061034d61033f8580611653565b61034890611673565b610eb1565b9150600290506103bf836001600160a01b0316635a70a2836040518163ffffffff1660e01b8152600401602060405180830381865afa158015610394573d6000803e3d6000fd5b505050506040513d601f19601f820116820180604052508101906103b8919061167f565b848461028b565b60028111156103d0576103d061108f565b036103ee57604051633c42e29760e11b815260040160405180910390fd5b60408051600380825260808201909252600091602082016060803683370190505090506370c8db7160e01b8160008151811061042c5761042c61169c565b60200260200101906001600160e01b03191690816001600160e01b0319168152505063331f761f60e01b816001815181106104695761046961169c565b60200260200101906001600160e01b03191690816001600160e01b0319168152505063f11107d160e01b816002815181106104a6576104a661169c565b6001600160e01b0319909216602092830291909101909101526040516307e78cc160e21b81526000906001600160a01b03851690631f9e3304906104ee9085906004016116b2565b600060405180830381865afa15801561050b573d6000803e3d6000fd5b505050506040513d6000823e601f3d908101601f191682016040526105339190810190611710565b9050806000815181106105485761054861169c565b60200260200101511561063157600080856001600160a01b031663d1958f2c6040518163ffffffff1660e01b81526004016040805180830381865afa158015610595573d6000803e3d6000fd5b505050506040513d601f19601f820116820180604052508101906105b991906117ce565b915091508163ffffffff164210806105f5575063ffffffff81166105e36080890160608a016117fd565b6105f39063ffffffff164261181a565b115b1561062e5760405163a01a0f1b60e01b815242600482015263ffffffff8084166024830152821660448201526064015b60405180910390fd5b50505b806001815181106106445761064461169c565b60200260200101511561074657600080856001600160a01b031662eb6ac76040518163ffffffff1660e01b81526004016040805180830381865afa158015610690573d6000803e3d6000fd5b505050506040513d601f19601f820116820180604052508101906106b491906117ce565b909250905063ffffffff82166106d06080890160608a016117fd565b63ffffffff1610806106fc575063ffffffff81166106f46080890160608a016117fd565b63ffffffff16115b156107435761071160808801606089016117fd565b60405163420ba8b160e11b815263ffffffff918216600482015281841660248201529082166044820152606401610625565b50505b806002815181106107595761075961169c565b60200260200101511561082c576000806001600160a01b03861663f11107d161078860608a0160408b016113d8565b6040516001600160e01b031960e084901b1681526001600160a01b0390911660048201526024810188905260208b01356044820152606401600060405180830381865afa1580156107dd573d6000803e3d6000fd5b505050506040513d6000823e601f3d908101601f191682016040526108059190810190611840565b9150915081610829578060405163b0df8c7b60e01b815260040161062591906118c9565b50505b505050505050565b6001600160a01b037f000000000000000000000000000000000000000000000000000000000000000016300361087d57604051637170f3db60e01b815260040160405180910390fd5b61088682610e41565b6000806108968460000151610eb1565b60405163be2b9a7960e01b81526001600160a01b038084166004830152602482018390529294509092509084169063be2b9a7990604401600060405180830381600087803b1580156108e757600080fd5b505af1158015610829573d6000803e3d6000fd5b6001600160a01b037f000000000000000000000000000000000000000000000000000000000000000016300361094457604051637170f3db60e01b815260040160405180910390fd5b61095084848484610ed5565b50505050565b6040516301ffc9a760e01b81526394d008ef60e01b60048201526000906001600160a01b038316906301ffc9a790602401602060405180830381865afa1580156109a4573d6000803e3d6000fd5b505050506040513d601f19601f8201168201806040525081019061028591906118dc565b80516000906001600160e01b0319166339d690a360e11b14610a355781517f73ad2146b3d3a286642c794379d750360a2d53a3459a11b3e5d6cc900f55f44a5b604051632e82eea160e11b81526001600160e01b0319928316600482015291166024820152604401610625565b610285610a4183610fac565b610fc6565b6000836001600160a01b0316631e347878610a6085610fc6565b6040516001600160e01b031960e084901b16815260048101919091526001600160a01b0385166024820152604401602060405180830381865afa158015610aab573d6000803e3d6000fd5b505050506040513d601f19601f8201168201806040525081019061030391906118f7565b6040805160808101825260009181018281526060808301528152602081018290526001600160a01b037f0000000000000000000000000000000000000000000000000000000000000000163003610b3957604051637170f3db60e01b815260040160405180910390fd5b610b4561031786611647565b600080610b5561033f8880611653565b91509150856001600160a01b031663f46c73c66040518163ffffffff1660e01b8152600401602060405180830381865afa158015610b97573d6000803e3d6000fd5b505050506040513d601f19601f82011682018060405250810190610bbb919061167f565b6001600160a01b0316826001600160a01b031614610bff576040516307a3e91560e41b81526001600160a01b03808816600483015283166024820152604401610625565b6040518060400160405280610c148884610db2565b81526020898101359101529250610c2a86610fc6565b93506000610c3930888461028b565b6002811115610c4a57610c4a61108f565b03610cc357604080516000815260208101918290526394d008ef60e01b9091526001600160a01b038716906394d008ef90610c8c908890859060248101611910565b600060405180830381600087803b158015610ca657600080fd5b505af1158015610cba573d6000803e3d6000fd5b50505050610ce1565b604080516000815260208101909152610ce190849030908890610ed5565b5050935093915050565b6001600160a01b037f0000000000000000000000000000000000000000000000000000000000000000163003610d3457604051637170f3db60e01b815260040160405180910390fd5b610d4f83838360405180602001604052806000815250610ed5565b505050565b610d5d81610956565b610d7a576040516347ac7e5360e11b815260040160405180910390fd5b50565b60006001600160e01b031982166335c66d6d60e01b148061028557506301ffc9a760e01b6001600160e01b0319831614610285565b6040805180820190915260008152606060208201526040518060400160405280610df97f73ad2146b3d3a286642c794379d750360a2d53a3459a11b3e5d6cc900f55f44a90565b6001600160e01b0319168152604080516001600160a01b03871660208281019190915291810186905291019060600160408051601f1981840301815291905290529392505050565b8051516001600160e01b0319166339d690a360e11b14610e84578051517f73ad2146b3d3a286642c794379d750360a2d53a3459a11b3e5d6cc900f55f44a610a08565b8060200151600114610d7a5780602001516040516383f261dd60e01b815260040161062591815260200190565b6000808260200151806020019051810190610ecc9190611940565b91509150915091565b610ede84610e41565b600080610eee8660000151610eb1565b604051635c46a7ef60e11b815291935091506001600160a01b0383169063b88d4fde90610f2590889088908690899060040161196e565b600060405180830381600087803b158015610f3f57600080fd5b505af1158015610f53573d6000803e3d6000fd5b50505050836001600160a01b0316856001600160a01b03167ff65cd7509f02971efd9615ae50140cecf872cd4a266e3f6cac29f9b091fb32c78886604051610f9c9291906119ab565b60405180910390a3505050505050565b60008160200151806020019051810190610285919061167f565b604080516001600160a01b038316602082015260009101604051602081830303815290604052805190602001209050919050565b80356001600160e01b03198116811461101257600080fd5b919050565b60006020828403121561102957600080fd5b61103282610ffa565b9392505050565b6001600160a01b0381168114610d7a57600080fd5b60008060006060848603121561106357600080fd5b833561106e81611039565b9250602084013561107e81611039565b929592945050506040919091013590565b634e487b7160e01b600052602160045260246000fd5b60208101600383106110c757634e487b7160e01b600052602160045260246000fd5b91905290565b600080604083850312156110e057600080fd5b50508035926020909101359150565b60006040828403121561110157600080fd5b50919050565b600060a0828403121561110157600080fd5b60008060c0838503121561112c57600080fd5b82356001600160401b0381111561114257600080fd5b61114e858286016110ef565b92505061115e8460208501611107565b90509250929050565b634e487b7160e01b600052604160045260246000fd5b604080519081016001600160401b038111828210171561119f5761119f611167565b60405290565b604051601f8201601f191681016001600160401b03811182821017156111cd576111cd611167565b604052919050565b60006001600160401b038211156111ee576111ee611167565b50601f01601f191660200190565b600082601f83011261120d57600080fd5b813561122061121b826111d5565b6111a5565b81815284602083860101111561123557600080fd5b816020850160208301376000918101602001919091529392505050565b60006040828403121561126457600080fd5b61126c61117d565b905061127782610ffa565b815260208201356001600160401b0381111561129257600080fd5b61129e848285016111fc565b60208301525092915050565b6000604082840312156112bc57600080fd5b6112c461117d565b905081356001600160401b038111156112dc57600080fd5b6112e884828501611252565b8252506020820135602082015292915050565b6000806040838503121561130e57600080fd5b82356001600160401b0381111561132457600080fd5b611330858286016112aa565b925050602083013561134181611039565b809150509250929050565b6000806000806080858703121561136257600080fd5b84356001600160401b038082111561137957600080fd5b611385888389016112aa565b95506020870135915061139782611039565b9093506040860135906113a982611039565b909250606086013590808211156113bf57600080fd5b506113cc878288016111fc565b91505092959194509250565b6000602082840312156113ea57600080fd5b813561103281611039565b60006020828403121561140757600080fd5b81356001600160401b0381111561141d57600080fd5b61030384828501611252565b60008060006060848603121561143e57600080fd5b833561144981611039565b9250602084013561145981611039565b9150604084013561146981611039565b809150509250925092565b60008060006060848603121561148957600080fd5b83356001600160401b0381111561149f57600080fd5b6114ab868287016110ef565b935050602084013561145981611039565b60005b838110156114d75781810151838201526020016114bf565b838111156109505750506000910152565b600081518084526115008160208601602086016114bc565b601f01601f19169290920160200192915050565b63ffffffff60e01b8151168252600060208201516040602085015261030360408501826114e8565b60008151604084526115516040850182611514565b602093840151949093019390935250919050565b828152604060208201526000610303604083018461153c565b60008060006060848603121561159357600080fd5b83356001600160401b038111156115a957600080fd5b6114ab868287016112aa565b60008060008061010085870312156115cc57600080fd5b84356001600160401b038111156115e257600080fd5b6115ee878288016110ef565b9450506115fe8660208701611107565b939693955050505060c08201359160e0013590565b6020815260006110326020830184611514565b60006020828403121561163857600080fd5b81516003811061103257600080fd5b600061028536836112aa565b60008235603e1983360301811261166957600080fd5b9190910192915050565b60006102853683611252565b60006020828403121561169157600080fd5b815161103281611039565b634e487b7160e01b600052603260045260246000fd5b6020808252825182820181905260009190848201906040850190845b818110156116f45783516001600160e01b031916835292840192918401916001016116ce565b50909695505050505050565b8051801515811461101257600080fd5b6000602080838503121561172357600080fd5b82516001600160401b038082111561173a57600080fd5b818501915085601f83011261174e57600080fd5b81518181111561176057611760611167565b8060051b91506117718483016111a5565b818152918301840191848101908884111561178b57600080fd5b938501935b838510156117b0576117a185611700565b82529385019390850190611790565b98975050505050505050565b63ffffffff81168114610d7a57600080fd5b600080604083850312156117e157600080fd5b82516117ec816117bc565b6020840151909250611341816117bc565b60006020828403121561180f57600080fd5b8135611032816117bc565b6000821982111561183b57634e487b7160e01b600052601160045260246000fd5b500190565b6000806040838503121561185357600080fd5b61185c83611700565b915060208301516001600160401b0381111561187757600080fd5b8301601f8101851361188857600080fd5b805161189661121b826111d5565b8181528660208385010111156118ab57600080fd5b6118bc8260208301602086016114bc565b8093505050509250929050565b60208152600061103260208301846114e8565b6000602082840312156118ee57600080fd5b61103282611700565b60006020828403121561190957600080fd5b5051919050565b60018060a01b038416815282602082015260606040820152600061193760608301846114e8565b95945050505050565b6000806040838503121561195357600080fd5b825161195e81611039565b6020939093015192949293505050565b6001600160a01b03858116825284166020820152604081018390526080606082018190526000906119a1908301846114e8565b9695505050505050565b6040815260006119be604083018561153c565b828103602084015261193781856114e856fea2646970667358221220cd3b4e62fc945bfbc00fc870e742e7c2431a871843d4291457748f553cc2019564736f6c634300080d0033",
  "linkReferences": {},
  "deployedLinkReferences": {}
}