{
  "_format": "hh-sol-artifact-1",
  "contractName": "Listings",
  "sourceName": "contracts/listing/Listings.sol",
  "abi": [
    {
      "inputs": [
        {
          "internalType": "uint32",
          "name": "period",
          "type": "uint32"
        }
      ],
      "name": "InvalidLockPeriod",
      "type": "error"
    },
    {
      "inputs": [],
      "name": "ListingIsNotPaused",
      "type": "error"
    },
    {
      "inputs": [],
      "name": "ListingIsPaused",
      "type": "error"
    },
    {
      "inputs": [
        {
          "internalType": "uint256",
          "name": "listingId",
          "type": "uint256"
        }
      ],
      "name": "NotListed",
      "type": "error"
    },
    {
      "inputs": [
        {
          "internalType": "bytes4",
          "name": "strategyId",
          "type": "bytes4"
        }
      ],
      "name": "UnsupportedListingStrategy",
      "type": "error"
    },
    {
      "inputs": [],
      "name": "FIXED_PRICE",
      "outputs": [
        {
          "internalType": "bytes4",
          "name": "",
          "type": "bytes4"
        }
      ],
      "stateMutability": "view",
      "type": "function"
    }
  ],
  "bytecode": "0x61128d61003a600b82828239805160001a60731461002d57634e487b7160e01b600052600060045260246000fd5b30600052607381538281f3fe730000000000000000000000000000000000000000301460806040526004361061006c5760003560e01c80636f8beb0e146100715780637608f8741461009b5780637bc13e01146100ae578063869cdfc3146100dc578063d6628cd41461011c578063f7596f991461013e575b600080fd5b61008461007f366004610c7e565b610151565b604051610092929190610d26565b60405180910390f35b6100846100a9366004610e55565b61018b565b8180156100ba57600080fd5b506100ce6100c9366004611049565b6101a9565b604051908152602001610092565b6101037fce9777391fa247355879fc92b08060840e80f62fb5e0475cfb28c8a89bfff98381565b6040516001600160e01b03199091168152602001610092565b81801561012857600080fd5b5061013c61013736600461114d565b610372565b005b61008461014c366004610c7e565b610532565b6001600160a01b03831660009081526006850160205260409020606090819061017d908790868661055a565b915091505b94509492505050565b60608061019d8560028101868661055a565b91509150935093915050565b8154600190810180845560008181526004850160209081526040909120845180518051835463ffffffff191660e09190911c1783558084015180519596889694959394869485936101ff93850192910190610af6565b5050506020918201516002919091015582810151805160038401805463ffffffff191660e09290921c919091178155818301518051929391926102489260048701920190610af6565b505050604082015160059190910180546060840151608085015160a086015160c087015160e0909701516001600160a01b039096166001600160c01b031990941693909317600160a01b63ffffffff938416021764ffffffffff60c01b1916600160c01b9183169190910260ff60e01b191617600160e01b921515929092029190911761ffff60e81b1916600160e81b9415159490940260ff60f01b191693909317600160f01b9215159290920291909117905561030d906002850190839061093516565b506040808301516001600160a01b0316600090815260058501602052206103349082610935565b5061036b8184600601600061034c866000015161094a565b6001600160a01b03168152602081019190915260400160002090610935565b5092915050565b600081815260048301602052604080822060058101548251608081018452825460e01b6001600160e01b0319169381019384526001830180546001600160a01b039093169594610466949293849284916060850191906103d19061116f565b80601f01602080910402602001604051908101604052809291908181526020018280546103fd9061116f565b801561044a5780601f1061041f5761010080835404028352916020019161044a565b820191906000526020600020905b81548152906001019060200180831161042d57829003601f168201915b505050505081525050815260200160028201548152505061094a565b90506104756002850184610968565b506001600160a01b0382166000908152600585016020526040902061049a9084610968565b506001600160a01b038116600090815260068501602052604090206104bf9084610968565b5060008381526004850160205260408120805463ffffffff1916815590818181816104ed6001830182610b7a565b505060006002929092018290555060038301805463ffffffff19168155906105186004850182610b7a565b50505060050180546001600160f81b031916905550505050565b6001600160a01b03831660009081526005850160205260409020606090819061017d90879086865b606080600061056886610974565b90508085106105b557604080516000808252602082018181528284019093529091906105aa565b610597610bb7565b81526020019060019003908161058f5790505b509250925050610182565b6105bf85826111bf565b8411156105d3576105d085826111bf565b93505b60008467ffffffffffffffff8111156105ee576105ee610e81565b60405190808252806020026020018201604052801561062757816020015b610614610bb7565b81526020019060019003908161060c5790505b50905060008567ffffffffffffffff81111561064557610645610e81565b60405190808252806020026020018201604052801561066e578160200160208202803683370190505b50905060005b8681101561092757610690610689828a6111d6565b8a9061097e565b8282815181106106a2576106a26111ee565b6020026020010181815250508960040160008383815181106106c6576106c66111ee565b6020908102919091018101518252810191909152604090810160002081516101808101909252805460e01b6001600160e01b0319166101408301908152600182018054849261010084019285928492918491610160880191906107289061116f565b80601f01602080910402602001604051908101604052809291908181526020018280546107549061116f565b80156107a15780601f10610776576101008083540402835291602001916107a1565b820191906000526020600020905b81548152906001019060200180831161078457829003601f168201915b50505050508152505081526020016002820154815250508152602001600382016040518060400160405290816000820160009054906101000a900460e01b6001600160e01b0319166001600160e01b03191681526020016001820180546108079061116f565b80601f01602080910402602001604051908101604052809291908181526020018280546108339061116f565b80156108805780601f1061085557610100808354040283529160200191610880565b820191906000526020600020905b81548152906001019060200180831161086357829003601f168201915b505050919092525050508152600591909101546001600160a01b038116602083015263ffffffff600160a01b820481166040840152600160c01b820416606083015260ff600160e01b8204811615156080840152600160e81b82048116151560a0840152600160f01b90910416151560c0909101528351849083908110610909576109096111ee565b6020026020010181905250808061091f90611204565b915050610674565b509890975095505050505050565b6000610941838361098a565b90505b92915050565b6000816000015160200151806020019051810190610944919061121d565b600061094183836109d9565b6000610944825490565b60006109418383610acc565b60008181526001830160205260408120546109d157508154600181810184556000848152602080822090930184905584548482528286019093526040902091909155610944565b506000610944565b60008181526001830160205260408120548015610ac25760006109fd6001836111bf565b8554909150600090610a11906001906111bf565b9050818114610a76576000866000018281548110610a3157610a316111ee565b9060005260206000200154905080876000018481548110610a5457610a546111ee565b6000918252602080832090910192909255918252600188019052604090208390555b8554869080610a8757610a87611241565b600190038181906000526020600020016000905590558560010160008681526020019081526020016000206000905560019350505050610944565b6000915050610944565b6000826000018281548110610ae357610ae36111ee565b9060005260206000200154905092915050565b828054610b029061116f565b90600052602060002090601f016020900481019282610b245760008555610b6a565b82601f10610b3d57805160ff1916838001178555610b6a565b82800160010185558215610b6a579182015b82811115610b6a578251825591602001919060010190610b4f565b50610b76929150610c44565b5090565b508054610b869061116f565b6000825580601f10610b96575050565b601f016020900490600052602060002090810190610bb49190610c44565b50565b604080516101808101909152600061014082018181526060610160840152610100830190815261012083019190915281908152602001610c14604051806040016040528060006001600160e01b0319168152602001606081525090565b815260006020820181905260408201819052606082018190526080820181905260a0820181905260c09091015290565b5b80821115610b765760008155600101610c45565b6001600160a01b0381168114610bb457600080fd5b8035610c7981610c59565b919050565b60008060008060808587031215610c9457600080fd5b843593506020850135610ca681610c59565b93969395505050506040820135916060013590565b63ffffffff60e01b81511682526000602080830151604082860152805180604087015260005b81811015610cfd57828101840151878201606001528301610ce1565b81811115610d0f576000606083890101525b50601f01601f191694909401606001949350505050565b6040808252835182820181905260009190606090818501906020808901865b83811015610d6157815185529382019390820190600101610d45565b50508683038188015287518084528184019250600581901b8401820189830160005b83811015610e4457601f198784030186528151610100815181865280518c83880152610db3610140880182610cbb565b92505087810151610120870152508682015185820388870152610dd68282610cbb565b9150508a820151610df18c8701826001600160a01b03169052565b508982015163ffffffff908116868c01526080808401519091169086015260a08083015115159086015260c08083015115159086015260e091820151151591909401529484019490840190600101610d83565b50909b9a5050505050505050505050565b600080600060608486031215610e6a57600080fd5b505081359360208301359350604090920135919050565b634e487b7160e01b600052604160045260246000fd5b6040805190810167ffffffffffffffff81118282101715610eba57610eba610e81565b60405290565b604051610100810167ffffffffffffffff81118282101715610eba57610eba610e81565b604051601f8201601f1916810167ffffffffffffffff81118282101715610f0d57610f0d610e81565b604052919050565b600060408284031215610f2757600080fd5b610f2f610e97565b905081356001600160e01b031981168114610f4957600080fd5b815260208281013567ffffffffffffffff80821115610f6757600080fd5b818501915085601f830112610f7b57600080fd5b813581811115610f8d57610f8d610e81565b610f9f601f8201601f19168501610ee4565b91508082528684828501011115610fb557600080fd5b80848401858401376000908201840152918301919091525092915050565b600060408284031215610fe557600080fd5b610fed610e97565b9050813567ffffffffffffffff81111561100657600080fd5b61101284828501610f15565b8252506020820135602082015292915050565b803563ffffffff81168114610c7957600080fd5b80358015158114610c7957600080fd5b6000806040838503121561105c57600080fd5b82359150602083013567ffffffffffffffff8082111561107b57600080fd5b90840190610100828703121561109057600080fd5b611098610ec0565b8235828111156110a757600080fd5b6110b388828601610fd3565b8252506020830135828111156110c857600080fd5b6110d488828601610f15565b6020830152506110e660408401610c6e565b60408201526110f760608401611025565b606082015261110860808401611025565b608082015261111960a08401611039565b60a082015261112a60c08401611039565b60c082015261113b60e08401611039565b60e08201528093505050509250929050565b6000806040838503121561116057600080fd5b50508035926020909101359150565b600181811c9082168061118357607f821691505b6020821081036111a357634e487b7160e01b600052602260045260246000fd5b50919050565b634e487b7160e01b600052601160045260246000fd5b6000828210156111d1576111d16111a9565b500390565b600082198211156111e9576111e96111a9565b500190565b634e487b7160e01b600052603260045260246000fd5b600060018201611216576112166111a9565b5060010190565b60006020828403121561122f57600080fd5b815161123a81610c59565b9392505050565b634e487b7160e01b600052603160045260246000fdfea264697066735822122080f6c27d77b153799d08a99167fb6671500d0a3367ae7ded672e620486c7fe2f64736f6c634300080d0033",
  "linkReferences": {},
  "deployedLinkReferences": {}
}