{
  "_format": "hh-sol-artifact-1",
  "contractName": "ERC721AssetController",
  "sourceName": "contracts/asset/ERC721/ERC721AssetController.sol",
  "abi": [
    {
      "inputs": [
        {
          "internalType": "bytes4",
          "name": "provided",
          "type": "bytes4"
        },
        {
          "internalType": "bytes4",
          "name": "required",
          "type": "bytes4"
        }
      ],
      "name": "AssetClassMismatch",
      "type": "error"
    },
    {
      "inputs": [],
      "name": "FunctionMustBeCalledThroughDelegatecall",
      "type": "error"
    },
    {
      "inputs": [
        {
          "internalType": "uint256",
          "name": "value",
          "type": "uint256"
        }
      ],
      "name": "InvalidERC721Value",
      "type": "error"
    },
    {
      "anonymous": false,
      "inputs": [
        {
          "components": [
            {
              "components": [
                {
                  "internalType": "bytes4",
                  "name": "class",
                  "type": "bytes4"
                },
                {
                  "internalType": "bytes",
                  "name": "data",
                  "type": "bytes"
                }
              ],
              "internalType": "struct Assets.AssetId",
              "name": "id",
              "type": "tuple"
            },
            {
              "internalType": "uint256",
              "name": "value",
              "type": "uint256"
            }
          ],
          "indexed": false,
          "internalType": "struct Assets.Asset",
          "name": "asset",
          "type": "tuple"
        },
        {
          "indexed": true,
          "internalType": "address",
          "name": "from",
          "type": "address"
        },
        {
          "indexed": true,
          "internalType": "address",
          "name": "to",
          "type": "address"
        },
        {
          "indexed": false,
          "internalType": "bytes",
          "name": "data",
          "type": "bytes"
        }
      ],
      "name": "AssetTransfer",
      "type": "event"
    },
    {
      "inputs": [],
      "name": "assetClass",
      "outputs": [
        {
          "internalType": "bytes4",
          "name": "",
          "type": "bytes4"
        }
      ],
      "stateMutability": "pure",
      "type": "function"
    },
    {
      "inputs": [
        {
          "components": [
            {
              "internalType": "bytes4",
              "name": "class",
              "type": "bytes4"
            },
            {
              "internalType": "bytes",
              "name": "data",
              "type": "bytes"
            }
          ],
          "internalType": "struct Assets.AssetId",
          "name": "assetId",
          "type": "tuple"
        }
      ],
      "name": "collectionId",
      "outputs": [
        {
          "internalType": "bytes32",
          "name": "",
          "type": "bytes32"
        }
      ],
      "stateMutability": "pure",
      "type": "function"
    },
    {
      "inputs": [
        {
          "components": [
            {
              "components": [
                {
                  "internalType": "bytes4",
                  "name": "class",
                  "type": "bytes4"
                },
                {
                  "internalType": "bytes",
                  "name": "data",
                  "type": "bytes"
                }
              ],
              "internalType": "struct Assets.AssetId",
              "name": "id",
              "type": "tuple"
            },
            {
              "internalType": "uint256",
              "name": "value",
              "type": "uint256"
            }
          ],
          "internalType": "struct Assets.Asset",
          "name": "asset",
          "type": "tuple"
        },
        {
          "internalType": "address",
          "name": "vault",
          "type": "address"
        }
      ],
      "name": "returnAssetFromVault",
      "outputs": [],
      "stateMutability": "nonpayable",
      "type": "function"
    },
    {
      "inputs": [
        {
          "internalType": "bytes4",
          "name": "interfaceId",
          "type": "bytes4"
        }
      ],
      "name": "supportsInterface",
      "outputs": [
        {
          "internalType": "bool",
          "name": "",
          "type": "bool"
        }
      ],
      "stateMutability": "view",
      "type": "function"
    },
    {
      "inputs": [
        {
          "components": [
            {
              "components": [
                {
                  "internalType": "bytes4",
                  "name": "class",
                  "type": "bytes4"
                },
                {
                  "internalType": "bytes",
                  "name": "data",
                  "type": "bytes"
                }
              ],
              "internalType": "struct Assets.AssetId",
              "name": "id",
              "type": "tuple"
            },
            {
              "internalType": "uint256",
              "name": "value",
              "type": "uint256"
            }
          ],
          "internalType": "struct Assets.Asset",
          "name": "asset",
          "type": "tuple"
        },
        {
          "internalType": "address",
          "name": "from",
          "type": "address"
        },
        {
          "internalType": "address",
          "name": "to",
          "type": "address"
        },
        {
          "internalType": "bytes",
          "name": "data",
          "type": "bytes"
        }
      ],
      "name": "transfer",
      "outputs": [],
      "stateMutability": "nonpayable",
      "type": "function"
    },
    {
      "inputs": [
        {
          "components": [
            {
              "components": [
                {
                  "internalType": "bytes4",
                  "name": "class",
                  "type": "bytes4"
                },
                {
                  "internalType": "bytes",
                  "name": "data",
                  "type": "bytes"
                }
              ],
              "internalType": "struct Assets.AssetId",
              "name": "id",
              "type": "tuple"
            },
            {
              "internalType": "uint256",
              "name": "value",
              "type": "uint256"
            }
          ],
          "internalType": "struct Assets.Asset",
          "name": "asset",
          "type": "tuple"
        },
        {
          "internalType": "address",
          "name": "assetOwner",
          "type": "address"
        },
        {
          "internalType": "address",
          "name": "vault",
          "type": "address"
        }
      ],
      "name": "transferAssetToVault",
      "outputs": [],
      "stateMutability": "nonpayable",
      "type": "function"
    }
  ],
  "bytecode": "0x60a06040523060805234801561001457600080fd5b506080516109bc61003e6000396000818161014101528181610212015261031f01526109bc6000f3fe608060405234801561001057600080fd5b50600436106100625760003560e01c806301ffc9a71461006757806369bdbd0e1461008f57806386c9de05146100a457806389897ace146100b9578063b7cc2e7b146100cc578063e4f75ad3146100ed575b600080fd5b61007a610075366004610523565b610100565b60405190151581526020015b60405180910390f35b6100a261009d3660046106d1565b610137565b005b6040516339d690a360e11b8152602001610086565b6100a26100c7366004610723565b610208565b6100df6100da3660046107b0565b610263565b604051908152602001610086565b6100a26100fb3660046107ed565b610315565b60006001600160e01b031982166335c66d6d60e01b148061013157506301ffc9a760e01b6001600160e01b03198316145b92915050565b6001600160a01b037f000000000000000000000000000000000000000000000000000000000000000016300361018057604051637170f3db60e01b815260040160405180910390fd5b6101898261037e565b60008061019984600001516103f1565b60405163be2b9a7960e01b81526001600160a01b038084166004830152602482018390529294509092509084169063be2b9a7990604401600060405180830381600087803b1580156101ea57600080fd5b505af11580156101fe573d6000803e3d6000fd5b5050505050505050565b6001600160a01b037f000000000000000000000000000000000000000000000000000000000000000016300361025157604051637170f3db60e01b815260040160405180910390fd5b61025d84848484610415565b50505050565b80516000906001600160e01b0319166339d690a360e11b146102d55781517f73ad2146b3d3a286642c794379d750360a2d53a3459a11b3e5d6cc900f55f44a5b604051632e82eea160e11b81526001600160e01b03199283166004820152911660248201526044015b60405180910390fd5b6101316102e1836104ec565b604080516001600160a01b038316602082015260009101604051602081830303815290604052805190602001209050919050565b6001600160a01b037f000000000000000000000000000000000000000000000000000000000000000016300361035e57604051637170f3db60e01b815260040160405180910390fd5b61037983838360405180602001604052806000815250610415565b505050565b8051516001600160e01b0319166339d690a360e11b146103c1578051517f73ad2146b3d3a286642c794379d750360a2d53a3459a11b3e5d6cc900f55f44a6102a3565b80602001516001146103ee5780602001516040516383f261dd60e01b81526004016102cc91815260200190565b50565b600080826020015180602001905181019061040c9190610851565b91509150915091565b61041e8461037e565b60008061042e86600001516103f1565b604051635c46a7ef60e11b815291935091506001600160a01b0383169063b88d4fde906104659088908890869089906004016108cc565b600060405180830381600087803b15801561047f57600080fd5b505af1158015610493573d6000803e3d6000fd5b50505050836001600160a01b0316856001600160a01b03167ff65cd7509f02971efd9615ae50140cecf872cd4a266e3f6cac29f9b091fb32c788866040516104dc929190610909565b60405180910390a3505050505050565b600081602001518060200190518101906101319190610969565b80356001600160e01b03198116811461051e57600080fd5b919050565b60006020828403121561053557600080fd5b61053e82610506565b9392505050565b634e487b7160e01b600052604160045260246000fd5b6040805190810167ffffffffffffffff8111828210171561057e5761057e610545565b60405290565b600082601f83011261059557600080fd5b813567ffffffffffffffff808211156105b0576105b0610545565b604051601f8301601f19908116603f011681019082821181831017156105d8576105d8610545565b816040528381528660208588010111156105f157600080fd5b836020870160208301376000602085830101528094505050505092915050565b60006040828403121561062357600080fd5b61062b61055b565b905061063682610506565b8152602082013567ffffffffffffffff81111561065257600080fd5b61065e84828501610584565b60208301525092915050565b60006040828403121561067c57600080fd5b61068461055b565b9050813567ffffffffffffffff81111561069d57600080fd5b6106a984828501610611565b8252506020820135602082015292915050565b6001600160a01b03811681146103ee57600080fd5b600080604083850312156106e457600080fd5b823567ffffffffffffffff8111156106fb57600080fd5b6107078582860161066a565b9250506020830135610718816106bc565b809150509250929050565b6000806000806080858703121561073957600080fd5b843567ffffffffffffffff8082111561075157600080fd5b61075d8883890161066a565b95506020870135915061076f826106bc565b909350604086013590610781826106bc565b9092506060860135908082111561079757600080fd5b506107a487828801610584565b91505092959194509250565b6000602082840312156107c257600080fd5b813567ffffffffffffffff8111156107d957600080fd5b6107e584828501610611565b949350505050565b60008060006060848603121561080257600080fd5b833567ffffffffffffffff81111561081957600080fd5b6108258682870161066a565b9350506020840135610836816106bc565b91506040840135610846816106bc565b809150509250925092565b6000806040838503121561086457600080fd5b825161086f816106bc565b6020939093015192949293505050565b6000815180845260005b818110156108a557602081850181015186830182015201610889565b818111156108b7576000602083870101525b50601f01601f19169290920160200192915050565b6001600160a01b03858116825284166020820152604081018390526080606082018190526000906108ff9083018461087f565b9695505050505050565b604081526000835160408084015263ffffffff60e01b815116608084015260208101519050604060a084015261094260c084018261087f565b9050602085015160608401528281036020840152610960818561087f565b95945050505050565b60006020828403121561097b57600080fd5b815161053e816106bc56fea26469706673582212204dbcd0d199d3d9a95707cf018a56ccd9de40a08cb0d8c562529e270b318c872164736f6c634300080d0033",
  "linkReferences": {},
  "deployedLinkReferences": {}
}