{
  "_format": "hh-sol-artifact-1",
  "contractName": "AssetClassRegistry",
  "sourceName": "contracts/asset/AssetClassRegistry.sol",
  "abi": [
    {
      "inputs": [],
      "stateMutability": "nonpayable",
      "type": "constructor"
    },
    {
      "inputs": [
        {
          "internalType": "bytes4",
          "name": "assetClass",
          "type": "bytes4"
        }
      ],
      "name": "AssetClassIsAlreadyRegistered",
      "type": "error"
    },
    {
      "inputs": [
        {
          "internalType": "bytes4",
          "name": "provided",
          "type": "bytes4"
        },
        {
          "internalType": "bytes4",
          "name": "required",
          "type": "bytes4"
        }
      ],
      "name": "AssetClassMismatch",
      "type": "error"
    },
    {
      "inputs": [],
      "name": "InvalidAssetControllerInterface",
      "type": "error"
    },
    {
      "inputs": [],
      "name": "InvalidAssetVaultInterface",
      "type": "error"
    },
    {
      "inputs": [
        {
          "internalType": "bytes4",
          "name": "assetClass",
          "type": "bytes4"
        }
      ],
      "name": "UnregisteredAssetClass",
      "type": "error"
    },
    {
      "anonymous": false,
      "inputs": [
        {
          "indexed": false,
          "internalType": "address",
          "name": "previousAdmin",
          "type": "address"
        },
        {
          "indexed": false,
          "internalType": "address",
          "name": "newAdmin",
          "type": "address"
        }
      ],
      "name": "AdminChanged",
      "type": "event"
    },
    {
      "anonymous": false,
      "inputs": [
        {
          "indexed": true,
          "internalType": "bytes4",
          "name": "assetClass",
          "type": "bytes4"
        },
        {
          "indexed": true,
          "internalType": "address",
          "name": "newController",
          "type": "address"
        }
      ],
      "name": "AssetClassControllerChanged",
      "type": "event"
    },
    {
      "anonymous": false,
      "inputs": [
        {
          "indexed": true,
          "internalType": "bytes4",
          "name": "assetClass",
          "type": "bytes4"
        },
        {
          "indexed": true,
          "internalType": "address",
          "name": "controller",
          "type": "address"
        },
        {
          "indexed": true,
          "internalType": "address",
          "name": "vault",
          "type": "address"
        }
      ],
      "name": "AssetClassRegistered",
      "type": "event"
    },
    {
      "anonymous": false,
      "inputs": [
        {
          "indexed": true,
          "internalType": "bytes4",
          "name": "assetClass",
          "type": "bytes4"
        },
        {
          "indexed": true,
          "internalType": "address",
          "name": "newVault",
          "type": "address"
        }
      ],
      "name": "AssetClassVaultChanged",
      "type": "event"
    },
    {
      "anonymous": false,
      "inputs": [
        {
          "indexed": true,
          "internalType": "address",
          "name": "beacon",
          "type": "address"
        }
      ],
      "name": "BeaconUpgraded",
      "type": "event"
    },
    {
      "anonymous": false,
      "inputs": [
        {
          "indexed": true,
          "internalType": "address",
          "name": "implementation",
          "type": "address"
        }
      ],
      "name": "Upgraded",
      "type": "event"
    },
    {
      "inputs": [
        {
          "internalType": "bytes4",
          "name": "assetClass",
          "type": "bytes4"
        }
      ],
      "name": "assetClassConfig",
      "outputs": [
        {
          "components": [
            {
              "internalType": "address",
              "name": "vault",
              "type": "address"
            },
            {
              "internalType": "address",
              "name": "controller",
              "type": "address"
            }
          ],
          "internalType": "struct IAssetClassRegistry.ClassConfig",
          "name": "",
          "type": "tuple"
        }
      ],
      "stateMutability": "view",
      "type": "function"
    },
    {
      "inputs": [
        {
          "internalType": "bytes4",
          "name": "assetClass",
          "type": "bytes4"
        }
      ],
      "name": "checkRegisteredAssetClass",
      "outputs": [],
      "stateMutability": "view",
      "type": "function"
    },
    {
      "inputs": [
        {
          "internalType": "address",
          "name": "acl",
          "type": "address"
        }
      ],
      "name": "initialize",
      "outputs": [],
      "stateMutability": "nonpayable",
      "type": "function"
    },
    {
      "inputs": [
        {
          "internalType": "bytes4",
          "name": "assetClass",
          "type": "bytes4"
        }
      ],
      "name": "isRegisteredAssetClass",
      "outputs": [
        {
          "internalType": "bool",
          "name": "",
          "type": "bool"
        }
      ],
      "stateMutability": "view",
      "type": "function"
    },
    {
      "inputs": [],
      "name": "proxiableUUID",
      "outputs": [
        {
          "internalType": "bytes32",
          "name": "",
          "type": "bytes32"
        }
      ],
      "stateMutability": "view",
      "type": "function"
    },
    {
      "inputs": [
        {
          "internalType": "bytes4",
          "name": "assetClass",
          "type": "bytes4"
        },
        {
          "components": [
            {
              "internalType": "address",
              "name": "vault",
              "type": "address"
            },
            {
              "internalType": "address",
              "name": "controller",
              "type": "address"
            }
          ],
          "internalType": "struct IAssetClassRegistry.ClassConfig",
          "name": "config",
          "type": "tuple"
        }
      ],
      "name": "registerAssetClass",
      "outputs": [],
      "stateMutability": "nonpayable",
      "type": "function"
    },
    {
      "inputs": [
        {
          "internalType": "bytes4",
          "name": "assetClass",
          "type": "bytes4"
        },
        {
          "internalType": "address",
          "name": "controller",
          "type": "address"
        }
      ],
      "name": "setAssetClassController",
      "outputs": [],
      "stateMutability": "nonpayable",
      "type": "function"
    },
    {
      "inputs": [
        {
          "internalType": "bytes4",
          "name": "assetClass",
          "type": "bytes4"
        },
        {
          "internalType": "address",
          "name": "vault",
          "type": "address"
        }
      ],
      "name": "setAssetClassVault",
      "outputs": [],
      "stateMutability": "nonpayable",
      "type": "function"
    },
    {
      "inputs": [
        {
          "internalType": "address",
          "name": "newImplementation",
          "type": "address"
        }
      ],
      "name": "upgradeTo",
      "outputs": [],
      "stateMutability": "nonpayable",
      "type": "function"
    },
    {
      "inputs": [
        {
          "internalType": "address",
          "name": "newImplementation",
          "type": "address"
        },
        {
          "internalType": "bytes",
          "name": "data",
          "type": "bytes"
        }
      ],
      "name": "upgradeToAndCall",
      "outputs": [],
      "stateMutability": "payable",
      "type": "function"
    }
  ],
  "bytecode": "0x60a0604052306080523480156200001557600080fd5b50600054610100900460ff16620000335760005460ff16156200003d565b6200003d620000e2565b620000a55760405162461bcd60e51b815260206004820152602e60248201527f496e697469616c697a61626c653a20636f6e747261637420697320616c72656160448201526d191e481a5b9a5d1a585b1a5e995960921b606482015260840160405180910390fd5b600054610100900460ff16158015620000c8576000805461ffff19166101011790555b8015620000db576000805461ff00191690555b506200010f565b6000620000fa306200010060201b620009601760201c565b15905090565b6001600160a01b03163b151590565b60805161144c620001476000396000818161024e0152818161028e0152818161032a0152818161036a01526103fd015261144c6000f3fe6080604052600436106100915760003560e01c8063aacfcf4711610059578063aacfcf4714610143578063b421447014610163578063c4d66de8146101aa578063f767118d146101ca578063fca6a520146101ea57600080fd5b8063182daec6146100965780633659cfe6146100b85780634f1ef286146100d857806352d1902d146100eb5780637bc34b2014610113575b600080fd5b3480156100a257600080fd5b506100b66100b1366004611070565b61020a565b005b3480156100c457600080fd5b506100b66100d33660046110a2565b610244565b6100b66100e63660046110d5565b610320565b3480156100f757600080fd5b506101006103f0565b6040519081526020015b60405180910390f35b34801561011f57600080fd5b5061013361012e366004611070565b6104a3565b604051901515815260200161010a565b34801561014f57600080fd5b506100b661015e366004611199565b6104cd565b34801561016f57600080fd5b5061018361017e366004611070565b6105be565b6040805182516001600160a01b03908116825260209384015116928101929092520161010a565b3480156101b657600080fd5b506100b66101c53660046110a2565b61061f565b3480156101d657600080fd5b506100b66101e5366004611199565b6106fb565b3480156101f657600080fd5b506100b66102053660046111d2565b6107ef565b610213816104a3565b61024157604051632b35d9cb60e01b81526001600160e01b0319821660048201526024015b60405180910390fd5b50565b6001600160a01b037f000000000000000000000000000000000000000000000000000000000000000016300361028c5760405162461bcd60e51b815260040161023890611213565b7f00000000000000000000000000000000000000000000000000000000000000006001600160a01b03166102d56000805160206113d0833981519152546001600160a01b031690565b6001600160a01b0316146102fb5760405162461bcd60e51b81526004016102389061125f565b6103048161096f565b60408051600080825260208201909252610241918391906109ec565b6001600160a01b037f00000000000000000000000000000000000000000000000000000000000000001630036103685760405162461bcd60e51b815260040161023890611213565b7f00000000000000000000000000000000000000000000000000000000000000006001600160a01b03166103b16000805160206113d0833981519152546001600160a01b031690565b6001600160a01b0316146103d75760405162461bcd60e51b81526004016102389061125f565b6103e08261096f565b6103ec828260016109ec565b5050565b6000306001600160a01b037f000000000000000000000000000000000000000000000000000000000000000016146104905760405162461bcd60e51b815260206004820152603860248201527f555550535570677261646561626c653a206d757374206e6f742062652063616c60448201527f6c6564207468726f7567682064656c656761746563616c6c00000000000000006064820152608401610238565b506000805160206113d083398151915290565b6001600160e01b0319166000908152609860205260409020600101546001600160a01b0316151590565b6097546001600160a01b03166001600160a01b03166312d9a6ad6000336040516001600160e01b031960e085901b16815260048101929092526001600160a01b0316602482015260440160006040518083038186803b15801561052f57600080fd5b505afa158015610543573d6000803e3d6000fd5b50505050816105518161020a565b61055b8383610b5c565b6001600160e01b0319831660008181526098602052604080822080546001600160a01b0319166001600160a01b03871690811790915590519092917f7c4ab6a15a7d90e44abd5036e7f2b6eab3323ecde809390ea1a16b582e601dd391a3505050565b6040805180820190915260008082526020820152816105dc8161020a565b50506001600160e01b031916600090815260986020908152604091829020825180840190935280546001600160a01b039081168452600190910154169082015290565b600054610100900460ff1661063a5760005460ff161561063e565b303b155b6106a15760405162461bcd60e51b815260206004820152602e60248201527f496e697469616c697a61626c653a20636f6e747261637420697320616c72656160448201526d191e481a5b9a5d1a585b1a5e995960921b6064820152608401610238565b600054610100900460ff161580156106c3576000805461ffff19166101011790555b6106cb610c3a565b609780546001600160a01b0319166001600160a01b03841617905580156103ec576000805461ff00191690555050565b6097546001600160a01b03166001600160a01b03166312d9a6ad6000336040516001600160e01b031960e085901b16815260048101929092526001600160a01b0316602482015260440160006040518083038186803b15801561075d57600080fd5b505afa158015610771573d6000803e3d6000fd5b505050508161077f8161020a565b6107898383610ca7565b6001600160e01b0319831660008181526098602052604080822060010180546001600160a01b0319166001600160a01b03871690811790915590519092917ff7ce73a48d39af4a6c3966296e45bc45517dec92625f72ed87bad106a53bf5a691a3505050565b6097546001600160a01b03166001600160a01b03166312d9a6ad6000336040516001600160e01b031960e085901b16815260048101929092526001600160a01b0316602482015260440160006040518083038186803b15801561085157600080fd5b505afa158015610865573d6000803e3d6000fd5b505050506108858282602001602081019061088091906110a2565b610ca7565b61089b8261089660208401846110a2565b610b5c565b6108a4826104a3565b156108ce57604051637f3c19b360e01b81526001600160e01b031983166004820152602401610238565b6001600160e01b03198216600090815260986020526040902081906108f382826112cb565b50610903905060208201826110a2565b6001600160a01b031661091c60408301602084016110a2565b6001600160a01b0316836001600160e01b0319167f73a78e6875d8f3f477a3a5816e5a73504913b8ed88f03772fcfba490cb765ea660405160405180910390a45050565b6001600160a01b03163b151590565b6097546001600160a01b03166001600160a01b03166312d9a6ad6000336040516001600160e01b031960e085901b16815260048101929092526001600160a01b0316602482015260440160006040518083038186803b1580156109d157600080fd5b505afa1580156109e5573d6000803e3d6000fd5b5050505050565b7f4910fdfa16fed3260ed0e7147f7cc6da11a60208b5b9406d12a635614ffd91435460ff1615610a2457610a1f83610cde565b505050565b826001600160a01b03166352d1902d6040518163ffffffff1660e01b8152600401602060405180830381865afa925050508015610a7e575060408051601f3d908101601f19168201909252610a7b918101906112fc565b60015b610ae15760405162461bcd60e51b815260206004820152602e60248201527f45524331393637557067726164653a206e657720696d706c656d656e7461746960448201526d6f6e206973206e6f74205555505360901b6064820152608401610238565b6000805160206113d08339815191528114610b505760405162461bcd60e51b815260206004820152602960248201527f45524331393637557067726164653a20756e737570706f727465642070726f786044820152681a58589b195555525160ba1b6064820152608401610238565b50610a1f838383610d7a565b610b766001600160a01b03821663238e2e1760e01b610da5565b610b9357604051630d8a7d3360e11b815260040160405180910390fd5b6000816001600160a01b03166386c9de056040518163ffffffff1660e01b8152600401602060405180830381865afa158015610bd3573d6000803e3d6000fd5b505050506040513d601f19601f82011682018060405250810190610bf79190611315565b90506001600160e01b031980821690841614610a1f57604051632e82eea160e11b81526001600160e01b0319808316600483015284166024820152604401610238565b600054610100900460ff16610ca55760405162461bcd60e51b815260206004820152602b60248201527f496e697469616c697a61626c653a20636f6e7472616374206973206e6f74206960448201526a6e697469616c697a696e6760a81b6064820152608401610238565b565b610cc16001600160a01b0382166335c66d6d60e01b610da5565b610b93576040516385ab02ad60e01b815260040160405180910390fd5b6001600160a01b0381163b610d4b5760405162461bcd60e51b815260206004820152602d60248201527f455243313936373a206e657720696d706c656d656e746174696f6e206973206e60448201526c1bdd08184818dbdb9d1c9858dd609a1b6064820152608401610238565b6000805160206113d083398151915280546001600160a01b0319166001600160a01b0392909216919091179055565b610d8383610dca565b600082511180610d905750805b15610a1f57610d9f8383610e0a565b50505050565b6000610db083610efe565b8015610dc15750610dc18383610f31565b90505b92915050565b610dd381610cde565b6040516001600160a01b038216907fbc7cd75a20ee27fd9adebab32041f755214dbc6bffa90cc0225b39da2e5c2d3b90600090a250565b60606001600160a01b0383163b610e725760405162461bcd60e51b815260206004820152602660248201527f416464726573733a2064656c65676174652063616c6c20746f206e6f6e2d636f6044820152651b9d1c9858dd60d21b6064820152608401610238565b600080846001600160a01b031684604051610e8d919061135e565b600060405180830381855af49150503d8060008114610ec8576040519150601f19603f3d011682016040523d82523d6000602084013e610ecd565b606091505b5091509150610ef582826040518060600160405280602781526020016113f06027913961101a565b95945050505050565b6000610f11826301ffc9a760e01b610f31565b8015610dc45750610f2a826001600160e01b0319610f31565b1592915050565b604080516001600160e01b0319831660248083019190915282518083039091018152604490910182526020810180516001600160e01b03166301ffc9a760e01b179052905160009190829081906001600160a01b0387169061753090610f9890869061135e565b6000604051808303818686fa925050503d8060008114610fd4576040519150601f19603f3d011682016040523d82523d6000602084013e610fd9565b606091505b5091509150602081511015610ff45760009350505050610dc4565b818015611010575080806020019051810190611010919061137a565b9695505050505050565b60608315611029575081611053565b8251156110395782518084602001fd5b8160405162461bcd60e51b8152600401610238919061139c565b9392505050565b6001600160e01b03198116811461024157600080fd5b60006020828403121561108257600080fd5b81356110538161105a565b6001600160a01b038116811461024157600080fd5b6000602082840312156110b457600080fd5b81356110538161108d565b634e487b7160e01b600052604160045260246000fd5b600080604083850312156110e857600080fd5b82356110f38161108d565b9150602083013567ffffffffffffffff8082111561111057600080fd5b818501915085601f83011261112457600080fd5b813581811115611136576111366110bf565b604051601f8201601f19908116603f0116810190838211818310171561115e5761115e6110bf565b8160405282815288602084870101111561117757600080fd5b8260208601602083013760006020848301015280955050505050509250929050565b600080604083850312156111ac57600080fd5b82356111b78161105a565b915060208301356111c78161108d565b809150509250929050565b60008082840360608112156111e657600080fd5b83356111f18161105a565b92506040601f198201121561120557600080fd5b506020830190509250929050565b6020808252602c908201527f46756e6374696f6e206d7573742062652063616c6c6564207468726f7567682060408201526b19195b1959d85d1958d85b1b60a21b606082015260800190565b6020808252602c908201527f46756e6374696f6e206d7573742062652063616c6c6564207468726f7567682060408201526b6163746976652070726f787960a01b606082015260800190565b80546001600160a01b0319166001600160a01b0392909216919091179055565b81356112d68161108d565b6112e081836112ab565b5060208201356112ef8161108d565b610a1f81600184016112ab565b60006020828403121561130e57600080fd5b5051919050565b60006020828403121561132757600080fd5b81516110538161105a565b60005b8381101561134d578181015183820152602001611335565b83811115610d9f5750506000910152565b60008251611370818460208701611332565b9190910192915050565b60006020828403121561138c57600080fd5b8151801515811461105357600080fd5b60208152600082518060208401526113bb816040850160208701611332565b601f01601f1916919091016040019291505056fe360894a13ba1a3210667c828492db98dca3e2076cc3735a920a3ca505d382bbc416464726573733a206c6f772d6c6576656c2064656c65676174652063616c6c206661696c6564a2646970667358221220ffd5fcb5660f2aa4475a389cd3610ce01f18aa175172c64333e600ad8a769b0064736f6c634300080d0033",
  "linkReferences": {},
  "deployedLinkReferences": {}
}