{
  "_format": "hh-sol-artifact-1",
  "contractName": "ERC721AssetVault",
  "sourceName": "contracts/asset/ERC721/ERC721AssetVault.sol",
  "abi": [
    {
      "inputs": [
        {
          "internalType": "address",
          "name": "operator",
          "type": "address"
        },
        {
          "internalType": "address",
          "name": "acl",
          "type": "address"
        }
      ],
      "stateMutability": "nonpayable",
      "type": "constructor"
    },
    {
      "inputs": [],
      "name": "AssetDepositIsNotAllowed",
      "type": "error"
    },
    {
      "inputs": [],
      "name": "AssetNotFound",
      "type": "error"
    },
    {
      "inputs": [],
      "name": "AssetReturnIsNotAllowed",
      "type": "error"
    },
    {
      "inputs": [],
      "name": "VaultIsInRecoveryMode",
      "type": "error"
    },
    {
      "anonymous": false,
      "inputs": [
        {
          "indexed": false,
          "internalType": "address",
          "name": "account",
          "type": "address"
        }
      ],
      "name": "Paused",
      "type": "event"
    },
    {
      "anonymous": false,
      "inputs": [
        {
          "indexed": false,
          "internalType": "address",
          "name": "account",
          "type": "address"
        }
      ],
      "name": "RecoveryModeActivated",
      "type": "event"
    },
    {
      "anonymous": false,
      "inputs": [
        {
          "indexed": false,
          "internalType": "address",
          "name": "account",
          "type": "address"
        }
      ],
      "name": "Unpaused",
      "type": "event"
    },
    {
      "inputs": [],
      "name": "assetClass",
      "outputs": [
        {
          "internalType": "bytes4",
          "name": "",
          "type": "bytes4"
        }
      ],
      "stateMutability": "pure",
      "type": "function"
    },
    {
      "inputs": [],
      "name": "isRecovery",
      "outputs": [
        {
          "internalType": "bool",
          "name": "",
          "type": "bool"
        }
      ],
      "stateMutability": "view",
      "type": "function"
    },
    {
      "inputs": [],
      "name": "metahub",
      "outputs": [
        {
          "internalType": "address",
          "name": "",
          "type": "address"
        }
      ],
      "stateMutability": "view",
      "type": "function"
    },
    {
      "inputs": [
        {
          "internalType": "address",
          "name": "operator",
          "type": "address"
        },
        {
          "internalType": "address",
          "name": "from",
          "type": "address"
        },
        {
          "internalType": "uint256",
          "name": "tokenId",
          "type": "uint256"
        },
        {
          "internalType": "bytes",
          "name": "",
          "type": "bytes"
        }
      ],
      "name": "onERC721Received",
      "outputs": [
        {
          "internalType": "bytes4",
          "name": "",
          "type": "bytes4"
        }
      ],
      "stateMutability": "nonpayable",
      "type": "function"
    },
    {
      "inputs": [],
      "name": "pause",
      "outputs": [],
      "stateMutability": "nonpayable",
      "type": "function"
    },
    {
      "inputs": [],
      "name": "paused",
      "outputs": [
        {
          "internalType": "bool",
          "name": "",
          "type": "bool"
        }
      ],
      "stateMutability": "view",
      "type": "function"
    },
    {
      "inputs": [
        {
          "internalType": "address",
          "name": "token",
          "type": "address"
        },
        {
          "internalType": "uint256",
          "name": "tokenId",
          "type": "uint256"
        }
      ],
      "name": "returnToOwner",
      "outputs": [],
      "stateMutability": "nonpayable",
      "type": "function"
    },
    {
      "inputs": [
        {
          "internalType": "bytes4",
          "name": "interfaceId",
          "type": "bytes4"
        }
      ],
      "name": "supportsInterface",
      "outputs": [
        {
          "internalType": "bool",
          "name": "",
          "type": "bool"
        }
      ],
      "stateMutability": "view",
      "type": "function"
    },
    {
      "inputs": [],
      "name": "switchToRecoveryMode",
      "outputs": [],
      "stateMutability": "nonpayable",
      "type": "function"
    },
    {
      "inputs": [],
      "name": "unpause",
      "outputs": [],
      "stateMutability": "nonpayable",
      "type": "function"
    }
  ],
  "bytecode": "0x608060405234801561001057600080fd5b5060405161096838038061096883398101604081905261002f91610086565b600080546001600160b01b031916620100006001600160a01b0394851602179055600180546001600160a01b031916919092161790556100b9565b80516001600160a01b038116811461008157600080fd5b919050565b6000806040838503121561009957600080fd5b6100a28361006a565b91506100b06020840161006a565b90509250929050565b6108a0806100c86000396000f3fe608060405234801561001057600080fd5b506004361061009e5760003560e01c8063790317e111610066578063790317e1146101365780637f63fe951461013e5780638456cb591461014e57806386c9de0514610156578063be2b9a791461017c57600080fd5b806301ffc9a7146100a3578063150b7a02146100cb578063183a7a05146100f75780633f4ba83a146101215780635c975abb1461012b575b600080fd5b6100b66100b1366004610758565b61018f565b60405190151581526020015b60405180910390f35b6100de6100d93660046107a5565b6101ba565b6040516001600160e01b031990911681526020016100c2565b6000546201000090046001600160a01b03166040516001600160a01b0390911681526020016100c2565b610129610261565b005b60005460ff166100b6565b61012961032f565b600054610100900460ff166100b6565b610129610428565b7f73ad2146b3d3a286642c794379d750360a2d53a3459a11b3e5d6cc900f55f44a6100de565b61012961018a366004610840565b6104f4565b60006001600160e01b0319821663be2b9a7960e01b14806101b457506101b482610629565b92915050565b6000805486906001600160a01b0380831662010000909204161480156101e3575060005460ff16155b80156101f75750600054610100900460ff16155b1561023e57336000908152600260209081526040808320888452909152902080546001600160a01b0319166001600160a01b038816179055630a85bd0160e11b9150610257565b6040516313297ca960e31b815260040160405180910390fd5b5095945050505050565b6001546001600160a01b03166001600160a01b03166312d9a6ad7f060c8eced3c6b422fe5573c862b67b9f6e25a3fc7d9543b14f7aee77b138e70d336040516001600160e01b031960e085901b16815260048101929092526001600160a01b0316602482015260440160006040518083038186803b1580156102e257600080fd5b505afa1580156102f6573d6000803e3d6000fd5b5050600054610100900460ff16159150610325905057604051639a2b7b7760e01b815260040160405180910390fd5b61032d61065e565b565b6001546001600160a01b03166001600160a01b03166312d9a6ad6000336040516001600160e01b031960e085901b16815260048101929092526001600160a01b0316602482015260440160006040518083038186803b15801561039157600080fd5b505afa1580156103a5573d6000803e3d6000fd5b5050600054610100900460ff161591506103d4905057604051639a2b7b7760e01b815260040160405180910390fd5b6000805461ff0019166101001790557f197ee50d3254fb768e6c3ed8f87fee7c1ae45c7eee0d24d41b1c90933678cf8661040b3390565b6040516001600160a01b03909116815260200160405180910390a1565b6001546001600160a01b03166001600160a01b03166312d9a6ad7f060c8eced3c6b422fe5573c862b67b9f6e25a3fc7d9543b14f7aee77b138e70d336040516001600160e01b031960e085901b16815260048101929092526001600160a01b0316602482015260440160006040518083038186803b1580156104a957600080fd5b505afa1580156104bd573d6000803e3d6000fd5b5050600054610100900460ff161591506104ec905057604051639a2b7b7760e01b815260040160405180910390fd5b61032d6106dd565b6000546201000090046001600160a01b0316336001600160a01b0316148015610520575060005460ff16155b806105325750600054610100900460ff165b15610610576001600160a01b038083166000908152600260209081526040808320858452909152902054168061057b5760405163470cbf4760e01b815260040160405180910390fd5b6001600160a01b0383811660008181526002602090815260408083208784529091529081902080546001600160a01b0319169055516323b872dd60e01b8152306004820152918316602483015260448201849052906323b872dd90606401600060405180830381600087803b1580156105f357600080fd5b505af1158015610607573d6000803e3d6000fd5b50505050505050565b604051631c133bbf60e11b815260040160405180910390fd5b60006001600160e01b0319821663238e2e1760e01b14806101b457506301ffc9a760e01b6001600160e01b03198316146101b4565b60005460ff166106ac5760405162461bcd60e51b815260206004820152601460248201527314185d5cd8589b194e881b9bdd081c185d5cd95960621b60448201526064015b60405180910390fd5b6000805460ff191690557f5db9ee0a495bf2e6ff9c91a7834c1ba4fdd244a5e8aa4e537bd38aeae4b073aa3361040b565b60005460ff16156107235760405162461bcd60e51b815260206004820152601060248201526f14185d5cd8589b194e881c185d5cd95960821b60448201526064016106a3565b6000805460ff191660011790557f62e78cea01bee320cd4e420270b5ea74000d11b0c9f74754ebdbfc544b05a25861040b3390565b60006020828403121561076a57600080fd5b81356001600160e01b03198116811461078257600080fd5b9392505050565b80356001600160a01b03811681146107a057600080fd5b919050565b6000806000806000608086880312156107bd57600080fd5b6107c686610789565b94506107d460208701610789565b935060408601359250606086013567ffffffffffffffff808211156107f857600080fd5b818801915088601f83011261080c57600080fd5b81358181111561081b57600080fd5b89602082850101111561082d57600080fd5b9699959850939650602001949392505050565b6000806040838503121561085357600080fd5b61085c83610789565b94602093909301359350505056fea2646970667358221220777a654ccfb0ebb86284965ba3274c2214091624c599e981f1ea0af6bf9eeca764736f6c634300080d0033",
  "linkReferences": {},
  "deployedLinkReferences": {}
}