{
  "_format": "hh-sol-artifact-1",
  "contractName": "WarperPresetFactory",
  "sourceName": "contracts/warper/WarperPresetFactory.sol",
  "abi": [
    {
      "inputs": [],
      "stateMutability": "nonpayable",
      "type": "constructor"
    },
    {
      "inputs": [
        {
          "internalType": "bytes32",
          "name": "presetId",
          "type": "bytes32"
        }
      ],
      "name": "DisabledWarperPreset",
      "type": "error"
    },
    {
      "inputs": [
        {
          "internalType": "bytes32",
          "name": "presetId",
          "type": "bytes32"
        }
      ],
      "name": "DuplicateWarperPresetId",
      "type": "error"
    },
    {
      "inputs": [],
      "name": "EmptyPresetData",
      "type": "error"
    },
    {
      "inputs": [
        {
          "internalType": "bytes32",
          "name": "presetId",
          "type": "bytes32"
        }
      ],
      "name": "EnabledWarperPreset",
      "type": "error"
    },
    {
      "inputs": [],
      "name": "InvalidWarperPresetInterface",
      "type": "error"
    },
    {
      "inputs": [
        {
          "internalType": "bytes32",
          "name": "presetId",
          "type": "bytes32"
        }
      ],
      "name": "WarperPresetNotRegistered",
      "type": "error"
    },
    {
      "anonymous": false,
      "inputs": [
        {
          "indexed": false,
          "internalType": "address",
          "name": "previousAdmin",
          "type": "address"
        },
        {
          "indexed": false,
          "internalType": "address",
          "name": "newAdmin",
          "type": "address"
        }
      ],
      "name": "AdminChanged",
      "type": "event"
    },
    {
      "anonymous": false,
      "inputs": [
        {
          "indexed": true,
          "internalType": "address",
          "name": "beacon",
          "type": "address"
        }
      ],
      "name": "BeaconUpgraded",
      "type": "event"
    },
    {
      "anonymous": false,
      "inputs": [
        {
          "indexed": true,
          "internalType": "address",
          "name": "implementation",
          "type": "address"
        }
      ],
      "name": "Upgraded",
      "type": "event"
    },
    {
      "anonymous": false,
      "inputs": [
        {
          "indexed": true,
          "internalType": "bytes32",
          "name": "presetId",
          "type": "bytes32"
        },
        {
          "indexed": true,
          "internalType": "address",
          "name": "implementation",
          "type": "address"
        }
      ],
      "name": "WarperPresetAdded",
      "type": "event"
    },
    {
      "anonymous": false,
      "inputs": [
        {
          "indexed": true,
          "internalType": "bytes32",
          "name": "presetId",
          "type": "bytes32"
        },
        {
          "indexed": true,
          "internalType": "address",
          "name": "warper",
          "type": "address"
        }
      ],
      "name": "WarperPresetDeployed",
      "type": "event"
    },
    {
      "anonymous": false,
      "inputs": [
        {
          "indexed": true,
          "internalType": "bytes32",
          "name": "presetId",
          "type": "bytes32"
        }
      ],
      "name": "WarperPresetDisabled",
      "type": "event"
    },
    {
      "anonymous": false,
      "inputs": [
        {
          "indexed": true,
          "internalType": "bytes32",
          "name": "presetId",
          "type": "bytes32"
        }
      ],
      "name": "WarperPresetEnabled",
      "type": "event"
    },
    {
      "anonymous": false,
      "inputs": [
        {
          "indexed": true,
          "internalType": "bytes32",
          "name": "presetId",
          "type": "bytes32"
        }
      ],
      "name": "WarperPresetRemoved",
      "type": "event"
    },
    {
      "inputs": [
        {
          "internalType": "bytes32",
          "name": "presetId",
          "type": "bytes32"
        },
        {
          "internalType": "address",
          "name": "implementation",
          "type": "address"
        }
      ],
      "name": "addPreset",
      "outputs": [],
      "stateMutability": "nonpayable",
      "type": "function"
    },
    {
      "inputs": [
        {
          "internalType": "bytes32",
          "name": "presetId",
          "type": "bytes32"
        },
        {
          "internalType": "bytes",
          "name": "initData",
          "type": "bytes"
        }
      ],
      "name": "deployPreset",
      "outputs": [
        {
          "internalType": "address",
          "name": "",
          "type": "address"
        }
      ],
      "stateMutability": "nonpayable",
      "type": "function"
    },
    {
      "inputs": [
        {
          "internalType": "bytes32",
          "name": "presetId",
          "type": "bytes32"
        }
      ],
      "name": "disablePreset",
      "outputs": [],
      "stateMutability": "nonpayable",
      "type": "function"
    },
    {
      "inputs": [
        {
          "internalType": "bytes32",
          "name": "presetId",
          "type": "bytes32"
        }
      ],
      "name": "enablePreset",
      "outputs": [],
      "stateMutability": "nonpayable",
      "type": "function"
    },
    {
      "inputs": [
        {
          "internalType": "address",
          "name": "acl",
          "type": "address"
        }
      ],
      "name": "initialize",
      "outputs": [],
      "stateMutability": "nonpayable",
      "type": "function"
    },
    {
      "inputs": [
        {
          "internalType": "bytes32",
          "name": "presetId",
          "type": "bytes32"
        }
      ],
      "name": "preset",
      "outputs": [
        {
          "components": [
            {
              "internalType": "bytes32",
              "name": "id",
              "type": "bytes32"
            },
            {
              "internalType": "address",
              "name": "implementation",
              "type": "address"
            },
            {
              "internalType": "bool",
              "name": "enabled",
              "type": "bool"
            }
          ],
          "internalType": "struct IWarperPresetFactory.WarperPreset",
          "name": "",
          "type": "tuple"
        }
      ],
      "stateMutability": "view",
      "type": "function"
    },
    {
      "inputs": [
        {
          "internalType": "bytes32",
          "name": "presetId",
          "type": "bytes32"
        }
      ],
      "name": "presetEnabled",
      "outputs": [
        {
          "internalType": "bool",
          "name": "",
          "type": "bool"
        }
      ],
      "stateMutability": "view",
      "type": "function"
    },
    {
      "inputs": [],
      "name": "presets",
      "outputs": [
        {
          "components": [
            {
              "internalType": "bytes32",
              "name": "id",
              "type": "bytes32"
            },
            {
              "internalType": "address",
              "name": "implementation",
              "type": "address"
            },
            {
              "internalType": "bool",
              "name": "enabled",
              "type": "bool"
            }
          ],
          "internalType": "struct IWarperPresetFactory.WarperPreset[]",
          "name": "",
          "type": "tuple[]"
        }
      ],
      "stateMutability": "view",
      "type": "function"
    },
    {
      "inputs": [],
      "name": "proxiableUUID",
      "outputs": [
        {
          "internalType": "bytes32",
          "name": "",
          "type": "bytes32"
        }
      ],
      "stateMutability": "view",
      "type": "function"
    },
    {
      "inputs": [
        {
          "internalType": "bytes32",
          "name": "presetId",
          "type": "bytes32"
        }
      ],
      "name": "removePreset",
      "outputs": [],
      "stateMutability": "nonpayable",
      "type": "function"
    },
    {
      "inputs": [
        {
          "internalType": "address",
          "name": "newImplementation",
          "type": "address"
        }
      ],
      "name": "upgradeTo",
      "outputs": [],
      "stateMutability": "nonpayable",
      "type": "function"
    },
    {
      "inputs": [
        {
          "internalType": "address",
          "name": "newImplementation",
          "type": "address"
        },
        {
          "internalType": "bytes",
          "name": "data",
          "type": "bytes"
        }
      ],
      "name": "upgradeToAndCall",
      "outputs": [],
      "stateMutability": "payable",
      "type": "function"
    }
  ],
  "bytecode": "0x60a0604052306080523480156200001557600080fd5b50600054610100900460ff16620000335760005460ff16156200003d565b6200003d620000e2565b620000a55760405162461bcd60e51b815260206004820152602e60248201527f496e697469616c697a61626c653a20636f6e747261637420697320616c72656160448201526d191e481a5b9a5d1a585b1a5e995960921b606482015260840160405180910390fd5b600054610100900460ff16158015620000c8576000805461ffff19166101011790555b8015620000db576000805461ff00191690555b506200010f565b6000620000fa306200010060201b62000dd31760201c565b15905090565b6001600160a01b03163b151590565b608051611c35620001476000396000818161026a015281816102b3015281816104d001528181610510015261059f0152611c356000f3fe6080604052600436106100a75760003560e01c80638e0e1ddf116100645780638e0e1ddf14610179578063b05478f2146101b1578063bff81186146101de578063c4d66de8146101fe578063cb501ab81461021e578063d2e97f221461024057600080fd5b80633659cfe6146100ac5780633edf19cb146100ce5780634f1ef286146100ee57806352d1902d1461010157806352e08e64146101295780635f11c58914610159575b600080fd5b3480156100b857600080fd5b506100cc6100c736600461178b565b610260565b005b3480156100da57600080fd5b506100cc6100e93660046117a6565b610348565b6100cc6100fc3660046117e8565b6104c6565b34801561010d57600080fd5b50610116610592565b6040519081526020015b60405180910390f35b34801561013557600080fd5b506101496101443660046118aa565b610645565b6040519015158152602001610120565b34801561016557600080fd5b506100cc6101743660046118aa565b6106a3565b34801561018557600080fd5b506101996101943660046118c3565b6107ee565b6040516001600160a01b039091168152602001610120565b3480156101bd57600080fd5b506101d16101cc3660046118aa565b6108fe565b604051610120919061193f565b3480156101ea57600080fd5b506100cc6101f93660046118aa565b6109a6565b34801561020a57600080fd5b506100cc61021936600461178b565b610af8565b34801561022a57600080fd5b50610233610bd4565b604051610120919061196b565b34801561024c57600080fd5b506100cc61025b3660046118aa565b610ce7565b6001600160a01b037f00000000000000000000000000000000000000000000000000000000000000001630036102b15760405162461bcd60e51b81526004016102a8906119d8565b60405180910390fd5b7f00000000000000000000000000000000000000000000000000000000000000006001600160a01b03166102fa600080516020611b99833981519152546001600160a01b031690565b6001600160a01b0316146103205760405162461bcd60e51b81526004016102a890611a24565b61032981610de2565b6040805160008082526020820190925261034591839190610e5f565b50565b6097546001600160a01b03166001600160a01b03166312d9a6ad600080516020611be0833981519152336040516001600160e01b031960e085901b16815260048101929092526001600160a01b0316602482015260440160006040518083038186803b1580156103b757600080fd5b505afa1580156103cb573d6000803e3d6000fd5b506103ea925050506001600160a01b038216638993dafd60e01b610fcf565b6104075760405163aeb4c94d60e01b815260040160405180910390fd5b610412609983610ff4565b156104a657604080516060810182528381526001600160a01b038084166020808401828152600185870181815260008a815260989094528784209651875591519501805491511515600160a01b026001600160a81b0319909216959094169490941793909317909155915184917f437220ab936ddcefc1c42efa9a7431a1ab7df09d06760e6847341296f9757fe091a35050565b60405163d47d9fa360e01b8152600481018390526024016102a8565b5050565b6001600160a01b037f000000000000000000000000000000000000000000000000000000000000000016300361050e5760405162461bcd60e51b81526004016102a8906119d8565b7f00000000000000000000000000000000000000000000000000000000000000006001600160a01b0316610557600080516020611b99833981519152546001600160a01b031690565b6001600160a01b03161461057d5760405162461bcd60e51b81526004016102a890611a24565b61058682610de2565b6104c282826001610e5f565b6000306001600160a01b037f000000000000000000000000000000000000000000000000000000000000000016146106325760405162461bcd60e51b815260206004820152603860248201527f555550535570677261646561626c653a206d757374206e6f742062652063616c60448201527f6c6564207468726f7567682064656c656761746563616c6c000000000000000060648201526084016102a8565b50600080516020611b9983398151915290565b60008181526098602052604081206001015482906001600160a01b0316610682576040516310a4e4eb60e21b8152600481018290526024016102a8565b5050600090815260986020526040902060010154600160a01b900460ff1690565b60008181526098602052604090206001015481906001600160a01b03166106e0576040516310a4e4eb60e21b8152600481018290526024016102a8565b6000828152609860205260409020600101548290600160a01b900460ff1661071e5760405163ce25e1a960e01b8152600481018290526024016102a8565b6097546001600160a01b03166001600160a01b03166312d9a6ad600080516020611be0833981519152336040516001600160e01b031960e085901b16815260048101929092526001600160a01b0316602482015260440160006040518083038186803b15801561078d57600080fd5b505afa1580156107a1573d6000803e3d6000fd5b505050600084815260986020526040808220600101805460ff60a01b19169055518592507fd15bef41adbd4e35bbd1fc96f7780cc81d21e4f21382687674491067aec0bf079190a2505050565b6000838152609860205260408120600101548490600160a01b900460ff1661082c5760405163ce25e1a960e01b8152600481018290526024016102a8565b600083900361084e57604051630c467a7760e11b815260040160405180910390fd5b600085815260986020526040812060010154610872906001600160a01b0316611000565b90506108be85858080601f016020809104026020016040519081016040528093929190818152602001838380828437600092019190915250506001600160a01b0385169291505061109d565b506040516001600160a01b0382169087907f3f425d5367cc723b4d9faaf34d2453999ef6da825c131b056945068dfbed6f8190600090a395945050505050565b604080516060810182526000808252602082018190529181019190915260008281526098602052604090206001015482906001600160a01b0316610958576040516310a4e4eb60e21b8152600481018290526024016102a8565b50506000908152609860209081526040918290208251606081018452815481526001909101546001600160a01b03811692820192909252600160a01b90910460ff1615159181019190915290565b60008181526098602052604090206001015481906001600160a01b03166109e3576040516310a4e4eb60e21b8152600481018290526024016102a8565b6000828152609860205260409020600101548290600160a01b900460ff1615610a2257604051633dc007dd60e11b8152600481018290526024016102a8565b6097546001600160a01b03166001600160a01b03166312d9a6ad600080516020611be0833981519152336040516001600160e01b031960e085901b16815260048101929092526001600160a01b0316602482015260440160006040518083038186803b158015610a9157600080fd5b505afa158015610aa5573d6000803e3d6000fd5b505050600084815260986020526040808220600101805460ff60a01b1916600160a01b179055518592507f0b8b9b69225d5fa44f50e9d32c5ed393d9e9b6fd588327281fe430c43155140f9190a2505050565b600054610100900460ff16610b135760005460ff1615610b17565b303b155b610b7a5760405162461bcd60e51b815260206004820152602e60248201527f496e697469616c697a61626c653a20636f6e747261637420697320616c72656160448201526d191e481a5b9a5d1a585b1a5e995960921b60648201526084016102a8565b600054610100900460ff16158015610b9c576000805461ffff19166101011790555b610ba46110df565b609780546001600160a01b0319166001600160a01b03841617905580156104c2576000805461ff00191690555050565b60606000610be2609961114c565b905060008167ffffffffffffffff811115610bff57610bff6117d2565b604051908082528060200260200182016040528015610c4a57816020015b6040805160608101825260008082526020808301829052928201528252600019909201910181610c1d5790505b50905060005b82811015610ce05760986000610c67609984611156565b815260208082019290925260409081016000208151606081018352815481526001909101546001600160a01b03811693820193909352600160a01b90920460ff161515908201528251839083908110610cc257610cc2611a70565b60200260200101819052508080610cd890611a9c565b915050610c50565b5092915050565b6097546001600160a01b03166001600160a01b03166312d9a6ad600080516020611be0833981519152336040516001600160e01b031960e085901b16815260048101929092526001600160a01b0316602482015260440160006040518083038186803b158015610d5657600080fd5b505afa158015610d6a573d6000803e3d6000fd5b50505050610d8281609961116290919063ffffffff16565b156103455760008181526098602052604080822082815560010180546001600160a81b03191690555182917fa1e8b42d8b0789f7f8681421bc626fbd28785f21989257f706f4b4f5eee23bd491a250565b6001600160a01b03163b151590565b6097546001600160a01b03166001600160a01b03166312d9a6ad6000336040516001600160e01b031960e085901b16815260048101929092526001600160a01b0316602482015260440160006040518083038186803b158015610e4457600080fd5b505afa158015610e58573d6000803e3d6000fd5b5050505050565b7f4910fdfa16fed3260ed0e7147f7cc6da11a60208b5b9406d12a635614ffd91435460ff1615610e9757610e928361116e565b505050565b826001600160a01b03166352d1902d6040518163ffffffff1660e01b8152600401602060405180830381865afa925050508015610ef1575060408051601f3d908101601f19168201909252610eee91810190611ab5565b60015b610f545760405162461bcd60e51b815260206004820152602e60248201527f45524331393637557067726164653a206e657720696d706c656d656e7461746960448201526d6f6e206973206e6f74205555505360901b60648201526084016102a8565b600080516020611b998339815191528114610fc35760405162461bcd60e51b815260206004820152602960248201527f45524331393637557067726164653a20756e737570706f727465642070726f786044820152681a58589b195555525160ba1b60648201526084016102a8565b50610e9283838361120a565b6000610fda83611235565b8015610feb5750610feb8383611268565b90505b92915050565b6000610feb8383611351565b6000604051733d602d80600a3d3981f3363d3d373d3d3d363d7360601b81528260601b60148201526e5af43d82803e903d91602b57fd5bf360881b60288201526037816000f09150506001600160a01b0381166110985760405162461bcd60e51b8152602060048201526016602482015275115490cc4c4d8dce8818dc99585d194819985a5b195960521b60448201526064016102a8565b919050565b6060610feb83836040518060400160405280601e81526020017f416464726573733a206c6f772d6c6576656c2063616c6c206661696c656400008152506113a0565b600054610100900460ff1661114a5760405162461bcd60e51b815260206004820152602b60248201527f496e697469616c697a61626c653a20636f6e7472616374206973206e6f74206960448201526a6e697469616c697a696e6760a81b60648201526084016102a8565b565b6000610fee825490565b6000610feb83836113b9565b6000610feb83836113e3565b6001600160a01b0381163b6111db5760405162461bcd60e51b815260206004820152602d60248201527f455243313936373a206e657720696d706c656d656e746174696f6e206973206e60448201526c1bdd08184818dbdb9d1c9858dd609a1b60648201526084016102a8565b600080516020611b9983398151915280546001600160a01b0319166001600160a01b0392909216919091179055565b611213836114d6565b6000825111806112205750805b15610e925761122f8383611516565b50505050565b6000611248826301ffc9a760e01b611268565b8015610fee5750611261826001600160e01b0319611268565b1592915050565b604080516001600160e01b0319831660248083019190915282518083039091018152604490910182526020810180516001600160e01b03166301ffc9a760e01b179052905160009190829081906001600160a01b03871690617530906112cf908690611afa565b6000604051808303818686fa925050503d806000811461130b576040519150601f19603f3d011682016040523d82523d6000602084013e611310565b606091505b509150915060208151101561132b5760009350505050610fee565b8180156113475750808060200190518101906113479190611b16565b9695505050505050565b600081815260018301602052604081205461139857508154600181810184556000848152602080822090930184905584548482528286019093526040902091909155610fee565b506000610fee565b60606113af848460008561160a565b90505b9392505050565b60008260000182815481106113d0576113d0611a70565b9060005260206000200154905092915050565b600081815260018301602052604081205480156114cc576000611407600183611b38565b855490915060009061141b90600190611b38565b905081811461148057600086600001828154811061143b5761143b611a70565b906000526020600020015490508087600001848154811061145e5761145e611a70565b6000918252602080832090910192909255918252600188019052604090208390555b855486908061149157611491611b4f565b600190038181906000526020600020016000905590558560010160008681526020019081526020016000206000905560019350505050610fee565b6000915050610fee565b6114df8161116e565b6040516001600160a01b038216907fbc7cd75a20ee27fd9adebab32041f755214dbc6bffa90cc0225b39da2e5c2d3b90600090a250565b60606001600160a01b0383163b61157e5760405162461bcd60e51b815260206004820152602660248201527f416464726573733a2064656c65676174652063616c6c20746f206e6f6e2d636f6044820152651b9d1c9858dd60d21b60648201526084016102a8565b600080846001600160a01b0316846040516115999190611afa565b600060405180830381855af49150503d80600081146115d4576040519150601f19603f3d011682016040523d82523d6000602084013e6115d9565b606091505b50915091506116018282604051806060016040528060278152602001611bb96027913961173b565b95945050505050565b60608247101561166b5760405162461bcd60e51b815260206004820152602660248201527f416464726573733a20696e73756666696369656e742062616c616e636520666f6044820152651c8818d85b1b60d21b60648201526084016102a8565b6001600160a01b0385163b6116c25760405162461bcd60e51b815260206004820152601d60248201527f416464726573733a2063616c6c20746f206e6f6e2d636f6e747261637400000060448201526064016102a8565b600080866001600160a01b031685876040516116de9190611afa565b60006040518083038185875af1925050503d806000811461171b576040519150601f19603f3d011682016040523d82523d6000602084013e611720565b606091505b509150915061173082828661173b565b979650505050505050565b6060831561174a5750816113b2565b82511561175a5782518084602001fd5b8160405162461bcd60e51b81526004016102a89190611b65565b80356001600160a01b038116811461109857600080fd5b60006020828403121561179d57600080fd5b610feb82611774565b600080604083850312156117b957600080fd5b823591506117c960208401611774565b90509250929050565b634e487b7160e01b600052604160045260246000fd5b600080604083850312156117fb57600080fd5b61180483611774565b9150602083013567ffffffffffffffff8082111561182157600080fd5b818501915085601f83011261183557600080fd5b813581811115611847576118476117d2565b604051601f8201601f19908116603f0116810190838211818310171561186f5761186f6117d2565b8160405282815288602084870101111561188857600080fd5b8260208601602083013760006020848301015280955050505050509250929050565b6000602082840312156118bc57600080fd5b5035919050565b6000806000604084860312156118d857600080fd5b83359250602084013567ffffffffffffffff808211156118f757600080fd5b818601915086601f83011261190b57600080fd5b81358181111561191a57600080fd5b87602082850101111561192c57600080fd5b6020830194508093505050509250925092565b815181526020808301516001600160a01b03169082015260408083015115159082015260608101610fee565b6020808252825182820181905260009190848201906040850190845b818110156119cc576119b9838551805182526020808201516001600160a01b0316908301526040908101511515910152565b9284019260609290920191600101611987565b50909695505050505050565b6020808252602c908201527f46756e6374696f6e206d7573742062652063616c6c6564207468726f7567682060408201526b19195b1959d85d1958d85b1b60a21b606082015260800190565b6020808252602c908201527f46756e6374696f6e206d7573742062652063616c6c6564207468726f7567682060408201526b6163746976652070726f787960a01b606082015260800190565b634e487b7160e01b600052603260045260246000fd5b634e487b7160e01b600052601160045260246000fd5b600060018201611aae57611aae611a86565b5060010190565b600060208284031215611ac757600080fd5b5051919050565b60005b83811015611ae9578181015183820152602001611ad1565b8381111561122f5750506000910152565b60008251611b0c818460208701611ace565b9190910192915050565b600060208284031215611b2857600080fd5b815180151581146113b257600080fd5b600082821015611b4a57611b4a611a86565b500390565b634e487b7160e01b600052603160045260246000fd5b6020815260008251806020840152611b84816040850160208701611ace565b601f01601f1916919091016040019291505056fe360894a13ba1a3210667c828492db98dca3e2076cc3735a920a3ca505d382bbc416464726573733a206c6f772d6c6576656c2064656c65676174652063616c6c206661696c6564060c8eced3c6b422fe5573c862b67b9f6e25a3fc7d9543b14f7aee77b138e70da264697066735822122042a1d5057ed57ad39f03376003d1f767f83069b69988b05b1732266a4a9d3c8064736f6c634300080d0033",
  "linkReferences": {},
  "deployedLinkReferences": {}
}