{
  "_format": "hh-sol-artifact-1",
  "contractName": "ERC721Warper",
  "sourceName": "contracts/warper/ERC721/ERC721Warper.sol",
  "abi": [
    {
      "inputs": [],
      "name": "BalanceQueryForZeroAddress",
      "type": "error"
    },
    {
      "inputs": [],
      "name": "CallForwardToZeroAddress",
      "type": "error"
    },
    {
      "inputs": [],
      "name": "CallerIsNotMetahub",
      "type": "error"
    },
    {
      "inputs": [],
      "name": "CallerIsNotWarperAdmin",
      "type": "error"
    },
    {
      "inputs": [],
      "name": "ContractIsAlreadyInitialized",
      "type": "error"
    },
    {
      "inputs": [],
      "name": "ContractIsNotInitializing",
      "type": "error"
    },
    {
      "inputs": [
        {
          "internalType": "address",
          "name": "original",
          "type": "address"
        },
        {
          "internalType": "bytes4",
          "name": "requiredInterfaceId",
          "type": "bytes4"
        }
      ],
      "name": "InvalidOriginalTokenInterface",
      "type": "error"
    },
    {
      "inputs": [],
      "name": "MethodNotAllowed",
      "type": "error"
    },
    {
      "inputs": [],
      "name": "MintToTheZeroAddress",
      "type": "error"
    },
    {
      "inputs": [
        {
          "internalType": "uint256",
          "name": "tokenId",
          "type": "uint256"
        }
      ],
      "name": "OperatorQueryForNonexistentToken",
      "type": "error"
    },
    {
      "inputs": [
        {
          "internalType": "uint256",
          "name": "tokenId",
          "type": "uint256"
        }
      ],
      "name": "OwnerQueryForNonexistentToken",
      "type": "error"
    },
    {
      "inputs": [
        {
          "internalType": "uint256",
          "name": "tokenId",
          "type": "uint256"
        }
      ],
      "name": "TokenIsAlreadyMinted",
      "type": "error"
    },
    {
      "inputs": [
        {
          "internalType": "address",
          "name": "to",
          "type": "address"
        }
      ],
      "name": "TransferToNonERC721ReceiverImplementer",
      "type": "error"
    },
    {
      "inputs": [],
      "name": "TransferToTheZeroAddress",
      "type": "error"
    },
    {
      "anonymous": false,
      "inputs": [
        {
          "indexed": true,
          "internalType": "address",
          "name": "owner",
          "type": "address"
        },
        {
          "indexed": true,
          "internalType": "address",
          "name": "approved",
          "type": "address"
        },
        {
          "indexed": true,
          "internalType": "uint256",
          "name": "tokenId",
          "type": "uint256"
        }
      ],
      "name": "Approval",
      "type": "event"
    },
    {
      "anonymous": false,
      "inputs": [
        {
          "indexed": true,
          "internalType": "address",
          "name": "owner",
          "type": "address"
        },
        {
          "indexed": true,
          "internalType": "address",
          "name": "operator",
          "type": "address"
        },
        {
          "indexed": false,
          "internalType": "bool",
          "name": "approved",
          "type": "bool"
        }
      ],
      "name": "ApprovalForAll",
      "type": "event"
    },
    {
      "anonymous": false,
      "inputs": [
        {
          "indexed": true,
          "internalType": "address",
          "name": "from",
          "type": "address"
        },
        {
          "indexed": true,
          "internalType": "address",
          "name": "to",
          "type": "address"
        },
        {
          "indexed": true,
          "internalType": "uint256",
          "name": "tokenId",
          "type": "uint256"
        }
      ],
      "name": "Transfer",
      "type": "event"
    },
    {
      "stateMutability": "payable",
      "type": "fallback"
    },
    {
      "inputs": [],
      "name": "__assetClass",
      "outputs": [
        {
          "internalType": "bytes4",
          "name": "",
          "type": "bytes4"
        }
      ],
      "stateMutability": "pure",
      "type": "function"
    },
    {
      "inputs": [],
      "name": "__metahub",
      "outputs": [
        {
          "internalType": "address",
          "name": "",
          "type": "address"
        }
      ],
      "stateMutability": "view",
      "type": "function"
    },
    {
      "inputs": [],
      "name": "__original",
      "outputs": [
        {
          "internalType": "address",
          "name": "",
          "type": "address"
        }
      ],
      "stateMutability": "view",
      "type": "function"
    },
    {
      "inputs": [
        {
          "internalType": "bytes4[]",
          "name": "interfaceIds",
          "type": "bytes4[]"
        }
      ],
      "name": "__supportedInterfaces",
      "outputs": [
        {
          "internalType": "bool[]",
          "name": "",
          "type": "bool[]"
        }
      ],
      "stateMutability": "view",
      "type": "function"
    },
    {
      "inputs": [
        {
          "internalType": "address",
          "name": "",
          "type": "address"
        },
        {
          "internalType": "uint256",
          "name": "",
          "type": "uint256"
        }
      ],
      "name": "approve",
      "outputs": [],
      "stateMutability": "nonpayable",
      "type": "function"
    },
    {
      "inputs": [
        {
          "internalType": "address",
          "name": "owner",
          "type": "address"
        }
      ],
      "name": "balanceOf",
      "outputs": [
        {
          "internalType": "uint256",
          "name": "",
          "type": "uint256"
        }
      ],
      "stateMutability": "view",
      "type": "function"
    },
    {
      "inputs": [
        {
          "internalType": "uint256",
          "name": "",
          "type": "uint256"
        }
      ],
      "name": "getApproved",
      "outputs": [
        {
          "internalType": "address",
          "name": "",
          "type": "address"
        }
      ],
      "stateMutability": "view",
      "type": "function"
    },
    {
      "inputs": [
        {
          "internalType": "address",
          "name": "",
          "type": "address"
        },
        {
          "internalType": "address",
          "name": "",
          "type": "address"
        }
      ],
      "name": "isApprovedForAll",
      "outputs": [
        {
          "internalType": "bool",
          "name": "",
          "type": "bool"
        }
      ],
      "stateMutability": "view",
      "type": "function"
    },
    {
      "inputs": [
        {
          "internalType": "address",
          "name": "to",
          "type": "address"
        },
        {
          "internalType": "uint256",
          "name": "tokenId",
          "type": "uint256"
        },
        {
          "internalType": "bytes",
          "name": "data",
          "type": "bytes"
        }
      ],
      "name": "mint",
      "outputs": [],
      "stateMutability": "nonpayable",
      "type": "function"
    },
    {
      "inputs": [
        {
          "internalType": "bytes[]",
          "name": "data",
          "type": "bytes[]"
        }
      ],
      "name": "multicall",
      "outputs": [
        {
          "internalType": "bytes[]",
          "name": "results",
          "type": "bytes[]"
        }
      ],
      "stateMutability": "nonpayable",
      "type": "function"
    },
    {
      "inputs": [
        {
          "internalType": "uint256",
          "name": "tokenId",
          "type": "uint256"
        }
      ],
      "name": "ownerOf",
      "outputs": [
        {
          "internalType": "address",
          "name": "",
          "type": "address"
        }
      ],
      "stateMutability": "view",
      "type": "function"
    },
    {
      "inputs": [
        {
          "internalType": "address",
          "name": "from",
          "type": "address"
        },
        {
          "internalType": "address",
          "name": "to",
          "type": "address"
        },
        {
          "internalType": "uint256",
          "name": "tokenId",
          "type": "uint256"
        }
      ],
      "name": "safeTransferFrom",
      "outputs": [],
      "stateMutability": "nonpayable",
      "type": "function"
    },
    {
      "inputs": [
        {
          "internalType": "address",
          "name": "from",
          "type": "address"
        },
        {
          "internalType": "address",
          "name": "to",
          "type": "address"
        },
        {
          "internalType": "uint256",
          "name": "tokenId",
          "type": "uint256"
        },
        {
          "internalType": "bytes",
          "name": "data",
          "type": "bytes"
        }
      ],
      "name": "safeTransferFrom",
      "outputs": [],
      "stateMutability": "nonpayable",
      "type": "function"
    },
    {
      "inputs": [
        {
          "internalType": "address",
          "name": "",
          "type": "address"
        },
        {
          "internalType": "bool",
          "name": "",
          "type": "bool"
        }
      ],
      "name": "setApprovalForAll",
      "outputs": [],
      "stateMutability": "nonpayable",
      "type": "function"
    },
    {
      "inputs": [
        {
          "internalType": "bytes4",
          "name": "interfaceId",
          "type": "bytes4"
        }
      ],
      "name": "supportsInterface",
      "outputs": [
        {
          "internalType": "bool",
          "name": "",
          "type": "bool"
        }
      ],
      "stateMutability": "view",
      "type": "function"
    },
    {
      "inputs": [
        {
          "internalType": "address",
          "name": "from",
          "type": "address"
        },
        {
          "internalType": "address",
          "name": "to",
          "type": "address"
        },
        {
          "internalType": "uint256",
          "name": "tokenId",
          "type": "uint256"
        }
      ],
      "name": "transferFrom",
      "outputs": [],
      "stateMutability": "nonpayable",
      "type": "function"
    },
    {
      "stateMutability": "payable",
      "type": "receive"
    }
  ],
  "bytecode": "0x608060405234801561001057600080fd5b50611627806100206000396000f3fe6080604052600436106100f75760003560e01c806370a082311161008a578063b88d4fde11610059578063b88d4fde146102d3578063e846a5a9146102f3578063e985e9c514610315578063f46c73c61461033057610106565b806370a082311461023d57806394d008ef1461026b578063a22cb4651461028b578063ac9650d8146102a657610106565b806323b872dd116100c657806323b872dd146101c857806342842e0e146101e85780635a70a283146102085780636352211e1461021d57610106565b806301ffc9a71461010e578063081812fc14610143578063095ea7b31461017b5780631f9e33041461019b57610106565b3661010657610104610345565b005b610104610345565b34801561011a57600080fd5b5061012e610129366004610f2a565b610357565b60405190151581526020015b60405180910390f35b34801561014f57600080fd5b5061016361015e366004610f47565b61039d565b6040516001600160a01b03909116815260200161013a565b34801561018757600080fd5b50610104610196366004610f75565b6103b8565b3480156101a757600080fd5b506101bb6101b6366004610fe8565b6103d1565b60405161013a919061109a565b3480156101d457600080fd5b506101046101e33660046110e0565b6103dd565b3480156101f457600080fd5b506101046102033660046110e0565b6103ed565b34801561021457600080fd5b50610163610408565b34801561022957600080fd5b50610163610238366004610f47565b610417565b34801561024957600080fd5b5061025d610258366004611121565b610552565b60405190815260200161013a565b34801561027757600080fd5b506101046102863660046111ae565b61061b565b34801561029757600080fd5b50610104610196366004611215565b3480156102b257600080fd5b506102c66102c136600461124e565b610710565b60405161013a919061131b565b3480156102df57600080fd5b506101046102ee36600461137d565b610805565b3480156102ff57600080fd5b506040516339d690a360e11b815260200161013a565b34801561032157600080fd5b5061012e61015e3660046113e9565b34801561033c57600080fd5b50610163610817565b61035561035061081d565b61085f565b565b60006001600160e01b031982166394d008ef60e01b148061038857506001600160e01b031982166380ac58cd60e01b145b806103975750610397826108ac565b92915050565b60006040516341f8b8eb60e11b815260040160405180910390fd5b6040516341f8b8eb60e11b815260040160405180910390fd5b606061039730836108fe565b6103e88383836109c1565b505050565b6103e883838360405180602001604052806000815250610805565b6000610412610a87565b905090565b600080610422610ab7565b90506000816001600160a01b0316633f09518c61043d610a87565b6040516001600160e01b031960e084901b1681526001600160a01b03909116600482015230602482015260448101879052606401602060405180830381865afa15801561048e573d6000803e3d6000fd5b505050506040513d601f19601f820116820180604052508101906104b29190611417565b905060008160028111156104c8576104c8611438565b036104ee5760405163e4c0734760e01b8152600481018590526024015b60405180910390fd5b600181600281111561050257610502611438565b036105175761050f610a87565b949350505050565b50506000828152602081905260409020546001600160a01b0316806103975760405163e4c0734760e01b8152600481018490526024016104e5565b60006001600160a01b03821661057b576040516323d3ad8160e21b815260040160405180910390fd5b6000610585610ab7565b9050806001600160a01b031663bfe0af9961059e610a87565b6040516001600160e01b031960e084901b1681526001600160a01b0391821660048201523060248201529086166044820152606401602060405180830381865afa1580156105f0573d6000803e3d6000fd5b505050506040513d601f19601f82011682018060405250810190610614919061144e565b9392505050565b6001600160a01b0383166106425760405163c96c2a0b60e01b815260040160405180910390fd5b6000828152602081905260409020546001600160a01b03161561067b576040516376b78f6560e01b8152600481018390526024016104e5565b61068760008484610b2b565b60008281526020819052604080822080546001600160a01b0319166001600160a01b03871690811790915590518492907fddf252ad1be2c89b69c2b068fc378daa952ba7f163c4a11628f55a4df523b3ef908290a46106e96000848484610b64565b6103e85760405162aae5b760e01b81526001600160a01b03841660048201526024016104e5565b60608167ffffffffffffffff81111561072b5761072b610fa1565b60405190808252806020026020018201604052801561075e57816020015b60608152602001906001900390816107495790505b50905060005b828110156107fe576107ce3085858481811061078257610782611467565b9050602002810190610794919061147d565b8080601f016020809104026020016040519081016040528093929190818152602001838380828437600092019190915250610c6f92505050565b8282815181106107e0576107e0611467565b602002602001018190525080806107f6906114e1565b915050610764565b5092915050565b61081184848484610c94565b50505050565b60006104125b600061085061084d60017f1cd3cead3f33d5ed74fb83a237e17d126ef505cbae350d3d0ffce421e3a1d1446114fa565b90565b546001600160a01b0316919050565b6001600160a01b0381166108865760405163eb0308d160e01b815260040160405180910390fd5b34366000803760008036600084865af13d6000803e8080156108a7573d6000f35b3d6000fd5b60006001600160e01b03198216630b3888fd60e31b14806108dd57506001600160e01b031982166301ffc9a760e01b145b806103975750610397826108ef61081d565b6001600160a01b031690610cd2565b60606000825167ffffffffffffffff81111561091c5761091c610fa1565b604051908082528060200260200182016040528015610945578160200160208202803683370190505b50905061095184610cee565b156106145760005b83518110156109b9576109858585838151811061097857610978611467565b6020026020010151610d21565b82828151811061099757610997611467565b91151560209283029190910190910152806109b1816114e1565b915050610959565b509392505050565b6000818152602081905260409020546001600160a01b03166109f95760405163074fede760e51b8152600481018290526024016104e5565b6001600160a01b038216610a205760405163671d1add60e11b815260040160405180910390fd5b610a2b838383610b2b565b60008181526020819052604080822080546001600160a01b0319166001600160a01b0386811691821790925591518493918716917fddf252ad1be2c89b69c2b068fc378daa952ba7f163c4a11628f55a4df523b3ef91a4505050565b600061085061084d60017fc57d320c8f1e45a5114285d6f31191434d3d45422aff570b70ab6787e45bcf006114fa565b6000610ac1610a87565b60405163ebf03f4960e01b81523060048201526001600160a01b03919091169063ebf03f4990602401602060405180830381865afa158015610b07573d6000803e3d6000fd5b505050506040513d601f19601f820116820180604052508101906104129190611511565b610b33610a87565b6001600160a01b0316336001600160a01b0316146103e85760405163323b4eed60e11b815260040160405180910390fd5b60006001600160a01b0384163b610b7d5750600161050f565b604051630a85bd0160e11b81526001600160a01b0385169063150b7a0290610baf90339089908890889060040161152e565b6020604051808303816000875af1925050508015610bea575060408051601f3d908101601f19168201909252610be791810190611561565b60015b610c52573d808015610c18576040519150601f19603f3d011682016040523d82523d6000602084013e610c1d565b606091505b508051600003610c4a5760405162aae5b760e01b81526001600160a01b03861660048201526024016104e5565b805181602001fd5b6001600160e01b031916630a85bd0160e11b149050949350505050565b606061061483836040518060600160405280602781526020016115cb60279139610e0a565b610c9f8484846109c1565b610cab84848484610b64565b6108115760405162aae5b760e01b81526001600160a01b03841660048201526024016104e5565b6000610cdd83610cee565b801561061457506106148383610d21565b6000610d01826301ffc9a760e01b610d21565b80156103975750610d1a826001600160e01b0319610d21565b1592915050565b604080516001600160e01b0319831660248083019190915282518083039091018152604490910182526020810180516001600160e01b03166301ffc9a760e01b179052905160009190829081906001600160a01b0387169061753090610d8890869061157e565b6000604051808303818686fa925050503d8060008114610dc4576040519150601f19603f3d011682016040523d82523d6000602084013e610dc9565b606091505b5091509150602081511015610de45760009350505050610397565b818015610e00575080806020019051810190610e00919061159a565b9695505050505050565b60606001600160a01b0384163b610e725760405162461bcd60e51b815260206004820152602660248201527f416464726573733a2064656c65676174652063616c6c20746f206e6f6e2d636f6044820152651b9d1c9858dd60d21b60648201526084016104e5565b600080856001600160a01b031685604051610e8d919061157e565b600060405180830381855af49150503d8060008114610ec8576040519150601f19603f3d011682016040523d82523d6000602084013e610ecd565b606091505b5091509150610e0082828660608315610ee7575081610614565b825115610ef75782518084602001fd5b8160405162461bcd60e51b81526004016104e591906115b7565b6001600160e01b031981168114610f2757600080fd5b50565b600060208284031215610f3c57600080fd5b813561061481610f11565b600060208284031215610f5957600080fd5b5035919050565b6001600160a01b0381168114610f2757600080fd5b60008060408385031215610f8857600080fd5b8235610f9381610f60565b946020939093013593505050565b634e487b7160e01b600052604160045260246000fd5b604051601f8201601f1916810167ffffffffffffffff81118282101715610fe057610fe0610fa1565b604052919050565b60006020808385031215610ffb57600080fd5b823567ffffffffffffffff8082111561101357600080fd5b818501915085601f83011261102757600080fd5b81358181111561103957611039610fa1565b8060051b915061104a848301610fb7565b818152918301840191848101908884111561106457600080fd5b938501935b8385101561108e578435925061107e83610f11565b8282529385019390850190611069565b98975050505050505050565b6020808252825182820181905260009190848201906040850190845b818110156110d45783511515835292840192918401916001016110b6565b50909695505050505050565b6000806000606084860312156110f557600080fd5b833561110081610f60565b9250602084013561111081610f60565b929592945050506040919091013590565b60006020828403121561113357600080fd5b813561061481610f60565b600082601f83011261114f57600080fd5b813567ffffffffffffffff81111561116957611169610fa1565b61117c601f8201601f1916602001610fb7565b81815284602083860101111561119157600080fd5b816020850160208301376000918101602001919091529392505050565b6000806000606084860312156111c357600080fd5b83356111ce81610f60565b925060208401359150604084013567ffffffffffffffff8111156111f157600080fd5b6111fd8682870161113e565b9150509250925092565b8015158114610f2757600080fd5b6000806040838503121561122857600080fd5b823561123381610f60565b9150602083013561124381611207565b809150509250929050565b6000806020838503121561126157600080fd5b823567ffffffffffffffff8082111561127957600080fd5b818501915085601f83011261128d57600080fd5b81358181111561129c57600080fd5b8660208260051b85010111156112b157600080fd5b60209290920196919550909350505050565b60005b838110156112de5781810151838201526020016112c6565b838111156108115750506000910152565b600081518084526113078160208601602086016112c3565b601f01601f19169290920160200192915050565b6000602080830181845280855180835260408601915060408160051b870101925083870160005b8281101561137057603f1988860301845261135e8583516112ef565b94509285019290850190600101611342565b5092979650505050505050565b6000806000806080858703121561139357600080fd5b843561139e81610f60565b935060208501356113ae81610f60565b925060408501359150606085013567ffffffffffffffff8111156113d157600080fd5b6113dd8782880161113e565b91505092959194509250565b600080604083850312156113fc57600080fd5b823561140781610f60565b9150602083013561124381610f60565b60006020828403121561142957600080fd5b81516003811061061457600080fd5b634e487b7160e01b600052602160045260246000fd5b60006020828403121561146057600080fd5b5051919050565b634e487b7160e01b600052603260045260246000fd5b6000808335601e1984360301811261149457600080fd5b83018035915067ffffffffffffffff8211156114af57600080fd5b6020019150368190038213156114c457600080fd5b9250929050565b634e487b7160e01b600052601160045260246000fd5b6000600182016114f3576114f36114cb565b5060010190565b60008282101561150c5761150c6114cb565b500390565b60006020828403121561152357600080fd5b815161061481610f60565b6001600160a01b0385811682528416602082015260408101839052608060608201819052600090610e00908301846112ef565b60006020828403121561157357600080fd5b815161061481610f11565b600082516115908184602087016112c3565b9190910192915050565b6000602082840312156115ac57600080fd5b815161061481611207565b60208152600061061460208301846112ef56fe416464726573733a206c6f772d6c6576656c2064656c65676174652063616c6c206661696c6564a264697066735822122031dbbe6233f3d30646fab06babfa39b845cb7d79e4316f0b25baec3f4fb2550964736f6c634300080d0033",
  "linkReferences": {},
  "deployedLinkReferences": {}
}