{
  "_format": "hh-sol-artifact-1",
  "contractName": "InterfacePrinter",
  "sourceName": "contracts/mocks/InterfacePrinter.sol",
  "abi": [
    {
      "inputs": [],
      "name": "erc721",
      "outputs": [
        {
          "internalType": "bytes4",
          "name": "",
          "type": "bytes4"
        }
      ],
      "stateMutability": "pure",
      "type": "function"
    },
    {
      "inputs": [],
      "name": "universeToken",
      "outputs": [
        {
          "internalType": "bytes4",
          "name": "",
          "type": "bytes4"
        }
      ],
      "stateMutability": "pure",
      "type": "function"
    }
  ],
  "bytecode": "0x6080604052348015600f57600080fd5b50609f8061001e6000396000f3fe6080604052348015600f57600080fd5b506004361060325760003560e01c8063bca6ce64146037578063eece7a2214605d575b600080fd5b6380ac58cd60e01b5b6040516001600160e01b0319909116815260200160405180910390f35b638a6fa92360e01b604056fea2646970667358221220a5397aef535f5e7cc432bb3378cdfc7d3798bfc27cacfd5c60dc16a8a21d54ff64736f6c634300080d0033",
  "linkReferences": {},
  "deployedLinkReferences": {}
}