{
  "_format": "hh-sol-artifact-1",
  "contractName": "WarperPresetMock",
  "sourceName": "contracts/mocks/WarperPresetMock.sol",
  "abi": [
    {
      "inputs": [],
      "name": "CallForwardToZeroAddress",
      "type": "error"
    },
    {
      "inputs": [],
      "name": "CallerIsNotMetahub",
      "type": "error"
    },
    {
      "inputs": [],
      "name": "CallerIsNotWarperAdmin",
      "type": "error"
    },
    {
      "inputs": [],
      "name": "ContractIsAlreadyInitialized",
      "type": "error"
    },
    {
      "inputs": [],
      "name": "ContractIsNotInitializing",
      "type": "error"
    },
    {
      "inputs": [
        {
          "internalType": "address",
          "name": "original",
          "type": "address"
        },
        {
          "internalType": "bytes4",
          "name": "requiredInterfaceId",
          "type": "bytes4"
        }
      ],
      "name": "InvalidOriginalTokenInterface",
      "type": "error"
    },
    {
      "stateMutability": "payable",
      "type": "fallback"
    },
    {
      "inputs": [],
      "name": "__assetClass",
      "outputs": [
        {
          "internalType": "bytes4",
          "name": "",
          "type": "bytes4"
        }
      ],
      "stateMutability": "pure",
      "type": "function"
    },
    {
      "inputs": [
        {
          "internalType": "bytes",
          "name": "config",
          "type": "bytes"
        }
      ],
      "name": "__initialize",
      "outputs": [],
      "stateMutability": "nonpayable",
      "type": "function"
    },
    {
      "inputs": [],
      "name": "__metahub",
      "outputs": [
        {
          "internalType": "address",
          "name": "",
          "type": "address"
        }
      ],
      "stateMutability": "view",
      "type": "function"
    },
    {
      "inputs": [],
      "name": "__original",
      "outputs": [
        {
          "internalType": "address",
          "name": "",
          "type": "address"
        }
      ],
      "stateMutability": "view",
      "type": "function"
    },
    {
      "inputs": [
        {
          "internalType": "bytes4[]",
          "name": "interfaceIds",
          "type": "bytes4[]"
        }
      ],
      "name": "__supportedInterfaces",
      "outputs": [
        {
          "internalType": "bool[]",
          "name": "",
          "type": "bool[]"
        }
      ],
      "stateMutability": "view",
      "type": "function"
    },
    {
      "inputs": [],
      "name": "extraValue",
      "outputs": [
        {
          "internalType": "uint256",
          "name": "",
          "type": "uint256"
        }
      ],
      "stateMutability": "view",
      "type": "function"
    },
    {
      "inputs": [],
      "name": "initValue",
      "outputs": [
        {
          "internalType": "uint256",
          "name": "",
          "type": "uint256"
        }
      ],
      "stateMutability": "view",
      "type": "function"
    },
    {
      "inputs": [
        {
          "internalType": "bytes[]",
          "name": "data",
          "type": "bytes[]"
        }
      ],
      "name": "multicall",
      "outputs": [
        {
          "internalType": "bytes[]",
          "name": "results",
          "type": "bytes[]"
        }
      ],
      "stateMutability": "nonpayable",
      "type": "function"
    },
    {
      "inputs": [
        {
          "internalType": "uint256",
          "name": "value",
          "type": "uint256"
        }
      ],
      "name": "setExtraValue",
      "outputs": [],
      "stateMutability": "nonpayable",
      "type": "function"
    },
    {
      "inputs": [
        {
          "internalType": "bytes4",
          "name": "interfaceId",
          "type": "bytes4"
        }
      ],
      "name": "supportsInterface",
      "outputs": [
        {
          "internalType": "bool",
          "name": "",
          "type": "bool"
        }
      ],
      "stateMutability": "view",
      "type": "function"
    },
    {
      "stateMutability": "payable",
      "type": "receive"
    }
  ],
  "bytecode": "0x608060405234801561001057600080fd5b50611027806100206000396000f3fe6080604052600436106100955760003560e01c80635a70a283116100595780635a70a283146101625780638993dafd1461018f578063ac9650d8146101af578063e846a5a9146101dc578063f46c73c6146101f8576100a4565b806301ffc9a7146100ac5780631bdb8192146100e15780631f9e3304146101015780632fc36f111461012e5780635276f9871461014d576100a4565b366100a4576100a261020d565b005b6100a261020d565b3480156100b857600080fd5b506100cc6100c7366004610aa9565b61021f565b60405190151581526020015b60405180910390f35b3480156100ed57600080fd5b506100a26100fc366004610ac4565b600155565b34801561010d57600080fd5b5061012161011c366004610b24565b61024a565b6040516100d89190610bd1565b34801561013a57600080fd5b506000545b6040519081526020016100d8565b34801561015957600080fd5b5060015461013f565b34801561016e57600080fd5b50610177610256565b6040516001600160a01b0390911681526020016100d8565b34801561019b57600080fd5b506100a26101aa366004610c17565b610265565b3480156101bb57600080fd5b506101cf6101ca366004610c89565b61040a565b6040516100d89190610d44565b3480156101e857600080fd5b50604051600081526020016100d8565b34801561020457600080fd5b506101776104ff565b61021d610218610505565b610544565b565b60006001600160e01b03198216638993dafd60e01b1480610244575061024482610591565b92915050565b606061024430836105e3565b60006102606106a7565b905090565b60006102866102836001600080516020610fd2833981519152610dbc565b90565b5460ff166102c6576102bc61028360017f37e69e8e563db672cb7e105d3e1915d10ef53975d285d458a13e70818bf53d27610dbc565b5460ff16156102ca565b303b155b15905080156102eb5760405162ea7fe560e71b815260040160405180910390fd5b60006103096102836001600080516020610fd2833981519152610dbc565b5460ff16159050801561038157600161033361028382600080516020610fd2833981519152610dbc565b805460ff19169115159190911790556001610371610283827f37e69e8e563db672cb7e105d3e1915d10ef53975d285d458a13e70818bf53d27610dbc565b805460ff19169115159190911790555b6000808061039186880188610dea565b925092509250600080828060200190518101906103ae9190610ea0565b915091506103bc85856106d7565b6103c68183610ec4565b6000555050831592506104049150505760006103f46102836001600080516020610fd2833981519152610dbc565b805460ff19169115159190911790555b50505050565b60608167ffffffffffffffff81111561042557610425610add565b60405190808252806020026020018201604052801561045857816020015b60608152602001906001900390816104435790505b50905060005b828110156104f8576104c83085858481811061047c5761047c610edc565b905060200281019061048e9190610ef2565b8080601f01602080910402602001604051908101604052809392919081815260200183838082843760009201919091525061072a92505050565b8282815181106104da576104da610edc565b602002602001018190525080806104f090610f40565b91505061045e565b5092915050565b60006102605b600061053561028360017f1cd3cead3f33d5ed74fb83a237e17d126ef505cbae350d3d0ffce421e3a1d144610dbc565b546001600160a01b0316919050565b6001600160a01b03811661056b5760405163eb0308d160e01b815260040160405180910390fd5b34366000803760008036600084865af13d6000803e80801561058c573d6000f35b3d6000fd5b60006001600160e01b03198216630b3888fd60e31b14806105c257506001600160e01b031982166301ffc9a760e01b145b806102445750610244826105d4610505565b6001600160a01b03169061074f565b60606000825167ffffffffffffffff81111561060157610601610add565b60405190808252806020026020018201604052801561062a578160200160208202803683370190505b5090506106368461076b565b156106a05760005b835181101561069e5761066a8585838151811061065d5761065d610edc565b602002602001015161079e565b82828151811061067c5761067c610edc565b911515602092830291909101909101528061069681610f40565b91505061063e565b505b9392505050565b600061053561028360017fc57d320c8f1e45a5114285d6f31191434d3d45422aff570b70ab6787e45bcf00610dbc565b6106f36102836001600080516020610fd2833981519152610dbc565b5460ff16610714576040516369be8d9360e11b815260040160405180910390fd5b61071d82610887565b61072681610914565b5050565b60606106a08383604051806060016040528060278152602001610fab60279139610980565b600061075a8361076b565b80156106a057506106a0838361079e565b600061077e826301ffc9a760e01b61079e565b80156102445750610797826001600160e01b031961079e565b1592915050565b604080516001600160e01b0319831660248083019190915282518083039091018152604490910182526020810180516001600160e01b03166301ffc9a760e01b179052905160009190829081906001600160a01b0387169061753090610805908690610f59565b6000604051808303818686fa925050503d8060008114610841576040519150601f19603f3d011682016040523d82523d6000602084013e610846565b606091505b50915091506020815110156108615760009350505050610244565b81801561087d57508080602001905181019061087d9190610f75565b9695505050505050565b6108a36102836001600080516020610fd2833981519152610dbc565b5460ff166108c4576040516369be8d9360e11b815260040160405180910390fd5b806108f361028360017f1cd3cead3f33d5ed74fb83a237e17d126ef505cbae350d3d0ffce421e3a1d144610dbc565b80546001600160a01b0319166001600160a01b039290921691909117905550565b6109306102836001600080516020610fd2833981519152610dbc565b5460ff16610951576040516369be8d9360e11b815260040160405180910390fd5b806108f361028360017fc57d320c8f1e45a5114285d6f31191434d3d45422aff570b70ab6787e45bcf00610dbc565b60606001600160a01b0384163b6109ed5760405162461bcd60e51b815260206004820152602660248201527f416464726573733a2064656c65676174652063616c6c20746f206e6f6e2d636f6044820152651b9d1c9858dd60d21b60648201526084015b60405180910390fd5b600080856001600160a01b031685604051610a089190610f59565b600060405180830381855af49150503d8060008114610a43576040519150601f19603f3d011682016040523d82523d6000602084013e610a48565b606091505b509150915061087d82828660608315610a625750816106a0565b825115610a725782518084602001fd5b8160405162461bcd60e51b81526004016109e49190610f97565b80356001600160e01b031981168114610aa457600080fd5b919050565b600060208284031215610abb57600080fd5b6106a082610a8c565b600060208284031215610ad657600080fd5b5035919050565b634e487b7160e01b600052604160045260246000fd5b604051601f8201601f1916810167ffffffffffffffff81118282101715610b1c57610b1c610add565b604052919050565b60006020808385031215610b3757600080fd5b823567ffffffffffffffff80821115610b4f57600080fd5b818501915085601f830112610b6357600080fd5b813581811115610b7557610b75610add565b8060051b9150610b86848301610af3565b8181529183018401918481019088841115610ba057600080fd5b938501935b83851015610bc557610bb685610a8c565b82529385019390850190610ba5565b98975050505050505050565b6020808252825182820181905260009190848201906040850190845b81811015610c0b578351151583529284019291840191600101610bed565b50909695505050505050565b60008060208385031215610c2a57600080fd5b823567ffffffffffffffff80821115610c4257600080fd5b818501915085601f830112610c5657600080fd5b813581811115610c6557600080fd5b866020828501011115610c7757600080fd5b60209290920196919550909350505050565b60008060208385031215610c9c57600080fd5b823567ffffffffffffffff80821115610cb457600080fd5b818501915085601f830112610cc857600080fd5b813581811115610cd757600080fd5b8660208260051b8501011115610c7757600080fd5b60005b83811015610d07578181015183820152602001610cef565b838111156104045750506000910152565b60008151808452610d30816020860160208601610cec565b601f01601f19169290920160200192915050565b6000602080830181845280855180835260408601915060408160051b870101925083870160005b82811015610d9957603f19888603018452610d87858351610d18565b94509285019290850190600101610d6b565b5092979650505050505050565b634e487b7160e01b600052601160045260246000fd5b600082821015610dce57610dce610da6565b500390565b80356001600160a01b0381168114610aa457600080fd5b600080600060608486031215610dff57600080fd5b610e0884610dd3565b92506020610e17818601610dd3565b9250604085013567ffffffffffffffff80821115610e3457600080fd5b818701915087601f830112610e4857600080fd5b813581811115610e5a57610e5a610add565b610e6c601f8201601f19168501610af3565b91508082528884828501011115610e8257600080fd5b80848401858401376000848284010152508093505050509250925092565b60008060408385031215610eb357600080fd5b505080516020909101519092909150565b60008219821115610ed757610ed7610da6565b500190565b634e487b7160e01b600052603260045260246000fd5b6000808335601e19843603018112610f0957600080fd5b83018035915067ffffffffffffffff821115610f2457600080fd5b602001915036819003821315610f3957600080fd5b9250929050565b600060018201610f5257610f52610da6565b5060010190565b60008251610f6b818460208701610cec565b9190910192915050565b600060208284031215610f8757600080fd5b815180151581146106a057600080fd5b6020815260006106a06020830184610d1856fe416464726573733a206c6f772d6c6576656c2064656c65676174652063616c6c206661696c6564c2221768d9692f01d28cc433c84b2dc197fbcc867663b61d61e17ca4877697faa26469706673582212201e6d9f84ef769a844ec116e73b07dc1858c25cbed7443388890cc3958b7dfd2964736f6c634300080d0033",
  "linkReferences": {},
  "deployedLinkReferences": {}
}