{
  "_format": "hh-sol-artifact-1",
  "contractName": "MetahubV2Mock",
  "sourceName": "contracts/mocks/MetahubV2Mock.sol",
  "abi": [
    {
      "inputs": [],
      "name": "AssetIsLocked",
      "type": "error"
    },
    {
      "inputs": [],
      "name": "CallerIsNotAssetLister",
      "type": "error"
    },
    {
      "inputs": [],
      "name": "CallerIsNotRenter",
      "type": "error"
    },
    {
      "inputs": [
        {
          "internalType": "uint256",
          "name": "balance",
          "type": "uint256"
        }
      ],
      "name": "InsufficientBalance",
      "type": "error"
    },
    {
      "inputs": [],
      "name": "InvalidWarperInterface",
      "type": "error"
    },
    {
      "inputs": [
        {
          "internalType": "uint256",
          "name": "amount",
          "type": "uint256"
        }
      ],
      "name": "InvalidWithdrawalAmount",
      "type": "error"
    },
    {
      "inputs": [],
      "name": "ListingIsNotPaused",
      "type": "error"
    },
    {
      "inputs": [],
      "name": "ListingIsPaused",
      "type": "error"
    },
    {
      "inputs": [
        {
          "internalType": "uint256",
          "name": "listingId",
          "type": "uint256"
        }
      ],
      "name": "NotListed",
      "type": "error"
    },
    {
      "inputs": [],
      "name": "RentalFeeSlippage",
      "type": "error"
    },
    {
      "inputs": [
        {
          "internalType": "address",
          "name": "asset",
          "type": "address"
        }
      ],
      "name": "UnsupportedAsset",
      "type": "error"
    },
    {
      "inputs": [
        {
          "internalType": "bytes4",
          "name": "assetClass",
          "type": "bytes4"
        }
      ],
      "name": "UnsupportedAssetClass",
      "type": "error"
    },
    {
      "inputs": [
        {
          "internalType": "bytes4",
          "name": "strategyId",
          "type": "bytes4"
        }
      ],
      "name": "UnsupportedListingStrategy",
      "type": "error"
    },
    {
      "inputs": [
        {
          "internalType": "address",
          "name": "provided",
          "type": "address"
        },
        {
          "internalType": "address",
          "name": "required",
          "type": "address"
        }
      ],
      "name": "WarperHasIncorrectMetahubReference",
      "type": "error"
    },
    {
      "inputs": [],
      "name": "WarperIsNotPaused",
      "type": "error"
    },
    {
      "inputs": [
        {
          "internalType": "address",
          "name": "warper",
          "type": "address"
        }
      ],
      "name": "WarperIsNotRegistered",
      "type": "error"
    },
    {
      "inputs": [],
      "name": "WarperIsPaused",
      "type": "error"
    },
    {
      "anonymous": false,
      "inputs": [
        {
          "indexed": false,
          "internalType": "address",
          "name": "previousAdmin",
          "type": "address"
        },
        {
          "indexed": false,
          "internalType": "address",
          "name": "newAdmin",
          "type": "address"
        }
      ],
      "name": "AdminChanged",
      "type": "event"
    },
    {
      "anonymous": false,
      "inputs": [
        {
          "indexed": true,
          "internalType": "uint256",
          "name": "listingId",
          "type": "uint256"
        },
        {
          "indexed": true,
          "internalType": "address",
          "name": "lister",
          "type": "address"
        },
        {
          "indexed": false,
          "internalType": "uint32",
          "name": "unlocksAt",
          "type": "uint32"
        }
      ],
      "name": "AssetDelisted",
      "type": "event"
    },
    {
      "anonymous": false,
      "inputs": [
        {
          "indexed": true,
          "internalType": "uint256",
          "name": "listingId",
          "type": "uint256"
        },
        {
          "indexed": true,
          "internalType": "address",
          "name": "lister",
          "type": "address"
        },
        {
          "components": [
            {
              "components": [
                {
                  "internalType": "bytes4",
                  "name": "class",
                  "type": "bytes4"
                },
                {
                  "internalType": "bytes",
                  "name": "data",
                  "type": "bytes"
                }
              ],
              "internalType": "struct Assets.AssetId",
              "name": "id",
              "type": "tuple"
            },
            {
              "internalType": "uint256",
              "name": "value",
              "type": "uint256"
            }
          ],
          "indexed": false,
          "internalType": "struct Assets.Asset",
          "name": "asset",
          "type": "tuple"
        },
        {
          "components": [
            {
              "internalType": "bytes4",
              "name": "strategy",
              "type": "bytes4"
            },
            {
              "internalType": "bytes",
              "name": "data",
              "type": "bytes"
            }
          ],
          "indexed": false,
          "internalType": "struct Listings.Params",
          "name": "params",
          "type": "tuple"
        },
        {
          "indexed": false,
          "internalType": "uint32",
          "name": "maxLockPeriod",
          "type": "uint32"
        }
      ],
      "name": "AssetListed",
      "type": "event"
    },
    {
      "anonymous": false,
      "inputs": [
        {
          "indexed": true,
          "internalType": "uint256",
          "name": "rentalId",
          "type": "uint256"
        },
        {
          "indexed": true,
          "internalType": "address",
          "name": "renter",
          "type": "address"
        },
        {
          "indexed": true,
          "internalType": "uint256",
          "name": "listingId",
          "type": "uint256"
        },
        {
          "components": [
            {
              "components": [
                {
                  "internalType": "bytes4",
                  "name": "class",
                  "type": "bytes4"
                },
                {
                  "internalType": "bytes",
                  "name": "data",
                  "type": "bytes"
                }
              ],
              "internalType": "struct Assets.AssetId",
              "name": "id",
              "type": "tuple"
            },
            {
              "internalType": "uint256",
              "name": "value",
              "type": "uint256"
            }
          ],
          "indexed": false,
          "internalType": "struct Assets.Asset",
          "name": "warpedAsset",
          "type": "tuple"
        },
        {
          "indexed": false,
          "internalType": "uint32",
          "name": "startTime",
          "type": "uint32"
        },
        {
          "indexed": false,
          "internalType": "uint32",
          "name": "endTime",
          "type": "uint32"
        }
      ],
      "name": "AssetRented",
      "type": "event"
    },
    {
      "anonymous": false,
      "inputs": [
        {
          "indexed": true,
          "internalType": "uint256",
          "name": "listingId",
          "type": "uint256"
        },
        {
          "indexed": true,
          "internalType": "address",
          "name": "lister",
          "type": "address"
        },
        {
          "components": [
            {
              "components": [
                {
                  "internalType": "bytes4",
                  "name": "class",
                  "type": "bytes4"
                },
                {
                  "internalType": "bytes",
                  "name": "data",
                  "type": "bytes"
                }
              ],
              "internalType": "struct Assets.AssetId",
              "name": "id",
              "type": "tuple"
            },
            {
              "internalType": "uint256",
              "name": "value",
              "type": "uint256"
            }
          ],
          "indexed": false,
          "internalType": "struct Assets.Asset",
          "name": "asset",
          "type": "tuple"
        }
      ],
      "name": "AssetWithdrawn",
      "type": "event"
    },
    {
      "anonymous": false,
      "inputs": [
        {
          "indexed": true,
          "internalType": "address",
          "name": "beacon",
          "type": "address"
        }
      ],
      "name": "BeaconUpgraded",
      "type": "event"
    },
    {
      "anonymous": false,
      "inputs": [
        {
          "indexed": true,
          "internalType": "uint256",
          "name": "listingId",
          "type": "uint256"
        }
      ],
      "name": "ListingPaused",
      "type": "event"
    },
    {
      "anonymous": false,
      "inputs": [
        {
          "indexed": true,
          "internalType": "uint256",
          "name": "listingId",
          "type": "uint256"
        }
      ],
      "name": "ListingUnpaused",
      "type": "event"
    },
    {
      "anonymous": false,
      "inputs": [
        {
          "indexed": false,
          "internalType": "uint16",
          "name": "rentalFeePercent",
          "type": "uint16"
        }
      ],
      "name": "ProtocolRentalFeeChanged",
      "type": "event"
    },
    {
      "anonymous": false,
      "inputs": [
        {
          "indexed": true,
          "internalType": "address",
          "name": "implementation",
          "type": "address"
        }
      ],
      "name": "Upgraded",
      "type": "event"
    },
    {
      "anonymous": false,
      "inputs": [
        {
          "indexed": true,
          "internalType": "address",
          "name": "warper",
          "type": "address"
        }
      ],
      "name": "WarperDeregistered",
      "type": "event"
    },
    {
      "anonymous": false,
      "inputs": [
        {
          "indexed": true,
          "internalType": "address",
          "name": "warper",
          "type": "address"
        }
      ],
      "name": "WarperPaused",
      "type": "event"
    },
    {
      "anonymous": false,
      "inputs": [
        {
          "indexed": true,
          "internalType": "uint256",
          "name": "universeId",
          "type": "uint256"
        },
        {
          "indexed": true,
          "internalType": "address",
          "name": "warper",
          "type": "address"
        },
        {
          "indexed": true,
          "internalType": "address",
          "name": "original",
          "type": "address"
        }
      ],
      "name": "WarperRegistered",
      "type": "event"
    },
    {
      "anonymous": false,
      "inputs": [
        {
          "indexed": true,
          "internalType": "address",
          "name": "warper",
          "type": "address"
        }
      ],
      "name": "WarperUnpaused",
      "type": "event"
    },
    {
      "inputs": [
        {
          "internalType": "address",
          "name": "original",
          "type": "address"
        }
      ],
      "name": "assetListingCount",
      "outputs": [
        {
          "internalType": "uint256",
          "name": "",
          "type": "uint256"
        }
      ],
      "stateMutability": "view",
      "type": "function"
    },
    {
      "inputs": [
        {
          "internalType": "address",
          "name": "original",
          "type": "address"
        },
        {
          "internalType": "uint256",
          "name": "offset",
          "type": "uint256"
        },
        {
          "internalType": "uint256",
          "name": "limit",
          "type": "uint256"
        }
      ],
      "name": "assetListings",
      "outputs": [
        {
          "internalType": "uint256[]",
          "name": "",
          "type": "uint256[]"
        },
        {
          "components": [
            {
              "components": [
                {
                  "components": [
                    {
                      "internalType": "bytes4",
                      "name": "class",
                      "type": "bytes4"
                    },
                    {
                      "internalType": "bytes",
                      "name": "data",
                      "type": "bytes"
                    }
                  ],
                  "internalType": "struct Assets.AssetId",
                  "name": "id",
                  "type": "tuple"
                },
                {
                  "internalType": "uint256",
                  "name": "value",
                  "type": "uint256"
                }
              ],
              "internalType": "struct Assets.Asset",
              "name": "asset",
              "type": "tuple"
            },
            {
              "components": [
                {
                  "internalType": "bytes4",
                  "name": "strategy",
                  "type": "bytes4"
                },
                {
                  "internalType": "bytes",
                  "name": "data",
                  "type": "bytes"
                }
              ],
              "internalType": "struct Listings.Params",
              "name": "params",
              "type": "tuple"
            },
            {
              "internalType": "address",
              "name": "lister",
              "type": "address"
            },
            {
              "internalType": "uint32",
              "name": "maxLockPeriod",
              "type": "uint32"
            },
            {
              "internalType": "uint32",
              "name": "lockedTill",
              "type": "uint32"
            },
            {
              "internalType": "bool",
              "name": "immediatePayout",
              "type": "bool"
            },
            {
              "internalType": "bool",
              "name": "delisted",
              "type": "bool"
            },
            {
              "internalType": "bool",
              "name": "paused",
              "type": "bool"
            }
          ],
          "internalType": "struct Listings.Listing[]",
          "name": "",
          "type": "tuple[]"
        }
      ],
      "stateMutability": "view",
      "type": "function"
    },
    {
      "inputs": [
        {
          "components": [
            {
              "internalType": "bytes4",
              "name": "class",
              "type": "bytes4"
            },
            {
              "internalType": "bytes",
              "name": "data",
              "type": "bytes"
            }
          ],
          "internalType": "struct Assets.AssetId",
          "name": "warpedAssetId",
          "type": "tuple"
        }
      ],
      "name": "assetRentalStatus",
      "outputs": [
        {
          "internalType": "enum Rentings.RentalStatus",
          "name": "",
          "type": "uint8"
        }
      ],
      "stateMutability": "view",
      "type": "function"
    },
    {
      "inputs": [
        {
          "internalType": "address",
          "name": "original",
          "type": "address"
        }
      ],
      "name": "assetWarperCount",
      "outputs": [
        {
          "internalType": "uint256",
          "name": "",
          "type": "uint256"
        }
      ],
      "stateMutability": "view",
      "type": "function"
    },
    {
      "inputs": [
        {
          "internalType": "address",
          "name": "original",
          "type": "address"
        },
        {
          "internalType": "uint256",
          "name": "offset",
          "type": "uint256"
        },
        {
          "internalType": "uint256",
          "name": "limit",
          "type": "uint256"
        }
      ],
      "name": "assetWarpers",
      "outputs": [
        {
          "internalType": "address[]",
          "name": "",
          "type": "address[]"
        },
        {
          "components": [
            {
              "internalType": "address",
              "name": "original",
              "type": "address"
            },
            {
              "internalType": "contract IWarperController",
              "name": "controller",
              "type": "address"
            },
            {
              "internalType": "string",
              "name": "name",
              "type": "string"
            },
            {
              "internalType": "uint256",
              "name": "universeId",
              "type": "uint256"
            },
            {
              "internalType": "bool",
              "name": "paused",
              "type": "bool"
            }
          ],
          "internalType": "struct Warpers.Warper[]",
          "name": "",
          "type": "tuple[]"
        }
      ],
      "stateMutability": "view",
      "type": "function"
    },
    {
      "inputs": [
        {
          "internalType": "address",
          "name": "account",
          "type": "address"
        },
        {
          "internalType": "address",
          "name": "token",
          "type": "address"
        }
      ],
      "name": "balance",
      "outputs": [
        {
          "internalType": "uint256",
          "name": "",
          "type": "uint256"
        }
      ],
      "stateMutability": "view",
      "type": "function"
    },
    {
      "inputs": [
        {
          "internalType": "address",
          "name": "account",
          "type": "address"
        }
      ],
      "name": "balances",
      "outputs": [
        {
          "components": [
            {
              "internalType": "address",
              "name": "token",
              "type": "address"
            },
            {
              "internalType": "uint256",
              "name": "amount",
              "type": "uint256"
            }
          ],
          "internalType": "struct Accounts.Balance[]",
          "name": "",
          "type": "tuple[]"
        }
      ],
      "stateMutability": "view",
      "type": "function"
    },
    {
      "inputs": [],
      "name": "baseToken",
      "outputs": [
        {
          "internalType": "address",
          "name": "",
          "type": "address"
        }
      ],
      "stateMutability": "view",
      "type": "function"
    },
    {
      "inputs": [
        {
          "internalType": "bytes32",
          "name": "warpedCollectionId",
          "type": "bytes32"
        },
        {
          "internalType": "address",
          "name": "renter",
          "type": "address"
        }
      ],
      "name": "collectionRentedValue",
      "outputs": [
        {
          "internalType": "uint256",
          "name": "",
          "type": "uint256"
        }
      ],
      "stateMutability": "view",
      "type": "function"
    },
    {
      "inputs": [
        {
          "internalType": "uint256",
          "name": "listingId",
          "type": "uint256"
        }
      ],
      "name": "delistAsset",
      "outputs": [],
      "stateMutability": "nonpayable",
      "type": "function"
    },
    {
      "inputs": [
        {
          "internalType": "address",
          "name": "warper",
          "type": "address"
        }
      ],
      "name": "deregisterWarper",
      "outputs": [],
      "stateMutability": "nonpayable",
      "type": "function"
    },
    {
      "inputs": [
        {
          "components": [
            {
              "internalType": "uint256",
              "name": "listingId",
              "type": "uint256"
            },
            {
              "internalType": "address",
              "name": "warper",
              "type": "address"
            },
            {
              "internalType": "address",
              "name": "renter",
              "type": "address"
            },
            {
              "internalType": "uint32",
              "name": "rentalPeriod",
              "type": "uint32"
            },
            {
              "internalType": "address",
              "name": "paymentToken",
              "type": "address"
            }
          ],
          "internalType": "struct Rentings.Params",
          "name": "rentingParams",
          "type": "tuple"
        }
      ],
      "name": "estimateRent",
      "outputs": [
        {
          "components": [
            {
              "internalType": "uint256",
              "name": "total",
              "type": "uint256"
            },
            {
              "internalType": "uint256",
              "name": "protocolFee",
              "type": "uint256"
            },
            {
              "internalType": "uint256",
              "name": "listerBaseFee",
              "type": "uint256"
            },
            {
              "internalType": "uint256",
              "name": "listerPremium",
              "type": "uint256"
            },
            {
              "internalType": "uint256",
              "name": "universeBaseFee",
              "type": "uint256"
            },
            {
              "internalType": "uint256",
              "name": "universePremium",
              "type": "uint256"
            }
          ],
          "internalType": "struct Rentings.RentalFees",
          "name": "",
          "type": "tuple"
        }
      ],
      "stateMutability": "view",
      "type": "function"
    },
    {
      "inputs": [
        {
          "components": [
            {
              "internalType": "contract IWarperPresetFactory",
              "name": "warperPresetFactory",
              "type": "address"
            },
            {
              "internalType": "contract IAssetClassRegistry",
              "name": "assetClassRegistry",
              "type": "address"
            },
            {
              "internalType": "contract IListingStrategyRegistry",
              "name": "listingStrategyRegistry",
              "type": "address"
            },
            {
              "internalType": "contract IUniverseRegistry",
              "name": "universeRegistry",
              "type": "address"
            },
            {
              "internalType": "contract IACL",
              "name": "acl",
              "type": "address"
            },
            {
              "internalType": "contract IERC20Upgradeable",
              "name": "baseToken",
              "type": "address"
            },
            {
              "internalType": "uint16",
              "name": "rentalFeePercent",
              "type": "uint16"
            }
          ],
          "internalType": "struct Metahub.MetahubInitParams",
          "name": "params",
          "type": "tuple"
        }
      ],
      "name": "initialize",
      "outputs": [],
      "stateMutability": "nonpayable",
      "type": "function"
    },
    {
      "inputs": [
        {
          "internalType": "address",
          "name": "warper",
          "type": "address"
        },
        {
          "internalType": "address",
          "name": "account",
          "type": "address"
        }
      ],
      "name": "isWarperAdmin",
      "outputs": [
        {
          "internalType": "bool",
          "name": "",
          "type": "bool"
        }
      ],
      "stateMutability": "view",
      "type": "function"
    },
    {
      "inputs": [
        {
          "components": [
            {
              "components": [
                {
                  "internalType": "bytes4",
                  "name": "class",
                  "type": "bytes4"
                },
                {
                  "internalType": "bytes",
                  "name": "data",
                  "type": "bytes"
                }
              ],
              "internalType": "struct Assets.AssetId",
              "name": "id",
              "type": "tuple"
            },
            {
              "internalType": "uint256",
              "name": "value",
              "type": "uint256"
            }
          ],
          "internalType": "struct Assets.Asset",
          "name": "asset",
          "type": "tuple"
        },
        {
          "components": [
            {
              "internalType": "bytes4",
              "name": "strategy",
              "type": "bytes4"
            },
            {
              "internalType": "bytes",
              "name": "data",
              "type": "bytes"
            }
          ],
          "internalType": "struct Listings.Params",
          "name": "params",
          "type": "tuple"
        },
        {
          "internalType": "uint32",
          "name": "maxLockPeriod",
          "type": "uint32"
        },
        {
          "internalType": "bool",
          "name": "immediatePayout",
          "type": "bool"
        }
      ],
      "name": "listAsset",
      "outputs": [
        {
          "internalType": "uint256",
          "name": "",
          "type": "uint256"
        }
      ],
      "stateMutability": "nonpayable",
      "type": "function"
    },
    {
      "inputs": [],
      "name": "listingCount",
      "outputs": [
        {
          "internalType": "uint256",
          "name": "",
          "type": "uint256"
        }
      ],
      "stateMutability": "view",
      "type": "function"
    },
    {
      "inputs": [
        {
          "internalType": "uint256",
          "name": "listingId",
          "type": "uint256"
        }
      ],
      "name": "listingInfo",
      "outputs": [
        {
          "components": [
            {
              "components": [
                {
                  "components": [
                    {
                      "internalType": "bytes4",
                      "name": "class",
                      "type": "bytes4"
                    },
                    {
                      "internalType": "bytes",
                      "name": "data",
                      "type": "bytes"
                    }
                  ],
                  "internalType": "struct Assets.AssetId",
                  "name": "id",
                  "type": "tuple"
                },
                {
                  "internalType": "uint256",
                  "name": "value",
                  "type": "uint256"
                }
              ],
              "internalType": "struct Assets.Asset",
              "name": "asset",
              "type": "tuple"
            },
            {
              "components": [
                {
                  "internalType": "bytes4",
                  "name": "strategy",
                  "type": "bytes4"
                },
                {
                  "internalType": "bytes",
                  "name": "data",
                  "type": "bytes"
                }
              ],
              "internalType": "struct Listings.Params",
              "name": "params",
              "type": "tuple"
            },
            {
              "internalType": "address",
              "name": "lister",
              "type": "address"
            },
            {
              "internalType": "uint32",
              "name": "maxLockPeriod",
              "type": "uint32"
            },
            {
              "internalType": "uint32",
              "name": "lockedTill",
              "type": "uint32"
            },
            {
              "internalType": "bool",
              "name": "immediatePayout",
              "type": "bool"
            },
            {
              "internalType": "bool",
              "name": "delisted",
              "type": "bool"
            },
            {
              "internalType": "bool",
              "name": "paused",
              "type": "bool"
            }
          ],
          "internalType": "struct Listings.Listing",
          "name": "",
          "type": "tuple"
        }
      ],
      "stateMutability": "view",
      "type": "function"
    },
    {
      "inputs": [
        {
          "internalType": "uint256",
          "name": "offset",
          "type": "uint256"
        },
        {
          "internalType": "uint256",
          "name": "limit",
          "type": "uint256"
        }
      ],
      "name": "listings",
      "outputs": [
        {
          "internalType": "uint256[]",
          "name": "",
          "type": "uint256[]"
        },
        {
          "components": [
            {
              "components": [
                {
                  "components": [
                    {
                      "internalType": "bytes4",
                      "name": "class",
                      "type": "bytes4"
                    },
                    {
                      "internalType": "bytes",
                      "name": "data",
                      "type": "bytes"
                    }
                  ],
                  "internalType": "struct Assets.AssetId",
                  "name": "id",
                  "type": "tuple"
                },
                {
                  "internalType": "uint256",
                  "name": "value",
                  "type": "uint256"
                }
              ],
              "internalType": "struct Assets.Asset",
              "name": "asset",
              "type": "tuple"
            },
            {
              "components": [
                {
                  "internalType": "bytes4",
                  "name": "strategy",
                  "type": "bytes4"
                },
                {
                  "internalType": "bytes",
                  "name": "data",
                  "type": "bytes"
                }
              ],
              "internalType": "struct Listings.Params",
              "name": "params",
              "type": "tuple"
            },
            {
              "internalType": "address",
              "name": "lister",
              "type": "address"
            },
            {
              "internalType": "uint32",
              "name": "maxLockPeriod",
              "type": "uint32"
            },
            {
              "internalType": "uint32",
              "name": "lockedTill",
              "type": "uint32"
            },
            {
              "internalType": "bool",
              "name": "immediatePayout",
              "type": "bool"
            },
            {
              "internalType": "bool",
              "name": "delisted",
              "type": "bool"
            },
            {
              "internalType": "bool",
              "name": "paused",
              "type": "bool"
            }
          ],
          "internalType": "struct Listings.Listing[]",
          "name": "",
          "type": "tuple[]"
        }
      ],
      "stateMutability": "view",
      "type": "function"
    },
    {
      "inputs": [
        {
          "internalType": "uint256",
          "name": "listingId",
          "type": "uint256"
        }
      ],
      "name": "pauseListing",
      "outputs": [],
      "stateMutability": "nonpayable",
      "type": "function"
    },
    {
      "inputs": [
        {
          "internalType": "address",
          "name": "warper",
          "type": "address"
        }
      ],
      "name": "pauseWarper",
      "outputs": [],
      "stateMutability": "nonpayable",
      "type": "function"
    },
    {
      "inputs": [
        {
          "internalType": "address",
          "name": "token",
          "type": "address"
        }
      ],
      "name": "protocolBalance",
      "outputs": [
        {
          "internalType": "uint256",
          "name": "",
          "type": "uint256"
        }
      ],
      "stateMutability": "view",
      "type": "function"
    },
    {
      "inputs": [],
      "name": "protocolBalances",
      "outputs": [
        {
          "components": [
            {
              "internalType": "address",
              "name": "token",
              "type": "address"
            },
            {
              "internalType": "uint256",
              "name": "amount",
              "type": "uint256"
            }
          ],
          "internalType": "struct Accounts.Balance[]",
          "name": "",
          "type": "tuple[]"
        }
      ],
      "stateMutability": "view",
      "type": "function"
    },
    {
      "inputs": [],
      "name": "protocolRentalFeePercent",
      "outputs": [
        {
          "internalType": "uint16",
          "name": "",
          "type": "uint16"
        }
      ],
      "stateMutability": "view",
      "type": "function"
    },
    {
      "inputs": [],
      "name": "proxiableUUID",
      "outputs": [
        {
          "internalType": "bytes32",
          "name": "",
          "type": "bytes32"
        }
      ],
      "stateMutability": "view",
      "type": "function"
    },
    {
      "inputs": [
        {
          "internalType": "address",
          "name": "warper",
          "type": "address"
        },
        {
          "components": [
            {
              "internalType": "string",
              "name": "name",
              "type": "string"
            },
            {
              "internalType": "uint256",
              "name": "universeId",
              "type": "uint256"
            },
            {
              "internalType": "bool",
              "name": "paused",
              "type": "bool"
            }
          ],
          "internalType": "struct IWarperManager.WarperRegistrationParams",
          "name": "params",
          "type": "tuple"
        }
      ],
      "name": "registerWarper",
      "outputs": [],
      "stateMutability": "nonpayable",
      "type": "function"
    },
    {
      "inputs": [
        {
          "components": [
            {
              "internalType": "uint256",
              "name": "listingId",
              "type": "uint256"
            },
            {
              "internalType": "address",
              "name": "warper",
              "type": "address"
            },
            {
              "internalType": "address",
              "name": "renter",
              "type": "address"
            },
            {
              "internalType": "uint32",
              "name": "rentalPeriod",
              "type": "uint32"
            },
            {
              "internalType": "address",
              "name": "paymentToken",
              "type": "address"
            }
          ],
          "internalType": "struct Rentings.Params",
          "name": "rentingParams",
          "type": "tuple"
        },
        {
          "internalType": "uint256",
          "name": "maxPaymentAmount",
          "type": "uint256"
        }
      ],
      "name": "rent",
      "outputs": [
        {
          "internalType": "uint256",
          "name": "",
          "type": "uint256"
        }
      ],
      "stateMutability": "nonpayable",
      "type": "function"
    },
    {
      "inputs": [
        {
          "internalType": "uint256",
          "name": "rentalId",
          "type": "uint256"
        }
      ],
      "name": "rentalAgreementInfo",
      "outputs": [
        {
          "components": [
            {
              "components": [
                {
                  "components": [
                    {
                      "internalType": "bytes4",
                      "name": "class",
                      "type": "bytes4"
                    },
                    {
                      "internalType": "bytes",
                      "name": "data",
                      "type": "bytes"
                    }
                  ],
                  "internalType": "struct Assets.AssetId",
                  "name": "id",
                  "type": "tuple"
                },
                {
                  "internalType": "uint256",
                  "name": "value",
                  "type": "uint256"
                }
              ],
              "internalType": "struct Assets.Asset",
              "name": "warpedAsset",
              "type": "tuple"
            },
            {
              "internalType": "bytes32",
              "name": "collectionId",
              "type": "bytes32"
            },
            {
              "internalType": "uint256",
              "name": "listingId",
              "type": "uint256"
            },
            {
              "internalType": "address",
              "name": "renter",
              "type": "address"
            },
            {
              "internalType": "uint32",
              "name": "startTime",
              "type": "uint32"
            },
            {
              "internalType": "uint32",
              "name": "endTime",
              "type": "uint32"
            }
          ],
          "internalType": "struct Rentings.Agreement",
          "name": "",
          "type": "tuple"
        }
      ],
      "stateMutability": "view",
      "type": "function"
    },
    {
      "inputs": [
        {
          "internalType": "uint16",
          "name": "rentalFeePercent",
          "type": "uint16"
        }
      ],
      "name": "setProtocolRentalFeePercent",
      "outputs": [],
      "stateMutability": "nonpayable",
      "type": "function"
    },
    {
      "inputs": [],
      "name": "supportedAssetCount",
      "outputs": [
        {
          "internalType": "uint256",
          "name": "",
          "type": "uint256"
        }
      ],
      "stateMutability": "view",
      "type": "function"
    },
    {
      "inputs": [
        {
          "internalType": "uint256",
          "name": "offset",
          "type": "uint256"
        },
        {
          "internalType": "uint256",
          "name": "limit",
          "type": "uint256"
        }
      ],
      "name": "supportedAssets",
      "outputs": [
        {
          "internalType": "address[]",
          "name": "",
          "type": "address[]"
        }
      ],
      "stateMutability": "view",
      "type": "function"
    },
    {
      "inputs": [
        {
          "internalType": "uint256",
          "name": "universeId",
          "type": "uint256"
        },
        {
          "internalType": "address",
          "name": "token",
          "type": "address"
        }
      ],
      "name": "universeBalance",
      "outputs": [
        {
          "internalType": "uint256",
          "name": "",
          "type": "uint256"
        }
      ],
      "stateMutability": "view",
      "type": "function"
    },
    {
      "inputs": [
        {
          "internalType": "uint256",
          "name": "universeId",
          "type": "uint256"
        }
      ],
      "name": "universeBalances",
      "outputs": [
        {
          "components": [
            {
              "internalType": "address",
              "name": "token",
              "type": "address"
            },
            {
              "internalType": "uint256",
              "name": "amount",
              "type": "uint256"
            }
          ],
          "internalType": "struct Accounts.Balance[]",
          "name": "",
          "type": "tuple[]"
        }
      ],
      "stateMutability": "view",
      "type": "function"
    },
    {
      "inputs": [
        {
          "internalType": "uint256",
          "name": "universeId",
          "type": "uint256"
        }
      ],
      "name": "universeWarperCount",
      "outputs": [
        {
          "internalType": "uint256",
          "name": "",
          "type": "uint256"
        }
      ],
      "stateMutability": "view",
      "type": "function"
    },
    {
      "inputs": [
        {
          "internalType": "uint256",
          "name": "universeId",
          "type": "uint256"
        },
        {
          "internalType": "uint256",
          "name": "offset",
          "type": "uint256"
        },
        {
          "internalType": "uint256",
          "name": "limit",
          "type": "uint256"
        }
      ],
      "name": "universeWarpers",
      "outputs": [
        {
          "internalType": "address[]",
          "name": "",
          "type": "address[]"
        },
        {
          "components": [
            {
              "internalType": "address",
              "name": "original",
              "type": "address"
            },
            {
              "internalType": "contract IWarperController",
              "name": "controller",
              "type": "address"
            },
            {
              "internalType": "string",
              "name": "name",
              "type": "string"
            },
            {
              "internalType": "uint256",
              "name": "universeId",
              "type": "uint256"
            },
            {
              "internalType": "bool",
              "name": "paused",
              "type": "bool"
            }
          ],
          "internalType": "struct Warpers.Warper[]",
          "name": "",
          "type": "tuple[]"
        }
      ],
      "stateMutability": "view",
      "type": "function"
    },
    {
      "inputs": [
        {
          "internalType": "uint256",
          "name": "listingId",
          "type": "uint256"
        }
      ],
      "name": "unpauseListing",
      "outputs": [],
      "stateMutability": "nonpayable",
      "type": "function"
    },
    {
      "inputs": [
        {
          "internalType": "address",
          "name": "warper",
          "type": "address"
        }
      ],
      "name": "unpauseWarper",
      "outputs": [],
      "stateMutability": "nonpayable",
      "type": "function"
    },
    {
      "inputs": [
        {
          "internalType": "address",
          "name": "newImplementation",
          "type": "address"
        }
      ],
      "name": "upgradeTo",
      "outputs": [],
      "stateMutability": "nonpayable",
      "type": "function"
    },
    {
      "inputs": [
        {
          "internalType": "address",
          "name": "newImplementation",
          "type": "address"
        },
        {
          "internalType": "bytes",
          "name": "data",
          "type": "bytes"
        }
      ],
      "name": "upgradeToAndCall",
      "outputs": [],
      "stateMutability": "payable",
      "type": "function"
    },
    {
      "inputs": [
        {
          "internalType": "address",
          "name": "lister",
          "type": "address"
        }
      ],
      "name": "userListingCount",
      "outputs": [
        {
          "internalType": "uint256",
          "name": "",
          "type": "uint256"
        }
      ],
      "stateMutability": "view",
      "type": "function"
    },
    {
      "inputs": [
        {
          "internalType": "address",
          "name": "lister",
          "type": "address"
        },
        {
          "internalType": "uint256",
          "name": "offset",
          "type": "uint256"
        },
        {
          "internalType": "uint256",
          "name": "limit",
          "type": "uint256"
        }
      ],
      "name": "userListings",
      "outputs": [
        {
          "internalType": "uint256[]",
          "name": "",
          "type": "uint256[]"
        },
        {
          "components": [
            {
              "components": [
                {
                  "components": [
                    {
                      "internalType": "bytes4",
                      "name": "class",
                      "type": "bytes4"
                    },
                    {
                      "internalType": "bytes",
                      "name": "data",
                      "type": "bytes"
                    }
                  ],
                  "internalType": "struct Assets.AssetId",
                  "name": "id",
                  "type": "tuple"
                },
                {
                  "internalType": "uint256",
                  "name": "value",
                  "type": "uint256"
                }
              ],
              "internalType": "struct Assets.Asset",
              "name": "asset",
              "type": "tuple"
            },
            {
              "components": [
                {
                  "internalType": "bytes4",
                  "name": "strategy",
                  "type": "bytes4"
                },
                {
                  "internalType": "bytes",
                  "name": "data",
                  "type": "bytes"
                }
              ],
              "internalType": "struct Listings.Params",
              "name": "params",
              "type": "tuple"
            },
            {
              "internalType": "address",
              "name": "lister",
              "type": "address"
            },
            {
              "internalType": "uint32",
              "name": "maxLockPeriod",
              "type": "uint32"
            },
            {
              "internalType": "uint32",
              "name": "lockedTill",
              "type": "uint32"
            },
            {
              "internalType": "bool",
              "name": "immediatePayout",
              "type": "bool"
            },
            {
              "internalType": "bool",
              "name": "delisted",
              "type": "bool"
            },
            {
              "internalType": "bool",
              "name": "paused",
              "type": "bool"
            }
          ],
          "internalType": "struct Listings.Listing[]",
          "name": "",
          "type": "tuple[]"
        }
      ],
      "stateMutability": "view",
      "type": "function"
    },
    {
      "inputs": [
        {
          "internalType": "address",
          "name": "renter",
          "type": "address"
        },
        {
          "internalType": "uint256",
          "name": "offset",
          "type": "uint256"
        },
        {
          "internalType": "uint256",
          "name": "limit",
          "type": "uint256"
        }
      ],
      "name": "userRentalAgreements",
      "outputs": [
        {
          "internalType": "uint256[]",
          "name": "",
          "type": "uint256[]"
        },
        {
          "components": [
            {
              "components": [
                {
                  "components": [
                    {
                      "internalType": "bytes4",
                      "name": "class",
                      "type": "bytes4"
                    },
                    {
                      "internalType": "bytes",
                      "name": "data",
                      "type": "bytes"
                    }
                  ],
                  "internalType": "struct Assets.AssetId",
                  "name": "id",
                  "type": "tuple"
                },
                {
                  "internalType": "uint256",
                  "name": "value",
                  "type": "uint256"
                }
              ],
              "internalType": "struct Assets.Asset",
              "name": "warpedAsset",
              "type": "tuple"
            },
            {
              "internalType": "bytes32",
              "name": "collectionId",
              "type": "bytes32"
            },
            {
              "internalType": "uint256",
              "name": "listingId",
              "type": "uint256"
            },
            {
              "internalType": "address",
              "name": "renter",
              "type": "address"
            },
            {
              "internalType": "uint32",
              "name": "startTime",
              "type": "uint32"
            },
            {
              "internalType": "uint32",
              "name": "endTime",
              "type": "uint32"
            }
          ],
          "internalType": "struct Rentings.Agreement[]",
          "name": "",
          "type": "tuple[]"
        }
      ],
      "stateMutability": "view",
      "type": "function"
    },
    {
      "inputs": [
        {
          "internalType": "address",
          "name": "renter",
          "type": "address"
        }
      ],
      "name": "userRentalCount",
      "outputs": [
        {
          "internalType": "uint256",
          "name": "",
          "type": "uint256"
        }
      ],
      "stateMutability": "view",
      "type": "function"
    },
    {
      "inputs": [],
      "name": "version",
      "outputs": [
        {
          "internalType": "string",
          "name": "",
          "type": "string"
        }
      ],
      "stateMutability": "pure",
      "type": "function"
    },
    {
      "inputs": [
        {
          "internalType": "address",
          "name": "warper",
          "type": "address"
        }
      ],
      "name": "warperController",
      "outputs": [
        {
          "internalType": "address",
          "name": "",
          "type": "address"
        }
      ],
      "stateMutability": "view",
      "type": "function"
    },
    {
      "inputs": [
        {
          "internalType": "address",
          "name": "warper",
          "type": "address"
        }
      ],
      "name": "warperInfo",
      "outputs": [
        {
          "components": [
            {
              "internalType": "address",
              "name": "original",
              "type": "address"
            },
            {
              "internalType": "contract IWarperController",
              "name": "controller",
              "type": "address"
            },
            {
              "internalType": "string",
              "name": "name",
              "type": "string"
            },
            {
              "internalType": "uint256",
              "name": "universeId",
              "type": "uint256"
            },
            {
              "internalType": "bool",
              "name": "paused",
              "type": "bool"
            }
          ],
          "internalType": "struct Warpers.Warper",
          "name": "",
          "type": "tuple"
        }
      ],
      "stateMutability": "view",
      "type": "function"
    },
    {
      "inputs": [],
      "name": "warperPresetFactory",
      "outputs": [
        {
          "internalType": "address",
          "name": "",
          "type": "address"
        }
      ],
      "stateMutability": "view",
      "type": "function"
    },
    {
      "inputs": [
        {
          "internalType": "uint256",
          "name": "listingId",
          "type": "uint256"
        }
      ],
      "name": "withdrawAsset",
      "outputs": [],
      "stateMutability": "nonpayable",
      "type": "function"
    },
    {
      "inputs": [
        {
          "internalType": "address",
          "name": "token",
          "type": "address"
        },
        {
          "internalType": "uint256",
          "name": "amount",
          "type": "uint256"
        },
        {
          "internalType": "address",
          "name": "to",
          "type": "address"
        }
      ],
      "name": "withdrawFunds",
      "outputs": [],
      "stateMutability": "nonpayable",
      "type": "function"
    },
    {
      "inputs": [
        {
          "internalType": "address",
          "name": "token",
          "type": "address"
        },
        {
          "internalType": "uint256",
          "name": "amount",
          "type": "uint256"
        },
        {
          "internalType": "address",
          "name": "to",
          "type": "address"
        }
      ],
      "name": "withdrawProtocolFunds",
      "outputs": [],
      "stateMutability": "nonpayable",
      "type": "function"
    },
    {
      "inputs": [
        {
          "internalType": "uint256",
          "name": "universeId",
          "type": "uint256"
        },
        {
          "internalType": "address",
          "name": "token",
          "type": "address"
        },
        {
          "internalType": "uint256",
          "name": "amount",
          "type": "uint256"
        },
        {
          "internalType": "address",
          "name": "to",
          "type": "address"
        }
      ],
      "name": "withdrawUniverseFunds",
      "outputs": [],
      "stateMutability": "nonpayable",
      "type": "function"
    }
  ],
  "bytecode": "0x60a0604052306080523480156200001557600080fd5b50600054610100900460ff16620000335760005460ff16156200003d565b6200003d620000e2565b620000a55760405162461bcd60e51b815260206004820152602e60248201527f496e697469616c697a61626c653a20636f6e747261637420697320616c72656160448201526d191e481a5b9a5d1a585b1a5e995960921b606482015260840160405180910390fd5b600054610100900460ff16158015620000c8576000805461ffff19166101011790555b8015620000db576000805461ff00191690555b506200010f565b6000620000fa306200010060201b62002d121760201c565b15905090565b6001600160a01b03163b151590565b608051615ca562000147600039600081816111260152818161116f015281816113ab015281816113eb015261157a0152615ca56000f3fe6080604052600436106102c95760003560e01c80636eabf0bb11610175578063a75ea55d116100dc578063c55dae6311610095578063ebf03f491161006f578063ebf03f4914610960578063f1f56a1f14610980578063f4ba2046146109ad578063fee5f37f146109cd57600080fd5b8063c55dae6314610902578063c7b0156014610920578063e528b0811461094057600080fd5b8063a75ea55d1461084d578063a9b07c261461086d578063ae07477f14610882578063b203bb99146108a2578063b995dbae146108c2578063c1e58a21146108e257600080fd5b806388b22ef41161012e57806388b22ef4146107785780638c2c4714146107985780638d92fdf3146107b85780638f36001f146107d8578063a0d18bb31461080a578063a5c5ad111461083857600080fd5b80636eabf0bb1461068d578063719a3d0b146106bb57806372994135146106db57806378a2c9cd146107085780638468d22814610728578063882080d31461074857600080fd5b806347c6b45e1161023457806352d1902d116101ed57806355431024116101c757806355431024146105f357806360ca93501461062057806361b25b9114610640578063662c1ff81461066057600080fd5b806352d1902d1461059857806354fd4d50146105ad578063553b0109146105de57600080fd5b806347c6b45e146104d75780634bd22a1b146104f75780634d3084d3146105175780634f1ef28614610545578063506cf01e1461055857806350f771561461057857600080fd5b80633253d503116102865780633253d5031461040a57806332756bcf1461042a57806333a932031461044a5780633659cfe61461047757806339b1ea381461049757806343d7c778146104b757600080fd5b80630e540ec0146102ce57806312cd849a146102f05780631e34787814610323578063255829cf1461034357806327e235e31461037157806328df75961461039e575b600080fd5b3480156102da57600080fd5b506102ee6102e93660046142dc565b6109ed565b005b3480156102fc57600080fd5b5061031061030b366004614307565b610a85565b6040519081526020015b60405180910390f35b34801561032f57600080fd5b5061031061033e366004614347565b610d7a565b34801561034f57600080fd5b50609854600160a01b900461ffff1660405161ffff909116815260200161031a565b34801561037d57600080fd5b5061039161038c366004614377565b610e0e565b60405161031a9190614394565b3480156103aa57600080fd5b506103be6103b93660046143ec565b610e32565b60405161031a9190600060c082019050825182526020830151602083015260408301516040830152606083015160608301526080830151608083015260a083015160a083015292915050565b34801561041657600080fd5b506102ee610425366004614377565b610f69565b34801561043657600080fd5b506102ee610445366004614408565b610fcd565b34801561045657600080fd5b5061046a61046536600461443e565b61109e565b60405161031a9190614472565b34801561048357600080fd5b506102ee610492366004614377565b61111c565b3480156104a357600080fd5b506103106104b2366004614377565b611204565b3480156104c357600080fd5b506102ee6104d23660046142dc565b611211565b3480156104e357600080fd5b506102ee6104f236600461449a565b6112dd565b34801561050357600080fd5b50610310610512366004614377565b6112fd565b34801561052357600080fd5b506105376105323660046144dc565b61130a565b60405161031a92919061468a565b6102ee61055336600461484e565b6113a1565b34801561056457600080fd5b506102ee610573366004614377565b611471565b34801561058457600080fd5b506102ee6105933660046142dc565b6114d5565b3480156105a457600080fd5b5061031061156d565b3480156105b957600080fd5b5060408051808201825260028152612b1960f11b6020820152905161031a919061489d565b3480156105ea57600080fd5b50610310611620565b3480156105ff57600080fd5b5061061361060e366004614377565b611631565b60405161031a9190614907565b34801561062c57600080fd5b5061031061063b366004614377565b61175c565b34801561064c57600080fd5b5061039161065b3660046142dc565b611769565b34801561066c57600080fd5b5061068061067b3660046142dc565b611783565b60405161031a9190614981565b34801561069957600080fd5b506106ad6106a8366004614994565b61190f565b60405161031a9291906149c9565b3480156106c757600080fd5b506105376106d6366004614994565b6119a3565b3480156106e757600080fd5b506106fb6106f63660046144dc565b611a2b565b60405161031a9190614a65565b34801561071457600080fd5b50610310610723366004614347565b611ab4565b34801561073457600080fd5b506103106107433660046142dc565b611acc565b34801561075457600080fd5b50610768610763366004614a78565b611ad9565b604051901515815260200161031a565b34801561078457600080fd5b50610310610793366004614377565b611b7a565b3480156107a457600080fd5b506102ee6107b3366004614aa6565b611b87565b3480156107c457600080fd5b506102ee6107d33660046142dc565b611dac565b3480156107e457600080fd5b5060a3546001600160a01b03165b6040516001600160a01b03909116815260200161031a565b34801561081657600080fd5b5061082a610825366004614994565b61216a565b60405161031a929190614ab8565b34801561084457600080fd5b506103916121f2565b34801561085957600080fd5b506102ee61086836600461449a565b6121fe565b34801561087957600080fd5b50610310612288565b34801561088e57600080fd5b5061031061089d366004614b3b565b612294565b3480156108ae57600080fd5b506103106108bd366004614a78565b61247a565b3480156108ce57600080fd5b506105376108dd366004614994565b61249c565b3480156108ee57600080fd5b506102ee6108fd366004614377565b6124df565b34801561090e57600080fd5b506098546001600160a01b03166107f2565b34801561092c57600080fd5b506102ee61093b366004614bc3565b612594565b34801561094c57600080fd5b506102ee61095b366004614c02565b612627565b34801561096c57600080fd5b506107f261097b366004614377565b612a51565b34801561098c57600080fd5b506109a061099b3660046142dc565b612a82565b60405161031a9190614c4d565b3480156109b957600080fd5b506103106109c8366004614377565b612cb3565b3480156109d957600080fd5b5061082a6109e8366004614c60565b612cc0565b806109f960a982612d21565b600082815260ad602052604090206005015482906001600160a01b0316336001600160a01b031614610a3e57604051636523fa7f60e11b815260040160405180910390fd5b600083815260ad60205260409020610a5590612d5a565b60405183907f62c9649045e00f9c2e96e4e578db9430301ac82a17718531f90e97e6a69202e490600090a2505050565b6000610a976060840160408501614377565b6001600160a01b0316336001600160a01b031614610ac857604051635f4ecea960e11b815260040160405180910390fd5b604051630199f13960e01b815273__$e5879ada6f69714d7fc0d88dbcc568b31e$__90630199f13990610b0890869060989060a99060a390600401614cfe565b60006040518083038186803b158015610b2057600080fd5b505af4158015610b34573d6000803e3d6000fd5b50505050610b4983610b433390565b84612d96565b600080610b768535610b616040880160208901614377565b610b716060890160408a01614377565b612fb8565b91509150600042905060006040518060c0016040528084815260200185815260200188600001358152602001886040016020810190610bb59190614377565b6001600160a01b0316815263ffffffff84166020820152604001610bdf60808a0160608b01614d28565b610be99085614d5b565b63ffffffff16905260405163a3f3af0760e01b815290915060009073__$e5879ada6f69714d7fc0d88dbcc568b31e$__9063a3f3af0790610c319060b0908690600401614d83565b602060405180830381865af4158015610c4e573d6000803e3d6000fd5b505050506040513d601f19601f82011682018060405250810190610c729190614df9565b60a08301518935600090815260ad60205260409020919250610c94919061315c565b73__$e5879ada6f69714d7fc0d88dbcc568b31e$__63c017140260b0610cc060608c0160408d01614377565b8860026040518563ffffffff1660e01b8152600401610ce29493929190614e12565b60006040518083038186803b158015610cfa57600080fd5b505af4158015610d0e573d6000803e3d6000fd5b50505050816040015182606001516001600160a01b0316827f76f9ffd08d0be80de00e3be8630a8aef939934c79fec4eedfb31e823e3be27bf856000015186608001518760a00151604051610d6593929190614e36565b60405180910390a49450505050505b92915050565b60405163ab5d399360e01b815260b060048201526001600160a01b03821660248201526044810183905260009073__$e5879ada6f69714d7fc0d88dbcc568b31e$__9063ab5d399390606401602060405180830381865af4158015610de3573d6000803e3d6000fd5b505050506040513d601f19601f82011682018060405250810190610e079190614df9565b9392505050565b6001600160a01b0381166000908152609d60205260409020606090610d74906131a4565b610e6b6040518060c001604052806000815260200160008152602001600081526020016000815260200160008152602001600081525090565b604051630199f13960e01b815273__$e5879ada6f69714d7fc0d88dbcc568b31e$__90630199f13990610eab90859060989060a99060a390600401614cfe565b60006040518083038186803b158015610ec357600080fd5b505af4158015610ed7573d6000803e3d6000fd5b5050609e54604051639dd6945b60e01b815273__$e5879ada6f69714d7fc0d88dbcc568b31e$__9350639dd6945b9250610f2891869160989160a99160a3916001600160a01b031690600401614e66565b60c060405180830381865af4158015610f45573d6000803e3d6000fd5b505050506040513d601f19601f82011682018060405250810190610d749190614ea2565b80610f748133613289565b6001600160a01b038216600090815260a860205260409020610f9590613307565b6040516001600160a01b038316907f2a08260ffc9feb9cd743cb3dd526a959666260abda15ed904061f3babce487ba90600090a25050565b6097546001600160a01b03166001600160a01b03166312d9a6ad6000336040516001600160e01b031960e085901b16815260048101929092526001600160a01b0316602482015260440160006040518083038186803b15801561102f57600080fd5b505afa158015611043573d6000803e3d6000fd5b50506098805461ffff60a01b1916600160a01b61ffff8616908102919091179091556040519081527f1b1669b1469af2b2bb8295fdaf1c1ff4cd9d41c56dc31e80d6c67e05854f9e209250602001905060405180910390a150565b60405163029d842960e21b815260009073__$e5879ada6f69714d7fc0d88dbcc568b31e$__90630a7610a4906110db9060b0908690600401614fc0565b602060405180830381865af41580156110f8573d6000803e3d6000fd5b505050506040513d601f19601f82011682018060405250810190610d749190614fd9565b6001600160a01b037f000000000000000000000000000000000000000000000000000000000000000016300361116d5760405162461bcd60e51b815260040161116490614ffa565b60405180910390fd5b7f00000000000000000000000000000000000000000000000000000000000000006001600160a01b03166111b6600080516020615c29833981519152546001600160a01b031690565b6001600160a01b0316146111dc5760405162461bcd60e51b815260040161116490615046565b6111e58161333d565b60408051600080825260208201909252611201918391906133b3565b50565b6000610d7460a98361351e565b8061121d60a982612d21565b600082815260ad602052604090206005015482906001600160a01b0316336001600160a01b03161461126257604051636523fa7f60e11b815260040160405180910390fd5b600083815260ad6020908152604091829020600581018054600160e81b60ff60e81b19821617918290559351600160c01b90910463ffffffff16815290926001600160a01b03169186917fc0c0619fe5bf378f25472067afca13995576b95e1351cefa4bce7c45929abe27910160405180910390a350505050565b336000908152609d602052604090206112f890848484613541565b505050565b6000610d746099836135b9565b604051631d823e1d60e21b815260a960048201526024810183905260448101829052606090819073__$23c70d15f703c3ae387c840540427b8a00$__90637608f87490606401600060405180830381865af415801561136d573d6000803e3d6000fd5b505050506040513d6000823e601f3d908101601f191682016040526113959190810190615230565b915091505b9250929050565b6001600160a01b037f00000000000000000000000000000000000000000000000000000000000000001630036113e95760405162461bcd60e51b815260040161116490614ffa565b7f00000000000000000000000000000000000000000000000000000000000000006001600160a01b0316611432600080516020615c29833981519152546001600160a01b031690565b6001600160a01b0316146114585760405162461bcd60e51b815260040161116490615046565b6114618261333d565b61146d828260016133b3565b5050565b8061147c8133613289565b6001600160a01b038216600090815260a86020526040902061149d906135cf565b6040516001600160a01b038316907f1eaf28a93e1ad5dabb8e3983d0abb01359e7eafa0982af55e81d715704d25f4e90600090a25050565b806114e160a982612d21565b600082815260ad602052604090206005015482906001600160a01b0316336001600160a01b03161461152657604051636523fa7f60e11b815260040160405180910390fd5b600083815260ad6020526040902061153d90613601565b60405183907fccf05f4102545965ec08932c92c4db5980b2c27c5fc913e64756615f59e8e68990600090a2505050565b6000306001600160a01b037f0000000000000000000000000000000000000000000000000000000000000000161461160d5760405162461bcd60e51b815260206004820152603860248201527f555550535570677261646561626c653a206d757374206e6f742062652063616c60448201527f6c6564207468726f7567682064656c656761746563616c6c00000000000000006064820152608401611164565b50600080516020615c2983398151915290565b600061162c609f613644565b905090565b6040805160a081018252600080825260208201819052606092820183905291810182905260808101919091528161166960a382613652565b6001600160a01b03808416600090815260a86020908152604091829020825160a08101845281548516815260018201549094169184019190915260028101805491928401916116b7906153ca565b80601f01602080910402602001604051908101604052809291908181526020018280546116e3906153ca565b80156117305780601f1061170557610100808354040283529160200191611730565b820191906000526020600020905b81548152906001019060200180831161171357829003601f168201915b50505091835250506003820154602082015260049091015460ff16151560409091015291505b50919050565b6000610d7460a983613684565b6000818152609c60205260409020606090610d74906131a4565b6040805161014081018252600061010082018181526060610120840181905260c0840191825260e08401839052908352602083018290529282018190529181018290526080810182905260a0810191909152600082815260b160205260409081902081516101408101909252805460e01b6001600160e01b0319166101008301908152600182018054849260c0840192859284929184916101208801919061182a906153ca565b80601f0160208091040260200160405190810160405280929190818152602001828054611856906153ca565b80156118a35780601f10611878576101008083540402835291602001916118a3565b820191906000526020600020905b81548152906001019060200180831161188657829003601f168201915b50505091909252505050815260029190910154602091820152908252600383015490820152600482015460408201526005909101546001600160a01b038116606083015263ffffffff600160a01b820481166080840152600160c01b9091041660a09091015292915050565b604051634cf7b3fb60e01b8152606090819073__$e5879ada6f69714d7fc0d88dbcc568b31e$__90634cf7b3fb906119529060b090899089908990600401614e12565b600060405180830381865af415801561196f573d6000803e3d6000fd5b505050506040513d6000823e601f3d908101601f1916820160405261199791908101906153fe565b91509150935093915050565b60405163f7596f9960e01b8152606090819073__$23c70d15f703c3ae387c840540427b8a00$__9063f7596f99906119e69060a990899089908990600401614e12565b600060405180830381865af4158015611a03573d6000803e3d6000fd5b505050506040513d6000823e601f3d908101601f191682016040526119979190810190615230565b6040516376946fcf60e01b8152609f6004820152602481018390526044810182905260609073__$48805a21cd2d79ca776bf2c16e4893ad10$__906376946fcf90606401600060405180830381865af4158015611a8c573d6000803e3d6000fd5b505050506040513d6000823e601f3d908101601f19168201604052610e0791908101906155ac565b6000828152609c60205260408120610e0790836135b9565b6000610d7460a3836136a7565b600082611ae760a382613652565b609e546001600160a01b03858116600090815260a860205260409081902060030154905163c8cb083f60e01b81526004810191909152858216602482015291169063c8cb083f90604401602060405180830381865afa158015611b4e573d6000803e3d6000fd5b505050506040513d601f19601f82011682018060405250810190611b7291906155e0565b949350505050565b6000610d7460b0836136c0565b600054610100900460ff16611ba25760005460ff1615611ba6565b303b155b611c095760405162461bcd60e51b815260206004820152602e60248201527f496e697469616c697a61626c653a20636f6e747261637420697320616c72656160448201526d191e481a5b9a5d1a585b1a5e995960921b6064820152608401611164565b600054610100900460ff16158015611c2b576000805461ffff19166101011790555b611c336136e3565b611c4360a0830160808401614377565b609780546001600160a01b0319166001600160a01b03929092169190911790556040805180820190915280611c7e60c0850160a08601614377565b6001600160a01b03168152602001611c9c60e0850160c08601614408565b61ffff908116909152815160988054602094850151909316600160a01b026001600160b01b03199093166001600160a01b0390921691909117919091179055611ce790830183614377565b60a380546001600160a01b0319166001600160a01b0392909216919091179055611d176040830160208401614377565b609f80546001600160a01b0319166001600160a01b0392909216919091179055611d476060830160408401614377565b60aa80546001600160a01b0319166001600160a01b0392909216919091179055611d776080830160608401614377565b609e80546001600160a01b0319166001600160a01b0392909216919091179055801561146d576000805461ff00191690555050565b600081815260ad602052604090206005015481906001600160a01b0316336001600160a01b031614611df157604051636523fa7f60e11b815260040160405180910390fd5b600082815260ad602052604080822081516101808101909252805460e01b6001600160e01b031916610140830190815260018201805484926101008401928592849291849161016088019190611e46906153ca565b80601f0160208091040260200160405190810160405280929190818152602001828054611e72906153ca565b8015611ebf5780601f10611e9457610100808354040283529160200191611ebf565b820191906000526020600020905b815481529060010190602001808311611ea257829003601f168201915b50505050508152505081526020016002820154815250508152602001600382016040518060400160405290816000820160009054906101000a900460e01b6001600160e01b0319166001600160e01b0319168152602001600182018054611f25906153ca565b80601f0160208091040260200160405190810160405280929190818152602001828054611f51906153ca565b8015611f9e5780601f10611f7357610100808354040283529160200191611f9e565b820191906000526020600020905b815481529060010190602001808311611f8157829003601f168201915b505050919092525050508152600591909101546001600160a01b038116602083015263ffffffff600160a01b820481166040840152600160c01b82048116606084015260ff600160e01b830481161515608080860191909152600160e81b84048216151560a0860152600160f01b90930416151560c0909301929092528201519192509081164290911610156120475760405163dcfbeafb60e01b815260040160405180910390fd5b604051633598a33560e21b815260a960048201526024810184905273__$23c70d15f703c3ae387c840540427b8a00$__9063d6628cd49060440160006040518083038186803b15801561209957600080fd5b505af41580156120ad573d6000803e3d6000fd5b5050825160405163221efb0360e11b815273__$48805a21cd2d79ca776bf2c16e4893ad10$__935063443df60692506120eb91609f916004016155fd565b60006040518083038186803b15801561210357600080fd5b505af4158015612117573d6000803e3d6000fd5b5050505080604001516001600160a01b0316837f1e5a15ab85db192d73c1e02de45c46144e19ffe3bd2ece777303173365ecb9b3836000015160405161215d9190615616565b60405180910390a3505050565b604051632277a89360e11b8152606090819073__$f390c19a6588bf1782f680f4e6750cf906$__906344ef5126906121ad9060a390899089908990600401614e12565b600060405180830381865af41580156121ca573d6000803e3d6000fd5b505050506040513d6000823e601f3d908101601f191682016040526119979190810190615629565b606061162c60996131a4565b6097546001600160a01b03166001600160a01b03166312d9a6ad6000336040516001600160e01b031960e085901b16815260048101929092526001600160a01b0316602482015260440160006040518083038186803b15801561226057600080fd5b505afa158015612274573d6000803e3d6000fd5b506112f89250609991508590508484613541565b600061162c60a9613750565b60006122b26122aa6122a5876157d1565b61375e565b60a39061377c565b6122ca6122c26020860186615821565b60a9906137ae565b604051631daa22cf60e11b815273__$48805a21cd2d79ca776bf2c16e4893ad10$__90633b54459e9061230690609f908990339060040161583e565b60006040518083038186803b15801561231e57600080fd5b505af4158015612332573d6000803e3d6000fd5b5050505060006040518061010001604052808761234e906157d1565b815260200161235c87615899565b8152602001336001600160a01b0316815263ffffffff861660208201526000604080830182905286151560608401526080830182905260a09092018190529051637bc13e0160e01b81529192509073__$23c70d15f703c3ae387c840540427b8a00$__90637bc13e01906123d79060a99086906004016158a5565b602060405180830381865af41580156123f4573d6000803e3d6000fd5b505050506040513d601f19601f820116820180604052508101906124189190614df9565b905081604001516001600160a01b0316817f2aeb4abaf0fe7ca83b75bc43cd2fb6c99366bc042383e06da11e1a268b47d8ce84600001518560200151866060015160405161246893929190615956565b60405180910390a39695505050505050565b6001600160a01b0382166000908152609d60205260408120610e0790836135b9565b6040516337c5f58760e11b8152606090819073__$23c70d15f703c3ae387c840540427b8a00$__90636f8beb0e906119e69060a990899089908990600401614e12565b806124ea8133613289565b604051635e327ed560e01b815260a360048201526001600160a01b038316602482015273__$f390c19a6588bf1782f680f4e6750cf906$__90635e327ed59060440160006040518083038186803b15801561254457600080fd5b505af4158015612558573d6000803e3d6000fd5b50506040516001600160a01b03851692507f752612ff761620ec780457bda227d89213d24d8914934d4e45c16bcb4d2b158c9150600090a25050565b609e5484906001600160a01b0316637dc330dc82336040516001600160e01b031960e085901b16815260048101929092526001600160a01b0316602482015260440160006040518083038186803b1580156125ee57600080fd5b505afa158015612602573d6000803e3d6000fd5b5050506000868152609c602052604090206126209150858585613541565b5050505050565b609e546020820135906001600160a01b0316637dc330dc82336040516001600160e01b031960e085901b16815260048101929092526001600160a01b0316602482015260440160006040518083038186803b15801561268557600080fd5b505afa158015612699573d6000803e3d6000fd5b505050506001600160a01b0383163b15806126cb57506126c96001600160a01b038416630b3888fd60e31b613840565b155b156126ec5760405160016217fc1360e31b0319815260040160405180910390fd5b6000836001600160a01b031663e846a5a96040518163ffffffff1660e01b8152600401602060405180830381865afa15801561272c573d6000803e3d6000fd5b505050506040513d601f19601f820116820180604052508101906127509190615992565b905061275d609f8261385c565b6000846001600160a01b0316635a70a2836040518163ffffffff1660e01b8152600401602060405180830381865afa15801561279d573d6000803e3d6000fd5b505050506040513d601f19601f820116820180604052508101906127c191906159af565b90506001600160a01b03811630146127fd57604051630391492160e41b81526001600160a01b0382166004820152306024820152604401611164565b600061280a609f846138eb565b90506000866001600160a01b031663f46c73c66040518163ffffffff1660e01b8152600401602060405180830381865afa15801561284c573d6000803e3d6000fd5b505050506040513d601f19601f8201168201806040525081019061287091906159af565b6040805160a0810182526001600160a01b0380841682528516602082015291925073__$f390c19a6588bf1782f680f4e6750cf906$__9163c73a080a9160a3918b9181016128be8c806159cc565b8080601f01602080910402602001604051908101604052809392919081815260200183838082843760009201919091525050509082525060208c810135908201526040908101906129159060608e01908e01615a12565b15158152506040518463ffffffff1660e01b815260040161293893929190615a2f565b60006040518083038186803b15801561295057600080fd5b505af4158015612964573d6000803e3d6000fd5b5050505061297c81609f61396690919063ffffffff16565b612a0357604051635fbd140f60e01b8152609f60048201526001600160e01b0319851660248201526001600160a01b038216604482015273__$48805a21cd2d79ca776bf2c16e4893ad10$__90635fbd140f9060640160006040518083038186803b1580156129ea57600080fd5b505af41580156129fe573d6000803e3d6000fd5b505050505b806001600160a01b0316876001600160a01b031687602001357fa14bdeeb833f4488ecf5ee14fc30ccd266c23a9a363fc328eb7df0bb6af7ed6860405160405180910390a450505050505050565b600081612a5f60a382613652565b50506001600160a01b03908116600090815260a860205260409020600101541690565b612a8a61424f565b600082815260ad60205260409081902081516101808101909252805460e01b6001600160e01b031916610140830190815260018201805484926101008401928592849291849161016088019190612ae0906153ca565b80601f0160208091040260200160405190810160405280929190818152602001828054612b0c906153ca565b8015612b595780601f10612b2e57610100808354040283529160200191612b59565b820191906000526020600020905b815481529060010190602001808311612b3c57829003601f168201915b50505050508152505081526020016002820154815250508152602001600382016040518060400160405290816000820160009054906101000a900460e01b6001600160e01b0319166001600160e01b0319168152602001600182018054612bbf906153ca565b80601f0160208091040260200160405190810160405280929190818152602001828054612beb906153ca565b8015612c385780601f10612c0d57610100808354040283529160200191612c38565b820191906000526020600020905b815481529060010190602001808311612c1b57829003601f168201915b505050919092525050508152600591909101546001600160a01b038116602083015263ffffffff600160a01b820481166040840152600160c01b820416606083015260ff600160e01b8204811615156080840152600160e81b82048116151560a0840152600160f01b90910416151560c09091015292915050565b6000610d7460a383613975565b60405163ef6c202d60e01b815260a36004820152602481018490526044810183905260648101829052606090819073__$f390c19a6588bf1782f680f4e6750cf906$__9063ef6c202d906084016121ad565b6001600160a01b03163b151590565b60008181526004830160205260409020612d3a90613998565b61146d5760405163068bb67560e51b815260048101829052602401611164565b6005810154600160f01b900460ff16612d865760405163b42960fd60e01b815260040160405180910390fd5b600501805460ff60f01b19169055565b609e54604051639dd6945b60e01b815260009173__$e5879ada6f69714d7fc0d88dbcc568b31e$__91639dd6945b91612de891889160989160a99160a3916001600160a01b0390911690600401614e66565b60c060405180830381865af4158015612e05573d6000803e3d6000fd5b505050506040513d601f19601f82011682018060405250810190612e299190614ea2565b90506000612e3d60a0860160808701614377565b90508282600001511115612e6457604051631d5a07f360e21b815260040160405180910390fd5b8435600090815260ad602052604080822060608501519185015190918391612e8c9190615a9d565b60058301549091506001600160a01b03811690600160e01b900460ff1615612ec857612ec36001600160a01b0386168983856139c5565b612ef8565b6001600160a01b0381166000908152609d60205260409020612eeb908684613a36565b612ef58285615a9d565b93505b600060a881612f0d60408d0160208e01614377565b6001600160a01b03166001600160a01b0316815260200190815260200160002060030154905060008760a001518860800151612f499190615a9d565b6000838152609c60205260409020909150612f65908883613a36565b612f6f8187615a9d565b6020890151909650612f85906099908990613a36565b6020880151612f949087615a9d565b9550612fab6001600160a01b0388168b30896139c5565b5050505050505050505050565b604080516080810182526000918101828152606080830152815260208101829052600085815260ad60205260408082208151608081018352815460e01b6001600160e01b0319169281019283526001820180549193849290918491606085019190613022906153ca565b80601f016020809104026020016040519081016040528092919081815260200182805461304e906153ca565b801561309b5780601f106130705761010080835404028352916020019161309b565b820191906000526020600020905b81548152906001019060200180831161307e57829003601f168201915b505050919092525050508152600291909101546020918201526001600160a01b03808816600090815260a8909252604091829020600101549151929350169061313b9063c95eb64d60e01b906130f99085908a908a90602401615ab5565b60408051601f198184030181529190526020810180516001600160e01b03166001600160e01b0319909316929092179091526001600160a01b03831690613a5a565b80602001905181019061314e9190615ae8565b909890975095505050505050565b600582015463ffffffff808316600160c01b909204161061317b575050565b6005909101805463ffffffff909216600160c01b0263ffffffff60c01b19909216919091179055565b606060006131b183613a7f565b90506000816001600160401b038111156131cd576131cd6146fc565b60405190808252806020026020018201604052801561321257816020015b60408051808201909152600080825260208201528152602001906001900390816131eb5790505b50905060005b828110156132815760008061322d8784613a8a565b915091506040518060400160405280836001600160a01b031681526020018281525084848151811061326157613261615b24565b60200260200101819052505050808061327990615b3a565b915050613218565b509392505050565b609e546001600160a01b03838116600090815260a8602052604090819020600301549051631f70cc3760e21b815260048101919091528382166024820152911690637dc330dc9060440160006040518083038186803b1580156132eb57600080fd5b505afa1580156132ff573d6000803e3d6000fd5b505050505050565b600481015460ff161561332d5760405163651c69e160e01b815260040160405180910390fd5b600401805460ff19166001179055565b6097546001600160a01b03166001600160a01b03166312d9a6ad6000336040516001600160e01b031960e085901b16815260048101929092526001600160a01b0316602482015260440160006040518083038186803b15801561339f57600080fd5b505afa158015612620573d6000803e3d6000fd5b7f4910fdfa16fed3260ed0e7147f7cc6da11a60208b5b9406d12a635614ffd91435460ff16156133e6576112f883613aa6565b826001600160a01b03166352d1902d6040518163ffffffff1660e01b8152600401602060405180830381865afa925050508015613440575060408051601f3d908101601f1916820190925261343d91810190614df9565b60015b6134a35760405162461bcd60e51b815260206004820152602e60248201527f45524331393637557067726164653a206e657720696d706c656d656e7461746960448201526d6f6e206973206e6f74205555505360901b6064820152608401611164565b600080516020615c2983398151915281146135125760405162461bcd60e51b815260206004820152602960248201527f45524331393637557067726164653a20756e737570706f727465642070726f786044820152681a58589b195555525160ba1b6064820152608401611164565b506112f8838383613b42565b6001600160a01b03811660009081526005830160205260408120610e0790613b67565b81600003613565576040516305a4a8e760e01b815260048101839052602401611164565b600061357185856135b9565b90508083111561359757604051639266535160e01b815260048101829052602401611164565b6135a48585858403613b71565b506126206001600160a01b0385168385613b87565b6000806135c68484613bb7565b95945050505050565b600481015460ff166135f457604051633587233b60e11b815260040160405180910390fd5b600401805460ff19169055565b6005810154600160f01b900460ff161561362e57604051637892dcf360e01b815260040160405180910390fd5b600501805460ff60f01b1916600160f01b179055565b6000610d7482600101613b67565b61365c8282613966565b61146d57604051634f59bc1f60e11b81526001600160a01b0382166004820152602401611164565b6001600160a01b03811660009081526006830160205260408120610e0790613b67565b60008181526003830160205260408120610e0790613b67565b6001600160a01b03811660009081526002830160205260408120610e0790613b67565b600054610100900460ff1661374e5760405162461bcd60e51b815260206004820152602b60248201527f496e697469616c697a61626c653a20636f6e7472616374206973206e6f74206960448201526a6e697469616c697a696e6760a81b6064820152608401611164565b565b6000610d7482600201613b67565b6000816000015160200151806020019051810190610d7491906159af565b6137868282613bcf565b61146d5760405163ee84f40b60e01b81526001600160a01b0382166004820152602401611164565b6001820154604051631582016d60e01b81526001600160a01b0390911690631582016d906137e0908490600401615b53565b602060405180830381865afa1580156137fd573d6000803e3d6000fd5b505050506040513d601f19601f8201168201806040525081019061382191906155e0565b61146d57806040516380f3229160e01b81526004016111649190615b53565b600061384b83613bfc565b8015610e075750610e078383613c2f565b81546040516303de1a5960e51b81526001600160a01b0390911690637bc34b209061388b908490600401615b53565b602060405180830381865afa1580156138a8573d6000803e3d6000fd5b505050506040513d601f19601f820116820180604052508101906138cc91906155e0565b61146d578060405163191e817360e21b81526004016111649190615b53565b8154604051630b42144760e41b81526000916001600160a01b03169063b42144709061391b908590600401615b53565b6040805180830381865afa158015613937573d6000803e3d6000fd5b505050506040513d601f19601f8201168201806040525081019061395b9190615b68565b602001519392505050565b6000610e076001840183613d20565b6001600160a01b03811660009081526004830160205260408120610e0790613b67565b60058101546000906001600160a01b031615801590610d7457505060050154600160e81b900460ff161590565b6040516001600160a01b0380851660248301528316604482015260648101829052613a309085906323b872dd60e01b906084015b60408051601f198184030181529190526020810180516001600160e01b03166001600160e01b031990931692909217909152613d42565b50505050565b6000613a4284846135b9565b905061262083613a528484615a9d565b869190613b71565b6060610e078383604051806060016040528060278152602001615c4960279139613e14565b6000610d7482613ea8565b6000808080613a998686613eb3565b9097909650945050505050565b6001600160a01b0381163b613b135760405162461bcd60e51b815260206004820152602d60248201527f455243313936373a206e657720696d706c656d656e746174696f6e206973206e60448201526c1bdd08184818dbdb9d1c9858dd609a1b6064820152608401611164565b600080516020615c2983398151915280546001600160a01b0319166001600160a01b0392909216919091179055565b613b4b83613ede565b600082511180613b585750805b156112f857613a308383613f1e565b6000610d74825490565b6000611b72846001600160a01b03851684613fca565b6040516001600160a01b0383166024820152604481018290526112f890849063a9059cbb60e01b906064016139f9565b6000808080613a99866001600160a01b038716613fe7565b6001600160a01b038116600090815260048301602052604081208190613bf490613b67565b119392505050565b6000613c0f826301ffc9a760e01b613c2f565b8015610d745750613c28826001600160e01b0319613c2f565b1592915050565b6000806301ffc9a760e01b83604051602401613c4b9190615b53565b604051602081830303815290604052906001600160e01b0319166020820180516001600160e01b0383818316178352505050509050600080856001600160a01b031661753084604051613c9e9190615bc6565b6000604051808303818686fa925050503d8060008114613cda576040519150601f19603f3d011682016040523d82523d6000602084013e613cdf565b606091505b5091509150602081511015613cfa5760009350505050610d74565b818015613d16575080806020019051810190613d1691906155e0565b9695505050505050565b6001600160a01b03811660009081526001830160205260408120541515610e07565b6000613d97826040518060400160405280602081526020017f5361666545524332303a206c6f772d6c6576656c2063616c6c206661696c6564815250856001600160a01b03166140219092919063ffffffff16565b8051909150156112f85780806020019051810190613db591906155e0565b6112f85760405162461bcd60e51b815260206004820152602a60248201527f5361666545524332303a204552433230206f7065726174696f6e20646964206e6044820152691bdd081cdd58d8d9595960b21b6064820152608401611164565b60606001600160a01b0384163b613e3d5760405162461bcd60e51b815260040161116490615be2565b600080856001600160a01b031685604051613e589190615bc6565b600060405180830381855af49150503d8060008114613e93576040519150601f19603f3d011682016040523d82523d6000602084013e613e98565b606091505b5091509150613d16828286614030565b6000610d7482613b67565b60008080613ec18585614069565b600081815260029690960160205260409095205494959350505050565b613ee781613aa6565b6040516001600160a01b038216907fbc7cd75a20ee27fd9adebab32041f755214dbc6bffa90cc0225b39da2e5c2d3b90600090a250565b60606001600160a01b0383163b613f475760405162461bcd60e51b815260040161116490615be2565b600080846001600160a01b031684604051613f629190615bc6565b600060405180830381855af49150503d8060008114613f9d576040519150601f19603f3d011682016040523d82523d6000602084013e613fa2565b606091505b50915091506135c68282604051806060016040528060278152602001615c4960279139614030565b60008281526002840160205260408120829055611b728484614075565b6000818152600283016020526040812054819080614016576140098585614081565b92506000915061139a9050565b60019250905061139a565b6060611b72848460008561408d565b6060831561403f575081610e07565b82511561404f5782518084602001fd5b8160405162461bcd60e51b8152600401611164919061489d565b6000610e0783836141be565b6000610e0783836141e8565b6000610e078383614237565b6060824710156140ee5760405162461bcd60e51b815260206004820152602660248201527f416464726573733a20696e73756666696369656e742062616c616e636520666f6044820152651c8818d85b1b60d21b6064820152608401611164565b6001600160a01b0385163b6141455760405162461bcd60e51b815260206004820152601d60248201527f416464726573733a2063616c6c20746f206e6f6e2d636f6e74726163740000006044820152606401611164565b600080866001600160a01b031685876040516141619190615bc6565b60006040518083038185875af1925050503d806000811461419e576040519150601f19603f3d011682016040523d82523d6000602084013e6141a3565b606091505b50915091506141b3828286614030565b979650505050505050565b60008260000182815481106141d5576141d5615b24565b9060005260206000200154905092915050565b600081815260018301602052604081205461422f57508154600181810184556000848152602080822090930184905584548482528286019093526040902091909155610d74565b506000610d74565b60008181526001830160205260408120541515610e07565b6040805161018081019091526000610140820181815260606101608401526101008301908152610120830191909152819081526020016142ac604051806040016040528060006001600160e01b0319168152602001606081525090565b815260006020820181905260408201819052606082018190526080820181905260a0820181905260c09091015290565b6000602082840312156142ee57600080fd5b5035919050565b600060a0828403121561175657600080fd5b60008060c0838503121561431a57600080fd5b61432484846142f5565b9460a0939093013593505050565b6001600160a01b038116811461120157600080fd5b6000806040838503121561435a57600080fd5b82359150602083013561436c81614332565b809150509250929050565b60006020828403121561438957600080fd5b8135610e0781614332565b602080825282518282018190526000919060409081850190868401855b828110156143df57815180516001600160a01b031685528601518685015292840192908501906001016143b1565b5091979650505050505050565b600060a082840312156143fe57600080fd5b610e0783836142f5565b60006020828403121561441a57600080fd5b813561ffff81168114610e0757600080fd5b60006040828403121561175657600080fd5b60006020828403121561445057600080fd5b81356001600160401b0381111561446657600080fd5b611b728482850161442c565b602081016003831061449457634e487b7160e01b600052602160045260246000fd5b91905290565b6000806000606084860312156144af57600080fd5b83356144ba81614332565b92506020840135915060408401356144d181614332565b809150509250925092565b600080604083850312156144ef57600080fd5b50508035926020909101359150565b600081518084526020808501945080840160005b8381101561452e57815187529582019590820190600101614512565b509495945050505050565b60005b8381101561455457818101518382015260200161453c565b83811115613a305750506000910152565b6000815180845261457d816020860160208601614539565b601f01601f19169290920160200192915050565b63ffffffff60e01b81511682526000602082015160406020850152611b726040850182614565565b60008151604084526145ce6040850182614591565b602093840151949093019390935250919050565b600061010082518185526145f8828601826145b9565b915050602083015184820360208601526146128282614591565b91505060018060a01b03604084015116604085015263ffffffff6060840151166060850152608083015161464e608086018263ffffffff169052565b5060a083015161466260a086018215159052565b5060c083015161467660c086018215159052565b5060e083015161328160e086018215159052565b60408152600061469d60408301856144fe565b6020838203818501528185518084528284019150828160051b85010183880160005b838110156146ed57601f198784030185526146db8383516145e2565b948601949250908501906001016146bf565b50909998505050505050505050565b634e487b7160e01b600052604160045260246000fd5b604080519081016001600160401b0381118282101715614734576147346146fc565b60405290565b60405161010081016001600160401b0381118282101715614734576147346146fc565b60405160c081016001600160401b0381118282101715614734576147346146fc565b60405160a081016001600160401b0381118282101715614734576147346146fc565b604051601f8201601f191681016001600160401b03811182821017156147c9576147c96146fc565b604052919050565b60006001600160401b038211156147ea576147ea6146fc565b50601f01601f191660200190565b600082601f83011261480957600080fd5b813561481c614817826147d1565b6147a1565b81815284602083860101111561483157600080fd5b816020850160208301376000918101602001919091529392505050565b6000806040838503121561486157600080fd5b823561486c81614332565b915060208301356001600160401b0381111561488757600080fd5b614893858286016147f8565b9150509250929050565b602081526000610e076020830184614565565b600060018060a01b0380835116845280602084015116602085015250604082015160a060408501526148e560a0850182614565565b9050606083015160608501526080830151151560808501528091505092915050565b602081526000610e0760208301846148b0565b6000815160c0845261492f60c08501826145b9565b9050602083015160208501526040830151604085015260018060a01b036060840151166060850152608083015163ffffffff80821660808701528060a08601511660a087015250508091505092915050565b602081526000610e07602083018461491a565b6000806000606084860312156149a957600080fd5b83356149b481614332565b95602085013595506040909401359392505050565b6040815260006149dc60408301856144fe565b6020838203818501528185518084528284019150828160051b85010183880160005b838110156146ed57601f19878403018552614a1a83835161491a565b948601949250908501906001016149fe565b600081518084526020808501945080840160005b8381101561452e5781516001600160a01b031687529582019590820190600101614a40565b602081526000610e076020830184614a2c565b60008060408385031215614a8b57600080fd5b8235614a9681614332565b9150602083013561436c81614332565b600060e0828403121561175657600080fd5b604081526000614acb6040830185614a2c565b6020838203818501528185518084528284019150828160051b85010183880160005b838110156146ed57601f19878403018552614b098383516148b0565b94860194925090850190600101614aed565b63ffffffff8116811461120157600080fd5b801515811461120157600080fd5b60008060008060808587031215614b5157600080fd5b84356001600160401b0380821115614b6857600080fd5b614b748883890161442c565b95506020870135915080821115614b8a57600080fd5b50614b978782880161442c565b9350506040850135614ba881614b1b565b91506060850135614bb881614b2d565b939692955090935050565b60008060008060808587031215614bd957600080fd5b843593506020850135614beb81614332565b9250604085013591506060850135614bb881614332565b60008060408385031215614c1557600080fd5b8235614c2081614332565b915060208301356001600160401b03811115614c3b57600080fd5b83016060818603121561436c57600080fd5b602081526000610e0760208301846145e2565b600080600060608486031215614c7557600080fd5b505081359360208301359350604090920135919050565b803582526020810135614c9e81614332565b6001600160a01b039081166020840152604082013590614cbd82614332565b9081166040840152606082013590614cd482614b1b565b63ffffffff8216606085015260808301359150614cf082614332565b808216608085015250505050565b6101008101614d0d8287614c8c565b8460a08301528360c08301528260e083015295945050505050565b600060208284031215614d3a57600080fd5b8135610e0781614b1b565b634e487b7160e01b600052601160045260246000fd5b600063ffffffff808316818516808303821115614d7a57614d7a614d45565b01949350505050565b828152604060208201526000825160c06040840152614da66101008401826145b9565b9050602084015160608401526040840151608084015260018060a01b0360608501511660a0840152608084015163ffffffff80821660c08601528060a08701511660e08601525050809150509392505050565b600060208284031215614e0b57600080fd5b5051919050565b9384526001600160a01b039290921660208401526040830152606082015260800190565b606081526000614e4960608301866145b9565b63ffffffff94851660208401529290931660409091015292915050565b6101208101614e758288614c8c565b60a082019590955260c081019390935260e08301919091526001600160a01b031661010090910152919050565b600060c08284031215614eb457600080fd5b60405160c081018181106001600160401b0382111715614ed657614ed66146fc565b8060405250825181526020830151602082015260408301516040820152606083015160608201526080830151608082015260a083015160a08201528091505092915050565b6001600160e01b03198116811461120157600080fd5b60008135614f3e81614f1b565b6001600160e01b0319168352602082013536839003601e19018112614f6257600080fd5b820180356001600160401b03811115614f7a57600080fd5b803603841315614f8957600080fd5b60406020860152806040860152806020830160608701376000606082870101526060601f19601f8301168601019250505092915050565b828152604060208201526000611b726040830184614f31565b600060208284031215614feb57600080fd5b815160038110610e0757600080fd5b6020808252602c908201527f46756e6374696f6e206d7573742062652063616c6c6564207468726f7567682060408201526b19195b1959d85d1958d85b1b60a21b606082015260800190565b6020808252602c908201527f46756e6374696f6e206d7573742062652063616c6c6564207468726f7567682060408201526b6163746976652070726f787960a01b606082015260800190565b60006001600160401b038211156150ab576150ab6146fc565b5060051b60200190565b600082601f8301126150c657600080fd5b815160206150d661481783615092565b82815260059290921b840181019181810190868411156150f557600080fd5b8286015b8481101561511057805183529183019183016150f9565b509695505050505050565b6000615129614817846147d1565b905082815283838301111561513d57600080fd5b610e07836020830184614539565b60006040828403121561515d57600080fd5b615165614712565b9050815161517281614f1b565b815260208201516001600160401b0381111561518d57600080fd5b8201601f8101841361519e57600080fd5b6151ad8482516020840161511b565b60208301525092915050565b6000604082840312156151cb57600080fd5b6151d3614712565b905081516001600160401b038111156151eb57600080fd5b6151f78482850161514b565b8252506020820151602082015292915050565b805161521581614332565b919050565b805161521581614b1b565b805161521581614b2d565b6000806040838503121561524357600080fd5b82516001600160401b038082111561525a57600080fd5b615266868387016150b5565b935060209150818501518181111561527d57600080fd5b8501601f8101871361528e57600080fd5b805161529c61481782615092565b81815260059190911b820184019084810190898311156152bb57600080fd5b8584015b838110156153b9578051868111156152d75760008081fd5b8501610100818d03601f19018113156152f05760008081fd5b6152f861473a565b898301518981111561530a5760008081fd5b6153188f8c838701016151b9565b82525060408301518981111561532e5760008081fd5b61533c8f8c8387010161514b565b8b83015250606061534e81850161520a565b6040830152608061536081860161521a565b8284015260a0915061537382860161521a565b9083015260c0615384858201615225565b8284015260e09150615397828601615225565b908301526153a6848401615225565b90820152855250509186019186016152bf565b508096505050505050509250929050565b600181811c908216806153de57607f821691505b60208210810361175657634e487b7160e01b600052602260045260246000fd5b6000806040838503121561541157600080fd5b82516001600160401b038082111561542857600080fd5b615434868387016150b5565b935060209150818501518181111561544b57600080fd5b8501601f8101871361545c57600080fd5b805161546a61481782615092565b81815260059190911b8201840190848101908983111561548957600080fd5b8584015b838110156153b9578051868111156154a55760008081fd5b850160c0818d03601f19018113156154bd5760008081fd5b6154c561475d565b89830151898111156154d75760008081fd5b6154e58f8c838701016151b9565b82525060408301518a820152606080840151604083015260808085015161550b81614332565b80838501525060a091508185015161552281614b1b565b90830152928201519261553484614b1b565b81019290925250835291860191860161548d565b600082601f83011261555957600080fd5b8151602061556961481783615092565b82815260059290921b8401810191818101908684111561558857600080fd5b8286015b8481101561511057805161559f81614332565b835291830191830161558c565b6000602082840312156155be57600080fd5b81516001600160401b038111156155d457600080fd5b611b7284828501615548565b6000602082840312156155f257600080fd5b8151610e0781614b2d565b828152604060208201526000611b7260408301846145b9565b602081526000610e0760208301846145b9565b600080604080848603121561563d57600080fd5b83516001600160401b038082111561565457600080fd5b61566087838801615548565b945060209150818601518181111561567757600080fd5b8601601f8101881361568857600080fd5b805161569661481782615092565b81815260059190911b8201840190848101908a8311156156b557600080fd5b8584015b83811015615771578051868111156156d057600080fd5b850160a0818e03601f190112156156e657600080fd5b6156ee61477f565b888201516156fb81614332565b8152818a015161570a81614332565b818a01526060820151888111156157215760008081fd5b8201603f81018f136157335760008081fd5b6157438f8b8301518d840161511b565b8b83015250608080830151606083015261575f60a08401615225565b908201528452509186019186016156b9565b50809750505050505050509250929050565b60006040828403121561579557600080fd5b61579d614712565b905081356157aa81614f1b565b815260208201356001600160401b038111156157c557600080fd5b6151ad848285016147f8565b6000604082360312156157e357600080fd5b6157eb614712565b82356001600160401b0381111561580157600080fd5b61580d36828601615783565b825250602092830135928101929092525090565b60006020828403121561583357600080fd5b8135610e0781614f1b565b8381526060602082015260008335603e1985360301811261585e57600080fd5b6040606084015261587460a08401868301614f31565b60209590950135608084015250506001600160a01b0391909116604090910152919050565b6000610d743683615783565b82815260406020820152600082516101008060408501526158ca6101408501836145b9565b91506020850151603f198584030160608601526158e78382614591565b60408701516001600160a01b03166080870152606087015163ffffffff811660a0880152909350905050608085015163ffffffff811660c08601525060a085015180151560e08601525060c085015180151585830152505060e084015180151561012085015250949350505050565b60608152600061596960608301866145b9565b828103602084015261597b8186614591565b91505063ffffffff83166040830152949350505050565b6000602082840312156159a457600080fd5b8151610e0781614f1b565b6000602082840312156159c157600080fd5b8151610e0781614332565b6000808335601e198436030181126159e357600080fd5b8301803591506001600160401b038211156159fd57600080fd5b60200191503681900382131561139a57600080fd5b600060208284031215615a2457600080fd5b8135610e0781614b2d565b838152600060018060a01b0380851660208401526060604084015280845116606084015280602085015116608084015250604083015160a080840152615a79610100840182614565565b9050606084015160c08401526080840151151560e084015280915050949350505050565b60008219821115615ab057615ab0614d45565b500190565b606081526000615ac860608301866145b9565b6001600160a01b0394851660208401529290931660409091015292915050565b60008060408385031215615afb57600080fd5b8251915060208301516001600160401b03811115615b1857600080fd5b614893858286016151b9565b634e487b7160e01b600052603260045260246000fd5b600060018201615b4c57615b4c614d45565b5060010190565b6001600160e01b031991909116815260200190565b600060408284031215615b7a57600080fd5b604051604081018181106001600160401b0382111715615b9c57615b9c6146fc565b6040528251615baa81614332565b81526020830151615bba81614332565b60208201529392505050565b60008251615bd8818460208701614539565b9190910192915050565b60208082526026908201527f416464726573733a2064656c65676174652063616c6c20746f206e6f6e2d636f6040820152651b9d1c9858dd60d21b60608201526080019056fe360894a13ba1a3210667c828492db98dca3e2076cc3735a920a3ca505d382bbc416464726573733a206c6f772d6c6576656c2064656c65676174652063616c6c206661696c6564a2646970667358221220c63999300683b82ad7bf5b2d5918e2400448c7fa160d46da2b607a0b2f2441f464736f6c634300080d0033",
  "linkReferences": {
    "contracts/asset/Assets.sol": {
      "Assets": [
        {
          "length": 20,
          "start": 7065
        },
        {
          "length": 20,
          "start": 8711
        },
        {
          "length": 20,
          "start": 9248
        },
        {
          "length": 20,
          "start": 11004
        }
      ]
    },
    "contracts/listing/Listings.sol": {
      "Listings": [
        {
          "length": 20,
          "start": 5242
        },
        {
          "length": 20,
          "start": 6910
        },
        {
          "length": 20,
          "start": 8619
        },
        {
          "length": 20,
          "start": 9459
        },
        {
          "length": 20,
          "start": 9719
        }
      ]
    },
    "contracts/renting/Rentings.sol": {
      "Rentings": [
        {
          "length": 20,
          "start": 3102
        },
        {
          "length": 20,
          "start": 3405
        },
        {
          "length": 20,
          "start": 3549
        },
        {
          "length": 20,
          "start": 3824
        },
        {
          "length": 20,
          "start": 4033
        },
        {
          "length": 20,
          "start": 4146
        },
        {
          "length": 20,
          "start": 4599
        },
        {
          "length": 20,
          "start": 6762
        },
        {
          "length": 20,
          "start": 12018
        }
      ]
    },
    "contracts/warper/Warpers.sol": {
      "Warpers": [
        {
          "length": 20,
          "start": 8901
        },
        {
          "length": 20,
          "start": 9814
        },
        {
          "length": 20,
          "start": 10714
        },
        {
          "length": 20,
          "start": 11831
        }
      ]
    }
  },
  "deployedLinkReferences": {
    "contracts/asset/Assets.sol": {
      "Assets": [
        {
          "length": 20,
          "start": 6738
        },
        {
          "length": 20,
          "start": 8384
        },
        {
          "length": 20,
          "start": 8921
        },
        {
          "length": 20,
          "start": 10677
        }
      ]
    },
    "contracts/listing/Listings.sol": {
      "Listings": [
        {
          "length": 20,
          "start": 4915
        },
        {
          "length": 20,
          "start": 6583
        },
        {
          "length": 20,
          "start": 8292
        },
        {
          "length": 20,
          "start": 9132
        },
        {
          "length": 20,
          "start": 9392
        }
      ]
    },
    "contracts/renting/Rentings.sol": {
      "Rentings": [
        {
          "length": 20,
          "start": 2775
        },
        {
          "length": 20,
          "start": 3078
        },
        {
          "length": 20,
          "start": 3222
        },
        {
          "length": 20,
          "start": 3497
        },
        {
          "length": 20,
          "start": 3706
        },
        {
          "length": 20,
          "start": 3819
        },
        {
          "length": 20,
          "start": 4272
        },
        {
          "length": 20,
          "start": 6435
        },
        {
          "length": 20,
          "start": 11691
        }
      ]
    },
    "contracts/warper/Warpers.sol": {
      "Warpers": [
        {
          "length": 20,
          "start": 8574
        },
        {
          "length": 20,
          "start": 9487
        },
        {
          "length": 20,
          "start": 10387
        },
        {
          "length": 20,
          "start": 11504
        }
      ]
    }
  }
}