{
  "_format": "hh-sol-artifact-1",
  "contractName": "MetahubV2Mock",
  "sourceName": "contracts/mocks/MetahubV2Mock.sol",
  "abi": [
    {
      "inputs": [],
      "name": "AssetIsLocked",
      "type": "error"
    },
    {
      "inputs": [],
      "name": "CallerIsNotAssetLister",
      "type": "error"
    },
    {
      "inputs": [],
      "name": "CallerIsNotRenter",
      "type": "error"
    },
    {
      "inputs": [
        {
          "internalType": "uint256",
          "name": "balance",
          "type": "uint256"
        }
      ],
      "name": "InsufficientBalance",
      "type": "error"
    },
    {
      "inputs": [],
      "name": "InvalidWarperInterface",
      "type": "error"
    },
    {
      "inputs": [
        {
          "internalType": "uint256",
          "name": "amount",
          "type": "uint256"
        }
      ],
      "name": "InvalidWithdrawalAmount",
      "type": "error"
    },
    {
      "inputs": [],
      "name": "ListingIsNotPaused",
      "type": "error"
    },
    {
      "inputs": [],
      "name": "ListingIsPaused",
      "type": "error"
    },
    {
      "inputs": [
        {
          "internalType": "uint256",
          "name": "listingId",
          "type": "uint256"
        }
      ],
      "name": "NotListed",
      "type": "error"
    },
    {
      "inputs": [],
      "name": "RentalFeeSlippage",
      "type": "error"
    },
    {
      "inputs": [
        {
          "internalType": "address",
          "name": "asset",
          "type": "address"
        }
      ],
      "name": "UnsupportedAsset",
      "type": "error"
    },
    {
      "inputs": [
        {
          "internalType": "bytes4",
          "name": "assetClass",
          "type": "bytes4"
        }
      ],
      "name": "UnsupportedAssetClass",
      "type": "error"
    },
    {
      "inputs": [
        {
          "internalType": "bytes4",
          "name": "strategyId",
          "type": "bytes4"
        }
      ],
      "name": "UnsupportedListingStrategy",
      "type": "error"
    },
    {
      "inputs": [
        {
          "internalType": "address",
          "name": "provided",
          "type": "address"
        },
        {
          "internalType": "address",
          "name": "required",
          "type": "address"
        }
      ],
      "name": "WarperHasIncorrectMetahubReference",
      "type": "error"
    },
    {
      "inputs": [],
      "name": "WarperIsNotPaused",
      "type": "error"
    },
    {
      "inputs": [
        {
          "internalType": "address",
          "name": "warper",
          "type": "address"
        }
      ],
      "name": "WarperIsNotRegistered",
      "type": "error"
    },
    {
      "inputs": [],
      "name": "WarperIsPaused",
      "type": "error"
    },
    {
      "anonymous": false,
      "inputs": [
        {
          "indexed": false,
          "internalType": "address",
          "name": "previousAdmin",
          "type": "address"
        },
        {
          "indexed": false,
          "internalType": "address",
          "name": "newAdmin",
          "type": "address"
        }
      ],
      "name": "AdminChanged",
      "type": "event"
    },
    {
      "anonymous": false,
      "inputs": [
        {
          "indexed": true,
          "internalType": "uint256",
          "name": "listingId",
          "type": "uint256"
        },
        {
          "indexed": true,
          "internalType": "address",
          "name": "lister",
          "type": "address"
        },
        {
          "indexed": false,
          "internalType": "uint32",
          "name": "unlocksAt",
          "type": "uint32"
        }
      ],
      "name": "AssetDelisted",
      "type": "event"
    },
    {
      "anonymous": false,
      "inputs": [
        {
          "indexed": true,
          "internalType": "uint256",
          "name": "listingId",
          "type": "uint256"
        },
        {
          "indexed": true,
          "internalType": "address",
          "name": "lister",
          "type": "address"
        },
        {
          "components": [
            {
              "components": [
                {
                  "internalType": "bytes4",
                  "name": "class",
                  "type": "bytes4"
                },
                {
                  "internalType": "bytes",
                  "name": "data",
                  "type": "bytes"
                }
              ],
              "internalType": "struct Assets.AssetId",
              "name": "id",
              "type": "tuple"
            },
            {
              "internalType": "uint256",
              "name": "value",
              "type": "uint256"
            }
          ],
          "indexed": false,
          "internalType": "struct Assets.Asset",
          "name": "asset",
          "type": "tuple"
        },
        {
          "components": [
            {
              "internalType": "bytes4",
              "name": "strategy",
              "type": "bytes4"
            },
            {
              "internalType": "bytes",
              "name": "data",
              "type": "bytes"
            }
          ],
          "indexed": false,
          "internalType": "struct Listings.Params",
          "name": "params",
          "type": "tuple"
        },
        {
          "indexed": false,
          "internalType": "uint32",
          "name": "maxLockPeriod",
          "type": "uint32"
        }
      ],
      "name": "AssetListed",
      "type": "event"
    },
    {
      "anonymous": false,
      "inputs": [
        {
          "indexed": true,
          "internalType": "uint256",
          "name": "rentalId",
          "type": "uint256"
        },
        {
          "indexed": true,
          "internalType": "address",
          "name": "renter",
          "type": "address"
        },
        {
          "indexed": true,
          "internalType": "uint256",
          "name": "listingId",
          "type": "uint256"
        },
        {
          "components": [
            {
              "components": [
                {
                  "internalType": "bytes4",
                  "name": "class",
                  "type": "bytes4"
                },
                {
                  "internalType": "bytes",
                  "name": "data",
                  "type": "bytes"
                }
              ],
              "internalType": "struct Assets.AssetId",
              "name": "id",
              "type": "tuple"
            },
            {
              "internalType": "uint256",
              "name": "value",
              "type": "uint256"
            }
          ],
          "indexed": false,
          "internalType": "struct Assets.Asset",
          "name": "warpedAsset",
          "type": "tuple"
        },
        {
          "indexed": false,
          "internalType": "uint32",
          "name": "startTime",
          "type": "uint32"
        },
        {
          "indexed": false,
          "internalType": "uint32",
          "name": "endTime",
          "type": "uint32"
        }
      ],
      "name": "AssetRented",
      "type": "event"
    },
    {
      "anonymous": false,
      "inputs": [
        {
          "indexed": true,
          "internalType": "uint256",
          "name": "listingId",
          "type": "uint256"
        },
        {
          "indexed": true,
          "internalType": "address",
          "name": "lister",
          "type": "address"
        },
        {
          "components": [
            {
              "components": [
                {
                  "internalType": "bytes4",
                  "name": "class",
                  "type": "bytes4"
                },
                {
                  "internalType": "bytes",
                  "name": "data",
                  "type": "bytes"
                }
              ],
              "internalType": "struct Assets.AssetId",
              "name": "id",
              "type": "tuple"
            },
            {
              "internalType": "uint256",
              "name": "value",
              "type": "uint256"
            }
          ],
          "indexed": false,
          "internalType": "struct Assets.Asset",
          "name": "asset",
          "type": "tuple"
        }
      ],
      "name": "AssetWithdrawn",
      "type": "event"
    },
    {
      "anonymous": false,
      "inputs": [
        {
          "indexed": true,
          "internalType": "address",
          "name": "beacon",
          "type": "address"
        }
      ],
      "name": "BeaconUpgraded",
      "type": "event"
    },
    {
      "anonymous": false,
      "inputs": [
        {
          "indexed": true,
          "internalType": "uint256",
          "name": "listingId",
          "type": "uint256"
        }
      ],
      "name": "ListingPaused",
      "type": "event"
    },
    {
      "anonymous": false,
      "inputs": [
        {
          "indexed": true,
          "internalType": "uint256",
          "name": "listingId",
          "type": "uint256"
        }
      ],
      "name": "ListingUnpaused",
      "type": "event"
    },
    {
      "anonymous": false,
      "inputs": [
        {
          "indexed": false,
          "internalType": "uint16",
          "name": "rentalFeePercent",
          "type": "uint16"
        }
      ],
      "name": "ProtocolRentalFeeChanged",
      "type": "event"
    },
    {
      "anonymous": false,
      "inputs": [
        {
          "indexed": true,
          "internalType": "address",
          "name": "implementation",
          "type": "address"
        }
      ],
      "name": "Upgraded",
      "type": "event"
    },
    {
      "anonymous": false,
      "inputs": [
        {
          "indexed": true,
          "internalType": "address",
          "name": "warper",
          "type": "address"
        }
      ],
      "name": "WarperDeregistered",
      "type": "event"
    },
    {
      "anonymous": false,
      "inputs": [
        {
          "indexed": true,
          "internalType": "address",
          "name": "warper",
          "type": "address"
        }
      ],
      "name": "WarperPaused",
      "type": "event"
    },
    {
      "anonymous": false,
      "inputs": [
        {
          "indexed": true,
          "internalType": "uint256",
          "name": "universeId",
          "type": "uint256"
        },
        {
          "indexed": true,
          "internalType": "address",
          "name": "warper",
          "type": "address"
        },
        {
          "indexed": true,
          "internalType": "address",
          "name": "original",
          "type": "address"
        }
      ],
      "name": "WarperRegistered",
      "type": "event"
    },
    {
      "anonymous": false,
      "inputs": [
        {
          "indexed": true,
          "internalType": "address",
          "name": "warper",
          "type": "address"
        }
      ],
      "name": "WarperUnpaused",
      "type": "event"
    },
    {
      "inputs": [
        {
          "components": [
            {
              "internalType": "bytes4",
              "name": "class",
              "type": "bytes4"
            },
            {
              "internalType": "bytes",
              "name": "data",
              "type": "bytes"
            }
          ],
          "internalType": "struct Assets.AssetId",
          "name": "warpedAssetId",
          "type": "tuple"
        }
      ],
      "name": "assetRentalStatus",
      "outputs": [
        {
          "internalType": "enum Rentings.RentalStatus",
          "name": "",
          "type": "uint8"
        }
      ],
      "stateMutability": "view",
      "type": "function"
    },
    {
      "inputs": [
        {
          "internalType": "address",
          "name": "original",
          "type": "address"
        }
      ],
      "name": "assetWarperCount",
      "outputs": [
        {
          "internalType": "uint256",
          "name": "",
          "type": "uint256"
        }
      ],
      "stateMutability": "view",
      "type": "function"
    },
    {
      "inputs": [
        {
          "internalType": "address",
          "name": "original",
          "type": "address"
        },
        {
          "internalType": "uint256",
          "name": "offset",
          "type": "uint256"
        },
        {
          "internalType": "uint256",
          "name": "limit",
          "type": "uint256"
        }
      ],
      "name": "assetWarpers",
      "outputs": [
        {
          "internalType": "address[]",
          "name": "",
          "type": "address[]"
        },
        {
          "components": [
            {
              "internalType": "address",
              "name": "original",
              "type": "address"
            },
            {
              "internalType": "contract IWarperController",
              "name": "controller",
              "type": "address"
            },
            {
              "internalType": "string",
              "name": "name",
              "type": "string"
            },
            {
              "internalType": "uint256",
              "name": "universeId",
              "type": "uint256"
            },
            {
              "internalType": "bool",
              "name": "paused",
              "type": "bool"
            }
          ],
          "internalType": "struct Warpers.Warper[]",
          "name": "",
          "type": "tuple[]"
        }
      ],
      "stateMutability": "view",
      "type": "function"
    },
    {
      "inputs": [
        {
          "internalType": "address",
          "name": "token",
          "type": "address"
        }
      ],
      "name": "balance",
      "outputs": [
        {
          "internalType": "uint256",
          "name": "",
          "type": "uint256"
        }
      ],
      "stateMutability": "view",
      "type": "function"
    },
    {
      "inputs": [],
      "name": "balances",
      "outputs": [
        {
          "components": [
            {
              "internalType": "address",
              "name": "token",
              "type": "address"
            },
            {
              "internalType": "uint256",
              "name": "amount",
              "type": "uint256"
            }
          ],
          "internalType": "struct Accounts.Balance[]",
          "name": "",
          "type": "tuple[]"
        }
      ],
      "stateMutability": "view",
      "type": "function"
    },
    {
      "inputs": [],
      "name": "baseToken",
      "outputs": [
        {
          "internalType": "address",
          "name": "",
          "type": "address"
        }
      ],
      "stateMutability": "view",
      "type": "function"
    },
    {
      "inputs": [
        {
          "internalType": "bytes32",
          "name": "warpedCollectionId",
          "type": "bytes32"
        },
        {
          "internalType": "address",
          "name": "renter",
          "type": "address"
        }
      ],
      "name": "collectionRentedValue",
      "outputs": [
        {
          "internalType": "uint256",
          "name": "",
          "type": "uint256"
        }
      ],
      "stateMutability": "view",
      "type": "function"
    },
    {
      "inputs": [
        {
          "internalType": "uint256",
          "name": "listingId",
          "type": "uint256"
        }
      ],
      "name": "delistAsset",
      "outputs": [],
      "stateMutability": "nonpayable",
      "type": "function"
    },
    {
      "inputs": [
        {
          "internalType": "address",
          "name": "warper",
          "type": "address"
        }
      ],
      "name": "deregisterWarper",
      "outputs": [],
      "stateMutability": "nonpayable",
      "type": "function"
    },
    {
      "inputs": [
        {
          "components": [
            {
              "internalType": "uint256",
              "name": "listingId",
              "type": "uint256"
            },
            {
              "internalType": "address",
              "name": "warper",
              "type": "address"
            },
            {
              "internalType": "address",
              "name": "renter",
              "type": "address"
            },
            {
              "internalType": "uint32",
              "name": "rentalPeriod",
              "type": "uint32"
            },
            {
              "internalType": "address",
              "name": "paymentToken",
              "type": "address"
            }
          ],
          "internalType": "struct Rentings.Params",
          "name": "rentingParams",
          "type": "tuple"
        }
      ],
      "name": "estimateRent",
      "outputs": [
        {
          "components": [
            {
              "internalType": "uint256",
              "name": "total",
              "type": "uint256"
            },
            {
              "internalType": "uint256",
              "name": "protocolFee",
              "type": "uint256"
            },
            {
              "internalType": "uint256",
              "name": "listerBaseFee",
              "type": "uint256"
            },
            {
              "internalType": "uint256",
              "name": "listerPremium",
              "type": "uint256"
            },
            {
              "internalType": "uint256",
              "name": "universeBaseFee",
              "type": "uint256"
            },
            {
              "internalType": "uint256",
              "name": "universePremium",
              "type": "uint256"
            }
          ],
          "internalType": "struct Rentings.RentalFees",
          "name": "",
          "type": "tuple"
        }
      ],
      "stateMutability": "view",
      "type": "function"
    },
    {
      "inputs": [
        {
          "components": [
            {
              "internalType": "contract IWarperPresetFactory",
              "name": "warperPresetFactory",
              "type": "address"
            },
            {
              "internalType": "contract IAssetClassRegistry",
              "name": "assetClassRegistry",
              "type": "address"
            },
            {
              "internalType": "contract IListingStrategyRegistry",
              "name": "listingStrategyRegistry",
              "type": "address"
            },
            {
              "internalType": "contract IUniverseRegistry",
              "name": "universeRegistry",
              "type": "address"
            },
            {
              "internalType": "contract IACL",
              "name": "acl",
              "type": "address"
            },
            {
              "internalType": "contract IERC20Upgradeable",
              "name": "baseToken",
              "type": "address"
            },
            {
              "internalType": "uint16",
              "name": "rentalFeePercent",
              "type": "uint16"
            }
          ],
          "internalType": "struct Metahub.MetahubInitParams",
          "name": "params",
          "type": "tuple"
        }
      ],
      "name": "initialize",
      "outputs": [],
      "stateMutability": "nonpayable",
      "type": "function"
    },
    {
      "inputs": [
        {
          "internalType": "address",
          "name": "warper",
          "type": "address"
        },
        {
          "internalType": "address",
          "name": "account",
          "type": "address"
        }
      ],
      "name": "isWarperAdmin",
      "outputs": [
        {
          "internalType": "bool",
          "name": "",
          "type": "bool"
        }
      ],
      "stateMutability": "view",
      "type": "function"
    },
    {
      "inputs": [
        {
          "components": [
            {
              "components": [
                {
                  "internalType": "bytes4",
                  "name": "class",
                  "type": "bytes4"
                },
                {
                  "internalType": "bytes",
                  "name": "data",
                  "type": "bytes"
                }
              ],
              "internalType": "struct Assets.AssetId",
              "name": "id",
              "type": "tuple"
            },
            {
              "internalType": "uint256",
              "name": "value",
              "type": "uint256"
            }
          ],
          "internalType": "struct Assets.Asset",
          "name": "asset",
          "type": "tuple"
        },
        {
          "components": [
            {
              "internalType": "bytes4",
              "name": "strategy",
              "type": "bytes4"
            },
            {
              "internalType": "bytes",
              "name": "data",
              "type": "bytes"
            }
          ],
          "internalType": "struct Listings.Params",
          "name": "params",
          "type": "tuple"
        },
        {
          "internalType": "uint32",
          "name": "maxLockPeriod",
          "type": "uint32"
        },
        {
          "internalType": "bool",
          "name": "immediatePayout",
          "type": "bool"
        }
      ],
      "name": "listAsset",
      "outputs": [
        {
          "internalType": "uint256",
          "name": "",
          "type": "uint256"
        }
      ],
      "stateMutability": "nonpayable",
      "type": "function"
    },
    {
      "inputs": [],
      "name": "listingCount",
      "outputs": [
        {
          "internalType": "uint256",
          "name": "",
          "type": "uint256"
        }
      ],
      "stateMutability": "view",
      "type": "function"
    },
    {
      "inputs": [
        {
          "internalType": "uint256",
          "name": "listingId",
          "type": "uint256"
        }
      ],
      "name": "listingInfo",
      "outputs": [
        {
          "components": [
            {
              "components": [
                {
                  "components": [
                    {
                      "internalType": "bytes4",
                      "name": "class",
                      "type": "bytes4"
                    },
                    {
                      "internalType": "bytes",
                      "name": "data",
                      "type": "bytes"
                    }
                  ],
                  "internalType": "struct Assets.AssetId",
                  "name": "id",
                  "type": "tuple"
                },
                {
                  "internalType": "uint256",
                  "name": "value",
                  "type": "uint256"
                }
              ],
              "internalType": "struct Assets.Asset",
              "name": "asset",
              "type": "tuple"
            },
            {
              "components": [
                {
                  "internalType": "bytes4",
                  "name": "strategy",
                  "type": "bytes4"
                },
                {
                  "internalType": "bytes",
                  "name": "data",
                  "type": "bytes"
                }
              ],
              "internalType": "struct Listings.Params",
              "name": "params",
              "type": "tuple"
            },
            {
              "internalType": "address",
              "name": "lister",
              "type": "address"
            },
            {
              "internalType": "uint32",
              "name": "maxLockPeriod",
              "type": "uint32"
            },
            {
              "internalType": "uint32",
              "name": "lockedTill",
              "type": "uint32"
            },
            {
              "internalType": "bool",
              "name": "immediatePayout",
              "type": "bool"
            },
            {
              "internalType": "bool",
              "name": "delisted",
              "type": "bool"
            },
            {
              "internalType": "bool",
              "name": "paused",
              "type": "bool"
            }
          ],
          "internalType": "struct Listings.Listing",
          "name": "",
          "type": "tuple"
        }
      ],
      "stateMutability": "view",
      "type": "function"
    },
    {
      "inputs": [
        {
          "internalType": "uint256",
          "name": "offset",
          "type": "uint256"
        },
        {
          "internalType": "uint256",
          "name": "limit",
          "type": "uint256"
        }
      ],
      "name": "listings",
      "outputs": [
        {
          "internalType": "uint256[]",
          "name": "",
          "type": "uint256[]"
        },
        {
          "components": [
            {
              "components": [
                {
                  "components": [
                    {
                      "internalType": "bytes4",
                      "name": "class",
                      "type": "bytes4"
                    },
                    {
                      "internalType": "bytes",
                      "name": "data",
                      "type": "bytes"
                    }
                  ],
                  "internalType": "struct Assets.AssetId",
                  "name": "id",
                  "type": "tuple"
                },
                {
                  "internalType": "uint256",
                  "name": "value",
                  "type": "uint256"
                }
              ],
              "internalType": "struct Assets.Asset",
              "name": "asset",
              "type": "tuple"
            },
            {
              "components": [
                {
                  "internalType": "bytes4",
                  "name": "strategy",
                  "type": "bytes4"
                },
                {
                  "internalType": "bytes",
                  "name": "data",
                  "type": "bytes"
                }
              ],
              "internalType": "struct Listings.Params",
              "name": "params",
              "type": "tuple"
            },
            {
              "internalType": "address",
              "name": "lister",
              "type": "address"
            },
            {
              "internalType": "uint32",
              "name": "maxLockPeriod",
              "type": "uint32"
            },
            {
              "internalType": "uint32",
              "name": "lockedTill",
              "type": "uint32"
            },
            {
              "internalType": "bool",
              "name": "immediatePayout",
              "type": "bool"
            },
            {
              "internalType": "bool",
              "name": "delisted",
              "type": "bool"
            },
            {
              "internalType": "bool",
              "name": "paused",
              "type": "bool"
            }
          ],
          "internalType": "struct Listings.Listing[]",
          "name": "",
          "type": "tuple[]"
        }
      ],
      "stateMutability": "view",
      "type": "function"
    },
    {
      "inputs": [
        {
          "internalType": "uint256",
          "name": "listingId",
          "type": "uint256"
        }
      ],
      "name": "pauseListing",
      "outputs": [],
      "stateMutability": "nonpayable",
      "type": "function"
    },
    {
      "inputs": [
        {
          "internalType": "address",
          "name": "warper",
          "type": "address"
        }
      ],
      "name": "pauseWarper",
      "outputs": [],
      "stateMutability": "nonpayable",
      "type": "function"
    },
    {
      "inputs": [
        {
          "internalType": "address",
          "name": "token",
          "type": "address"
        }
      ],
      "name": "protocolBalance",
      "outputs": [
        {
          "internalType": "uint256",
          "name": "",
          "type": "uint256"
        }
      ],
      "stateMutability": "view",
      "type": "function"
    },
    {
      "inputs": [],
      "name": "protocolBalances",
      "outputs": [
        {
          "components": [
            {
              "internalType": "address",
              "name": "token",
              "type": "address"
            },
            {
              "internalType": "uint256",
              "name": "amount",
              "type": "uint256"
            }
          ],
          "internalType": "struct Accounts.Balance[]",
          "name": "",
          "type": "tuple[]"
        }
      ],
      "stateMutability": "view",
      "type": "function"
    },
    {
      "inputs": [],
      "name": "protocolRentalFeePercent",
      "outputs": [
        {
          "internalType": "uint16",
          "name": "",
          "type": "uint16"
        }
      ],
      "stateMutability": "view",
      "type": "function"
    },
    {
      "inputs": [],
      "name": "proxiableUUID",
      "outputs": [
        {
          "internalType": "bytes32",
          "name": "",
          "type": "bytes32"
        }
      ],
      "stateMutability": "view",
      "type": "function"
    },
    {
      "inputs": [
        {
          "internalType": "address",
          "name": "warper",
          "type": "address"
        },
        {
          "components": [
            {
              "internalType": "string",
              "name": "name",
              "type": "string"
            },
            {
              "internalType": "uint256",
              "name": "universeId",
              "type": "uint256"
            },
            {
              "internalType": "bool",
              "name": "paused",
              "type": "bool"
            }
          ],
          "internalType": "struct IWarperManager.WarperRegistrationParams",
          "name": "params",
          "type": "tuple"
        }
      ],
      "name": "registerWarper",
      "outputs": [],
      "stateMutability": "nonpayable",
      "type": "function"
    },
    {
      "inputs": [
        {
          "components": [
            {
              "internalType": "uint256",
              "name": "listingId",
              "type": "uint256"
            },
            {
              "internalType": "address",
              "name": "warper",
              "type": "address"
            },
            {
              "internalType": "address",
              "name": "renter",
              "type": "address"
            },
            {
              "internalType": "uint32",
              "name": "rentalPeriod",
              "type": "uint32"
            },
            {
              "internalType": "address",
              "name": "paymentToken",
              "type": "address"
            }
          ],
          "internalType": "struct Rentings.Params",
          "name": "rentingParams",
          "type": "tuple"
        },
        {
          "internalType": "uint256",
          "name": "maxPaymentAmount",
          "type": "uint256"
        }
      ],
      "name": "rent",
      "outputs": [
        {
          "internalType": "uint256",
          "name": "",
          "type": "uint256"
        }
      ],
      "stateMutability": "nonpayable",
      "type": "function"
    },
    {
      "inputs": [
        {
          "internalType": "uint256",
          "name": "rentalId",
          "type": "uint256"
        }
      ],
      "name": "rentalAgreementInfo",
      "outputs": [
        {
          "components": [
            {
              "components": [
                {
                  "components": [
                    {
                      "internalType": "bytes4",
                      "name": "class",
                      "type": "bytes4"
                    },
                    {
                      "internalType": "bytes",
                      "name": "data",
                      "type": "bytes"
                    }
                  ],
                  "internalType": "struct Assets.AssetId",
                  "name": "id",
                  "type": "tuple"
                },
                {
                  "internalType": "uint256",
                  "name": "value",
                  "type": "uint256"
                }
              ],
              "internalType": "struct Assets.Asset",
              "name": "warpedAsset",
              "type": "tuple"
            },
            {
              "internalType": "bytes32",
              "name": "collectionId",
              "type": "bytes32"
            },
            {
              "internalType": "uint256",
              "name": "listingId",
              "type": "uint256"
            },
            {
              "internalType": "address",
              "name": "renter",
              "type": "address"
            },
            {
              "internalType": "uint32",
              "name": "startTime",
              "type": "uint32"
            },
            {
              "internalType": "uint32",
              "name": "endTime",
              "type": "uint32"
            }
          ],
          "internalType": "struct Rentings.Agreement",
          "name": "",
          "type": "tuple"
        }
      ],
      "stateMutability": "view",
      "type": "function"
    },
    {
      "inputs": [
        {
          "internalType": "uint16",
          "name": "rentalFeePercent",
          "type": "uint16"
        }
      ],
      "name": "setProtocolRentalFeePercent",
      "outputs": [],
      "stateMutability": "nonpayable",
      "type": "function"
    },
    {
      "inputs": [],
      "name": "supportedAssetCount",
      "outputs": [
        {
          "internalType": "uint256",
          "name": "",
          "type": "uint256"
        }
      ],
      "stateMutability": "view",
      "type": "function"
    },
    {
      "inputs": [
        {
          "internalType": "uint256",
          "name": "offset",
          "type": "uint256"
        },
        {
          "internalType": "uint256",
          "name": "limit",
          "type": "uint256"
        }
      ],
      "name": "supportedAssets",
      "outputs": [
        {
          "internalType": "address[]",
          "name": "",
          "type": "address[]"
        }
      ],
      "stateMutability": "view",
      "type": "function"
    },
    {
      "inputs": [
        {
          "internalType": "uint256",
          "name": "universeId",
          "type": "uint256"
        },
        {
          "internalType": "address",
          "name": "token",
          "type": "address"
        }
      ],
      "name": "universeBalance",
      "outputs": [
        {
          "internalType": "uint256",
          "name": "",
          "type": "uint256"
        }
      ],
      "stateMutability": "view",
      "type": "function"
    },
    {
      "inputs": [
        {
          "internalType": "uint256",
          "name": "universeId",
          "type": "uint256"
        }
      ],
      "name": "universeBalances",
      "outputs": [
        {
          "components": [
            {
              "internalType": "address",
              "name": "token",
              "type": "address"
            },
            {
              "internalType": "uint256",
              "name": "amount",
              "type": "uint256"
            }
          ],
          "internalType": "struct Accounts.Balance[]",
          "name": "",
          "type": "tuple[]"
        }
      ],
      "stateMutability": "view",
      "type": "function"
    },
    {
      "inputs": [
        {
          "internalType": "uint256",
          "name": "universeId",
          "type": "uint256"
        }
      ],
      "name": "universeWarperCount",
      "outputs": [
        {
          "internalType": "uint256",
          "name": "",
          "type": "uint256"
        }
      ],
      "stateMutability": "view",
      "type": "function"
    },
    {
      "inputs": [
        {
          "internalType": "uint256",
          "name": "universeId",
          "type": "uint256"
        },
        {
          "internalType": "uint256",
          "name": "offset",
          "type": "uint256"
        },
        {
          "internalType": "uint256",
          "name": "limit",
          "type": "uint256"
        }
      ],
      "name": "universeWarpers",
      "outputs": [
        {
          "internalType": "address[]",
          "name": "",
          "type": "address[]"
        },
        {
          "components": [
            {
              "internalType": "address",
              "name": "original",
              "type": "address"
            },
            {
              "internalType": "contract IWarperController",
              "name": "controller",
              "type": "address"
            },
            {
              "internalType": "string",
              "name": "name",
              "type": "string"
            },
            {
              "internalType": "uint256",
              "name": "universeId",
              "type": "uint256"
            },
            {
              "internalType": "bool",
              "name": "paused",
              "type": "bool"
            }
          ],
          "internalType": "struct Warpers.Warper[]",
          "name": "",
          "type": "tuple[]"
        }
      ],
      "stateMutability": "view",
      "type": "function"
    },
    {
      "inputs": [
        {
          "internalType": "uint256",
          "name": "listingId",
          "type": "uint256"
        }
      ],
      "name": "unpauseListing",
      "outputs": [],
      "stateMutability": "nonpayable",
      "type": "function"
    },
    {
      "inputs": [
        {
          "internalType": "address",
          "name": "warper",
          "type": "address"
        }
      ],
      "name": "unpauseWarper",
      "outputs": [],
      "stateMutability": "nonpayable",
      "type": "function"
    },
    {
      "inputs": [
        {
          "internalType": "address",
          "name": "newImplementation",
          "type": "address"
        }
      ],
      "name": "upgradeTo",
      "outputs": [],
      "stateMutability": "nonpayable",
      "type": "function"
    },
    {
      "inputs": [
        {
          "internalType": "address",
          "name": "newImplementation",
          "type": "address"
        },
        {
          "internalType": "bytes",
          "name": "data",
          "type": "bytes"
        }
      ],
      "name": "upgradeToAndCall",
      "outputs": [],
      "stateMutability": "payable",
      "type": "function"
    },
    {
      "inputs": [
        {
          "internalType": "address",
          "name": "lister",
          "type": "address"
        }
      ],
      "name": "userListingCount",
      "outputs": [
        {
          "internalType": "uint256",
          "name": "",
          "type": "uint256"
        }
      ],
      "stateMutability": "view",
      "type": "function"
    },
    {
      "inputs": [
        {
          "internalType": "address",
          "name": "lister",
          "type": "address"
        },
        {
          "internalType": "uint256",
          "name": "offset",
          "type": "uint256"
        },
        {
          "internalType": "uint256",
          "name": "limit",
          "type": "uint256"
        }
      ],
      "name": "userListings",
      "outputs": [
        {
          "internalType": "uint256[]",
          "name": "",
          "type": "uint256[]"
        },
        {
          "components": [
            {
              "components": [
                {
                  "components": [
                    {
                      "internalType": "bytes4",
                      "name": "class",
                      "type": "bytes4"
                    },
                    {
                      "internalType": "bytes",
                      "name": "data",
                      "type": "bytes"
                    }
                  ],
                  "internalType": "struct Assets.AssetId",
                  "name": "id",
                  "type": "tuple"
                },
                {
                  "internalType": "uint256",
                  "name": "value",
                  "type": "uint256"
                }
              ],
              "internalType": "struct Assets.Asset",
              "name": "asset",
              "type": "tuple"
            },
            {
              "components": [
                {
                  "internalType": "bytes4",
                  "name": "strategy",
                  "type": "bytes4"
                },
                {
                  "internalType": "bytes",
                  "name": "data",
                  "type": "bytes"
                }
              ],
              "internalType": "struct Listings.Params",
              "name": "params",
              "type": "tuple"
            },
            {
              "internalType": "address",
              "name": "lister",
              "type": "address"
            },
            {
              "internalType": "uint32",
              "name": "maxLockPeriod",
              "type": "uint32"
            },
            {
              "internalType": "uint32",
              "name": "lockedTill",
              "type": "uint32"
            },
            {
              "internalType": "bool",
              "name": "immediatePayout",
              "type": "bool"
            },
            {
              "internalType": "bool",
              "name": "delisted",
              "type": "bool"
            },
            {
              "internalType": "bool",
              "name": "paused",
              "type": "bool"
            }
          ],
          "internalType": "struct Listings.Listing[]",
          "name": "",
          "type": "tuple[]"
        }
      ],
      "stateMutability": "view",
      "type": "function"
    },
    {
      "inputs": [
        {
          "internalType": "address",
          "name": "renter",
          "type": "address"
        },
        {
          "internalType": "uint256",
          "name": "offset",
          "type": "uint256"
        },
        {
          "internalType": "uint256",
          "name": "limit",
          "type": "uint256"
        }
      ],
      "name": "userRentalAgreements",
      "outputs": [
        {
          "internalType": "uint256[]",
          "name": "",
          "type": "uint256[]"
        },
        {
          "components": [
            {
              "components": [
                {
                  "components": [
                    {
                      "internalType": "bytes4",
                      "name": "class",
                      "type": "bytes4"
                    },
                    {
                      "internalType": "bytes",
                      "name": "data",
                      "type": "bytes"
                    }
                  ],
                  "internalType": "struct Assets.AssetId",
                  "name": "id",
                  "type": "tuple"
                },
                {
                  "internalType": "uint256",
                  "name": "value",
                  "type": "uint256"
                }
              ],
              "internalType": "struct Assets.Asset",
              "name": "warpedAsset",
              "type": "tuple"
            },
            {
              "internalType": "bytes32",
              "name": "collectionId",
              "type": "bytes32"
            },
            {
              "internalType": "uint256",
              "name": "listingId",
              "type": "uint256"
            },
            {
              "internalType": "address",
              "name": "renter",
              "type": "address"
            },
            {
              "internalType": "uint32",
              "name": "startTime",
              "type": "uint32"
            },
            {
              "internalType": "uint32",
              "name": "endTime",
              "type": "uint32"
            }
          ],
          "internalType": "struct Rentings.Agreement[]",
          "name": "",
          "type": "tuple[]"
        }
      ],
      "stateMutability": "view",
      "type": "function"
    },
    {
      "inputs": [
        {
          "internalType": "address",
          "name": "renter",
          "type": "address"
        }
      ],
      "name": "userRentalCount",
      "outputs": [
        {
          "internalType": "uint256",
          "name": "",
          "type": "uint256"
        }
      ],
      "stateMutability": "view",
      "type": "function"
    },
    {
      "inputs": [],
      "name": "version",
      "outputs": [
        {
          "internalType": "string",
          "name": "",
          "type": "string"
        }
      ],
      "stateMutability": "pure",
      "type": "function"
    },
    {
      "inputs": [
        {
          "internalType": "address",
          "name": "warper",
          "type": "address"
        }
      ],
      "name": "warperController",
      "outputs": [
        {
          "internalType": "address",
          "name": "",
          "type": "address"
        }
      ],
      "stateMutability": "view",
      "type": "function"
    },
    {
      "inputs": [
        {
          "internalType": "address",
          "name": "warper",
          "type": "address"
        }
      ],
      "name": "warperInfo",
      "outputs": [
        {
          "components": [
            {
              "internalType": "address",
              "name": "original",
              "type": "address"
            },
            {
              "internalType": "contract IWarperController",
              "name": "controller",
              "type": "address"
            },
            {
              "internalType": "string",
              "name": "name",
              "type": "string"
            },
            {
              "internalType": "uint256",
              "name": "universeId",
              "type": "uint256"
            },
            {
              "internalType": "bool",
              "name": "paused",
              "type": "bool"
            }
          ],
          "internalType": "struct Warpers.Warper",
          "name": "",
          "type": "tuple"
        }
      ],
      "stateMutability": "view",
      "type": "function"
    },
    {
      "inputs": [],
      "name": "warperPresetFactory",
      "outputs": [
        {
          "internalType": "address",
          "name": "",
          "type": "address"
        }
      ],
      "stateMutability": "view",
      "type": "function"
    },
    {
      "inputs": [
        {
          "internalType": "uint256",
          "name": "listingId",
          "type": "uint256"
        }
      ],
      "name": "withdrawAsset",
      "outputs": [],
      "stateMutability": "nonpayable",
      "type": "function"
    },
    {
      "inputs": [
        {
          "internalType": "address",
          "name": "token",
          "type": "address"
        },
        {
          "internalType": "uint256",
          "name": "amount",
          "type": "uint256"
        },
        {
          "internalType": "address",
          "name": "to",
          "type": "address"
        }
      ],
      "name": "withdrawFunds",
      "outputs": [],
      "stateMutability": "nonpayable",
      "type": "function"
    },
    {
      "inputs": [
        {
          "internalType": "address",
          "name": "token",
          "type": "address"
        },
        {
          "internalType": "uint256",
          "name": "amount",
          "type": "uint256"
        },
        {
          "internalType": "address",
          "name": "to",
          "type": "address"
        }
      ],
      "name": "withdrawProtocolFunds",
      "outputs": [],
      "stateMutability": "nonpayable",
      "type": "function"
    },
    {
      "inputs": [
        {
          "internalType": "uint256",
          "name": "universeId",
          "type": "uint256"
        },
        {
          "internalType": "address",
          "name": "token",
          "type": "address"
        },
        {
          "internalType": "uint256",
          "name": "amount",
          "type": "uint256"
        },
        {
          "internalType": "address",
          "name": "to",
          "type": "address"
        }
      ],
      "name": "withdrawUniverseFunds",
      "outputs": [],
      "stateMutability": "nonpayable",
      "type": "function"
    }
  ],
  "bytecode": "0x60a0604052306080523480156200001557600080fd5b50600054610100900460ff16620000335760005460ff16156200003d565b6200003d620000e2565b620000a55760405162461bcd60e51b815260206004820152602e60248201527f496e697469616c697a61626c653a20636f6e747261637420697320616c72656160448201526d191e481a5b9a5d1a585b1a5e995960921b606482015260840160405180910390fd5b600054610100900460ff16158015620000c8576000805461ffff19166101011790555b8015620000db576000805461ff00191690555b506200010f565b6000620000fa306200010060201b62002c2f1760201c565b15905090565b6001600160a01b03163b151590565b608051615b9f6200014760003960008181611081015281816110ca015281816113060152818161134601526114d50152615b9f6000f3fe6080604052600436106102935760003560e01c8063719a3d0b1161015a578063a75ea55d116100c1578063e3d670d71161007a578063e3d670d71461089f578063e528b081146108bf578063ebf03f49146108df578063f1f56a1f146108ff578063f4ba20461461092c578063fee5f37f1461094c57600080fd5b8063a75ea55d146107ec578063a9b07c261461080c578063ae07477f14610821578063c1e58a2114610841578063c55dae6314610861578063c7b015601461087f57600080fd5b806388b22ef41161011357806388b22ef4146107175780638c2c4714146107375780638d92fdf3146107575780638f36001f14610777578063a0d18bb3146107a9578063a5c5ad11146107d757600080fd5b8063719a3d0b14610645578063729941351461066557806378a2c9cd146106925780637bb98a68146106b25780638468d228146106c7578063882080d3146106e757600080fd5b80634bd22a1b116101fe57806354fd4d50116101b757806354fd4d501461054a578063553b01091461057b578063554310241461059057806361b25b91146105bd578063662c1ff8146105ea5780636eabf0bb1461061757600080fd5b80634bd22a1b146104945780634d3084d3146104b45780634f1ef286146104e2578063506cf01e146104f557806350f771561461051557806352d1902d1461053557600080fd5b806332756bcf1161025057806332756bcf146103c757806333a93203146103e75780633659cfe61461041457806339b1ea381461043457806343d7c7781461045457806347c6b45e1461047457600080fd5b80630e540ec01461029857806312cd849a146102ba5780631e347878146102ed578063255829cf1461030d57806328df75961461033b5780633253d503146103a7575b600080fd5b3480156102a457600080fd5b506102b86102b33660046141d6565b61096c565b005b3480156102c657600080fd5b506102da6102d5366004614201565b610a04565b6040519081526020015b60405180910390f35b3480156102f957600080fd5b506102da610308366004614241565b610cf9565b34801561031957600080fd5b50609854600160a01b900461ffff1660405161ffff90911681526020016102e4565b34801561034757600080fd5b5061035b610356366004614271565b610d8d565b6040516102e49190600060c082019050825182526020830151602083015260408301516040830152606083015160608301526080830151608083015260a083015160a083015292915050565b3480156103b357600080fd5b506102b86103c236600461428d565b610ec4565b3480156103d357600080fd5b506102b86103e23660046142aa565b610f28565b3480156103f357600080fd5b506104076104023660046142e0565b610ff9565b6040516102e49190614314565b34801561042057600080fd5b506102b861042f36600461428d565b611077565b34801561044057600080fd5b506102da61044f36600461428d565b61115f565b34801561046057600080fd5b506102b861046f3660046141d6565b61116c565b34801561048057600080fd5b506102b861048f36600461433c565b611238565b3480156104a057600080fd5b506102da6104af36600461428d565b611258565b3480156104c057600080fd5b506104d46104cf36600461437e565b611265565b6040516102e492919061452c565b6102b86104f03660046146f0565b6112fc565b34801561050157600080fd5b506102b861051036600461428d565b6113cc565b34801561052157600080fd5b506102b86105303660046141d6565b611430565b34801561054157600080fd5b506102da6114c8565b34801561055657600080fd5b5060408051808201825260028152612b1960f11b602082015290516102e4919061473f565b34801561058757600080fd5b506102da61157b565b34801561059c57600080fd5b506105b06105ab36600461428d565b61158c565b6040516102e491906147a9565b3480156105c957600080fd5b506105dd6105d83660046141d6565b6116b7565b6040516102e491906147bc565b3480156105f657600080fd5b5061060a6106053660046141d6565b6116d1565b6040516102e4919061487b565b34801561062357600080fd5b5061063761063236600461488e565b61185d565b6040516102e49291906148c3565b34801561065157600080fd5b506104d461066036600461488e565b6118f1565b34801561067157600080fd5b5061068561068036600461437e565b611979565b6040516102e4919061495f565b34801561069e57600080fd5b506102da6106ad366004614241565b611a02565b3480156106be57600080fd5b506105dd611a1a565b3480156106d357600080fd5b506102da6106e23660046141d6565b611a35565b3480156106f357600080fd5b50610707610702366004614972565b611a42565b60405190151581526020016102e4565b34801561072357600080fd5b506102da61073236600461428d565b611ae3565b34801561074357600080fd5b506102b86107523660046149a0565b611af0565b34801561076357600080fd5b506102b86107723660046141d6565b611d15565b34801561078357600080fd5b5060a3546001600160a01b03165b6040516001600160a01b0390911681526020016102e4565b3480156107b557600080fd5b506107c96107c436600461488e565b6120d3565b6040516102e49291906149b2565b3480156107e357600080fd5b506105dd61215b565b3480156107f857600080fd5b506102b861080736600461433c565b612167565b34801561081857600080fd5b506102da6121f1565b34801561082d57600080fd5b506102da61083c366004614a35565b6121fd565b34801561084d57600080fd5b506102b861085c36600461428d565b6123e3565b34801561086d57600080fd5b506098546001600160a01b0316610791565b34801561088b57600080fd5b506102b861089a366004614abd565b612498565b3480156108ab57600080fd5b506102da6108ba36600461428d565b61252b565b3480156108cb57600080fd5b506102b86108da366004614afc565b612544565b3480156108eb57600080fd5b506107916108fa36600461428d565b61296e565b34801561090b57600080fd5b5061091f61091a3660046141d6565b61299f565b6040516102e49190614b47565b34801561093857600080fd5b506102da61094736600461428d565b612bd0565b34801561095857600080fd5b506107c9610967366004614b5a565b612bdd565b8061097860a982612c3e565b600082815260ad602052604090206005015482906001600160a01b0316336001600160a01b0316146109bd57604051636523fa7f60e11b815260040160405180910390fd5b600083815260ad602052604090206109d490612c77565b60405183907f62c9649045e00f9c2e96e4e578db9430301ac82a17718531f90e97e6a69202e490600090a2505050565b6000610a16606084016040850161428d565b6001600160a01b0316336001600160a01b031614610a4757604051635f4ecea960e11b815260040160405180910390fd5b604051630199f13960e01b815273__$e5879ada6f69714d7fc0d88dbcc568b31e$__90630199f13990610a8790869060989060a99060a390600401614bf8565b60006040518083038186803b158015610a9f57600080fd5b505af4158015610ab3573d6000803e3d6000fd5b50505050610ac883610ac23390565b84612cb3565b600080610af58535610ae0604088016020890161428d565b610af06060890160408a0161428d565b612ed5565b91509150600042905060006040518060c0016040528084815260200185815260200188600001358152602001886040016020810190610b34919061428d565b6001600160a01b0316815263ffffffff84166020820152604001610b5e60808a0160608b01614c22565b610b689085614c55565b63ffffffff16905260405163a3f3af0760e01b815290915060009073__$e5879ada6f69714d7fc0d88dbcc568b31e$__9063a3f3af0790610bb09060af908690600401614c7d565b602060405180830381865af4158015610bcd573d6000803e3d6000fd5b505050506040513d601f19601f82011682018060405250810190610bf19190614cf3565b60a08301518935600090815260ad60205260409020919250610c139190613079565b73__$e5879ada6f69714d7fc0d88dbcc568b31e$__63c017140260af610c3f60608c0160408d0161428d565b8860026040518563ffffffff1660e01b8152600401610c619493929190614d0c565b60006040518083038186803b158015610c7957600080fd5b505af4158015610c8d573d6000803e3d6000fd5b50505050816040015182606001516001600160a01b0316827f76f9ffd08d0be80de00e3be8630a8aef939934c79fec4eedfb31e823e3be27bf856000015186608001518760a00151604051610ce493929190614d30565b60405180910390a49450505050505b92915050565b60405163ab5d399360e01b815260af60048201526001600160a01b03821660248201526044810183905260009073__$e5879ada6f69714d7fc0d88dbcc568b31e$__9063ab5d399390606401602060405180830381865af4158015610d62573d6000803e3d6000fd5b505050506040513d601f19601f82011682018060405250810190610d869190614cf3565b9392505050565b610dc66040518060c001604052806000815260200160008152602001600081526020016000815260200160008152602001600081525090565b604051630199f13960e01b815273__$e5879ada6f69714d7fc0d88dbcc568b31e$__90630199f13990610e0690859060989060a99060a390600401614bf8565b60006040518083038186803b158015610e1e57600080fd5b505af4158015610e32573d6000803e3d6000fd5b5050609e54604051639dd6945b60e01b815273__$e5879ada6f69714d7fc0d88dbcc568b31e$__9350639dd6945b9250610e8391869160989160a99160a3916001600160a01b031690600401614d60565b60c060405180830381865af4158015610ea0573d6000803e3d6000fd5b505050506040513d601f19601f82011682018060405250810190610cf39190614d9c565b80610ecf81336130c1565b6001600160a01b038216600090815260a860205260409020610ef09061313f565b6040516001600160a01b038316907f2a08260ffc9feb9cd743cb3dd526a959666260abda15ed904061f3babce487ba90600090a25050565b6097546001600160a01b03166001600160a01b03166312d9a6ad6000336040516001600160e01b031960e085901b16815260048101929092526001600160a01b0316602482015260440160006040518083038186803b158015610f8a57600080fd5b505afa158015610f9e573d6000803e3d6000fd5b50506098805461ffff60a01b1916600160a01b61ffff8616908102919091179091556040519081527f1b1669b1469af2b2bb8295fdaf1c1ff4cd9d41c56dc31e80d6c67e05854f9e209250602001905060405180910390a150565b60405163029d842960e21b815260009073__$e5879ada6f69714d7fc0d88dbcc568b31e$__90630a7610a4906110369060af908690600401614eba565b602060405180830381865af4158015611053573d6000803e3d6000fd5b505050506040513d601f19601f82011682018060405250810190610cf39190614ed3565b6001600160a01b037f00000000000000000000000000000000000000000000000000000000000000001630036110c85760405162461bcd60e51b81526004016110bf90614ef4565b60405180910390fd5b7f00000000000000000000000000000000000000000000000000000000000000006001600160a01b0316611111600080516020615b23833981519152546001600160a01b031690565b6001600160a01b0316146111375760405162461bcd60e51b81526004016110bf90614f40565b61114081613175565b6040805160008082526020820190925261115c918391906131eb565b50565b6000610cf360a983613356565b8061117860a982612c3e565b600082815260ad602052604090206005015482906001600160a01b0316336001600160a01b0316146111bd57604051636523fa7f60e11b815260040160405180910390fd5b600083815260ad6020908152604091829020600581018054600160e81b60ff60e81b19821617918290559351600160c01b90910463ffffffff16815290926001600160a01b03169186917fc0c0619fe5bf378f25472067afca13995576b95e1351cefa4bce7c45929abe27910160405180910390a350505050565b336000908152609d6020526040902061125390848484613379565b505050565b6000610cf36099836133f1565b604051631d823e1d60e21b815260a960048201526024810183905260448101829052606090819073__$23c70d15f703c3ae387c840540427b8a00$__90637608f87490606401600060405180830381865af41580156112c8573d6000803e3d6000fd5b505050506040513d6000823e601f3d908101601f191682016040526112f0919081019061512a565b915091505b9250929050565b6001600160a01b037f00000000000000000000000000000000000000000000000000000000000000001630036113445760405162461bcd60e51b81526004016110bf90614ef4565b7f00000000000000000000000000000000000000000000000000000000000000006001600160a01b031661138d600080516020615b23833981519152546001600160a01b031690565b6001600160a01b0316146113b35760405162461bcd60e51b81526004016110bf90614f40565b6113bc82613175565b6113c8828260016131eb565b5050565b806113d781336130c1565b6001600160a01b038216600090815260a8602052604090206113f890613407565b6040516001600160a01b038316907f1eaf28a93e1ad5dabb8e3983d0abb01359e7eafa0982af55e81d715704d25f4e90600090a25050565b8061143c60a982612c3e565b600082815260ad602052604090206005015482906001600160a01b0316336001600160a01b03161461148157604051636523fa7f60e11b815260040160405180910390fd5b600083815260ad6020526040902061149890613439565b60405183907fccf05f4102545965ec08932c92c4db5980b2c27c5fc913e64756615f59e8e68990600090a2505050565b6000306001600160a01b037f000000000000000000000000000000000000000000000000000000000000000016146115685760405162461bcd60e51b815260206004820152603860248201527f555550535570677261646561626c653a206d757374206e6f742062652063616c60448201527f6c6564207468726f7567682064656c656761746563616c6c000000000000000060648201526084016110bf565b50600080516020615b2383398151915290565b6000611587609f61347c565b905090565b6040805160a08101825260008082526020820181905260609282018390529181018290526080810191909152816115c460a38261348a565b6001600160a01b03808416600090815260a86020908152604091829020825160a0810184528154851681526001820154909416918401919091526002810180549192840191611612906152c4565b80601f016020809104026020016040519081016040528092919081815260200182805461163e906152c4565b801561168b5780601f106116605761010080835404028352916020019161168b565b820191906000526020600020905b81548152906001019060200180831161166e57829003601f168201915b50505091835250506003820154602082015260049091015460ff16151560409091015291505b50919050565b6000818152609c60205260409020606090610cf3906134bc565b6040805161014081018252600061010082018181526060610120840181905260c0840191825260e08401839052908352602083018290529282018190529181018290526080810182905260a0810191909152600082815260b060205260409081902081516101408101909252805460e01b6001600160e01b0319166101008301908152600182018054849260c08401928592849291849161012088019190611778906152c4565b80601f01602080910402602001604051908101604052809291908181526020018280546117a4906152c4565b80156117f15780601f106117c6576101008083540402835291602001916117f1565b820191906000526020600020905b8154815290600101906020018083116117d457829003601f168201915b50505091909252505050815260029190910154602091820152908252600383015490820152600482015460408201526005909101546001600160a01b038116606083015263ffffffff600160a01b820481166080840152600160c01b9091041660a09091015292915050565b604051634cf7b3fb60e01b8152606090819073__$e5879ada6f69714d7fc0d88dbcc568b31e$__90634cf7b3fb906118a09060af90899089908990600401614d0c565b600060405180830381865af41580156118bd573d6000803e3d6000fd5b505050506040513d6000823e601f3d908101601f191682016040526118e591908101906152f8565b91509150935093915050565b60405163f7596f9960e01b8152606090819073__$23c70d15f703c3ae387c840540427b8a00$__9063f7596f99906119349060a990899089908990600401614d0c565b600060405180830381865af4158015611951573d6000803e3d6000fd5b505050506040513d6000823e601f3d908101601f191682016040526118e5919081019061512a565b6040516376946fcf60e01b8152609f6004820152602481018390526044810182905260609073__$48805a21cd2d79ca776bf2c16e4893ad10$__906376946fcf90606401600060405180830381865af41580156119da573d6000803e3d6000fd5b505050506040513d6000823e601f3d908101601f19168201604052610d8691908101906154a6565b6000828152609c60205260408120610d8690836133f1565b336000908152609d60205260409020606090611587906134bc565b6000610cf360a3836135a1565b600082611a5060a38261348a565b609e546001600160a01b03858116600090815260a860205260409081902060030154905163c8cb083f60e01b81526004810191909152858216602482015291169063c8cb083f90604401602060405180830381865afa158015611ab7573d6000803e3d6000fd5b505050506040513d601f19601f82011682018060405250810190611adb91906154da565b949350505050565b6000610cf360af836135ba565b600054610100900460ff16611b0b5760005460ff1615611b0f565b303b155b611b725760405162461bcd60e51b815260206004820152602e60248201527f496e697469616c697a61626c653a20636f6e747261637420697320616c72656160448201526d191e481a5b9a5d1a585b1a5e995960921b60648201526084016110bf565b600054610100900460ff16158015611b94576000805461ffff19166101011790555b611b9c6135dd565b611bac60a083016080840161428d565b609780546001600160a01b0319166001600160a01b03929092169190911790556040805180820190915280611be760c0850160a0860161428d565b6001600160a01b03168152602001611c0560e0850160c086016142aa565b61ffff908116909152815160988054602094850151909316600160a01b026001600160b01b03199093166001600160a01b0390921691909117919091179055611c509083018361428d565b60a380546001600160a01b0319166001600160a01b0392909216919091179055611c80604083016020840161428d565b609f80546001600160a01b0319166001600160a01b0392909216919091179055611cb0606083016040840161428d565b60aa80546001600160a01b0319166001600160a01b0392909216919091179055611ce0608083016060840161428d565b609e80546001600160a01b0319166001600160a01b039290921691909117905580156113c8576000805461ff00191690555050565b600081815260ad602052604090206005015481906001600160a01b0316336001600160a01b031614611d5a57604051636523fa7f60e11b815260040160405180910390fd5b600082815260ad602052604080822081516101808101909252805460e01b6001600160e01b031916610140830190815260018201805484926101008401928592849291849161016088019190611daf906152c4565b80601f0160208091040260200160405190810160405280929190818152602001828054611ddb906152c4565b8015611e285780601f10611dfd57610100808354040283529160200191611e28565b820191906000526020600020905b815481529060010190602001808311611e0b57829003601f168201915b50505050508152505081526020016002820154815250508152602001600382016040518060400160405290816000820160009054906101000a900460e01b6001600160e01b0319166001600160e01b0319168152602001600182018054611e8e906152c4565b80601f0160208091040260200160405190810160405280929190818152602001828054611eba906152c4565b8015611f075780601f10611edc57610100808354040283529160200191611f07565b820191906000526020600020905b815481529060010190602001808311611eea57829003601f168201915b505050919092525050508152600591909101546001600160a01b038116602083015263ffffffff600160a01b820481166040840152600160c01b82048116606084015260ff600160e01b830481161515608080860191909152600160e81b84048216151560a0860152600160f01b90930416151560c090930192909252820151919250908116429091161015611fb05760405163dcfbeafb60e01b815260040160405180910390fd5b604051633598a33560e21b815260a960048201526024810184905273__$23c70d15f703c3ae387c840540427b8a00$__9063d6628cd49060440160006040518083038186803b15801561200257600080fd5b505af4158015612016573d6000803e3d6000fd5b5050825160405163221efb0360e11b815273__$48805a21cd2d79ca776bf2c16e4893ad10$__935063443df606925061205491609f916004016154f7565b60006040518083038186803b15801561206c57600080fd5b505af4158015612080573d6000803e3d6000fd5b5050505080604001516001600160a01b0316837f1e5a15ab85db192d73c1e02de45c46144e19ffe3bd2ece777303173365ecb9b383600001516040516120c69190615510565b60405180910390a3505050565b604051632277a89360e11b8152606090819073__$f390c19a6588bf1782f680f4e6750cf906$__906344ef5126906121169060a390899089908990600401614d0c565b600060405180830381865af4158015612133573d6000803e3d6000fd5b505050506040513d6000823e601f3d908101601f191682016040526118e59190810190615523565b606061158760996134bc565b6097546001600160a01b03166001600160a01b03166312d9a6ad6000336040516001600160e01b031960e085901b16815260048101929092526001600160a01b0316602482015260440160006040518083038186803b1580156121c957600080fd5b505afa1580156121dd573d6000803e3d6000fd5b506112539250609991508590508484613379565b600061158760a961364a565b600061221b61221361220e876156cb565b613658565b60a390613676565b61223361222b602086018661571b565b60a9906136a8565b604051631daa22cf60e11b815273__$48805a21cd2d79ca776bf2c16e4893ad10$__90633b54459e9061226f90609f9089903390600401615738565b60006040518083038186803b15801561228757600080fd5b505af415801561229b573d6000803e3d6000fd5b505050506000604051806101000160405280876122b7906156cb565b81526020016122c587615793565b8152602001336001600160a01b0316815263ffffffff861660208201526000604080830182905286151560608401526080830182905260a09092018190529051637bc13e0160e01b81529192509073__$23c70d15f703c3ae387c840540427b8a00$__90637bc13e01906123409060a990869060040161579f565b602060405180830381865af415801561235d573d6000803e3d6000fd5b505050506040513d601f19601f820116820180604052508101906123819190614cf3565b905081604001516001600160a01b0316817f2aeb4abaf0fe7ca83b75bc43cd2fb6c99366bc042383e06da11e1a268b47d8ce8460000151856020015186606001516040516123d193929190615850565b60405180910390a39695505050505050565b806123ee81336130c1565b604051635e327ed560e01b815260a360048201526001600160a01b038316602482015273__$f390c19a6588bf1782f680f4e6750cf906$__90635e327ed59060440160006040518083038186803b15801561244857600080fd5b505af415801561245c573d6000803e3d6000fd5b50506040516001600160a01b03851692507f752612ff761620ec780457bda227d89213d24d8914934d4e45c16bcb4d2b158c9150600090a25050565b609e5484906001600160a01b0316637dc330dc82336040516001600160e01b031960e085901b16815260048101929092526001600160a01b0316602482015260440160006040518083038186803b1580156124f257600080fd5b505afa158015612506573d6000803e3d6000fd5b5050506000868152609c602052604090206125249150858585613379565b5050505050565b336000908152609d60205260408120610cf390836133f1565b609e546020820135906001600160a01b0316637dc330dc82336040516001600160e01b031960e085901b16815260048101929092526001600160a01b0316602482015260440160006040518083038186803b1580156125a257600080fd5b505afa1580156125b6573d6000803e3d6000fd5b505050506001600160a01b0383163b15806125e857506125e66001600160a01b038416630b3888fd60e31b61373a565b155b156126095760405160016217fc1360e31b0319815260040160405180910390fd5b6000836001600160a01b031663e846a5a96040518163ffffffff1660e01b8152600401602060405180830381865afa158015612649573d6000803e3d6000fd5b505050506040513d601f19601f8201168201806040525081019061266d919061588c565b905061267a609f82613756565b6000846001600160a01b0316635a70a2836040518163ffffffff1660e01b8152600401602060405180830381865afa1580156126ba573d6000803e3d6000fd5b505050506040513d601f19601f820116820180604052508101906126de91906158a9565b90506001600160a01b038116301461271a57604051630391492160e41b81526001600160a01b03821660048201523060248201526044016110bf565b6000612727609f846137e5565b90506000866001600160a01b031663f46c73c66040518163ffffffff1660e01b8152600401602060405180830381865afa158015612769573d6000803e3d6000fd5b505050506040513d601f19601f8201168201806040525081019061278d91906158a9565b6040805160a0810182526001600160a01b0380841682528516602082015291925073__$f390c19a6588bf1782f680f4e6750cf906$__9163c73a080a9160a3918b9181016127db8c806158c6565b8080601f01602080910402602001604051908101604052809392919081815260200183838082843760009201919091525050509082525060208c810135908201526040908101906128329060608e01908e0161590c565b15158152506040518463ffffffff1660e01b815260040161285593929190615929565b60006040518083038186803b15801561286d57600080fd5b505af4158015612881573d6000803e3d6000fd5b5050505061289981609f61386090919063ffffffff16565b61292057604051635fbd140f60e01b8152609f60048201526001600160e01b0319851660248201526001600160a01b038216604482015273__$48805a21cd2d79ca776bf2c16e4893ad10$__90635fbd140f9060640160006040518083038186803b15801561290757600080fd5b505af415801561291b573d6000803e3d6000fd5b505050505b806001600160a01b0316876001600160a01b031687602001357fa14bdeeb833f4488ecf5ee14fc30ccd266c23a9a363fc328eb7df0bb6af7ed6860405160405180910390a450505050505050565b60008161297c60a38261348a565b50506001600160a01b03908116600090815260a860205260409020600101541690565b6129a7614149565b600082815260ad60205260409081902081516101808101909252805460e01b6001600160e01b0319166101408301908152600182018054849261010084019285928492918491610160880191906129fd906152c4565b80601f0160208091040260200160405190810160405280929190818152602001828054612a29906152c4565b8015612a765780601f10612a4b57610100808354040283529160200191612a76565b820191906000526020600020905b815481529060010190602001808311612a5957829003601f168201915b50505050508152505081526020016002820154815250508152602001600382016040518060400160405290816000820160009054906101000a900460e01b6001600160e01b0319166001600160e01b0319168152602001600182018054612adc906152c4565b80601f0160208091040260200160405190810160405280929190818152602001828054612b08906152c4565b8015612b555780601f10612b2a57610100808354040283529160200191612b55565b820191906000526020600020905b815481529060010190602001808311612b3857829003601f168201915b505050919092525050508152600591909101546001600160a01b038116602083015263ffffffff600160a01b820481166040840152600160c01b820416606083015260ff600160e01b8204811615156080840152600160e81b82048116151560a0840152600160f01b90910416151560c09091015292915050565b6000610cf360a38361386f565b60405163ef6c202d60e01b815260a36004820152602481018490526044810183905260648101829052606090819073__$f390c19a6588bf1782f680f4e6750cf906$__9063ef6c202d90608401612116565b6001600160a01b03163b151590565b60008181526004830160205260409020612c5790613892565b6113c85760405163068bb67560e51b8152600481018290526024016110bf565b6005810154600160f01b900460ff16612ca35760405163b42960fd60e01b815260040160405180910390fd5b600501805460ff60f01b19169055565b609e54604051639dd6945b60e01b815260009173__$e5879ada6f69714d7fc0d88dbcc568b31e$__91639dd6945b91612d0591889160989160a99160a3916001600160a01b0390911690600401614d60565b60c060405180830381865af4158015612d22573d6000803e3d6000fd5b505050506040513d601f19601f82011682018060405250810190612d469190614d9c565b90506000612d5a60a086016080870161428d565b90508282600001511115612d8157604051631d5a07f360e21b815260040160405180910390fd5b8435600090815260ad602052604080822060608501519185015190918391612da99190615997565b60058301549091506001600160a01b03811690600160e01b900460ff1615612de557612de06001600160a01b0386168983856138bf565b612e15565b6001600160a01b0381166000908152609d60205260409020612e08908684613930565b612e128285615997565b93505b600060a881612e2a60408d0160208e0161428d565b6001600160a01b03166001600160a01b0316815260200190815260200160002060030154905060008760a001518860800151612e669190615997565b6000838152609c60205260409020909150612e82908883613930565b612e8c8187615997565b6020890151909650612ea2906099908990613930565b6020880151612eb19087615997565b9550612ec86001600160a01b0388168b30896138bf565b5050505050505050505050565b604080516080810182526000918101828152606080830152815260208101829052600085815260ad60205260408082208151608081018352815460e01b6001600160e01b0319169281019283526001820180549193849290918491606085019190612f3f906152c4565b80601f0160208091040260200160405190810160405280929190818152602001828054612f6b906152c4565b8015612fb85780601f10612f8d57610100808354040283529160200191612fb8565b820191906000526020600020905b815481529060010190602001808311612f9b57829003601f168201915b505050919092525050508152600291909101546020918201526001600160a01b03808816600090815260a890925260409182902060010154915192935016906130589063c95eb64d60e01b906130169085908a908a906024016159af565b60408051601f198184030181529190526020810180516001600160e01b03166001600160e01b0319909316929092179091526001600160a01b03831690613954565b80602001905181019061306b91906159e2565b909890975095505050505050565b600582015463ffffffff808316600160c01b9092041610613098575050565b6005909101805463ffffffff909216600160c01b0263ffffffff60c01b19909216919091179055565b609e546001600160a01b03838116600090815260a8602052604090819020600301549051631f70cc3760e21b815260048101919091528382166024820152911690637dc330dc9060440160006040518083038186803b15801561312357600080fd5b505afa158015613137573d6000803e3d6000fd5b505050505050565b600481015460ff16156131655760405163651c69e160e01b815260040160405180910390fd5b600401805460ff19166001179055565b6097546001600160a01b03166001600160a01b03166312d9a6ad6000336040516001600160e01b031960e085901b16815260048101929092526001600160a01b0316602482015260440160006040518083038186803b1580156131d757600080fd5b505afa158015612524573d6000803e3d6000fd5b7f4910fdfa16fed3260ed0e7147f7cc6da11a60208b5b9406d12a635614ffd91435460ff161561321e5761125383613979565b826001600160a01b03166352d1902d6040518163ffffffff1660e01b8152600401602060405180830381865afa925050508015613278575060408051601f3d908101601f1916820190925261327591810190614cf3565b60015b6132db5760405162461bcd60e51b815260206004820152602e60248201527f45524331393637557067726164653a206e657720696d706c656d656e7461746960448201526d6f6e206973206e6f74205555505360901b60648201526084016110bf565b600080516020615b23833981519152811461334a5760405162461bcd60e51b815260206004820152602960248201527f45524331393637557067726164653a20756e737570706f727465642070726f786044820152681a58589b195555525160ba1b60648201526084016110bf565b50611253838383613a15565b6001600160a01b03811660009081526005830160205260408120610d8690613a3a565b8160000361339d576040516305a4a8e760e01b8152600481018390526024016110bf565b60006133a985856133f1565b9050808311156133cf57604051639266535160e01b8152600481018290526024016110bf565b6133dc8585858403613a44565b506125246001600160a01b0385168385613a5a565b6000806133fe8484613a8a565b95945050505050565b600481015460ff1661342c57604051633587233b60e11b815260040160405180910390fd5b600401805460ff19169055565b6005810154600160f01b900460ff161561346657604051637892dcf360e01b815260040160405180910390fd5b600501805460ff60f01b1916600160f01b179055565b6000610cf382600101613a3a565b6134948282613860565b6113c857604051634f59bc1f60e11b81526001600160a01b03821660048201526024016110bf565b606060006134c983613aaf565b90506000816001600160401b038111156134e5576134e561459e565b60405190808252806020026020018201604052801561352a57816020015b60408051808201909152600080825260208201528152602001906001900390816135035790505b50905060005b82811015613599576000806135458784613aba565b915091506040518060400160405280836001600160a01b031681526020018281525084848151811061357957613579615a1e565b60200260200101819052505050808061359190615a34565b915050613530565b509392505050565b60008181526003830160205260408120610d8690613a3a565b6001600160a01b03811660009081526002830160205260408120610d8690613a3a565b600054610100900460ff166136485760405162461bcd60e51b815260206004820152602b60248201527f496e697469616c697a61626c653a20636f6e7472616374206973206e6f74206960448201526a6e697469616c697a696e6760a81b60648201526084016110bf565b565b6000610cf382600201613a3a565b6000816000015160200151806020019051810190610cf391906158a9565b6136808282613ac9565b6113c85760405163ee84f40b60e01b81526001600160a01b03821660048201526024016110bf565b6001820154604051631582016d60e01b81526001600160a01b0390911690631582016d906136da908490600401615a4d565b602060405180830381865afa1580156136f7573d6000803e3d6000fd5b505050506040513d601f19601f8201168201806040525081019061371b91906154da565b6113c857806040516380f3229160e01b81526004016110bf9190615a4d565b600061374583613af6565b8015610d865750610d868383613b29565b81546040516303de1a5960e51b81526001600160a01b0390911690637bc34b2090613785908490600401615a4d565b602060405180830381865afa1580156137a2573d6000803e3d6000fd5b505050506040513d601f19601f820116820180604052508101906137c691906154da565b6113c8578060405163191e817360e21b81526004016110bf9190615a4d565b8154604051630b42144760e41b81526000916001600160a01b03169063b421447090613815908590600401615a4d565b6040805180830381865afa158015613831573d6000803e3d6000fd5b505050506040513d601f19601f820116820180604052508101906138559190615a62565b602001519392505050565b6000610d866001840183613c1a565b6001600160a01b03811660009081526004830160205260408120610d8690613a3a565b60058101546000906001600160a01b031615801590610cf357505060050154600160e81b900460ff161590565b6040516001600160a01b038085166024830152831660448201526064810182905261392a9085906323b872dd60e01b906084015b60408051601f198184030181529190526020810180516001600160e01b03166001600160e01b031990931692909217909152613c3c565b50505050565b600061393c84846133f1565b90506125248361394c8484615997565b869190613a44565b6060610d868383604051806060016040528060278152602001615b4360279139613d0e565b6001600160a01b0381163b6139e65760405162461bcd60e51b815260206004820152602d60248201527f455243313936373a206e657720696d706c656d656e746174696f6e206973206e60448201526c1bdd08184818dbdb9d1c9858dd609a1b60648201526084016110bf565b600080516020615b2383398151915280546001600160a01b0319166001600160a01b0392909216919091179055565b613a1e83613da2565b600082511180613a2b5750805b156112535761392a8383613de2565b6000610cf3825490565b6000611adb846001600160a01b03851684613e8e565b6040516001600160a01b03831660248201526044810182905261125390849063a9059cbb60e01b906064016138f3565b6000808080613aa2866001600160a01b038716613eab565b9097909650945050505050565b6000610cf382613ee5565b6000808080613aa28686613ef0565b6001600160a01b038116600090815260048301602052604081208190613aee90613a3a565b119392505050565b6000613b09826301ffc9a760e01b613b29565b8015610cf35750613b22826001600160e01b0319613b29565b1592915050565b6000806301ffc9a760e01b83604051602401613b459190615a4d565b604051602081830303815290604052906001600160e01b0319166020820180516001600160e01b0383818316178352505050509050600080856001600160a01b031661753084604051613b989190615ac0565b6000604051808303818686fa925050503d8060008114613bd4576040519150601f19603f3d011682016040523d82523d6000602084013e613bd9565b606091505b5091509150602081511015613bf45760009350505050610cf3565b818015613c10575080806020019051810190613c1091906154da565b9695505050505050565b6001600160a01b03811660009081526001830160205260408120541515610d86565b6000613c91826040518060400160405280602081526020017f5361666545524332303a206c6f772d6c6576656c2063616c6c206661696c6564815250856001600160a01b0316613f1b9092919063ffffffff16565b8051909150156112535780806020019051810190613caf91906154da565b6112535760405162461bcd60e51b815260206004820152602a60248201527f5361666545524332303a204552433230206f7065726174696f6e20646964206e6044820152691bdd081cdd58d8d9595960b21b60648201526084016110bf565b60606001600160a01b0384163b613d375760405162461bcd60e51b81526004016110bf90615adc565b600080856001600160a01b031685604051613d529190615ac0565b600060405180830381855af49150503d8060008114613d8d576040519150601f19603f3d011682016040523d82523d6000602084013e613d92565b606091505b5091509150613c10828286613f2a565b613dab81613979565b6040516001600160a01b038216907fbc7cd75a20ee27fd9adebab32041f755214dbc6bffa90cc0225b39da2e5c2d3b90600090a250565b60606001600160a01b0383163b613e0b5760405162461bcd60e51b81526004016110bf90615adc565b600080846001600160a01b031684604051613e269190615ac0565b600060405180830381855af49150503d8060008114613e61576040519150601f19603f3d011682016040523d82523d6000602084013e613e66565b606091505b50915091506133fe8282604051806060016040528060278152602001615b4360279139613f2a565b60008281526002840160205260408120829055611adb8484613f63565b6000818152600283016020526040812054819080613eda57613ecd8585613f6f565b9250600091506112f59050565b6001925090506112f5565b6000610cf382613a3a565b60008080613efe8585613f7b565b600081815260029690960160205260409095205494959350505050565b6060611adb8484600085613f87565b60608315613f39575081610d86565b825115613f495782518084602001fd5b8160405162461bcd60e51b81526004016110bf919061473f565b6000610d8683836140b8565b6000610d868383614107565b6000610d86838361411f565b606082471015613fe85760405162461bcd60e51b815260206004820152602660248201527f416464726573733a20696e73756666696369656e742062616c616e636520666f6044820152651c8818d85b1b60d21b60648201526084016110bf565b6001600160a01b0385163b61403f5760405162461bcd60e51b815260206004820152601d60248201527f416464726573733a2063616c6c20746f206e6f6e2d636f6e747261637400000060448201526064016110bf565b600080866001600160a01b0316858760405161405b9190615ac0565b60006040518083038185875af1925050503d8060008114614098576040519150601f19603f3d011682016040523d82523d6000602084013e61409d565b606091505b50915091506140ad828286613f2a565b979650505050505050565b60008181526001830160205260408120546140ff57508154600181810184556000848152602080822090930184905584548482528286019093526040902091909155610cf3565b506000610cf3565b60008181526001830160205260408120541515610d86565b600082600001828154811061413657614136615a1e565b9060005260206000200154905092915050565b6040805161018081019091526000610140820181815260606101608401526101008301908152610120830191909152819081526020016141a6604051806040016040528060006001600160e01b0319168152602001606081525090565b815260006020820181905260408201819052606082018190526080820181905260a0820181905260c09091015290565b6000602082840312156141e857600080fd5b5035919050565b600060a082840312156116b157600080fd5b60008060c0838503121561421457600080fd5b61421e84846141ef565b9460a0939093013593505050565b6001600160a01b038116811461115c57600080fd5b6000806040838503121561425457600080fd5b8235915060208301356142668161422c565b809150509250929050565b600060a0828403121561428357600080fd5b610d8683836141ef565b60006020828403121561429f57600080fd5b8135610d868161422c565b6000602082840312156142bc57600080fd5b813561ffff81168114610d8657600080fd5b6000604082840312156116b157600080fd5b6000602082840312156142f257600080fd5b81356001600160401b0381111561430857600080fd5b611adb848285016142ce565b602081016003831061433657634e487b7160e01b600052602160045260246000fd5b91905290565b60008060006060848603121561435157600080fd5b833561435c8161422c565b92506020840135915060408401356143738161422c565b809150509250925092565b6000806040838503121561439157600080fd5b50508035926020909101359150565b600081518084526020808501945080840160005b838110156143d0578151875295820195908201906001016143b4565b509495945050505050565b60005b838110156143f65781810151838201526020016143de565b8381111561392a5750506000910152565b6000815180845261441f8160208601602086016143db565b601f01601f19169290920160200192915050565b63ffffffff60e01b81511682526000602082015160406020850152611adb6040850182614407565b60008151604084526144706040850182614433565b602093840151949093019390935250919050565b6000610100825181855261449a8286018261445b565b915050602083015184820360208601526144b48282614433565b91505060018060a01b03604084015116604085015263ffffffff606084015116606085015260808301516144f0608086018263ffffffff169052565b5060a083015161450460a086018215159052565b5060c083015161451860c086018215159052565b5060e083015161359960e086018215159052565b60408152600061453f60408301856143a0565b6020838203818501528185518084528284019150828160051b85010183880160005b8381101561458f57601f1987840301855261457d838351614484565b94860194925090850190600101614561565b50909998505050505050505050565b634e487b7160e01b600052604160045260246000fd5b604080519081016001600160401b03811182821017156145d6576145d661459e565b60405290565b60405161010081016001600160401b03811182821017156145d6576145d661459e565b60405160c081016001600160401b03811182821017156145d6576145d661459e565b60405160a081016001600160401b03811182821017156145d6576145d661459e565b604051601f8201601f191681016001600160401b038111828210171561466b5761466b61459e565b604052919050565b60006001600160401b0382111561468c5761468c61459e565b50601f01601f191660200190565b600082601f8301126146ab57600080fd5b81356146be6146b982614673565b614643565b8181528460208386010111156146d357600080fd5b816020850160208301376000918101602001919091529392505050565b6000806040838503121561470357600080fd5b823561470e8161422c565b915060208301356001600160401b0381111561472957600080fd5b6147358582860161469a565b9150509250929050565b602081526000610d866020830184614407565b600060018060a01b0380835116845280602084015116602085015250604082015160a0604085015261478760a0850182614407565b9050606083015160608501526080830151151560808501528091505092915050565b602081526000610d866020830184614752565b602080825282518282018190526000919060409081850190868401855b8281101561480757815180516001600160a01b031685528601518685015292840192908501906001016147d9565b5091979650505050505050565b6000815160c0845261482960c085018261445b565b9050602083015160208501526040830151604085015260018060a01b036060840151166060850152608083015163ffffffff80821660808701528060a08601511660a087015250508091505092915050565b602081526000610d866020830184614814565b6000806000606084860312156148a357600080fd5b83356148ae8161422c565b95602085013595506040909401359392505050565b6040815260006148d660408301856143a0565b6020838203818501528185518084528284019150828160051b85010183880160005b8381101561458f57601f19878403018552614914838351614814565b948601949250908501906001016148f8565b600081518084526020808501945080840160005b838110156143d05781516001600160a01b03168752958201959082019060010161493a565b602081526000610d866020830184614926565b6000806040838503121561498557600080fd5b82356149908161422c565b915060208301356142668161422c565b600060e082840312156116b157600080fd5b6040815260006149c56040830185614926565b6020838203818501528185518084528284019150828160051b85010183880160005b8381101561458f57601f19878403018552614a03838351614752565b948601949250908501906001016149e7565b63ffffffff8116811461115c57600080fd5b801515811461115c57600080fd5b60008060008060808587031215614a4b57600080fd5b84356001600160401b0380821115614a6257600080fd5b614a6e888389016142ce565b95506020870135915080821115614a8457600080fd5b50614a91878288016142ce565b9350506040850135614aa281614a15565b91506060850135614ab281614a27565b939692955090935050565b60008060008060808587031215614ad357600080fd5b843593506020850135614ae58161422c565b9250604085013591506060850135614ab28161422c565b60008060408385031215614b0f57600080fd5b8235614b1a8161422c565b915060208301356001600160401b03811115614b3557600080fd5b83016060818603121561426657600080fd5b602081526000610d866020830184614484565b600080600060608486031215614b6f57600080fd5b505081359360208301359350604090920135919050565b803582526020810135614b988161422c565b6001600160a01b039081166020840152604082013590614bb78261422c565b9081166040840152606082013590614bce82614a15565b63ffffffff8216606085015260808301359150614bea8261422c565b808216608085015250505050565b6101008101614c078287614b86565b8460a08301528360c08301528260e083015295945050505050565b600060208284031215614c3457600080fd5b8135610d8681614a15565b634e487b7160e01b600052601160045260246000fd5b600063ffffffff808316818516808303821115614c7457614c74614c3f565b01949350505050565b828152604060208201526000825160c06040840152614ca061010084018261445b565b9050602084015160608401526040840151608084015260018060a01b0360608501511660a0840152608084015163ffffffff80821660c08601528060a08701511660e08601525050809150509392505050565b600060208284031215614d0557600080fd5b5051919050565b9384526001600160a01b039290921660208401526040830152606082015260800190565b606081526000614d43606083018661445b565b63ffffffff94851660208401529290931660409091015292915050565b6101208101614d6f8288614b86565b60a082019590955260c081019390935260e08301919091526001600160a01b031661010090910152919050565b600060c08284031215614dae57600080fd5b60405160c081018181106001600160401b0382111715614dd057614dd061459e565b8060405250825181526020830151602082015260408301516040820152606083015160608201526080830151608082015260a083015160a08201528091505092915050565b6001600160e01b03198116811461115c57600080fd5b60008135614e3881614e15565b6001600160e01b0319168352602082013536839003601e19018112614e5c57600080fd5b820180356001600160401b03811115614e7457600080fd5b803603841315614e8357600080fd5b60406020860152806040860152806020830160608701376000606082870101526060601f19601f8301168601019250505092915050565b828152604060208201526000611adb6040830184614e2b565b600060208284031215614ee557600080fd5b815160038110610d8657600080fd5b6020808252602c908201527f46756e6374696f6e206d7573742062652063616c6c6564207468726f7567682060408201526b19195b1959d85d1958d85b1b60a21b606082015260800190565b6020808252602c908201527f46756e6374696f6e206d7573742062652063616c6c6564207468726f7567682060408201526b6163746976652070726f787960a01b606082015260800190565b60006001600160401b03821115614fa557614fa561459e565b5060051b60200190565b600082601f830112614fc057600080fd5b81516020614fd06146b983614f8c565b82815260059290921b84018101918181019086841115614fef57600080fd5b8286015b8481101561500a5780518352918301918301614ff3565b509695505050505050565b60006150236146b984614673565b905082815283838301111561503757600080fd5b610d868360208301846143db565b60006040828403121561505757600080fd5b61505f6145b4565b9050815161506c81614e15565b815260208201516001600160401b0381111561508757600080fd5b8201601f8101841361509857600080fd5b6150a784825160208401615015565b60208301525092915050565b6000604082840312156150c557600080fd5b6150cd6145b4565b905081516001600160401b038111156150e557600080fd5b6150f184828501615045565b8252506020820151602082015292915050565b805161510f8161422c565b919050565b805161510f81614a15565b805161510f81614a27565b6000806040838503121561513d57600080fd5b82516001600160401b038082111561515457600080fd5b61516086838701614faf565b935060209150818501518181111561517757600080fd5b8501601f8101871361518857600080fd5b80516151966146b982614f8c565b81815260059190911b820184019084810190898311156151b557600080fd5b8584015b838110156152b3578051868111156151d15760008081fd5b8501610100818d03601f19018113156151ea5760008081fd5b6151f26145dc565b89830151898111156152045760008081fd5b6152128f8c838701016150b3565b8252506040830151898111156152285760008081fd5b6152368f8c83870101615045565b8b830152506060615248818501615104565b6040830152608061525a818601615114565b8284015260a0915061526d828601615114565b9083015260c061527e85820161511f565b8284015260e0915061529182860161511f565b908301526152a084840161511f565b90820152855250509186019186016151b9565b508096505050505050509250929050565b600181811c908216806152d857607f821691505b6020821081036116b157634e487b7160e01b600052602260045260246000fd5b6000806040838503121561530b57600080fd5b82516001600160401b038082111561532257600080fd5b61532e86838701614faf565b935060209150818501518181111561534557600080fd5b8501601f8101871361535657600080fd5b80516153646146b982614f8c565b81815260059190911b8201840190848101908983111561538357600080fd5b8584015b838110156152b35780518681111561539f5760008081fd5b850160c0818d03601f19018113156153b75760008081fd5b6153bf6145ff565b89830151898111156153d15760008081fd5b6153df8f8c838701016150b3565b82525060408301518a82015260608084015160408301526080808501516154058161422c565b80838501525060a091508185015161541c81614a15565b90830152928201519261542e84614a15565b810192909252508352918601918601615387565b600082601f83011261545357600080fd5b815160206154636146b983614f8c565b82815260059290921b8401810191818101908684111561548257600080fd5b8286015b8481101561500a5780516154998161422c565b8352918301918301615486565b6000602082840312156154b857600080fd5b81516001600160401b038111156154ce57600080fd5b611adb84828501615442565b6000602082840312156154ec57600080fd5b8151610d8681614a27565b828152604060208201526000611adb604083018461445b565b602081526000610d86602083018461445b565b600080604080848603121561553757600080fd5b83516001600160401b038082111561554e57600080fd5b61555a87838801615442565b945060209150818601518181111561557157600080fd5b8601601f8101881361558257600080fd5b80516155906146b982614f8c565b81815260059190911b8201840190848101908a8311156155af57600080fd5b8584015b8381101561566b578051868111156155ca57600080fd5b850160a0818e03601f190112156155e057600080fd5b6155e8614621565b888201516155f58161422c565b8152818a01516156048161422c565b818a015260608201518881111561561b5760008081fd5b8201603f81018f1361562d5760008081fd5b61563d8f8b8301518d8401615015565b8b83015250608080830151606083015261565960a0840161511f565b908201528452509186019186016155b3565b50809750505050505050509250929050565b60006040828403121561568f57600080fd5b6156976145b4565b905081356156a481614e15565b815260208201356001600160401b038111156156bf57600080fd5b6150a78482850161469a565b6000604082360312156156dd57600080fd5b6156e56145b4565b82356001600160401b038111156156fb57600080fd5b6157073682860161567d565b825250602092830135928101929092525090565b60006020828403121561572d57600080fd5b8135610d8681614e15565b8381526060602082015260008335603e1985360301811261575857600080fd5b6040606084015261576e60a08401868301614e2b565b60209590950135608084015250506001600160a01b0391909116604090910152919050565b6000610cf3368361567d565b82815260406020820152600082516101008060408501526157c461014085018361445b565b91506020850151603f198584030160608601526157e18382614433565b60408701516001600160a01b03166080870152606087015163ffffffff811660a0880152909350905050608085015163ffffffff811660c08601525060a085015180151560e08601525060c085015180151585830152505060e084015180151561012085015250949350505050565b606081526000615863606083018661445b565b82810360208401526158758186614433565b91505063ffffffff83166040830152949350505050565b60006020828403121561589e57600080fd5b8151610d8681614e15565b6000602082840312156158bb57600080fd5b8151610d868161422c565b6000808335601e198436030181126158dd57600080fd5b8301803591506001600160401b038211156158f757600080fd5b6020019150368190038213156112f557600080fd5b60006020828403121561591e57600080fd5b8135610d8681614a27565b838152600060018060a01b0380851660208401526060604084015280845116606084015280602085015116608084015250604083015160a080840152615973610100840182614407565b9050606084015160c08401526080840151151560e084015280915050949350505050565b600082198211156159aa576159aa614c3f565b500190565b6060815260006159c2606083018661445b565b6001600160a01b0394851660208401529290931660409091015292915050565b600080604083850312156159f557600080fd5b8251915060208301516001600160401b03811115615a1257600080fd5b614735858286016150b3565b634e487b7160e01b600052603260045260246000fd5b600060018201615a4657615a46614c3f565b5060010190565b6001600160e01b031991909116815260200190565b600060408284031215615a7457600080fd5b604051604081018181106001600160401b0382111715615a9657615a9661459e565b6040528251615aa48161422c565b81526020830151615ab48161422c565b60208201529392505050565b60008251615ad28184602087016143db565b9190910192915050565b60208082526026908201527f416464726573733a2064656c65676174652063616c6c20746f206e6f6e2d636f6040820152651b9d1c9858dd60d21b60608201526080019056fe360894a13ba1a3210667c828492db98dca3e2076cc3735a920a3ca505d382bbc416464726573733a206c6f772d6c6576656c2064656c65676174652063616c6c206661696c6564a2646970667358221220c0961e7bf885ab835ad7968839644c635904d62a92be3137681fa1f1cc58a63f64736f6c634300080d0033",
  "linkReferences": {
    "contracts/asset/Assets.sol": {
      "Assets": [
        {
          "length": 20,
          "start": 6887
        },
        {
          "length": 20,
          "start": 8560
        },
        {
          "length": 20,
          "start": 9097
        },
        {
          "length": 20,
          "start": 10777
        }
      ]
    },
    "contracts/listing/Listings.sol": {
      "Listings": [
        {
          "length": 20,
          "start": 5077
        },
        {
          "length": 20,
          "start": 6732
        },
        {
          "length": 20,
          "start": 8468
        },
        {
          "length": 20,
          "start": 9308
        }
      ]
    },
    "contracts/renting/Rentings.sol": {
      "Rentings": [
        {
          "length": 20,
          "start": 2973
        },
        {
          "length": 20,
          "start": 3276
        },
        {
          "length": 20,
          "start": 3420
        },
        {
          "length": 20,
          "start": 3695
        },
        {
          "length": 20,
          "start": 3868
        },
        {
          "length": 20,
          "start": 3981
        },
        {
          "length": 20,
          "start": 4434
        },
        {
          "length": 20,
          "start": 6584
        },
        {
          "length": 20,
          "start": 11791
        }
      ]
    },
    "contracts/warper/Warpers.sol": {
      "Warpers": [
        {
          "length": 20,
          "start": 8750
        },
        {
          "length": 20,
          "start": 9562
        },
        {
          "length": 20,
          "start": 10487
        },
        {
          "length": 20,
          "start": 11604
        }
      ]
    }
  },
  "deployedLinkReferences": {
    "contracts/asset/Assets.sol": {
      "Assets": [
        {
          "length": 20,
          "start": 6560
        },
        {
          "length": 20,
          "start": 8233
        },
        {
          "length": 20,
          "start": 8770
        },
        {
          "length": 20,
          "start": 10450
        }
      ]
    },
    "contracts/listing/Listings.sol": {
      "Listings": [
        {
          "length": 20,
          "start": 4750
        },
        {
          "length": 20,
          "start": 6405
        },
        {
          "length": 20,
          "start": 8141
        },
        {
          "length": 20,
          "start": 8981
        }
      ]
    },
    "contracts/renting/Rentings.sol": {
      "Rentings": [
        {
          "length": 20,
          "start": 2646
        },
        {
          "length": 20,
          "start": 2949
        },
        {
          "length": 20,
          "start": 3093
        },
        {
          "length": 20,
          "start": 3368
        },
        {
          "length": 20,
          "start": 3541
        },
        {
          "length": 20,
          "start": 3654
        },
        {
          "length": 20,
          "start": 4107
        },
        {
          "length": 20,
          "start": 6257
        },
        {
          "length": 20,
          "start": 11464
        }
      ]
    },
    "contracts/warper/Warpers.sol": {
      "Warpers": [
        {
          "length": 20,
          "start": 8423
        },
        {
          "length": 20,
          "start": 9235
        },
        {
          "length": 20,
          "start": 10160
        },
        {
          "length": 20,
          "start": 11277
        }
      ]
    }
  }
}