{
  "_format": "hh-sol-artifact-1",
  "contractName": "MetahubV2Mock",
  "sourceName": "contracts/mocks/MetahubV2Mock.sol",
  "abi": [
    {
      "inputs": [],
      "name": "AssetIsLocked",
      "type": "error"
    },
    {
      "inputs": [],
      "name": "CallerIsNotAssetLister",
      "type": "error"
    },
    {
      "inputs": [],
      "name": "CallerIsNotRenter",
      "type": "error"
    },
    {
      "inputs": [
        {
          "internalType": "uint256",
          "name": "balance",
          "type": "uint256"
        }
      ],
      "name": "InsufficientBalance",
      "type": "error"
    },
    {
      "inputs": [],
      "name": "InvalidWarperInterface",
      "type": "error"
    },
    {
      "inputs": [
        {
          "internalType": "uint256",
          "name": "amount",
          "type": "uint256"
        }
      ],
      "name": "InvalidWithdrawalAmount",
      "type": "error"
    },
    {
      "inputs": [],
      "name": "ListingIsNotPaused",
      "type": "error"
    },
    {
      "inputs": [],
      "name": "ListingIsPaused",
      "type": "error"
    },
    {
      "inputs": [
        {
          "internalType": "uint256",
          "name": "listingId",
          "type": "uint256"
        }
      ],
      "name": "NotListed",
      "type": "error"
    },
    {
      "inputs": [],
      "name": "RentalFeeSlippage",
      "type": "error"
    },
    {
      "inputs": [
        {
          "internalType": "address",
          "name": "asset",
          "type": "address"
        }
      ],
      "name": "UnsupportedAsset",
      "type": "error"
    },
    {
      "inputs": [
        {
          "internalType": "bytes4",
          "name": "assetClass",
          "type": "bytes4"
        }
      ],
      "name": "UnsupportedAssetClass",
      "type": "error"
    },
    {
      "inputs": [
        {
          "internalType": "bytes4",
          "name": "strategyId",
          "type": "bytes4"
        }
      ],
      "name": "UnsupportedListingStrategy",
      "type": "error"
    },
    {
      "inputs": [
        {
          "internalType": "address",
          "name": "provided",
          "type": "address"
        },
        {
          "internalType": "address",
          "name": "required",
          "type": "address"
        }
      ],
      "name": "WarperHasIncorrectMetahubReference",
      "type": "error"
    },
    {
      "inputs": [],
      "name": "WarperIsNotPaused",
      "type": "error"
    },
    {
      "inputs": [
        {
          "internalType": "address",
          "name": "warper",
          "type": "address"
        }
      ],
      "name": "WarperIsNotRegistered",
      "type": "error"
    },
    {
      "inputs": [],
      "name": "WarperIsPaused",
      "type": "error"
    },
    {
      "anonymous": false,
      "inputs": [
        {
          "indexed": false,
          "internalType": "address",
          "name": "previousAdmin",
          "type": "address"
        },
        {
          "indexed": false,
          "internalType": "address",
          "name": "newAdmin",
          "type": "address"
        }
      ],
      "name": "AdminChanged",
      "type": "event"
    },
    {
      "anonymous": false,
      "inputs": [
        {
          "indexed": true,
          "internalType": "uint256",
          "name": "listingId",
          "type": "uint256"
        },
        {
          "indexed": true,
          "internalType": "address",
          "name": "lister",
          "type": "address"
        },
        {
          "indexed": false,
          "internalType": "uint32",
          "name": "unlocksAt",
          "type": "uint32"
        }
      ],
      "name": "AssetDelisted",
      "type": "event"
    },
    {
      "anonymous": false,
      "inputs": [
        {
          "indexed": true,
          "internalType": "uint256",
          "name": "listingId",
          "type": "uint256"
        },
        {
          "indexed": true,
          "internalType": "address",
          "name": "lister",
          "type": "address"
        },
        {
          "components": [
            {
              "components": [
                {
                  "internalType": "bytes4",
                  "name": "class",
                  "type": "bytes4"
                },
                {
                  "internalType": "bytes",
                  "name": "data",
                  "type": "bytes"
                }
              ],
              "internalType": "struct Assets.AssetId",
              "name": "id",
              "type": "tuple"
            },
            {
              "internalType": "uint256",
              "name": "value",
              "type": "uint256"
            }
          ],
          "indexed": false,
          "internalType": "struct Assets.Asset",
          "name": "asset",
          "type": "tuple"
        },
        {
          "components": [
            {
              "internalType": "bytes4",
              "name": "strategy",
              "type": "bytes4"
            },
            {
              "internalType": "bytes",
              "name": "data",
              "type": "bytes"
            }
          ],
          "indexed": false,
          "internalType": "struct Listings.Params",
          "name": "params",
          "type": "tuple"
        },
        {
          "indexed": false,
          "internalType": "uint32",
          "name": "maxLockPeriod",
          "type": "uint32"
        }
      ],
      "name": "AssetListed",
      "type": "event"
    },
    {
      "anonymous": false,
      "inputs": [
        {
          "indexed": true,
          "internalType": "uint256",
          "name": "rentalId",
          "type": "uint256"
        },
        {
          "indexed": true,
          "internalType": "address",
          "name": "renter",
          "type": "address"
        },
        {
          "indexed": true,
          "internalType": "uint256",
          "name": "listingId",
          "type": "uint256"
        },
        {
          "components": [
            {
              "components": [
                {
                  "internalType": "bytes4",
                  "name": "class",
                  "type": "bytes4"
                },
                {
                  "internalType": "bytes",
                  "name": "data",
                  "type": "bytes"
                }
              ],
              "internalType": "struct Assets.AssetId",
              "name": "id",
              "type": "tuple"
            },
            {
              "internalType": "uint256",
              "name": "value",
              "type": "uint256"
            }
          ],
          "indexed": false,
          "internalType": "struct Assets.Asset",
          "name": "warpedAsset",
          "type": "tuple"
        },
        {
          "indexed": false,
          "internalType": "uint32",
          "name": "startTime",
          "type": "uint32"
        },
        {
          "indexed": false,
          "internalType": "uint32",
          "name": "endTime",
          "type": "uint32"
        }
      ],
      "name": "AssetRented",
      "type": "event"
    },
    {
      "anonymous": false,
      "inputs": [
        {
          "indexed": true,
          "internalType": "uint256",
          "name": "listingId",
          "type": "uint256"
        },
        {
          "indexed": true,
          "internalType": "address",
          "name": "lister",
          "type": "address"
        },
        {
          "components": [
            {
              "components": [
                {
                  "internalType": "bytes4",
                  "name": "class",
                  "type": "bytes4"
                },
                {
                  "internalType": "bytes",
                  "name": "data",
                  "type": "bytes"
                }
              ],
              "internalType": "struct Assets.AssetId",
              "name": "id",
              "type": "tuple"
            },
            {
              "internalType": "uint256",
              "name": "value",
              "type": "uint256"
            }
          ],
          "indexed": false,
          "internalType": "struct Assets.Asset",
          "name": "asset",
          "type": "tuple"
        }
      ],
      "name": "AssetWithdrawn",
      "type": "event"
    },
    {
      "anonymous": false,
      "inputs": [
        {
          "indexed": true,
          "internalType": "address",
          "name": "beacon",
          "type": "address"
        }
      ],
      "name": "BeaconUpgraded",
      "type": "event"
    },
    {
      "anonymous": false,
      "inputs": [
        {
          "indexed": true,
          "internalType": "uint256",
          "name": "listingId",
          "type": "uint256"
        }
      ],
      "name": "ListingPaused",
      "type": "event"
    },
    {
      "anonymous": false,
      "inputs": [
        {
          "indexed": true,
          "internalType": "uint256",
          "name": "listingId",
          "type": "uint256"
        }
      ],
      "name": "ListingUnpaused",
      "type": "event"
    },
    {
      "anonymous": false,
      "inputs": [
        {
          "indexed": true,
          "internalType": "address",
          "name": "paymentToken",
          "type": "address"
        },
        {
          "indexed": false,
          "internalType": "uint256",
          "name": "amount",
          "type": "uint256"
        }
      ],
      "name": "ProtocolEarned",
      "type": "event"
    },
    {
      "anonymous": false,
      "inputs": [
        {
          "indexed": false,
          "internalType": "uint16",
          "name": "rentalFeePercent",
          "type": "uint16"
        }
      ],
      "name": "ProtocolRentalFeeChanged",
      "type": "event"
    },
    {
      "anonymous": false,
      "inputs": [
        {
          "indexed": true,
          "internalType": "uint256",
          "name": "universeId",
          "type": "uint256"
        },
        {
          "indexed": true,
          "internalType": "address",
          "name": "paymentToken",
          "type": "address"
        },
        {
          "indexed": false,
          "internalType": "uint256",
          "name": "amount",
          "type": "uint256"
        }
      ],
      "name": "UniverseEarned",
      "type": "event"
    },
    {
      "anonymous": false,
      "inputs": [
        {
          "indexed": true,
          "internalType": "address",
          "name": "implementation",
          "type": "address"
        }
      ],
      "name": "Upgraded",
      "type": "event"
    },
    {
      "anonymous": false,
      "inputs": [
        {
          "indexed": true,
          "internalType": "address",
          "name": "user",
          "type": "address"
        },
        {
          "indexed": true,
          "internalType": "enum IPaymentManager.EarningType",
          "name": "earningType",
          "type": "uint8"
        },
        {
          "indexed": true,
          "internalType": "address",
          "name": "paymentToken",
          "type": "address"
        },
        {
          "indexed": false,
          "internalType": "uint256",
          "name": "amount",
          "type": "uint256"
        }
      ],
      "name": "UserEarned",
      "type": "event"
    },
    {
      "anonymous": false,
      "inputs": [
        {
          "indexed": true,
          "internalType": "address",
          "name": "warper",
          "type": "address"
        }
      ],
      "name": "WarperDeregistered",
      "type": "event"
    },
    {
      "anonymous": false,
      "inputs": [
        {
          "indexed": true,
          "internalType": "address",
          "name": "warper",
          "type": "address"
        }
      ],
      "name": "WarperPaused",
      "type": "event"
    },
    {
      "anonymous": false,
      "inputs": [
        {
          "indexed": true,
          "internalType": "uint256",
          "name": "universeId",
          "type": "uint256"
        },
        {
          "indexed": true,
          "internalType": "address",
          "name": "warper",
          "type": "address"
        },
        {
          "indexed": true,
          "internalType": "address",
          "name": "original",
          "type": "address"
        }
      ],
      "name": "WarperRegistered",
      "type": "event"
    },
    {
      "anonymous": false,
      "inputs": [
        {
          "indexed": true,
          "internalType": "address",
          "name": "warper",
          "type": "address"
        }
      ],
      "name": "WarperUnpaused",
      "type": "event"
    },
    {
      "inputs": [
        {
          "internalType": "address",
          "name": "original",
          "type": "address"
        }
      ],
      "name": "assetListingCount",
      "outputs": [
        {
          "internalType": "uint256",
          "name": "",
          "type": "uint256"
        }
      ],
      "stateMutability": "view",
      "type": "function"
    },
    {
      "inputs": [
        {
          "internalType": "address",
          "name": "original",
          "type": "address"
        },
        {
          "internalType": "uint256",
          "name": "offset",
          "type": "uint256"
        },
        {
          "internalType": "uint256",
          "name": "limit",
          "type": "uint256"
        }
      ],
      "name": "assetListings",
      "outputs": [
        {
          "internalType": "uint256[]",
          "name": "",
          "type": "uint256[]"
        },
        {
          "components": [
            {
              "components": [
                {
                  "components": [
                    {
                      "internalType": "bytes4",
                      "name": "class",
                      "type": "bytes4"
                    },
                    {
                      "internalType": "bytes",
                      "name": "data",
                      "type": "bytes"
                    }
                  ],
                  "internalType": "struct Assets.AssetId",
                  "name": "id",
                  "type": "tuple"
                },
                {
                  "internalType": "uint256",
                  "name": "value",
                  "type": "uint256"
                }
              ],
              "internalType": "struct Assets.Asset",
              "name": "asset",
              "type": "tuple"
            },
            {
              "components": [
                {
                  "internalType": "bytes4",
                  "name": "strategy",
                  "type": "bytes4"
                },
                {
                  "internalType": "bytes",
                  "name": "data",
                  "type": "bytes"
                }
              ],
              "internalType": "struct Listings.Params",
              "name": "params",
              "type": "tuple"
            },
            {
              "internalType": "address",
              "name": "lister",
              "type": "address"
            },
            {
              "internalType": "uint32",
              "name": "maxLockPeriod",
              "type": "uint32"
            },
            {
              "internalType": "uint32",
              "name": "lockedTill",
              "type": "uint32"
            },
            {
              "internalType": "bool",
              "name": "immediatePayout",
              "type": "bool"
            },
            {
              "internalType": "bool",
              "name": "delisted",
              "type": "bool"
            },
            {
              "internalType": "bool",
              "name": "paused",
              "type": "bool"
            }
          ],
          "internalType": "struct Listings.Listing[]",
          "name": "",
          "type": "tuple[]"
        }
      ],
      "stateMutability": "view",
      "type": "function"
    },
    {
      "inputs": [
        {
          "components": [
            {
              "internalType": "bytes4",
              "name": "class",
              "type": "bytes4"
            },
            {
              "internalType": "bytes",
              "name": "data",
              "type": "bytes"
            }
          ],
          "internalType": "struct Assets.AssetId",
          "name": "warpedAssetId",
          "type": "tuple"
        }
      ],
      "name": "assetRentalStatus",
      "outputs": [
        {
          "internalType": "enum Rentings.RentalStatus",
          "name": "",
          "type": "uint8"
        }
      ],
      "stateMutability": "view",
      "type": "function"
    },
    {
      "inputs": [
        {
          "internalType": "address",
          "name": "original",
          "type": "address"
        }
      ],
      "name": "assetWarperCount",
      "outputs": [
        {
          "internalType": "uint256",
          "name": "",
          "type": "uint256"
        }
      ],
      "stateMutability": "view",
      "type": "function"
    },
    {
      "inputs": [
        {
          "internalType": "address",
          "name": "original",
          "type": "address"
        },
        {
          "internalType": "uint256",
          "name": "offset",
          "type": "uint256"
        },
        {
          "internalType": "uint256",
          "name": "limit",
          "type": "uint256"
        }
      ],
      "name": "assetWarpers",
      "outputs": [
        {
          "internalType": "address[]",
          "name": "",
          "type": "address[]"
        },
        {
          "components": [
            {
              "internalType": "address",
              "name": "original",
              "type": "address"
            },
            {
              "internalType": "contract IWarperController",
              "name": "controller",
              "type": "address"
            },
            {
              "internalType": "string",
              "name": "name",
              "type": "string"
            },
            {
              "internalType": "uint256",
              "name": "universeId",
              "type": "uint256"
            },
            {
              "internalType": "bool",
              "name": "paused",
              "type": "bool"
            }
          ],
          "internalType": "struct Warpers.Warper[]",
          "name": "",
          "type": "tuple[]"
        }
      ],
      "stateMutability": "view",
      "type": "function"
    },
    {
      "inputs": [
        {
          "internalType": "address",
          "name": "account",
          "type": "address"
        },
        {
          "internalType": "address",
          "name": "token",
          "type": "address"
        }
      ],
      "name": "balance",
      "outputs": [
        {
          "internalType": "uint256",
          "name": "",
          "type": "uint256"
        }
      ],
      "stateMutability": "view",
      "type": "function"
    },
    {
      "inputs": [
        {
          "internalType": "address",
          "name": "account",
          "type": "address"
        }
      ],
      "name": "balances",
      "outputs": [
        {
          "components": [
            {
              "internalType": "address",
              "name": "token",
              "type": "address"
            },
            {
              "internalType": "uint256",
              "name": "amount",
              "type": "uint256"
            }
          ],
          "internalType": "struct Accounts.Balance[]",
          "name": "",
          "type": "tuple[]"
        }
      ],
      "stateMutability": "view",
      "type": "function"
    },
    {
      "inputs": [],
      "name": "baseToken",
      "outputs": [
        {
          "internalType": "address",
          "name": "",
          "type": "address"
        }
      ],
      "stateMutability": "view",
      "type": "function"
    },
    {
      "inputs": [
        {
          "internalType": "bytes32",
          "name": "warpedCollectionId",
          "type": "bytes32"
        },
        {
          "internalType": "address",
          "name": "renter",
          "type": "address"
        }
      ],
      "name": "collectionRentedValue",
      "outputs": [
        {
          "internalType": "uint256",
          "name": "",
          "type": "uint256"
        }
      ],
      "stateMutability": "view",
      "type": "function"
    },
    {
      "inputs": [
        {
          "internalType": "uint256",
          "name": "listingId",
          "type": "uint256"
        }
      ],
      "name": "delistAsset",
      "outputs": [],
      "stateMutability": "nonpayable",
      "type": "function"
    },
    {
      "inputs": [
        {
          "internalType": "address",
          "name": "warper",
          "type": "address"
        }
      ],
      "name": "deregisterWarper",
      "outputs": [],
      "stateMutability": "nonpayable",
      "type": "function"
    },
    {
      "inputs": [
        {
          "components": [
            {
              "internalType": "uint256",
              "name": "listingId",
              "type": "uint256"
            },
            {
              "internalType": "address",
              "name": "warper",
              "type": "address"
            },
            {
              "internalType": "address",
              "name": "renter",
              "type": "address"
            },
            {
              "internalType": "uint32",
              "name": "rentalPeriod",
              "type": "uint32"
            },
            {
              "internalType": "address",
              "name": "paymentToken",
              "type": "address"
            }
          ],
          "internalType": "struct Rentings.Params",
          "name": "rentingParams",
          "type": "tuple"
        }
      ],
      "name": "estimateRent",
      "outputs": [
        {
          "components": [
            {
              "internalType": "uint256",
              "name": "total",
              "type": "uint256"
            },
            {
              "internalType": "uint256",
              "name": "protocolFee",
              "type": "uint256"
            },
            {
              "internalType": "uint256",
              "name": "listerBaseFee",
              "type": "uint256"
            },
            {
              "internalType": "uint256",
              "name": "listerPremium",
              "type": "uint256"
            },
            {
              "internalType": "uint256",
              "name": "universeBaseFee",
              "type": "uint256"
            },
            {
              "internalType": "uint256",
              "name": "universePremium",
              "type": "uint256"
            }
          ],
          "internalType": "struct Rentings.RentalFees",
          "name": "",
          "type": "tuple"
        }
      ],
      "stateMutability": "view",
      "type": "function"
    },
    {
      "inputs": [
        {
          "components": [
            {
              "internalType": "contract IWarperPresetFactory",
              "name": "warperPresetFactory",
              "type": "address"
            },
            {
              "internalType": "contract IAssetClassRegistry",
              "name": "assetClassRegistry",
              "type": "address"
            },
            {
              "internalType": "contract IListingStrategyRegistry",
              "name": "listingStrategyRegistry",
              "type": "address"
            },
            {
              "internalType": "contract IUniverseRegistry",
              "name": "universeRegistry",
              "type": "address"
            },
            {
              "internalType": "contract IACL",
              "name": "acl",
              "type": "address"
            },
            {
              "internalType": "contract IERC20Upgradeable",
              "name": "baseToken",
              "type": "address"
            },
            {
              "internalType": "uint16",
              "name": "rentalFeePercent",
              "type": "uint16"
            }
          ],
          "internalType": "struct Metahub.MetahubInitParams",
          "name": "params",
          "type": "tuple"
        }
      ],
      "name": "initialize",
      "outputs": [],
      "stateMutability": "nonpayable",
      "type": "function"
    },
    {
      "inputs": [
        {
          "internalType": "address",
          "name": "warper",
          "type": "address"
        },
        {
          "internalType": "address",
          "name": "account",
          "type": "address"
        }
      ],
      "name": "isWarperAdmin",
      "outputs": [
        {
          "internalType": "bool",
          "name": "",
          "type": "bool"
        }
      ],
      "stateMutability": "view",
      "type": "function"
    },
    {
      "inputs": [
        {
          "components": [
            {
              "components": [
                {
                  "internalType": "bytes4",
                  "name": "class",
                  "type": "bytes4"
                },
                {
                  "internalType": "bytes",
                  "name": "data",
                  "type": "bytes"
                }
              ],
              "internalType": "struct Assets.AssetId",
              "name": "id",
              "type": "tuple"
            },
            {
              "internalType": "uint256",
              "name": "value",
              "type": "uint256"
            }
          ],
          "internalType": "struct Assets.Asset",
          "name": "asset",
          "type": "tuple"
        },
        {
          "components": [
            {
              "internalType": "bytes4",
              "name": "strategy",
              "type": "bytes4"
            },
            {
              "internalType": "bytes",
              "name": "data",
              "type": "bytes"
            }
          ],
          "internalType": "struct Listings.Params",
          "name": "params",
          "type": "tuple"
        },
        {
          "internalType": "uint32",
          "name": "maxLockPeriod",
          "type": "uint32"
        },
        {
          "internalType": "bool",
          "name": "immediatePayout",
          "type": "bool"
        }
      ],
      "name": "listAsset",
      "outputs": [
        {
          "internalType": "uint256",
          "name": "",
          "type": "uint256"
        }
      ],
      "stateMutability": "nonpayable",
      "type": "function"
    },
    {
      "inputs": [],
      "name": "listingCount",
      "outputs": [
        {
          "internalType": "uint256",
          "name": "",
          "type": "uint256"
        }
      ],
      "stateMutability": "view",
      "type": "function"
    },
    {
      "inputs": [
        {
          "internalType": "uint256",
          "name": "listingId",
          "type": "uint256"
        }
      ],
      "name": "listingInfo",
      "outputs": [
        {
          "components": [
            {
              "components": [
                {
                  "components": [
                    {
                      "internalType": "bytes4",
                      "name": "class",
                      "type": "bytes4"
                    },
                    {
                      "internalType": "bytes",
                      "name": "data",
                      "type": "bytes"
                    }
                  ],
                  "internalType": "struct Assets.AssetId",
                  "name": "id",
                  "type": "tuple"
                },
                {
                  "internalType": "uint256",
                  "name": "value",
                  "type": "uint256"
                }
              ],
              "internalType": "struct Assets.Asset",
              "name": "asset",
              "type": "tuple"
            },
            {
              "components": [
                {
                  "internalType": "bytes4",
                  "name": "strategy",
                  "type": "bytes4"
                },
                {
                  "internalType": "bytes",
                  "name": "data",
                  "type": "bytes"
                }
              ],
              "internalType": "struct Listings.Params",
              "name": "params",
              "type": "tuple"
            },
            {
              "internalType": "address",
              "name": "lister",
              "type": "address"
            },
            {
              "internalType": "uint32",
              "name": "maxLockPeriod",
              "type": "uint32"
            },
            {
              "internalType": "uint32",
              "name": "lockedTill",
              "type": "uint32"
            },
            {
              "internalType": "bool",
              "name": "immediatePayout",
              "type": "bool"
            },
            {
              "internalType": "bool",
              "name": "delisted",
              "type": "bool"
            },
            {
              "internalType": "bool",
              "name": "paused",
              "type": "bool"
            }
          ],
          "internalType": "struct Listings.Listing",
          "name": "",
          "type": "tuple"
        }
      ],
      "stateMutability": "view",
      "type": "function"
    },
    {
      "inputs": [
        {
          "internalType": "uint256",
          "name": "offset",
          "type": "uint256"
        },
        {
          "internalType": "uint256",
          "name": "limit",
          "type": "uint256"
        }
      ],
      "name": "listings",
      "outputs": [
        {
          "internalType": "uint256[]",
          "name": "",
          "type": "uint256[]"
        },
        {
          "components": [
            {
              "components": [
                {
                  "components": [
                    {
                      "internalType": "bytes4",
                      "name": "class",
                      "type": "bytes4"
                    },
                    {
                      "internalType": "bytes",
                      "name": "data",
                      "type": "bytes"
                    }
                  ],
                  "internalType": "struct Assets.AssetId",
                  "name": "id",
                  "type": "tuple"
                },
                {
                  "internalType": "uint256",
                  "name": "value",
                  "type": "uint256"
                }
              ],
              "internalType": "struct Assets.Asset",
              "name": "asset",
              "type": "tuple"
            },
            {
              "components": [
                {
                  "internalType": "bytes4",
                  "name": "strategy",
                  "type": "bytes4"
                },
                {
                  "internalType": "bytes",
                  "name": "data",
                  "type": "bytes"
                }
              ],
              "internalType": "struct Listings.Params",
              "name": "params",
              "type": "tuple"
            },
            {
              "internalType": "address",
              "name": "lister",
              "type": "address"
            },
            {
              "internalType": "uint32",
              "name": "maxLockPeriod",
              "type": "uint32"
            },
            {
              "internalType": "uint32",
              "name": "lockedTill",
              "type": "uint32"
            },
            {
              "internalType": "bool",
              "name": "immediatePayout",
              "type": "bool"
            },
            {
              "internalType": "bool",
              "name": "delisted",
              "type": "bool"
            },
            {
              "internalType": "bool",
              "name": "paused",
              "type": "bool"
            }
          ],
          "internalType": "struct Listings.Listing[]",
          "name": "",
          "type": "tuple[]"
        }
      ],
      "stateMutability": "view",
      "type": "function"
    },
    {
      "inputs": [
        {
          "internalType": "uint256",
          "name": "listingId",
          "type": "uint256"
        }
      ],
      "name": "pauseListing",
      "outputs": [],
      "stateMutability": "nonpayable",
      "type": "function"
    },
    {
      "inputs": [
        {
          "internalType": "address",
          "name": "warper",
          "type": "address"
        }
      ],
      "name": "pauseWarper",
      "outputs": [],
      "stateMutability": "nonpayable",
      "type": "function"
    },
    {
      "inputs": [
        {
          "internalType": "address",
          "name": "token",
          "type": "address"
        }
      ],
      "name": "protocolBalance",
      "outputs": [
        {
          "internalType": "uint256",
          "name": "",
          "type": "uint256"
        }
      ],
      "stateMutability": "view",
      "type": "function"
    },
    {
      "inputs": [],
      "name": "protocolBalances",
      "outputs": [
        {
          "components": [
            {
              "internalType": "address",
              "name": "token",
              "type": "address"
            },
            {
              "internalType": "uint256",
              "name": "amount",
              "type": "uint256"
            }
          ],
          "internalType": "struct Accounts.Balance[]",
          "name": "",
          "type": "tuple[]"
        }
      ],
      "stateMutability": "view",
      "type": "function"
    },
    {
      "inputs": [],
      "name": "protocolRentalFeePercent",
      "outputs": [
        {
          "internalType": "uint16",
          "name": "",
          "type": "uint16"
        }
      ],
      "stateMutability": "view",
      "type": "function"
    },
    {
      "inputs": [],
      "name": "proxiableUUID",
      "outputs": [
        {
          "internalType": "bytes32",
          "name": "",
          "type": "bytes32"
        }
      ],
      "stateMutability": "view",
      "type": "function"
    },
    {
      "inputs": [
        {
          "internalType": "address",
          "name": "warper",
          "type": "address"
        },
        {
          "components": [
            {
              "internalType": "string",
              "name": "name",
              "type": "string"
            },
            {
              "internalType": "uint256",
              "name": "universeId",
              "type": "uint256"
            },
            {
              "internalType": "bool",
              "name": "paused",
              "type": "bool"
            }
          ],
          "internalType": "struct IWarperManager.WarperRegistrationParams",
          "name": "params",
          "type": "tuple"
        }
      ],
      "name": "registerWarper",
      "outputs": [],
      "stateMutability": "nonpayable",
      "type": "function"
    },
    {
      "inputs": [
        {
          "components": [
            {
              "internalType": "uint256",
              "name": "listingId",
              "type": "uint256"
            },
            {
              "internalType": "address",
              "name": "warper",
              "type": "address"
            },
            {
              "internalType": "address",
              "name": "renter",
              "type": "address"
            },
            {
              "internalType": "uint32",
              "name": "rentalPeriod",
              "type": "uint32"
            },
            {
              "internalType": "address",
              "name": "paymentToken",
              "type": "address"
            }
          ],
          "internalType": "struct Rentings.Params",
          "name": "rentingParams",
          "type": "tuple"
        },
        {
          "internalType": "uint256",
          "name": "maxPaymentAmount",
          "type": "uint256"
        }
      ],
      "name": "rent",
      "outputs": [
        {
          "internalType": "uint256",
          "name": "",
          "type": "uint256"
        }
      ],
      "stateMutability": "nonpayable",
      "type": "function"
    },
    {
      "inputs": [
        {
          "internalType": "uint256",
          "name": "rentalId",
          "type": "uint256"
        }
      ],
      "name": "rentalAgreementInfo",
      "outputs": [
        {
          "components": [
            {
              "components": [
                {
                  "components": [
                    {
                      "internalType": "bytes4",
                      "name": "class",
                      "type": "bytes4"
                    },
                    {
                      "internalType": "bytes",
                      "name": "data",
                      "type": "bytes"
                    }
                  ],
                  "internalType": "struct Assets.AssetId",
                  "name": "id",
                  "type": "tuple"
                },
                {
                  "internalType": "uint256",
                  "name": "value",
                  "type": "uint256"
                }
              ],
              "internalType": "struct Assets.Asset",
              "name": "warpedAsset",
              "type": "tuple"
            },
            {
              "internalType": "bytes32",
              "name": "collectionId",
              "type": "bytes32"
            },
            {
              "internalType": "uint256",
              "name": "listingId",
              "type": "uint256"
            },
            {
              "internalType": "address",
              "name": "renter",
              "type": "address"
            },
            {
              "internalType": "uint32",
              "name": "startTime",
              "type": "uint32"
            },
            {
              "internalType": "uint32",
              "name": "endTime",
              "type": "uint32"
            }
          ],
          "internalType": "struct Rentings.Agreement",
          "name": "",
          "type": "tuple"
        }
      ],
      "stateMutability": "view",
      "type": "function"
    },
    {
      "inputs": [
        {
          "internalType": "uint16",
          "name": "rentalFeePercent",
          "type": "uint16"
        }
      ],
      "name": "setProtocolRentalFeePercent",
      "outputs": [],
      "stateMutability": "nonpayable",
      "type": "function"
    },
    {
      "inputs": [],
      "name": "supportedAssetCount",
      "outputs": [
        {
          "internalType": "uint256",
          "name": "",
          "type": "uint256"
        }
      ],
      "stateMutability": "view",
      "type": "function"
    },
    {
      "inputs": [
        {
          "internalType": "uint256",
          "name": "offset",
          "type": "uint256"
        },
        {
          "internalType": "uint256",
          "name": "limit",
          "type": "uint256"
        }
      ],
      "name": "supportedAssets",
      "outputs": [
        {
          "internalType": "address[]",
          "name": "",
          "type": "address[]"
        }
      ],
      "stateMutability": "view",
      "type": "function"
    },
    {
      "inputs": [
        {
          "internalType": "uint256",
          "name": "universeId",
          "type": "uint256"
        },
        {
          "internalType": "address",
          "name": "token",
          "type": "address"
        }
      ],
      "name": "universeBalance",
      "outputs": [
        {
          "internalType": "uint256",
          "name": "",
          "type": "uint256"
        }
      ],
      "stateMutability": "view",
      "type": "function"
    },
    {
      "inputs": [
        {
          "internalType": "uint256",
          "name": "universeId",
          "type": "uint256"
        }
      ],
      "name": "universeBalances",
      "outputs": [
        {
          "components": [
            {
              "internalType": "address",
              "name": "token",
              "type": "address"
            },
            {
              "internalType": "uint256",
              "name": "amount",
              "type": "uint256"
            }
          ],
          "internalType": "struct Accounts.Balance[]",
          "name": "",
          "type": "tuple[]"
        }
      ],
      "stateMutability": "view",
      "type": "function"
    },
    {
      "inputs": [
        {
          "internalType": "uint256",
          "name": "universeId",
          "type": "uint256"
        }
      ],
      "name": "universeWarperCount",
      "outputs": [
        {
          "internalType": "uint256",
          "name": "",
          "type": "uint256"
        }
      ],
      "stateMutability": "view",
      "type": "function"
    },
    {
      "inputs": [
        {
          "internalType": "uint256",
          "name": "universeId",
          "type": "uint256"
        },
        {
          "internalType": "uint256",
          "name": "offset",
          "type": "uint256"
        },
        {
          "internalType": "uint256",
          "name": "limit",
          "type": "uint256"
        }
      ],
      "name": "universeWarpers",
      "outputs": [
        {
          "internalType": "address[]",
          "name": "",
          "type": "address[]"
        },
        {
          "components": [
            {
              "internalType": "address",
              "name": "original",
              "type": "address"
            },
            {
              "internalType": "contract IWarperController",
              "name": "controller",
              "type": "address"
            },
            {
              "internalType": "string",
              "name": "name",
              "type": "string"
            },
            {
              "internalType": "uint256",
              "name": "universeId",
              "type": "uint256"
            },
            {
              "internalType": "bool",
              "name": "paused",
              "type": "bool"
            }
          ],
          "internalType": "struct Warpers.Warper[]",
          "name": "",
          "type": "tuple[]"
        }
      ],
      "stateMutability": "view",
      "type": "function"
    },
    {
      "inputs": [
        {
          "internalType": "uint256",
          "name": "listingId",
          "type": "uint256"
        }
      ],
      "name": "unpauseListing",
      "outputs": [],
      "stateMutability": "nonpayable",
      "type": "function"
    },
    {
      "inputs": [
        {
          "internalType": "address",
          "name": "warper",
          "type": "address"
        }
      ],
      "name": "unpauseWarper",
      "outputs": [],
      "stateMutability": "nonpayable",
      "type": "function"
    },
    {
      "inputs": [
        {
          "internalType": "address",
          "name": "newImplementation",
          "type": "address"
        }
      ],
      "name": "upgradeTo",
      "outputs": [],
      "stateMutability": "nonpayable",
      "type": "function"
    },
    {
      "inputs": [
        {
          "internalType": "address",
          "name": "newImplementation",
          "type": "address"
        },
        {
          "internalType": "bytes",
          "name": "data",
          "type": "bytes"
        }
      ],
      "name": "upgradeToAndCall",
      "outputs": [],
      "stateMutability": "payable",
      "type": "function"
    },
    {
      "inputs": [
        {
          "internalType": "address",
          "name": "lister",
          "type": "address"
        }
      ],
      "name": "userListingCount",
      "outputs": [
        {
          "internalType": "uint256",
          "name": "",
          "type": "uint256"
        }
      ],
      "stateMutability": "view",
      "type": "function"
    },
    {
      "inputs": [
        {
          "internalType": "address",
          "name": "lister",
          "type": "address"
        },
        {
          "internalType": "uint256",
          "name": "offset",
          "type": "uint256"
        },
        {
          "internalType": "uint256",
          "name": "limit",
          "type": "uint256"
        }
      ],
      "name": "userListings",
      "outputs": [
        {
          "internalType": "uint256[]",
          "name": "",
          "type": "uint256[]"
        },
        {
          "components": [
            {
              "components": [
                {
                  "components": [
                    {
                      "internalType": "bytes4",
                      "name": "class",
                      "type": "bytes4"
                    },
                    {
                      "internalType": "bytes",
                      "name": "data",
                      "type": "bytes"
                    }
                  ],
                  "internalType": "struct Assets.AssetId",
                  "name": "id",
                  "type": "tuple"
                },
                {
                  "internalType": "uint256",
                  "name": "value",
                  "type": "uint256"
                }
              ],
              "internalType": "struct Assets.Asset",
              "name": "asset",
              "type": "tuple"
            },
            {
              "components": [
                {
                  "internalType": "bytes4",
                  "name": "strategy",
                  "type": "bytes4"
                },
                {
                  "internalType": "bytes",
                  "name": "data",
                  "type": "bytes"
                }
              ],
              "internalType": "struct Listings.Params",
              "name": "params",
              "type": "tuple"
            },
            {
              "internalType": "address",
              "name": "lister",
              "type": "address"
            },
            {
              "internalType": "uint32",
              "name": "maxLockPeriod",
              "type": "uint32"
            },
            {
              "internalType": "uint32",
              "name": "lockedTill",
              "type": "uint32"
            },
            {
              "internalType": "bool",
              "name": "immediatePayout",
              "type": "bool"
            },
            {
              "internalType": "bool",
              "name": "delisted",
              "type": "bool"
            },
            {
              "internalType": "bool",
              "name": "paused",
              "type": "bool"
            }
          ],
          "internalType": "struct Listings.Listing[]",
          "name": "",
          "type": "tuple[]"
        }
      ],
      "stateMutability": "view",
      "type": "function"
    },
    {
      "inputs": [
        {
          "internalType": "address",
          "name": "renter",
          "type": "address"
        },
        {
          "internalType": "uint256",
          "name": "offset",
          "type": "uint256"
        },
        {
          "internalType": "uint256",
          "name": "limit",
          "type": "uint256"
        }
      ],
      "name": "userRentalAgreements",
      "outputs": [
        {
          "internalType": "uint256[]",
          "name": "",
          "type": "uint256[]"
        },
        {
          "components": [
            {
              "components": [
                {
                  "components": [
                    {
                      "internalType": "bytes4",
                      "name": "class",
                      "type": "bytes4"
                    },
                    {
                      "internalType": "bytes",
                      "name": "data",
                      "type": "bytes"
                    }
                  ],
                  "internalType": "struct Assets.AssetId",
                  "name": "id",
                  "type": "tuple"
                },
                {
                  "internalType": "uint256",
                  "name": "value",
                  "type": "uint256"
                }
              ],
              "internalType": "struct Assets.Asset",
              "name": "warpedAsset",
              "type": "tuple"
            },
            {
              "internalType": "bytes32",
              "name": "collectionId",
              "type": "bytes32"
            },
            {
              "internalType": "uint256",
              "name": "listingId",
              "type": "uint256"
            },
            {
              "internalType": "address",
              "name": "renter",
              "type": "address"
            },
            {
              "internalType": "uint32",
              "name": "startTime",
              "type": "uint32"
            },
            {
              "internalType": "uint32",
              "name": "endTime",
              "type": "uint32"
            }
          ],
          "internalType": "struct Rentings.Agreement[]",
          "name": "",
          "type": "tuple[]"
        }
      ],
      "stateMutability": "view",
      "type": "function"
    },
    {
      "inputs": [
        {
          "internalType": "address",
          "name": "renter",
          "type": "address"
        }
      ],
      "name": "userRentalCount",
      "outputs": [
        {
          "internalType": "uint256",
          "name": "",
          "type": "uint256"
        }
      ],
      "stateMutability": "view",
      "type": "function"
    },
    {
      "inputs": [],
      "name": "version",
      "outputs": [
        {
          "internalType": "string",
          "name": "",
          "type": "string"
        }
      ],
      "stateMutability": "pure",
      "type": "function"
    },
    {
      "inputs": [
        {
          "internalType": "address",
          "name": "warper",
          "type": "address"
        }
      ],
      "name": "warperController",
      "outputs": [
        {
          "internalType": "address",
          "name": "",
          "type": "address"
        }
      ],
      "stateMutability": "view",
      "type": "function"
    },
    {
      "inputs": [
        {
          "internalType": "address",
          "name": "warper",
          "type": "address"
        }
      ],
      "name": "warperInfo",
      "outputs": [
        {
          "components": [
            {
              "internalType": "address",
              "name": "original",
              "type": "address"
            },
            {
              "internalType": "contract IWarperController",
              "name": "controller",
              "type": "address"
            },
            {
              "internalType": "string",
              "name": "name",
              "type": "string"
            },
            {
              "internalType": "uint256",
              "name": "universeId",
              "type": "uint256"
            },
            {
              "internalType": "bool",
              "name": "paused",
              "type": "bool"
            }
          ],
          "internalType": "struct Warpers.Warper",
          "name": "",
          "type": "tuple"
        }
      ],
      "stateMutability": "view",
      "type": "function"
    },
    {
      "inputs": [],
      "name": "warperPresetFactory",
      "outputs": [
        {
          "internalType": "address",
          "name": "",
          "type": "address"
        }
      ],
      "stateMutability": "view",
      "type": "function"
    },
    {
      "inputs": [
        {
          "internalType": "uint256",
          "name": "listingId",
          "type": "uint256"
        }
      ],
      "name": "withdrawAsset",
      "outputs": [],
      "stateMutability": "nonpayable",
      "type": "function"
    },
    {
      "inputs": [
        {
          "internalType": "address",
          "name": "token",
          "type": "address"
        },
        {
          "internalType": "uint256",
          "name": "amount",
          "type": "uint256"
        },
        {
          "internalType": "address",
          "name": "to",
          "type": "address"
        }
      ],
      "name": "withdrawFunds",
      "outputs": [],
      "stateMutability": "nonpayable",
      "type": "function"
    },
    {
      "inputs": [
        {
          "internalType": "address",
          "name": "token",
          "type": "address"
        },
        {
          "internalType": "uint256",
          "name": "amount",
          "type": "uint256"
        },
        {
          "internalType": "address",
          "name": "to",
          "type": "address"
        }
      ],
      "name": "withdrawProtocolFunds",
      "outputs": [],
      "stateMutability": "nonpayable",
      "type": "function"
    },
    {
      "inputs": [
        {
          "internalType": "uint256",
          "name": "universeId",
          "type": "uint256"
        },
        {
          "internalType": "address",
          "name": "token",
          "type": "address"
        },
        {
          "internalType": "uint256",
          "name": "amount",
          "type": "uint256"
        },
        {
          "internalType": "address",
          "name": "to",
          "type": "address"
        }
      ],
      "name": "withdrawUniverseFunds",
      "outputs": [],
      "stateMutability": "nonpayable",
      "type": "function"
    }
  ],
  "bytecode": "0x60a0604052306080523480156200001557600080fd5b50600054610100900460ff16620000335760005460ff16156200003d565b6200003d620000e2565b620000a55760405162461bcd60e51b815260206004820152602e60248201527f496e697469616c697a61626c653a20636f6e747261637420697320616c72656160448201526d191e481a5b9a5d1a585b1a5e995960921b606482015260840160405180910390fd5b600054610100900460ff16158015620000c8576000805461ffff19166101011790555b8015620000db576000805461ff00191690555b506200010f565b6000620000fa306200010060201b62002d121760201c565b15905090565b6001600160a01b03163b151590565b608051615d7f62000147600039600081816111260152818161116f015281816113ab015281816113eb015261157a0152615d7f6000f3fe6080604052600436106102c95760003560e01c80636eabf0bb11610175578063a75ea55d116100dc578063c55dae6311610095578063ebf03f491161006f578063ebf03f4914610960578063f1f56a1f14610980578063f4ba2046146109ad578063fee5f37f146109cd57600080fd5b8063c55dae6314610902578063c7b0156014610920578063e528b0811461094057600080fd5b8063a75ea55d1461084d578063a9b07c261461086d578063ae07477f14610882578063b203bb99146108a2578063b995dbae146108c2578063c1e58a21146108e257600080fd5b806388b22ef41161012e57806388b22ef4146107785780638c2c4714146107985780638d92fdf3146107b85780638f36001f146107d8578063a0d18bb31461080a578063a5c5ad111461083857600080fd5b80636eabf0bb1461068d578063719a3d0b146106bb57806372994135146106db57806378a2c9cd146107085780638468d22814610728578063882080d31461074857600080fd5b806347c6b45e1161023457806352d1902d116101ed57806355431024116101c757806355431024146105f357806360ca93501461062057806361b25b9114610640578063662c1ff81461066057600080fd5b806352d1902d1461059857806354fd4d50146105ad578063553b0109146105de57600080fd5b806347c6b45e146104d75780634bd22a1b146104f75780634d3084d3146105175780634f1ef28614610545578063506cf01e1461055857806350f771561461057857600080fd5b80633253d503116102865780633253d5031461040a57806332756bcf1461042a57806333a932031461044a5780633659cfe61461047757806339b1ea381461049757806343d7c778146104b757600080fd5b80630e540ec0146102ce57806312cd849a146102f05780631e34787814610323578063255829cf1461034357806327e235e31461037157806328df75961461039e575b600080fd5b3480156102da57600080fd5b506102ee6102e93660046143b6565b6109ed565b005b3480156102fc57600080fd5b5061031061030b3660046143e1565b610a85565b6040519081526020015b60405180910390f35b34801561032f57600080fd5b5061031061033e366004614421565b610d7a565b34801561034f57600080fd5b50609854600160a01b900461ffff1660405161ffff909116815260200161031a565b34801561037d57600080fd5b5061039161038c366004614451565b610e0e565b60405161031a919061446e565b3480156103aa57600080fd5b506103be6103b93660046144c6565b610e32565b60405161031a9190600060c082019050825182526020830151602083015260408301516040830152606083015160608301526080830151608083015260a083015160a083015292915050565b34801561041657600080fd5b506102ee610425366004614451565b610f69565b34801561043657600080fd5b506102ee6104453660046144e2565b610fcd565b34801561045657600080fd5b5061046a610465366004614518565b61109e565b60405161031a919061454c565b34801561048357600080fd5b506102ee610492366004614451565b61111c565b3480156104a357600080fd5b506103106104b2366004614451565b611204565b3480156104c357600080fd5b506102ee6104d23660046143b6565b611211565b3480156104e357600080fd5b506102ee6104f2366004614574565b6112dd565b34801561050357600080fd5b50610310610512366004614451565b6112fd565b34801561052357600080fd5b506105376105323660046145b6565b61130a565b60405161031a929190614764565b6102ee610553366004614928565b6113a1565b34801561056457600080fd5b506102ee610573366004614451565b611471565b34801561058457600080fd5b506102ee6105933660046143b6565b6114d5565b3480156105a457600080fd5b5061031061156d565b3480156105b957600080fd5b5060408051808201825260028152612b1960f11b6020820152905161031a9190614977565b3480156105ea57600080fd5b50610310611620565b3480156105ff57600080fd5b5061061361060e366004614451565b611631565b60405161031a91906149e1565b34801561062c57600080fd5b5061031061063b366004614451565b61175c565b34801561064c57600080fd5b5061039161065b3660046143b6565b611769565b34801561066c57600080fd5b5061068061067b3660046143b6565b611783565b60405161031a9190614a5b565b34801561069957600080fd5b506106ad6106a8366004614a6e565b61190f565b60405161031a929190614aa3565b3480156106c757600080fd5b506105376106d6366004614a6e565b6119a3565b3480156106e757600080fd5b506106fb6106f63660046145b6565b611a2b565b60405161031a9190614b3f565b34801561071457600080fd5b50610310610723366004614421565b611ab4565b34801561073457600080fd5b506103106107433660046143b6565b611acc565b34801561075457600080fd5b50610768610763366004614b52565b611ad9565b604051901515815260200161031a565b34801561078457600080fd5b50610310610793366004614451565b611b7a565b3480156107a457600080fd5b506102ee6107b3366004614b80565b611b87565b3480156107c457600080fd5b506102ee6107d33660046143b6565b611dac565b3480156107e457600080fd5b5060a3546001600160a01b03165b6040516001600160a01b03909116815260200161031a565b34801561081657600080fd5b5061082a610825366004614a6e565b61216a565b60405161031a929190614b92565b34801561084457600080fd5b506103916121f2565b34801561085957600080fd5b506102ee610868366004614574565b6121fe565b34801561087957600080fd5b50610310612288565b34801561088e57600080fd5b5061031061089d366004614c15565b612294565b3480156108ae57600080fd5b506103106108bd366004614b52565b61247a565b3480156108ce57600080fd5b506105376108dd366004614a6e565b61249c565b3480156108ee57600080fd5b506102ee6108fd366004614451565b6124df565b34801561090e57600080fd5b506098546001600160a01b03166107f2565b34801561092c57600080fd5b506102ee61093b366004614c9d565b612594565b34801561094c57600080fd5b506102ee61095b366004614cdc565b612627565b34801561096c57600080fd5b506107f261097b366004614451565b612a51565b34801561098c57600080fd5b506109a061099b3660046143b6565b612a82565b60405161031a9190614d27565b3480156109b957600080fd5b506103106109c8366004614451565b612cb3565b3480156109d957600080fd5b5061082a6109e8366004614d3a565b612cc0565b806109f960a982612d21565b600082815260ad602052604090206005015482906001600160a01b0316336001600160a01b031614610a3e57604051636523fa7f60e11b815260040160405180910390fd5b600083815260ad60205260409020610a5590612d5a565b60405183907f62c9649045e00f9c2e96e4e578db9430301ac82a17718531f90e97e6a69202e490600090a2505050565b6000610a976060840160408501614451565b6001600160a01b0316336001600160a01b031614610ac857604051635f4ecea960e11b815260040160405180910390fd5b604051630199f13960e01b815273__$e5879ada6f69714d7fc0d88dbcc568b31e$__90630199f13990610b0890869060989060a99060a390600401614dd8565b60006040518083038186803b158015610b2057600080fd5b505af4158015610b34573d6000803e3d6000fd5b50505050610b4983610b433390565b84612d96565b600080610b768535610b616040880160208901614451565b610b716060890160408a01614451565b613092565b91509150600042905060006040518060c0016040528084815260200185815260200188600001358152602001886040016020810190610bb59190614451565b6001600160a01b0316815263ffffffff84166020820152604001610bdf60808a0160608b01614e02565b610be99085614e35565b63ffffffff16905260405163a3f3af0760e01b815290915060009073__$e5879ada6f69714d7fc0d88dbcc568b31e$__9063a3f3af0790610c319060b0908690600401614e5d565b602060405180830381865af4158015610c4e573d6000803e3d6000fd5b505050506040513d601f19601f82011682018060405250810190610c729190614ed3565b60a08301518935600090815260ad60205260409020919250610c949190613236565b73__$e5879ada6f69714d7fc0d88dbcc568b31e$__63c017140260b0610cc060608c0160408d01614451565b8860026040518563ffffffff1660e01b8152600401610ce29493929190614eec565b60006040518083038186803b158015610cfa57600080fd5b505af4158015610d0e573d6000803e3d6000fd5b50505050816040015182606001516001600160a01b0316827f76f9ffd08d0be80de00e3be8630a8aef939934c79fec4eedfb31e823e3be27bf856000015186608001518760a00151604051610d6593929190614f10565b60405180910390a49450505050505b92915050565b60405163ab5d399360e01b815260b060048201526001600160a01b03821660248201526044810183905260009073__$e5879ada6f69714d7fc0d88dbcc568b31e$__9063ab5d399390606401602060405180830381865af4158015610de3573d6000803e3d6000fd5b505050506040513d601f19601f82011682018060405250810190610e079190614ed3565b9392505050565b6001600160a01b0381166000908152609d60205260409020606090610d749061327e565b610e6b6040518060c001604052806000815260200160008152602001600081526020016000815260200160008152602001600081525090565b604051630199f13960e01b815273__$e5879ada6f69714d7fc0d88dbcc568b31e$__90630199f13990610eab90859060989060a99060a390600401614dd8565b60006040518083038186803b158015610ec357600080fd5b505af4158015610ed7573d6000803e3d6000fd5b5050609e54604051639dd6945b60e01b815273__$e5879ada6f69714d7fc0d88dbcc568b31e$__9350639dd6945b9250610f2891869160989160a99160a3916001600160a01b031690600401614f40565b60c060405180830381865af4158015610f45573d6000803e3d6000fd5b505050506040513d601f19601f82011682018060405250810190610d749190614f7c565b80610f748133613363565b6001600160a01b038216600090815260a860205260409020610f95906133e1565b6040516001600160a01b038316907f2a08260ffc9feb9cd743cb3dd526a959666260abda15ed904061f3babce487ba90600090a25050565b6097546001600160a01b03166001600160a01b03166312d9a6ad6000336040516001600160e01b031960e085901b16815260048101929092526001600160a01b0316602482015260440160006040518083038186803b15801561102f57600080fd5b505afa158015611043573d6000803e3d6000fd5b50506098805461ffff60a01b1916600160a01b61ffff8616908102919091179091556040519081527f1b1669b1469af2b2bb8295fdaf1c1ff4cd9d41c56dc31e80d6c67e05854f9e209250602001905060405180910390a150565b60405163029d842960e21b815260009073__$e5879ada6f69714d7fc0d88dbcc568b31e$__90630a7610a4906110db9060b090869060040161509a565b602060405180830381865af41580156110f8573d6000803e3d6000fd5b505050506040513d601f19601f82011682018060405250810190610d7491906150b3565b6001600160a01b037f000000000000000000000000000000000000000000000000000000000000000016300361116d5760405162461bcd60e51b8152600401611164906150d4565b60405180910390fd5b7f00000000000000000000000000000000000000000000000000000000000000006001600160a01b03166111b6600080516020615d03833981519152546001600160a01b031690565b6001600160a01b0316146111dc5760405162461bcd60e51b815260040161116490615120565b6111e581613417565b604080516000808252602082019092526112019183919061348d565b50565b6000610d7460a9836135f8565b8061121d60a982612d21565b600082815260ad602052604090206005015482906001600160a01b0316336001600160a01b03161461126257604051636523fa7f60e11b815260040160405180910390fd5b600083815260ad6020908152604091829020600581018054600160e81b60ff60e81b19821617918290559351600160c01b90910463ffffffff16815290926001600160a01b03169186917fc0c0619fe5bf378f25472067afca13995576b95e1351cefa4bce7c45929abe27910160405180910390a350505050565b336000908152609d602052604090206112f89084848461361b565b505050565b6000610d74609983613693565b604051631d823e1d60e21b815260a960048201526024810183905260448101829052606090819073__$23c70d15f703c3ae387c840540427b8a00$__90637608f87490606401600060405180830381865af415801561136d573d6000803e3d6000fd5b505050506040513d6000823e601f3d908101601f19168201604052611395919081019061530a565b915091505b9250929050565b6001600160a01b037f00000000000000000000000000000000000000000000000000000000000000001630036113e95760405162461bcd60e51b8152600401611164906150d4565b7f00000000000000000000000000000000000000000000000000000000000000006001600160a01b0316611432600080516020615d03833981519152546001600160a01b031690565b6001600160a01b0316146114585760405162461bcd60e51b815260040161116490615120565b61146182613417565b61146d8282600161348d565b5050565b8061147c8133613363565b6001600160a01b038216600090815260a86020526040902061149d906136a9565b6040516001600160a01b038316907f1eaf28a93e1ad5dabb8e3983d0abb01359e7eafa0982af55e81d715704d25f4e90600090a25050565b806114e160a982612d21565b600082815260ad602052604090206005015482906001600160a01b0316336001600160a01b03161461152657604051636523fa7f60e11b815260040160405180910390fd5b600083815260ad6020526040902061153d906136db565b60405183907fccf05f4102545965ec08932c92c4db5980b2c27c5fc913e64756615f59e8e68990600090a2505050565b6000306001600160a01b037f0000000000000000000000000000000000000000000000000000000000000000161461160d5760405162461bcd60e51b815260206004820152603860248201527f555550535570677261646561626c653a206d757374206e6f742062652063616c60448201527f6c6564207468726f7567682064656c656761746563616c6c00000000000000006064820152608401611164565b50600080516020615d0383398151915290565b600061162c609f61371e565b905090565b6040805160a081018252600080825260208201819052606092820183905291810182905260808101919091528161166960a38261372c565b6001600160a01b03808416600090815260a86020908152604091829020825160a08101845281548516815260018201549094169184019190915260028101805491928401916116b7906154a4565b80601f01602080910402602001604051908101604052809291908181526020018280546116e3906154a4565b80156117305780601f1061170557610100808354040283529160200191611730565b820191906000526020600020905b81548152906001019060200180831161171357829003601f168201915b50505091835250506003820154602082015260049091015460ff16151560409091015291505b50919050565b6000610d7460a98361375e565b6000818152609c60205260409020606090610d749061327e565b6040805161014081018252600061010082018181526060610120840181905260c0840191825260e08401839052908352602083018290529282018190529181018290526080810182905260a0810191909152600082815260b160205260409081902081516101408101909252805460e01b6001600160e01b0319166101008301908152600182018054849260c0840192859284929184916101208801919061182a906154a4565b80601f0160208091040260200160405190810160405280929190818152602001828054611856906154a4565b80156118a35780601f10611878576101008083540402835291602001916118a3565b820191906000526020600020905b81548152906001019060200180831161188657829003601f168201915b50505091909252505050815260029190910154602091820152908252600383015490820152600482015460408201526005909101546001600160a01b038116606083015263ffffffff600160a01b820481166080840152600160c01b9091041660a09091015292915050565b604051634cf7b3fb60e01b8152606090819073__$e5879ada6f69714d7fc0d88dbcc568b31e$__90634cf7b3fb906119529060b090899089908990600401614eec565b600060405180830381865af415801561196f573d6000803e3d6000fd5b505050506040513d6000823e601f3d908101601f1916820160405261199791908101906154d8565b91509150935093915050565b60405163f7596f9960e01b8152606090819073__$23c70d15f703c3ae387c840540427b8a00$__9063f7596f99906119e69060a990899089908990600401614eec565b600060405180830381865af4158015611a03573d6000803e3d6000fd5b505050506040513d6000823e601f3d908101601f19168201604052611997919081019061530a565b6040516376946fcf60e01b8152609f6004820152602481018390526044810182905260609073__$48805a21cd2d79ca776bf2c16e4893ad10$__906376946fcf90606401600060405180830381865af4158015611a8c573d6000803e3d6000fd5b505050506040513d6000823e601f3d908101601f19168201604052610e079190810190615686565b6000828152609c60205260408120610e079083613693565b6000610d7460a383613781565b600082611ae760a38261372c565b609e546001600160a01b03858116600090815260a860205260409081902060030154905163c8cb083f60e01b81526004810191909152858216602482015291169063c8cb083f90604401602060405180830381865afa158015611b4e573d6000803e3d6000fd5b505050506040513d601f19601f82011682018060405250810190611b7291906156ba565b949350505050565b6000610d7460b08361379a565b600054610100900460ff16611ba25760005460ff1615611ba6565b303b155b611c095760405162461bcd60e51b815260206004820152602e60248201527f496e697469616c697a61626c653a20636f6e747261637420697320616c72656160448201526d191e481a5b9a5d1a585b1a5e995960921b6064820152608401611164565b600054610100900460ff16158015611c2b576000805461ffff19166101011790555b611c336137bd565b611c4360a0830160808401614451565b609780546001600160a01b0319166001600160a01b03929092169190911790556040805180820190915280611c7e60c0850160a08601614451565b6001600160a01b03168152602001611c9c60e0850160c086016144e2565b61ffff908116909152815160988054602094850151909316600160a01b026001600160b01b03199093166001600160a01b0390921691909117919091179055611ce790830183614451565b60a380546001600160a01b0319166001600160a01b0392909216919091179055611d176040830160208401614451565b609f80546001600160a01b0319166001600160a01b0392909216919091179055611d476060830160408401614451565b60aa80546001600160a01b0319166001600160a01b0392909216919091179055611d776080830160608401614451565b609e80546001600160a01b0319166001600160a01b0392909216919091179055801561146d576000805461ff00191690555050565b600081815260ad602052604090206005015481906001600160a01b0316336001600160a01b031614611df157604051636523fa7f60e11b815260040160405180910390fd5b600082815260ad602052604080822081516101808101909252805460e01b6001600160e01b031916610140830190815260018201805484926101008401928592849291849161016088019190611e46906154a4565b80601f0160208091040260200160405190810160405280929190818152602001828054611e72906154a4565b8015611ebf5780601f10611e9457610100808354040283529160200191611ebf565b820191906000526020600020905b815481529060010190602001808311611ea257829003601f168201915b50505050508152505081526020016002820154815250508152602001600382016040518060400160405290816000820160009054906101000a900460e01b6001600160e01b0319166001600160e01b0319168152602001600182018054611f25906154a4565b80601f0160208091040260200160405190810160405280929190818152602001828054611f51906154a4565b8015611f9e5780601f10611f7357610100808354040283529160200191611f9e565b820191906000526020600020905b815481529060010190602001808311611f8157829003601f168201915b505050919092525050508152600591909101546001600160a01b038116602083015263ffffffff600160a01b820481166040840152600160c01b82048116606084015260ff600160e01b830481161515608080860191909152600160e81b84048216151560a0860152600160f01b90930416151560c0909301929092528201519192509081164290911610156120475760405163dcfbeafb60e01b815260040160405180910390fd5b604051633598a33560e21b815260a960048201526024810184905273__$23c70d15f703c3ae387c840540427b8a00$__9063d6628cd49060440160006040518083038186803b15801561209957600080fd5b505af41580156120ad573d6000803e3d6000fd5b5050825160405163221efb0360e11b815273__$48805a21cd2d79ca776bf2c16e4893ad10$__935063443df60692506120eb91609f916004016156d7565b60006040518083038186803b15801561210357600080fd5b505af4158015612117573d6000803e3d6000fd5b5050505080604001516001600160a01b0316837f1e5a15ab85db192d73c1e02de45c46144e19ffe3bd2ece777303173365ecb9b3836000015160405161215d91906156f0565b60405180910390a3505050565b604051632277a89360e11b8152606090819073__$f390c19a6588bf1782f680f4e6750cf906$__906344ef5126906121ad9060a390899089908990600401614eec565b600060405180830381865af41580156121ca573d6000803e3d6000fd5b505050506040513d6000823e601f3d908101601f191682016040526119979190810190615703565b606061162c609961327e565b6097546001600160a01b03166001600160a01b03166312d9a6ad6000336040516001600160e01b031960e085901b16815260048101929092526001600160a01b0316602482015260440160006040518083038186803b15801561226057600080fd5b505afa158015612274573d6000803e3d6000fd5b506112f8925060999150859050848461361b565b600061162c60a961382a565b60006122b26122aa6122a5876158ab565b613838565b60a390613856565b6122ca6122c260208601866158fb565b60a990613888565b604051631daa22cf60e11b815273__$48805a21cd2d79ca776bf2c16e4893ad10$__90633b54459e9061230690609f9089903390600401615918565b60006040518083038186803b15801561231e57600080fd5b505af4158015612332573d6000803e3d6000fd5b5050505060006040518061010001604052808761234e906158ab565b815260200161235c87615973565b8152602001336001600160a01b0316815263ffffffff861660208201526000604080830182905286151560608401526080830182905260a09092018190529051637bc13e0160e01b81529192509073__$23c70d15f703c3ae387c840540427b8a00$__90637bc13e01906123d79060a990869060040161597f565b602060405180830381865af41580156123f4573d6000803e3d6000fd5b505050506040513d601f19601f820116820180604052508101906124189190614ed3565b905081604001516001600160a01b0316817f2aeb4abaf0fe7ca83b75bc43cd2fb6c99366bc042383e06da11e1a268b47d8ce84600001518560200151866060015160405161246893929190615a30565b60405180910390a39695505050505050565b6001600160a01b0382166000908152609d60205260408120610e079083613693565b6040516337c5f58760e11b8152606090819073__$23c70d15f703c3ae387c840540427b8a00$__90636f8beb0e906119e69060a990899089908990600401614eec565b806124ea8133613363565b604051635e327ed560e01b815260a360048201526001600160a01b038316602482015273__$f390c19a6588bf1782f680f4e6750cf906$__90635e327ed59060440160006040518083038186803b15801561254457600080fd5b505af4158015612558573d6000803e3d6000fd5b50506040516001600160a01b03851692507f752612ff761620ec780457bda227d89213d24d8914934d4e45c16bcb4d2b158c9150600090a25050565b609e5484906001600160a01b0316637dc330dc82336040516001600160e01b031960e085901b16815260048101929092526001600160a01b0316602482015260440160006040518083038186803b1580156125ee57600080fd5b505afa158015612602573d6000803e3d6000fd5b5050506000868152609c60205260409020612620915085858561361b565b5050505050565b609e546020820135906001600160a01b0316637dc330dc82336040516001600160e01b031960e085901b16815260048101929092526001600160a01b0316602482015260440160006040518083038186803b15801561268557600080fd5b505afa158015612699573d6000803e3d6000fd5b505050506001600160a01b0383163b15806126cb57506126c96001600160a01b038416630b3888fd60e31b61391a565b155b156126ec5760405160016217fc1360e31b0319815260040160405180910390fd5b6000836001600160a01b031663e846a5a96040518163ffffffff1660e01b8152600401602060405180830381865afa15801561272c573d6000803e3d6000fd5b505050506040513d601f19601f820116820180604052508101906127509190615a6c565b905061275d609f82613936565b6000846001600160a01b0316635a70a2836040518163ffffffff1660e01b8152600401602060405180830381865afa15801561279d573d6000803e3d6000fd5b505050506040513d601f19601f820116820180604052508101906127c19190615a89565b90506001600160a01b03811630146127fd57604051630391492160e41b81526001600160a01b0382166004820152306024820152604401611164565b600061280a609f846139c5565b90506000866001600160a01b031663f46c73c66040518163ffffffff1660e01b8152600401602060405180830381865afa15801561284c573d6000803e3d6000fd5b505050506040513d601f19601f820116820180604052508101906128709190615a89565b6040805160a0810182526001600160a01b0380841682528516602082015291925073__$f390c19a6588bf1782f680f4e6750cf906$__9163c73a080a9160a3918b9181016128be8c80615aa6565b8080601f01602080910402602001604051908101604052809392919081815260200183838082843760009201919091525050509082525060208c810135908201526040908101906129159060608e01908e01615aec565b15158152506040518463ffffffff1660e01b815260040161293893929190615b09565b60006040518083038186803b15801561295057600080fd5b505af4158015612964573d6000803e3d6000fd5b5050505061297c81609f613a4090919063ffffffff16565b612a0357604051635fbd140f60e01b8152609f60048201526001600160e01b0319851660248201526001600160a01b038216604482015273__$48805a21cd2d79ca776bf2c16e4893ad10$__90635fbd140f9060640160006040518083038186803b1580156129ea57600080fd5b505af41580156129fe573d6000803e3d6000fd5b505050505b806001600160a01b0316876001600160a01b031687602001357fa14bdeeb833f4488ecf5ee14fc30ccd266c23a9a363fc328eb7df0bb6af7ed6860405160405180910390a450505050505050565b600081612a5f60a38261372c565b50506001600160a01b03908116600090815260a860205260409020600101541690565b612a8a614329565b600082815260ad60205260409081902081516101808101909252805460e01b6001600160e01b031916610140830190815260018201805484926101008401928592849291849161016088019190612ae0906154a4565b80601f0160208091040260200160405190810160405280929190818152602001828054612b0c906154a4565b8015612b595780601f10612b2e57610100808354040283529160200191612b59565b820191906000526020600020905b815481529060010190602001808311612b3c57829003601f168201915b50505050508152505081526020016002820154815250508152602001600382016040518060400160405290816000820160009054906101000a900460e01b6001600160e01b0319166001600160e01b0319168152602001600182018054612bbf906154a4565b80601f0160208091040260200160405190810160405280929190818152602001828054612beb906154a4565b8015612c385780601f10612c0d57610100808354040283529160200191612c38565b820191906000526020600020905b815481529060010190602001808311612c1b57829003601f168201915b505050919092525050508152600591909101546001600160a01b038116602083015263ffffffff600160a01b820481166040840152600160c01b820416606083015260ff600160e01b8204811615156080840152600160e81b82048116151560a0840152600160f01b90910416151560c09091015292915050565b6000610d7460a383613a4f565b60405163ef6c202d60e01b815260a36004820152602481018490526044810183905260648101829052606090819073__$f390c19a6588bf1782f680f4e6750cf906$__9063ef6c202d906084016121ad565b6001600160a01b03163b151590565b60008181526004830160205260409020612d3a90613a72565b61146d5760405163068bb67560e51b815260048101829052602401611164565b6005810154600160f01b900460ff16612d865760405163b42960fd60e01b815260040160405180910390fd5b600501805460ff60f01b19169055565b609e54604051639dd6945b60e01b815260009173__$e5879ada6f69714d7fc0d88dbcc568b31e$__91639dd6945b91612de891889160989160a99160a3916001600160a01b0390911690600401614f40565b60c060405180830381865af4158015612e05573d6000803e3d6000fd5b505050506040513d601f19601f82011682018060405250810190612e299190614f7c565b90506000612e3d60a0860160808701614451565b90508282600001511115612e6457604051631d5a07f360e21b815260040160405180910390fd5b8435600090815260ad602052604080822060608501519185015190918391612e8c9190615b77565b60058301549091506001600160a01b03811690600160e01b900460ff1615612ec857612ec36001600160a01b038616898385613a9f565b612ef8565b6001600160a01b0381166000908152609d60205260409020612eeb908684613b10565b612ef58285615b77565b93505b600060a881612f0d60408d0160208e01614451565b6001600160a01b03166001600160a01b0316815260200190815260200160002060030154905060008760a001518860800151612f499190615b77565b6000838152609c60205260409020909150612f65908883613b10565b612f6f8187615b77565b6020890151909650612f85906099908990613b10565b6020880151612f949087615b77565b9550612fab6001600160a01b0388168b3089613a9f565b6001600160a01b0387166000846001600160a01b03167fbf41aad4c3074058a613f4e88cea850e86e57d902b608bb02fb715b64929a40f87604051612ff291815260200190565b60405180910390a4866001600160a01b0316827fd0d3e2b6da184374c29ef6b5894d81d6a59fb7e85ee392823a4f18bcfb6c40bd8360405161303691815260200190565b60405180910390a3866001600160a01b03167f89b3c2ca51e9018064501bde534fc91ebacdce4784a91350b4e0759fc6f286fc896020015160405161307d91815260200190565b60405180910390a25050505050505050505050565b604080516080810182526000918101828152606080830152815260208101829052600085815260ad60205260408082208151608081018352815460e01b6001600160e01b03191692810192835260018201805491938492909184916060850191906130fc906154a4565b80601f0160208091040260200160405190810160405280929190818152602001828054613128906154a4565b80156131755780601f1061314a57610100808354040283529160200191613175565b820191906000526020600020905b81548152906001019060200180831161315857829003601f168201915b505050919092525050508152600291909101546020918201526001600160a01b03808816600090815260a890925260409182902060010154915192935016906132159063c95eb64d60e01b906131d39085908a908a90602401615b8f565b60408051601f198184030181529190526020810180516001600160e01b03166001600160e01b0319909316929092179091526001600160a01b03831690613b34565b8060200190518101906132289190615bc2565b909890975095505050505050565b600582015463ffffffff808316600160c01b9092041610613255575050565b6005909101805463ffffffff909216600160c01b0263ffffffff60c01b19909216919091179055565b6060600061328b83613b59565b90506000816001600160401b038111156132a7576132a76147d6565b6040519080825280602002602001820160405280156132ec57816020015b60408051808201909152600080825260208201528152602001906001900390816132c55790505b50905060005b8281101561335b576000806133078784613b64565b915091506040518060400160405280836001600160a01b031681526020018281525084848151811061333b5761333b615bfe565b60200260200101819052505050808061335390615c14565b9150506132f2565b509392505050565b609e546001600160a01b03838116600090815260a8602052604090819020600301549051631f70cc3760e21b815260048101919091528382166024820152911690637dc330dc9060440160006040518083038186803b1580156133c557600080fd5b505afa1580156133d9573d6000803e3d6000fd5b505050505050565b600481015460ff16156134075760405163651c69e160e01b815260040160405180910390fd5b600401805460ff19166001179055565b6097546001600160a01b03166001600160a01b03166312d9a6ad6000336040516001600160e01b031960e085901b16815260048101929092526001600160a01b0316602482015260440160006040518083038186803b15801561347957600080fd5b505afa158015612620573d6000803e3d6000fd5b7f4910fdfa16fed3260ed0e7147f7cc6da11a60208b5b9406d12a635614ffd91435460ff16156134c0576112f883613b80565b826001600160a01b03166352d1902d6040518163ffffffff1660e01b8152600401602060405180830381865afa92505050801561351a575060408051601f3d908101601f1916820190925261351791810190614ed3565b60015b61357d5760405162461bcd60e51b815260206004820152602e60248201527f45524331393637557067726164653a206e657720696d706c656d656e7461746960448201526d6f6e206973206e6f74205555505360901b6064820152608401611164565b600080516020615d0383398151915281146135ec5760405162461bcd60e51b815260206004820152602960248201527f45524331393637557067726164653a20756e737570706f727465642070726f786044820152681a58589b195555525160ba1b6064820152608401611164565b506112f8838383613c1c565b6001600160a01b03811660009081526005830160205260408120610e0790613c41565b8160000361363f576040516305a4a8e760e01b815260048101839052602401611164565b600061364b8585613693565b90508083111561367157604051639266535160e01b815260048101829052602401611164565b61367e8585858403613c4b565b506126206001600160a01b0385168385613c61565b6000806136a08484613c91565b95945050505050565b600481015460ff166136ce57604051633587233b60e11b815260040160405180910390fd5b600401805460ff19169055565b6005810154600160f01b900460ff161561370857604051637892dcf360e01b815260040160405180910390fd5b600501805460ff60f01b1916600160f01b179055565b6000610d7482600101613c41565b6137368282613a40565b61146d57604051634f59bc1f60e11b81526001600160a01b0382166004820152602401611164565b6001600160a01b03811660009081526006830160205260408120610e0790613c41565b60008181526003830160205260408120610e0790613c41565b6001600160a01b03811660009081526002830160205260408120610e0790613c41565b600054610100900460ff166138285760405162461bcd60e51b815260206004820152602b60248201527f496e697469616c697a61626c653a20636f6e7472616374206973206e6f74206960448201526a6e697469616c697a696e6760a81b6064820152608401611164565b565b6000610d7482600201613c41565b6000816000015160200151806020019051810190610d749190615a89565b6138608282613ca9565b61146d5760405163ee84f40b60e01b81526001600160a01b0382166004820152602401611164565b6001820154604051631582016d60e01b81526001600160a01b0390911690631582016d906138ba908490600401615c2d565b602060405180830381865afa1580156138d7573d6000803e3d6000fd5b505050506040513d601f19601f820116820180604052508101906138fb91906156ba565b61146d57806040516380f3229160e01b81526004016111649190615c2d565b600061392583613cd6565b8015610e075750610e078383613d09565b81546040516303de1a5960e51b81526001600160a01b0390911690637bc34b2090613965908490600401615c2d565b602060405180830381865afa158015613982573d6000803e3d6000fd5b505050506040513d601f19601f820116820180604052508101906139a691906156ba565b61146d578060405163191e817360e21b81526004016111649190615c2d565b8154604051630b42144760e41b81526000916001600160a01b03169063b4214470906139f5908590600401615c2d565b6040805180830381865afa158015613a11573d6000803e3d6000fd5b505050506040513d601f19601f82011682018060405250810190613a359190615c42565b602001519392505050565b6000610e076001840183613dfa565b6001600160a01b03811660009081526004830160205260408120610e0790613c41565b60058101546000906001600160a01b031615801590610d7457505060050154600160e81b900460ff161590565b6040516001600160a01b0380851660248301528316604482015260648101829052613b0a9085906323b872dd60e01b906084015b60408051601f198184030181529190526020810180516001600160e01b03166001600160e01b031990931692909217909152613e1c565b50505050565b6000613b1c8484613693565b905061262083613b2c8484615b77565b869190613c4b565b6060610e078383604051806060016040528060278152602001615d2360279139613eee565b6000610d7482613f82565b6000808080613b738686613f8d565b9097909650945050505050565b6001600160a01b0381163b613bed5760405162461bcd60e51b815260206004820152602d60248201527f455243313936373a206e657720696d706c656d656e746174696f6e206973206e60448201526c1bdd08184818dbdb9d1c9858dd609a1b6064820152608401611164565b600080516020615d0383398151915280546001600160a01b0319166001600160a01b0392909216919091179055565b613c2583613fb8565b600082511180613c325750805b156112f857613b0a8383613ff8565b6000610d74825490565b6000611b72846001600160a01b038516846140a4565b6040516001600160a01b0383166024820152604481018290526112f890849063a9059cbb60e01b90606401613ad3565b6000808080613b73866001600160a01b0387166140c1565b6001600160a01b038116600090815260048301602052604081208190613cce90613c41565b119392505050565b6000613ce9826301ffc9a760e01b613d09565b8015610d745750613d02826001600160e01b0319613d09565b1592915050565b6000806301ffc9a760e01b83604051602401613d259190615c2d565b604051602081830303815290604052906001600160e01b0319166020820180516001600160e01b0383818316178352505050509050600080856001600160a01b031661753084604051613d789190615ca0565b6000604051808303818686fa925050503d8060008114613db4576040519150601f19603f3d011682016040523d82523d6000602084013e613db9565b606091505b5091509150602081511015613dd45760009350505050610d74565b818015613df0575080806020019051810190613df091906156ba565b9695505050505050565b6001600160a01b03811660009081526001830160205260408120541515610e07565b6000613e71826040518060400160405280602081526020017f5361666545524332303a206c6f772d6c6576656c2063616c6c206661696c6564815250856001600160a01b03166140fb9092919063ffffffff16565b8051909150156112f85780806020019051810190613e8f91906156ba565b6112f85760405162461bcd60e51b815260206004820152602a60248201527f5361666545524332303a204552433230206f7065726174696f6e20646964206e6044820152691bdd081cdd58d8d9595960b21b6064820152608401611164565b60606001600160a01b0384163b613f175760405162461bcd60e51b815260040161116490615cbc565b600080856001600160a01b031685604051613f329190615ca0565b600060405180830381855af49150503d8060008114613f6d576040519150601f19603f3d011682016040523d82523d6000602084013e613f72565b606091505b5091509150613df082828661410a565b6000610d7482613c41565b60008080613f9b8585614143565b600081815260029690960160205260409095205494959350505050565b613fc181613b80565b6040516001600160a01b038216907fbc7cd75a20ee27fd9adebab32041f755214dbc6bffa90cc0225b39da2e5c2d3b90600090a250565b60606001600160a01b0383163b6140215760405162461bcd60e51b815260040161116490615cbc565b600080846001600160a01b03168460405161403c9190615ca0565b600060405180830381855af49150503d8060008114614077576040519150601f19603f3d011682016040523d82523d6000602084013e61407c565b606091505b50915091506136a08282604051806060016040528060278152602001615d236027913961410a565b60008281526002840160205260408120829055611b72848461414f565b60008181526002830160205260408120548190806140f0576140e3858561415b565b92506000915061139a9050565b60019250905061139a565b6060611b728484600085614167565b60608315614119575081610e07565b8251156141295782518084602001fd5b8160405162461bcd60e51b81526004016111649190614977565b6000610e078383614298565b6000610e0783836142c2565b6000610e078383614311565b6060824710156141c85760405162461bcd60e51b815260206004820152602660248201527f416464726573733a20696e73756666696369656e742062616c616e636520666f6044820152651c8818d85b1b60d21b6064820152608401611164565b6001600160a01b0385163b61421f5760405162461bcd60e51b815260206004820152601d60248201527f416464726573733a2063616c6c20746f206e6f6e2d636f6e74726163740000006044820152606401611164565b600080866001600160a01b0316858760405161423b9190615ca0565b60006040518083038185875af1925050503d8060008114614278576040519150601f19603f3d011682016040523d82523d6000602084013e61427d565b606091505b509150915061428d82828661410a565b979650505050505050565b60008260000182815481106142af576142af615bfe565b9060005260206000200154905092915050565b600081815260018301602052604081205461430957508154600181810184556000848152602080822090930184905584548482528286019093526040902091909155610d74565b506000610d74565b60008181526001830160205260408120541515610e07565b604080516101808101909152600061014082018181526060610160840152610100830190815261012083019190915281908152602001614386604051806040016040528060006001600160e01b0319168152602001606081525090565b815260006020820181905260408201819052606082018190526080820181905260a0820181905260c09091015290565b6000602082840312156143c857600080fd5b5035919050565b600060a0828403121561175657600080fd5b60008060c083850312156143f457600080fd5b6143fe84846143cf565b9460a0939093013593505050565b6001600160a01b038116811461120157600080fd5b6000806040838503121561443457600080fd5b8235915060208301356144468161440c565b809150509250929050565b60006020828403121561446357600080fd5b8135610e078161440c565b602080825282518282018190526000919060409081850190868401855b828110156144b957815180516001600160a01b0316855286015186850152928401929085019060010161448b565b5091979650505050505050565b600060a082840312156144d857600080fd5b610e0783836143cf565b6000602082840312156144f457600080fd5b813561ffff81168114610e0757600080fd5b60006040828403121561175657600080fd5b60006020828403121561452a57600080fd5b81356001600160401b0381111561454057600080fd5b611b7284828501614506565b602081016003831061456e57634e487b7160e01b600052602160045260246000fd5b91905290565b60008060006060848603121561458957600080fd5b83356145948161440c565b92506020840135915060408401356145ab8161440c565b809150509250925092565b600080604083850312156145c957600080fd5b50508035926020909101359150565b600081518084526020808501945080840160005b83811015614608578151875295820195908201906001016145ec565b509495945050505050565b60005b8381101561462e578181015183820152602001614616565b83811115613b0a5750506000910152565b60008151808452614657816020860160208601614613565b601f01601f19169290920160200192915050565b63ffffffff60e01b81511682526000602082015160406020850152611b72604085018261463f565b60008151604084526146a8604085018261466b565b602093840151949093019390935250919050565b600061010082518185526146d282860182614693565b915050602083015184820360208601526146ec828261466b565b91505060018060a01b03604084015116604085015263ffffffff60608401511660608501526080830151614728608086018263ffffffff169052565b5060a083015161473c60a086018215159052565b5060c083015161475060c086018215159052565b5060e083015161335b60e086018215159052565b60408152600061477760408301856145d8565b6020838203818501528185518084528284019150828160051b85010183880160005b838110156147c757601f198784030185526147b58383516146bc565b94860194925090850190600101614799565b50909998505050505050505050565b634e487b7160e01b600052604160045260246000fd5b604080519081016001600160401b038111828210171561480e5761480e6147d6565b60405290565b60405161010081016001600160401b038111828210171561480e5761480e6147d6565b60405160c081016001600160401b038111828210171561480e5761480e6147d6565b60405160a081016001600160401b038111828210171561480e5761480e6147d6565b604051601f8201601f191681016001600160401b03811182821017156148a3576148a36147d6565b604052919050565b60006001600160401b038211156148c4576148c46147d6565b50601f01601f191660200190565b600082601f8301126148e357600080fd5b81356148f66148f1826148ab565b61487b565b81815284602083860101111561490b57600080fd5b816020850160208301376000918101602001919091529392505050565b6000806040838503121561493b57600080fd5b82356149468161440c565b915060208301356001600160401b0381111561496157600080fd5b61496d858286016148d2565b9150509250929050565b602081526000610e07602083018461463f565b600060018060a01b0380835116845280602084015116602085015250604082015160a060408501526149bf60a085018261463f565b9050606083015160608501526080830151151560808501528091505092915050565b602081526000610e07602083018461498a565b6000815160c08452614a0960c0850182614693565b9050602083015160208501526040830151604085015260018060a01b036060840151166060850152608083015163ffffffff80821660808701528060a08601511660a087015250508091505092915050565b602081526000610e0760208301846149f4565b600080600060608486031215614a8357600080fd5b8335614a8e8161440c565b95602085013595506040909401359392505050565b604081526000614ab660408301856145d8565b6020838203818501528185518084528284019150828160051b85010183880160005b838110156147c757601f19878403018552614af48383516149f4565b94860194925090850190600101614ad8565b600081518084526020808501945080840160005b838110156146085781516001600160a01b031687529582019590820190600101614b1a565b602081526000610e076020830184614b06565b60008060408385031215614b6557600080fd5b8235614b708161440c565b915060208301356144468161440c565b600060e0828403121561175657600080fd5b604081526000614ba56040830185614b06565b6020838203818501528185518084528284019150828160051b85010183880160005b838110156147c757601f19878403018552614be383835161498a565b94860194925090850190600101614bc7565b63ffffffff8116811461120157600080fd5b801515811461120157600080fd5b60008060008060808587031215614c2b57600080fd5b84356001600160401b0380821115614c4257600080fd5b614c4e88838901614506565b95506020870135915080821115614c6457600080fd5b50614c7187828801614506565b9350506040850135614c8281614bf5565b91506060850135614c9281614c07565b939692955090935050565b60008060008060808587031215614cb357600080fd5b843593506020850135614cc58161440c565b9250604085013591506060850135614c928161440c565b60008060408385031215614cef57600080fd5b8235614cfa8161440c565b915060208301356001600160401b03811115614d1557600080fd5b83016060818603121561444657600080fd5b602081526000610e0760208301846146bc565b600080600060608486031215614d4f57600080fd5b505081359360208301359350604090920135919050565b803582526020810135614d788161440c565b6001600160a01b039081166020840152604082013590614d978261440c565b9081166040840152606082013590614dae82614bf5565b63ffffffff8216606085015260808301359150614dca8261440c565b808216608085015250505050565b6101008101614de78287614d66565b8460a08301528360c08301528260e083015295945050505050565b600060208284031215614e1457600080fd5b8135610e0781614bf5565b634e487b7160e01b600052601160045260246000fd5b600063ffffffff808316818516808303821115614e5457614e54614e1f565b01949350505050565b828152604060208201526000825160c06040840152614e80610100840182614693565b9050602084015160608401526040840151608084015260018060a01b0360608501511660a0840152608084015163ffffffff80821660c08601528060a08701511660e08601525050809150509392505050565b600060208284031215614ee557600080fd5b5051919050565b9384526001600160a01b039290921660208401526040830152606082015260800190565b606081526000614f236060830186614693565b63ffffffff94851660208401529290931660409091015292915050565b6101208101614f4f8288614d66565b60a082019590955260c081019390935260e08301919091526001600160a01b031661010090910152919050565b600060c08284031215614f8e57600080fd5b60405160c081018181106001600160401b0382111715614fb057614fb06147d6565b8060405250825181526020830151602082015260408301516040820152606083015160608201526080830151608082015260a083015160a08201528091505092915050565b6001600160e01b03198116811461120157600080fd5b6000813561501881614ff5565b6001600160e01b0319168352602082013536839003601e1901811261503c57600080fd5b820180356001600160401b0381111561505457600080fd5b80360384131561506357600080fd5b60406020860152806040860152806020830160608701376000606082870101526060601f19601f8301168601019250505092915050565b828152604060208201526000611b72604083018461500b565b6000602082840312156150c557600080fd5b815160038110610e0757600080fd5b6020808252602c908201527f46756e6374696f6e206d7573742062652063616c6c6564207468726f7567682060408201526b19195b1959d85d1958d85b1b60a21b606082015260800190565b6020808252602c908201527f46756e6374696f6e206d7573742062652063616c6c6564207468726f7567682060408201526b6163746976652070726f787960a01b606082015260800190565b60006001600160401b03821115615185576151856147d6565b5060051b60200190565b600082601f8301126151a057600080fd5b815160206151b06148f18361516c565b82815260059290921b840181019181810190868411156151cf57600080fd5b8286015b848110156151ea57805183529183019183016151d3565b509695505050505050565b60006152036148f1846148ab565b905082815283838301111561521757600080fd5b610e07836020830184614613565b60006040828403121561523757600080fd5b61523f6147ec565b9050815161524c81614ff5565b815260208201516001600160401b0381111561526757600080fd5b8201601f8101841361527857600080fd5b615287848251602084016151f5565b60208301525092915050565b6000604082840312156152a557600080fd5b6152ad6147ec565b905081516001600160401b038111156152c557600080fd5b6152d184828501615225565b8252506020820151602082015292915050565b80516152ef8161440c565b919050565b80516152ef81614bf5565b80516152ef81614c07565b6000806040838503121561531d57600080fd5b82516001600160401b038082111561533457600080fd5b6153408683870161518f565b935060209150818501518181111561535757600080fd5b8501601f8101871361536857600080fd5b80516153766148f18261516c565b81815260059190911b8201840190848101908983111561539557600080fd5b8584015b83811015615493578051868111156153b15760008081fd5b8501610100818d03601f19018113156153ca5760008081fd5b6153d2614814565b89830151898111156153e45760008081fd5b6153f28f8c83870101615293565b8252506040830151898111156154085760008081fd5b6154168f8c83870101615225565b8b8301525060606154288185016152e4565b6040830152608061543a8186016152f4565b8284015260a0915061544d8286016152f4565b9083015260c061545e8582016152ff565b8284015260e091506154718286016152ff565b908301526154808484016152ff565b9082015285525050918601918601615399565b508096505050505050509250929050565b600181811c908216806154b857607f821691505b60208210810361175657634e487b7160e01b600052602260045260246000fd5b600080604083850312156154eb57600080fd5b82516001600160401b038082111561550257600080fd5b61550e8683870161518f565b935060209150818501518181111561552557600080fd5b8501601f8101871361553657600080fd5b80516155446148f18261516c565b81815260059190911b8201840190848101908983111561556357600080fd5b8584015b838110156154935780518681111561557f5760008081fd5b850160c0818d03601f19018113156155975760008081fd5b61559f614837565b89830151898111156155b15760008081fd5b6155bf8f8c83870101615293565b82525060408301518a82015260608084015160408301526080808501516155e58161440c565b80838501525060a09150818501516155fc81614bf5565b90830152928201519261560e84614bf5565b810192909252508352918601918601615567565b600082601f83011261563357600080fd5b815160206156436148f18361516c565b82815260059290921b8401810191818101908684111561566257600080fd5b8286015b848110156151ea5780516156798161440c565b8352918301918301615666565b60006020828403121561569857600080fd5b81516001600160401b038111156156ae57600080fd5b611b7284828501615622565b6000602082840312156156cc57600080fd5b8151610e0781614c07565b828152604060208201526000611b726040830184614693565b602081526000610e076020830184614693565b600080604080848603121561571757600080fd5b83516001600160401b038082111561572e57600080fd5b61573a87838801615622565b945060209150818601518181111561575157600080fd5b8601601f8101881361576257600080fd5b80516157706148f18261516c565b81815260059190911b8201840190848101908a83111561578f57600080fd5b8584015b8381101561584b578051868111156157aa57600080fd5b850160a0818e03601f190112156157c057600080fd5b6157c8614859565b888201516157d58161440c565b8152818a01516157e48161440c565b818a01526060820151888111156157fb5760008081fd5b8201603f81018f1361580d5760008081fd5b61581d8f8b8301518d84016151f5565b8b83015250608080830151606083015261583960a084016152ff565b90820152845250918601918601615793565b50809750505050505050509250929050565b60006040828403121561586f57600080fd5b6158776147ec565b9050813561588481614ff5565b815260208201356001600160401b0381111561589f57600080fd5b615287848285016148d2565b6000604082360312156158bd57600080fd5b6158c56147ec565b82356001600160401b038111156158db57600080fd5b6158e73682860161585d565b825250602092830135928101929092525090565b60006020828403121561590d57600080fd5b8135610e0781614ff5565b8381526060602082015260008335603e1985360301811261593857600080fd5b6040606084015261594e60a0840186830161500b565b60209590950135608084015250506001600160a01b0391909116604090910152919050565b6000610d74368361585d565b82815260406020820152600082516101008060408501526159a4610140850183614693565b91506020850151603f198584030160608601526159c1838261466b565b60408701516001600160a01b03166080870152606087015163ffffffff811660a0880152909350905050608085015163ffffffff811660c08601525060a085015180151560e08601525060c085015180151585830152505060e084015180151561012085015250949350505050565b606081526000615a436060830186614693565b8281036020840152615a55818661466b565b91505063ffffffff83166040830152949350505050565b600060208284031215615a7e57600080fd5b8151610e0781614ff5565b600060208284031215615a9b57600080fd5b8151610e078161440c565b6000808335601e19843603018112615abd57600080fd5b8301803591506001600160401b03821115615ad757600080fd5b60200191503681900382131561139a57600080fd5b600060208284031215615afe57600080fd5b8135610e0781614c07565b838152600060018060a01b0380851660208401526060604084015280845116606084015280602085015116608084015250604083015160a080840152615b5361010084018261463f565b9050606084015160c08401526080840151151560e084015280915050949350505050565b60008219821115615b8a57615b8a614e1f565b500190565b606081526000615ba26060830186614693565b6001600160a01b0394851660208401529290931660409091015292915050565b60008060408385031215615bd557600080fd5b8251915060208301516001600160401b03811115615bf257600080fd5b61496d85828601615293565b634e487b7160e01b600052603260045260246000fd5b600060018201615c2657615c26614e1f565b5060010190565b6001600160e01b031991909116815260200190565b600060408284031215615c5457600080fd5b604051604081018181106001600160401b0382111715615c7657615c766147d6565b6040528251615c848161440c565b81526020830151615c948161440c565b60208201529392505050565b60008251615cb2818460208701614613565b9190910192915050565b60208082526026908201527f416464726573733a2064656c65676174652063616c6c20746f206e6f6e2d636f6040820152651b9d1c9858dd60d21b60608201526080019056fe360894a13ba1a3210667c828492db98dca3e2076cc3735a920a3ca505d382bbc416464726573733a206c6f772d6c6576656c2064656c65676174652063616c6c206661696c6564a26469706673582212200342f06579adc677c668e49551cf3805a699816b9bca12c211fa1d01432182e264736f6c634300080d0033",
  "linkReferences": {
    "contracts/asset/Assets.sol": {
      "Assets": [
        {
          "length": 20,
          "start": 7065
        },
        {
          "length": 20,
          "start": 8711
        },
        {
          "length": 20,
          "start": 9248
        },
        {
          "length": 20,
          "start": 11004
        }
      ]
    },
    "contracts/listing/Listings.sol": {
      "Listings": [
        {
          "length": 20,
          "start": 5242
        },
        {
          "length": 20,
          "start": 6910
        },
        {
          "length": 20,
          "start": 8619
        },
        {
          "length": 20,
          "start": 9459
        },
        {
          "length": 20,
          "start": 9719
        }
      ]
    },
    "contracts/renting/Rentings.sol": {
      "Rentings": [
        {
          "length": 20,
          "start": 3102
        },
        {
          "length": 20,
          "start": 3405
        },
        {
          "length": 20,
          "start": 3549
        },
        {
          "length": 20,
          "start": 3824
        },
        {
          "length": 20,
          "start": 4033
        },
        {
          "length": 20,
          "start": 4146
        },
        {
          "length": 20,
          "start": 4599
        },
        {
          "length": 20,
          "start": 6762
        },
        {
          "length": 20,
          "start": 12018
        }
      ]
    },
    "contracts/warper/Warpers.sol": {
      "Warpers": [
        {
          "length": 20,
          "start": 8901
        },
        {
          "length": 20,
          "start": 9814
        },
        {
          "length": 20,
          "start": 10714
        },
        {
          "length": 20,
          "start": 11831
        }
      ]
    }
  },
  "deployedLinkReferences": {
    "contracts/asset/Assets.sol": {
      "Assets": [
        {
          "length": 20,
          "start": 6738
        },
        {
          "length": 20,
          "start": 8384
        },
        {
          "length": 20,
          "start": 8921
        },
        {
          "length": 20,
          "start": 10677
        }
      ]
    },
    "contracts/listing/Listings.sol": {
      "Listings": [
        {
          "length": 20,
          "start": 4915
        },
        {
          "length": 20,
          "start": 6583
        },
        {
          "length": 20,
          "start": 8292
        },
        {
          "length": 20,
          "start": 9132
        },
        {
          "length": 20,
          "start": 9392
        }
      ]
    },
    "contracts/renting/Rentings.sol": {
      "Rentings": [
        {
          "length": 20,
          "start": 2775
        },
        {
          "length": 20,
          "start": 3078
        },
        {
          "length": 20,
          "start": 3222
        },
        {
          "length": 20,
          "start": 3497
        },
        {
          "length": 20,
          "start": 3706
        },
        {
          "length": 20,
          "start": 3819
        },
        {
          "length": 20,
          "start": 4272
        },
        {
          "length": 20,
          "start": 6435
        },
        {
          "length": 20,
          "start": 11691
        }
      ]
    },
    "contracts/warper/Warpers.sol": {
      "Warpers": [
        {
          "length": 20,
          "start": 8574
        },
        {
          "length": 20,
          "start": 9487
        },
        {
          "length": 20,
          "start": 10387
        },
        {
          "length": 20,
          "start": 11504
        }
      ]
    }
  }
}