{
  "_format": "hh-sol-artifact-1",
  "contractName": "Metahub",
  "sourceName": "contracts/metahub/Metahub.sol",
  "abi": [
    {
      "inputs": [],
      "stateMutability": "nonpayable",
      "type": "constructor"
    },
    {
      "inputs": [],
      "name": "AssetIsLocked",
      "type": "error"
    },
    {
      "inputs": [],
      "name": "CallerIsNotAssetLister",
      "type": "error"
    },
    {
      "inputs": [],
      "name": "CallerIsNotRenter",
      "type": "error"
    },
    {
      "inputs": [
        {
          "internalType": "uint256",
          "name": "balance",
          "type": "uint256"
        }
      ],
      "name": "InsufficientBalance",
      "type": "error"
    },
    {
      "inputs": [],
      "name": "InvalidWarperInterface",
      "type": "error"
    },
    {
      "inputs": [
        {
          "internalType": "uint256",
          "name": "amount",
          "type": "uint256"
        }
      ],
      "name": "InvalidWithdrawalAmount",
      "type": "error"
    },
    {
      "inputs": [],
      "name": "ListingIsNotPaused",
      "type": "error"
    },
    {
      "inputs": [],
      "name": "ListingIsPaused",
      "type": "error"
    },
    {
      "inputs": [
        {
          "internalType": "uint256",
          "name": "listingId",
          "type": "uint256"
        }
      ],
      "name": "NotListed",
      "type": "error"
    },
    {
      "inputs": [],
      "name": "RentalFeeSlippage",
      "type": "error"
    },
    {
      "inputs": [
        {
          "internalType": "address",
          "name": "asset",
          "type": "address"
        }
      ],
      "name": "UnsupportedAsset",
      "type": "error"
    },
    {
      "inputs": [
        {
          "internalType": "bytes4",
          "name": "assetClass",
          "type": "bytes4"
        }
      ],
      "name": "UnsupportedAssetClass",
      "type": "error"
    },
    {
      "inputs": [
        {
          "internalType": "bytes4",
          "name": "strategyId",
          "type": "bytes4"
        }
      ],
      "name": "UnsupportedListingStrategy",
      "type": "error"
    },
    {
      "inputs": [
        {
          "internalType": "address",
          "name": "provided",
          "type": "address"
        },
        {
          "internalType": "address",
          "name": "required",
          "type": "address"
        }
      ],
      "name": "WarperHasIncorrectMetahubReference",
      "type": "error"
    },
    {
      "inputs": [],
      "name": "WarperIsNotPaused",
      "type": "error"
    },
    {
      "inputs": [
        {
          "internalType": "address",
          "name": "warper",
          "type": "address"
        }
      ],
      "name": "WarperIsNotRegistered",
      "type": "error"
    },
    {
      "inputs": [],
      "name": "WarperIsPaused",
      "type": "error"
    },
    {
      "anonymous": false,
      "inputs": [
        {
          "indexed": false,
          "internalType": "address",
          "name": "previousAdmin",
          "type": "address"
        },
        {
          "indexed": false,
          "internalType": "address",
          "name": "newAdmin",
          "type": "address"
        }
      ],
      "name": "AdminChanged",
      "type": "event"
    },
    {
      "anonymous": false,
      "inputs": [
        {
          "indexed": true,
          "internalType": "uint256",
          "name": "listingId",
          "type": "uint256"
        },
        {
          "indexed": true,
          "internalType": "address",
          "name": "lister",
          "type": "address"
        },
        {
          "indexed": false,
          "internalType": "uint32",
          "name": "unlocksAt",
          "type": "uint32"
        }
      ],
      "name": "AssetDelisted",
      "type": "event"
    },
    {
      "anonymous": false,
      "inputs": [
        {
          "indexed": true,
          "internalType": "uint256",
          "name": "listingId",
          "type": "uint256"
        },
        {
          "indexed": true,
          "internalType": "address",
          "name": "lister",
          "type": "address"
        },
        {
          "components": [
            {
              "components": [
                {
                  "internalType": "bytes4",
                  "name": "class",
                  "type": "bytes4"
                },
                {
                  "internalType": "bytes",
                  "name": "data",
                  "type": "bytes"
                }
              ],
              "internalType": "struct Assets.AssetId",
              "name": "id",
              "type": "tuple"
            },
            {
              "internalType": "uint256",
              "name": "value",
              "type": "uint256"
            }
          ],
          "indexed": false,
          "internalType": "struct Assets.Asset",
          "name": "asset",
          "type": "tuple"
        },
        {
          "components": [
            {
              "internalType": "bytes4",
              "name": "strategy",
              "type": "bytes4"
            },
            {
              "internalType": "bytes",
              "name": "data",
              "type": "bytes"
            }
          ],
          "indexed": false,
          "internalType": "struct Listings.Params",
          "name": "params",
          "type": "tuple"
        },
        {
          "indexed": false,
          "internalType": "uint32",
          "name": "maxLockPeriod",
          "type": "uint32"
        }
      ],
      "name": "AssetListed",
      "type": "event"
    },
    {
      "anonymous": false,
      "inputs": [
        {
          "indexed": true,
          "internalType": "uint256",
          "name": "rentalId",
          "type": "uint256"
        },
        {
          "indexed": true,
          "internalType": "address",
          "name": "renter",
          "type": "address"
        },
        {
          "indexed": true,
          "internalType": "uint256",
          "name": "listingId",
          "type": "uint256"
        },
        {
          "components": [
            {
              "components": [
                {
                  "internalType": "bytes4",
                  "name": "class",
                  "type": "bytes4"
                },
                {
                  "internalType": "bytes",
                  "name": "data",
                  "type": "bytes"
                }
              ],
              "internalType": "struct Assets.AssetId",
              "name": "id",
              "type": "tuple"
            },
            {
              "internalType": "uint256",
              "name": "value",
              "type": "uint256"
            }
          ],
          "indexed": false,
          "internalType": "struct Assets.Asset",
          "name": "warpedAsset",
          "type": "tuple"
        },
        {
          "indexed": false,
          "internalType": "uint32",
          "name": "startTime",
          "type": "uint32"
        },
        {
          "indexed": false,
          "internalType": "uint32",
          "name": "endTime",
          "type": "uint32"
        }
      ],
      "name": "AssetRented",
      "type": "event"
    },
    {
      "anonymous": false,
      "inputs": [
        {
          "indexed": true,
          "internalType": "uint256",
          "name": "listingId",
          "type": "uint256"
        },
        {
          "indexed": true,
          "internalType": "address",
          "name": "lister",
          "type": "address"
        },
        {
          "components": [
            {
              "components": [
                {
                  "internalType": "bytes4",
                  "name": "class",
                  "type": "bytes4"
                },
                {
                  "internalType": "bytes",
                  "name": "data",
                  "type": "bytes"
                }
              ],
              "internalType": "struct Assets.AssetId",
              "name": "id",
              "type": "tuple"
            },
            {
              "internalType": "uint256",
              "name": "value",
              "type": "uint256"
            }
          ],
          "indexed": false,
          "internalType": "struct Assets.Asset",
          "name": "asset",
          "type": "tuple"
        }
      ],
      "name": "AssetWithdrawn",
      "type": "event"
    },
    {
      "anonymous": false,
      "inputs": [
        {
          "indexed": true,
          "internalType": "address",
          "name": "beacon",
          "type": "address"
        }
      ],
      "name": "BeaconUpgraded",
      "type": "event"
    },
    {
      "anonymous": false,
      "inputs": [
        {
          "indexed": true,
          "internalType": "uint256",
          "name": "listingId",
          "type": "uint256"
        }
      ],
      "name": "ListingPaused",
      "type": "event"
    },
    {
      "anonymous": false,
      "inputs": [
        {
          "indexed": true,
          "internalType": "uint256",
          "name": "listingId",
          "type": "uint256"
        }
      ],
      "name": "ListingUnpaused",
      "type": "event"
    },
    {
      "anonymous": false,
      "inputs": [
        {
          "indexed": false,
          "internalType": "uint16",
          "name": "rentalFeePercent",
          "type": "uint16"
        }
      ],
      "name": "ProtocolRentalFeeChanged",
      "type": "event"
    },
    {
      "anonymous": false,
      "inputs": [
        {
          "indexed": true,
          "internalType": "address",
          "name": "implementation",
          "type": "address"
        }
      ],
      "name": "Upgraded",
      "type": "event"
    },
    {
      "anonymous": false,
      "inputs": [
        {
          "indexed": true,
          "internalType": "address",
          "name": "warper",
          "type": "address"
        }
      ],
      "name": "WarperDeregistered",
      "type": "event"
    },
    {
      "anonymous": false,
      "inputs": [
        {
          "indexed": true,
          "internalType": "address",
          "name": "warper",
          "type": "address"
        }
      ],
      "name": "WarperPaused",
      "type": "event"
    },
    {
      "anonymous": false,
      "inputs": [
        {
          "indexed": true,
          "internalType": "uint256",
          "name": "universeId",
          "type": "uint256"
        },
        {
          "indexed": true,
          "internalType": "address",
          "name": "warper",
          "type": "address"
        },
        {
          "indexed": true,
          "internalType": "address",
          "name": "original",
          "type": "address"
        }
      ],
      "name": "WarperRegistered",
      "type": "event"
    },
    {
      "anonymous": false,
      "inputs": [
        {
          "indexed": true,
          "internalType": "address",
          "name": "warper",
          "type": "address"
        }
      ],
      "name": "WarperUnpaused",
      "type": "event"
    },
    {
      "inputs": [
        {
          "components": [
            {
              "internalType": "bytes4",
              "name": "class",
              "type": "bytes4"
            },
            {
              "internalType": "bytes",
              "name": "data",
              "type": "bytes"
            }
          ],
          "internalType": "struct Assets.AssetId",
          "name": "warpedAssetId",
          "type": "tuple"
        }
      ],
      "name": "assetRentalStatus",
      "outputs": [
        {
          "internalType": "enum Rentings.RentalStatus",
          "name": "",
          "type": "uint8"
        }
      ],
      "stateMutability": "view",
      "type": "function"
    },
    {
      "inputs": [
        {
          "internalType": "address",
          "name": "original",
          "type": "address"
        }
      ],
      "name": "assetWarperCount",
      "outputs": [
        {
          "internalType": "uint256",
          "name": "",
          "type": "uint256"
        }
      ],
      "stateMutability": "view",
      "type": "function"
    },
    {
      "inputs": [
        {
          "internalType": "address",
          "name": "original",
          "type": "address"
        },
        {
          "internalType": "uint256",
          "name": "offset",
          "type": "uint256"
        },
        {
          "internalType": "uint256",
          "name": "limit",
          "type": "uint256"
        }
      ],
      "name": "assetWarpers",
      "outputs": [
        {
          "internalType": "address[]",
          "name": "",
          "type": "address[]"
        },
        {
          "components": [
            {
              "internalType": "address",
              "name": "original",
              "type": "address"
            },
            {
              "internalType": "contract IWarperController",
              "name": "controller",
              "type": "address"
            },
            {
              "internalType": "string",
              "name": "name",
              "type": "string"
            },
            {
              "internalType": "uint256",
              "name": "universeId",
              "type": "uint256"
            },
            {
              "internalType": "bool",
              "name": "paused",
              "type": "bool"
            }
          ],
          "internalType": "struct Warpers.Warper[]",
          "name": "",
          "type": "tuple[]"
        }
      ],
      "stateMutability": "view",
      "type": "function"
    },
    {
      "inputs": [
        {
          "internalType": "address",
          "name": "token",
          "type": "address"
        }
      ],
      "name": "balance",
      "outputs": [
        {
          "internalType": "uint256",
          "name": "",
          "type": "uint256"
        }
      ],
      "stateMutability": "view",
      "type": "function"
    },
    {
      "inputs": [],
      "name": "balances",
      "outputs": [
        {
          "components": [
            {
              "internalType": "address",
              "name": "token",
              "type": "address"
            },
            {
              "internalType": "uint256",
              "name": "amount",
              "type": "uint256"
            }
          ],
          "internalType": "struct Accounts.Balance[]",
          "name": "",
          "type": "tuple[]"
        }
      ],
      "stateMutability": "view",
      "type": "function"
    },
    {
      "inputs": [],
      "name": "baseToken",
      "outputs": [
        {
          "internalType": "address",
          "name": "",
          "type": "address"
        }
      ],
      "stateMutability": "view",
      "type": "function"
    },
    {
      "inputs": [
        {
          "internalType": "bytes32",
          "name": "warpedCollectionId",
          "type": "bytes32"
        },
        {
          "internalType": "address",
          "name": "renter",
          "type": "address"
        }
      ],
      "name": "collectionRentedValue",
      "outputs": [
        {
          "internalType": "uint256",
          "name": "",
          "type": "uint256"
        }
      ],
      "stateMutability": "view",
      "type": "function"
    },
    {
      "inputs": [
        {
          "internalType": "uint256",
          "name": "listingId",
          "type": "uint256"
        }
      ],
      "name": "delistAsset",
      "outputs": [],
      "stateMutability": "nonpayable",
      "type": "function"
    },
    {
      "inputs": [
        {
          "internalType": "address",
          "name": "warper",
          "type": "address"
        }
      ],
      "name": "deregisterWarper",
      "outputs": [],
      "stateMutability": "nonpayable",
      "type": "function"
    },
    {
      "inputs": [
        {
          "components": [
            {
              "internalType": "uint256",
              "name": "listingId",
              "type": "uint256"
            },
            {
              "internalType": "address",
              "name": "warper",
              "type": "address"
            },
            {
              "internalType": "address",
              "name": "renter",
              "type": "address"
            },
            {
              "internalType": "uint32",
              "name": "rentalPeriod",
              "type": "uint32"
            },
            {
              "internalType": "address",
              "name": "paymentToken",
              "type": "address"
            }
          ],
          "internalType": "struct Rentings.Params",
          "name": "rentingParams",
          "type": "tuple"
        }
      ],
      "name": "estimateRent",
      "outputs": [
        {
          "components": [
            {
              "internalType": "uint256",
              "name": "total",
              "type": "uint256"
            },
            {
              "internalType": "uint256",
              "name": "protocolFee",
              "type": "uint256"
            },
            {
              "internalType": "uint256",
              "name": "listerBaseFee",
              "type": "uint256"
            },
            {
              "internalType": "uint256",
              "name": "listerPremium",
              "type": "uint256"
            },
            {
              "internalType": "uint256",
              "name": "universeBaseFee",
              "type": "uint256"
            },
            {
              "internalType": "uint256",
              "name": "universePremium",
              "type": "uint256"
            }
          ],
          "internalType": "struct Rentings.RentalFees",
          "name": "",
          "type": "tuple"
        }
      ],
      "stateMutability": "view",
      "type": "function"
    },
    {
      "inputs": [
        {
          "components": [
            {
              "internalType": "contract IWarperPresetFactory",
              "name": "warperPresetFactory",
              "type": "address"
            },
            {
              "internalType": "contract IAssetClassRegistry",
              "name": "assetClassRegistry",
              "type": "address"
            },
            {
              "internalType": "contract IListingStrategyRegistry",
              "name": "listingStrategyRegistry",
              "type": "address"
            },
            {
              "internalType": "contract IUniverseRegistry",
              "name": "universeRegistry",
              "type": "address"
            },
            {
              "internalType": "contract IACL",
              "name": "acl",
              "type": "address"
            },
            {
              "internalType": "contract IERC20Upgradeable",
              "name": "baseToken",
              "type": "address"
            },
            {
              "internalType": "uint16",
              "name": "rentalFeePercent",
              "type": "uint16"
            }
          ],
          "internalType": "struct Metahub.MetahubInitParams",
          "name": "params",
          "type": "tuple"
        }
      ],
      "name": "initialize",
      "outputs": [],
      "stateMutability": "nonpayable",
      "type": "function"
    },
    {
      "inputs": [
        {
          "internalType": "address",
          "name": "warper",
          "type": "address"
        },
        {
          "internalType": "address",
          "name": "account",
          "type": "address"
        }
      ],
      "name": "isWarperAdmin",
      "outputs": [
        {
          "internalType": "bool",
          "name": "",
          "type": "bool"
        }
      ],
      "stateMutability": "view",
      "type": "function"
    },
    {
      "inputs": [
        {
          "components": [
            {
              "components": [
                {
                  "internalType": "bytes4",
                  "name": "class",
                  "type": "bytes4"
                },
                {
                  "internalType": "bytes",
                  "name": "data",
                  "type": "bytes"
                }
              ],
              "internalType": "struct Assets.AssetId",
              "name": "id",
              "type": "tuple"
            },
            {
              "internalType": "uint256",
              "name": "value",
              "type": "uint256"
            }
          ],
          "internalType": "struct Assets.Asset",
          "name": "asset",
          "type": "tuple"
        },
        {
          "components": [
            {
              "internalType": "bytes4",
              "name": "strategy",
              "type": "bytes4"
            },
            {
              "internalType": "bytes",
              "name": "data",
              "type": "bytes"
            }
          ],
          "internalType": "struct Listings.Params",
          "name": "params",
          "type": "tuple"
        },
        {
          "internalType": "uint32",
          "name": "maxLockPeriod",
          "type": "uint32"
        },
        {
          "internalType": "bool",
          "name": "immediatePayout",
          "type": "bool"
        }
      ],
      "name": "listAsset",
      "outputs": [
        {
          "internalType": "uint256",
          "name": "",
          "type": "uint256"
        }
      ],
      "stateMutability": "nonpayable",
      "type": "function"
    },
    {
      "inputs": [],
      "name": "listingCount",
      "outputs": [
        {
          "internalType": "uint256",
          "name": "",
          "type": "uint256"
        }
      ],
      "stateMutability": "view",
      "type": "function"
    },
    {
      "inputs": [
        {
          "internalType": "uint256",
          "name": "listingId",
          "type": "uint256"
        }
      ],
      "name": "listingInfo",
      "outputs": [
        {
          "components": [
            {
              "components": [
                {
                  "components": [
                    {
                      "internalType": "bytes4",
                      "name": "class",
                      "type": "bytes4"
                    },
                    {
                      "internalType": "bytes",
                      "name": "data",
                      "type": "bytes"
                    }
                  ],
                  "internalType": "struct Assets.AssetId",
                  "name": "id",
                  "type": "tuple"
                },
                {
                  "internalType": "uint256",
                  "name": "value",
                  "type": "uint256"
                }
              ],
              "internalType": "struct Assets.Asset",
              "name": "asset",
              "type": "tuple"
            },
            {
              "components": [
                {
                  "internalType": "bytes4",
                  "name": "strategy",
                  "type": "bytes4"
                },
                {
                  "internalType": "bytes",
                  "name": "data",
                  "type": "bytes"
                }
              ],
              "internalType": "struct Listings.Params",
              "name": "params",
              "type": "tuple"
            },
            {
              "internalType": "address",
              "name": "lister",
              "type": "address"
            },
            {
              "internalType": "uint32",
              "name": "maxLockPeriod",
              "type": "uint32"
            },
            {
              "internalType": "uint32",
              "name": "lockedTill",
              "type": "uint32"
            },
            {
              "internalType": "bool",
              "name": "immediatePayout",
              "type": "bool"
            },
            {
              "internalType": "bool",
              "name": "delisted",
              "type": "bool"
            },
            {
              "internalType": "bool",
              "name": "paused",
              "type": "bool"
            }
          ],
          "internalType": "struct Listings.Listing",
          "name": "",
          "type": "tuple"
        }
      ],
      "stateMutability": "view",
      "type": "function"
    },
    {
      "inputs": [
        {
          "internalType": "uint256",
          "name": "offset",
          "type": "uint256"
        },
        {
          "internalType": "uint256",
          "name": "limit",
          "type": "uint256"
        }
      ],
      "name": "listings",
      "outputs": [
        {
          "internalType": "uint256[]",
          "name": "",
          "type": "uint256[]"
        },
        {
          "components": [
            {
              "components": [
                {
                  "components": [
                    {
                      "internalType": "bytes4",
                      "name": "class",
                      "type": "bytes4"
                    },
                    {
                      "internalType": "bytes",
                      "name": "data",
                      "type": "bytes"
                    }
                  ],
                  "internalType": "struct Assets.AssetId",
                  "name": "id",
                  "type": "tuple"
                },
                {
                  "internalType": "uint256",
                  "name": "value",
                  "type": "uint256"
                }
              ],
              "internalType": "struct Assets.Asset",
              "name": "asset",
              "type": "tuple"
            },
            {
              "components": [
                {
                  "internalType": "bytes4",
                  "name": "strategy",
                  "type": "bytes4"
                },
                {
                  "internalType": "bytes",
                  "name": "data",
                  "type": "bytes"
                }
              ],
              "internalType": "struct Listings.Params",
              "name": "params",
              "type": "tuple"
            },
            {
              "internalType": "address",
              "name": "lister",
              "type": "address"
            },
            {
              "internalType": "uint32",
              "name": "maxLockPeriod",
              "type": "uint32"
            },
            {
              "internalType": "uint32",
              "name": "lockedTill",
              "type": "uint32"
            },
            {
              "internalType": "bool",
              "name": "immediatePayout",
              "type": "bool"
            },
            {
              "internalType": "bool",
              "name": "delisted",
              "type": "bool"
            },
            {
              "internalType": "bool",
              "name": "paused",
              "type": "bool"
            }
          ],
          "internalType": "struct Listings.Listing[]",
          "name": "",
          "type": "tuple[]"
        }
      ],
      "stateMutability": "view",
      "type": "function"
    },
    {
      "inputs": [
        {
          "internalType": "uint256",
          "name": "listingId",
          "type": "uint256"
        }
      ],
      "name": "pauseListing",
      "outputs": [],
      "stateMutability": "nonpayable",
      "type": "function"
    },
    {
      "inputs": [
        {
          "internalType": "address",
          "name": "warper",
          "type": "address"
        }
      ],
      "name": "pauseWarper",
      "outputs": [],
      "stateMutability": "nonpayable",
      "type": "function"
    },
    {
      "inputs": [
        {
          "internalType": "address",
          "name": "token",
          "type": "address"
        }
      ],
      "name": "protocolBalance",
      "outputs": [
        {
          "internalType": "uint256",
          "name": "",
          "type": "uint256"
        }
      ],
      "stateMutability": "view",
      "type": "function"
    },
    {
      "inputs": [],
      "name": "protocolBalances",
      "outputs": [
        {
          "components": [
            {
              "internalType": "address",
              "name": "token",
              "type": "address"
            },
            {
              "internalType": "uint256",
              "name": "amount",
              "type": "uint256"
            }
          ],
          "internalType": "struct Accounts.Balance[]",
          "name": "",
          "type": "tuple[]"
        }
      ],
      "stateMutability": "view",
      "type": "function"
    },
    {
      "inputs": [],
      "name": "protocolRentalFeePercent",
      "outputs": [
        {
          "internalType": "uint16",
          "name": "",
          "type": "uint16"
        }
      ],
      "stateMutability": "view",
      "type": "function"
    },
    {
      "inputs": [],
      "name": "proxiableUUID",
      "outputs": [
        {
          "internalType": "bytes32",
          "name": "",
          "type": "bytes32"
        }
      ],
      "stateMutability": "view",
      "type": "function"
    },
    {
      "inputs": [
        {
          "internalType": "address",
          "name": "warper",
          "type": "address"
        },
        {
          "components": [
            {
              "internalType": "string",
              "name": "name",
              "type": "string"
            },
            {
              "internalType": "uint256",
              "name": "universeId",
              "type": "uint256"
            },
            {
              "internalType": "bool",
              "name": "paused",
              "type": "bool"
            }
          ],
          "internalType": "struct IWarperManager.WarperRegistrationParams",
          "name": "params",
          "type": "tuple"
        }
      ],
      "name": "registerWarper",
      "outputs": [],
      "stateMutability": "nonpayable",
      "type": "function"
    },
    {
      "inputs": [
        {
          "components": [
            {
              "internalType": "uint256",
              "name": "listingId",
              "type": "uint256"
            },
            {
              "internalType": "address",
              "name": "warper",
              "type": "address"
            },
            {
              "internalType": "address",
              "name": "renter",
              "type": "address"
            },
            {
              "internalType": "uint32",
              "name": "rentalPeriod",
              "type": "uint32"
            },
            {
              "internalType": "address",
              "name": "paymentToken",
              "type": "address"
            }
          ],
          "internalType": "struct Rentings.Params",
          "name": "rentingParams",
          "type": "tuple"
        },
        {
          "internalType": "uint256",
          "name": "maxPaymentAmount",
          "type": "uint256"
        }
      ],
      "name": "rent",
      "outputs": [
        {
          "internalType": "uint256",
          "name": "",
          "type": "uint256"
        }
      ],
      "stateMutability": "nonpayable",
      "type": "function"
    },
    {
      "inputs": [
        {
          "internalType": "uint256",
          "name": "rentalId",
          "type": "uint256"
        }
      ],
      "name": "rentalAgreementInfo",
      "outputs": [
        {
          "components": [
            {
              "components": [
                {
                  "components": [
                    {
                      "internalType": "bytes4",
                      "name": "class",
                      "type": "bytes4"
                    },
                    {
                      "internalType": "bytes",
                      "name": "data",
                      "type": "bytes"
                    }
                  ],
                  "internalType": "struct Assets.AssetId",
                  "name": "id",
                  "type": "tuple"
                },
                {
                  "internalType": "uint256",
                  "name": "value",
                  "type": "uint256"
                }
              ],
              "internalType": "struct Assets.Asset",
              "name": "warpedAsset",
              "type": "tuple"
            },
            {
              "internalType": "bytes32",
              "name": "collectionId",
              "type": "bytes32"
            },
            {
              "internalType": "uint256",
              "name": "listingId",
              "type": "uint256"
            },
            {
              "internalType": "address",
              "name": "renter",
              "type": "address"
            },
            {
              "internalType": "uint32",
              "name": "startTime",
              "type": "uint32"
            },
            {
              "internalType": "uint32",
              "name": "endTime",
              "type": "uint32"
            }
          ],
          "internalType": "struct Rentings.Agreement",
          "name": "",
          "type": "tuple"
        }
      ],
      "stateMutability": "view",
      "type": "function"
    },
    {
      "inputs": [
        {
          "internalType": "uint16",
          "name": "rentalFeePercent",
          "type": "uint16"
        }
      ],
      "name": "setProtocolRentalFeePercent",
      "outputs": [],
      "stateMutability": "nonpayable",
      "type": "function"
    },
    {
      "inputs": [],
      "name": "supportedAssetCount",
      "outputs": [
        {
          "internalType": "uint256",
          "name": "",
          "type": "uint256"
        }
      ],
      "stateMutability": "view",
      "type": "function"
    },
    {
      "inputs": [
        {
          "internalType": "uint256",
          "name": "offset",
          "type": "uint256"
        },
        {
          "internalType": "uint256",
          "name": "limit",
          "type": "uint256"
        }
      ],
      "name": "supportedAssets",
      "outputs": [
        {
          "internalType": "address[]",
          "name": "",
          "type": "address[]"
        }
      ],
      "stateMutability": "view",
      "type": "function"
    },
    {
      "inputs": [
        {
          "internalType": "uint256",
          "name": "universeId",
          "type": "uint256"
        },
        {
          "internalType": "address",
          "name": "token",
          "type": "address"
        }
      ],
      "name": "universeBalance",
      "outputs": [
        {
          "internalType": "uint256",
          "name": "",
          "type": "uint256"
        }
      ],
      "stateMutability": "view",
      "type": "function"
    },
    {
      "inputs": [
        {
          "internalType": "uint256",
          "name": "universeId",
          "type": "uint256"
        }
      ],
      "name": "universeBalances",
      "outputs": [
        {
          "components": [
            {
              "internalType": "address",
              "name": "token",
              "type": "address"
            },
            {
              "internalType": "uint256",
              "name": "amount",
              "type": "uint256"
            }
          ],
          "internalType": "struct Accounts.Balance[]",
          "name": "",
          "type": "tuple[]"
        }
      ],
      "stateMutability": "view",
      "type": "function"
    },
    {
      "inputs": [
        {
          "internalType": "uint256",
          "name": "universeId",
          "type": "uint256"
        }
      ],
      "name": "universeWarperCount",
      "outputs": [
        {
          "internalType": "uint256",
          "name": "",
          "type": "uint256"
        }
      ],
      "stateMutability": "view",
      "type": "function"
    },
    {
      "inputs": [
        {
          "internalType": "uint256",
          "name": "universeId",
          "type": "uint256"
        },
        {
          "internalType": "uint256",
          "name": "offset",
          "type": "uint256"
        },
        {
          "internalType": "uint256",
          "name": "limit",
          "type": "uint256"
        }
      ],
      "name": "universeWarpers",
      "outputs": [
        {
          "internalType": "address[]",
          "name": "",
          "type": "address[]"
        },
        {
          "components": [
            {
              "internalType": "address",
              "name": "original",
              "type": "address"
            },
            {
              "internalType": "contract IWarperController",
              "name": "controller",
              "type": "address"
            },
            {
              "internalType": "string",
              "name": "name",
              "type": "string"
            },
            {
              "internalType": "uint256",
              "name": "universeId",
              "type": "uint256"
            },
            {
              "internalType": "bool",
              "name": "paused",
              "type": "bool"
            }
          ],
          "internalType": "struct Warpers.Warper[]",
          "name": "",
          "type": "tuple[]"
        }
      ],
      "stateMutability": "view",
      "type": "function"
    },
    {
      "inputs": [
        {
          "internalType": "uint256",
          "name": "listingId",
          "type": "uint256"
        }
      ],
      "name": "unpauseListing",
      "outputs": [],
      "stateMutability": "nonpayable",
      "type": "function"
    },
    {
      "inputs": [
        {
          "internalType": "address",
          "name": "warper",
          "type": "address"
        }
      ],
      "name": "unpauseWarper",
      "outputs": [],
      "stateMutability": "nonpayable",
      "type": "function"
    },
    {
      "inputs": [
        {
          "internalType": "address",
          "name": "newImplementation",
          "type": "address"
        }
      ],
      "name": "upgradeTo",
      "outputs": [],
      "stateMutability": "nonpayable",
      "type": "function"
    },
    {
      "inputs": [
        {
          "internalType": "address",
          "name": "newImplementation",
          "type": "address"
        },
        {
          "internalType": "bytes",
          "name": "data",
          "type": "bytes"
        }
      ],
      "name": "upgradeToAndCall",
      "outputs": [],
      "stateMutability": "payable",
      "type": "function"
    },
    {
      "inputs": [
        {
          "internalType": "address",
          "name": "lister",
          "type": "address"
        }
      ],
      "name": "userListingCount",
      "outputs": [
        {
          "internalType": "uint256",
          "name": "",
          "type": "uint256"
        }
      ],
      "stateMutability": "view",
      "type": "function"
    },
    {
      "inputs": [
        {
          "internalType": "address",
          "name": "lister",
          "type": "address"
        },
        {
          "internalType": "uint256",
          "name": "offset",
          "type": "uint256"
        },
        {
          "internalType": "uint256",
          "name": "limit",
          "type": "uint256"
        }
      ],
      "name": "userListings",
      "outputs": [
        {
          "internalType": "uint256[]",
          "name": "",
          "type": "uint256[]"
        },
        {
          "components": [
            {
              "components": [
                {
                  "components": [
                    {
                      "internalType": "bytes4",
                      "name": "class",
                      "type": "bytes4"
                    },
                    {
                      "internalType": "bytes",
                      "name": "data",
                      "type": "bytes"
                    }
                  ],
                  "internalType": "struct Assets.AssetId",
                  "name": "id",
                  "type": "tuple"
                },
                {
                  "internalType": "uint256",
                  "name": "value",
                  "type": "uint256"
                }
              ],
              "internalType": "struct Assets.Asset",
              "name": "asset",
              "type": "tuple"
            },
            {
              "components": [
                {
                  "internalType": "bytes4",
                  "name": "strategy",
                  "type": "bytes4"
                },
                {
                  "internalType": "bytes",
                  "name": "data",
                  "type": "bytes"
                }
              ],
              "internalType": "struct Listings.Params",
              "name": "params",
              "type": "tuple"
            },
            {
              "internalType": "address",
              "name": "lister",
              "type": "address"
            },
            {
              "internalType": "uint32",
              "name": "maxLockPeriod",
              "type": "uint32"
            },
            {
              "internalType": "uint32",
              "name": "lockedTill",
              "type": "uint32"
            },
            {
              "internalType": "bool",
              "name": "immediatePayout",
              "type": "bool"
            },
            {
              "internalType": "bool",
              "name": "delisted",
              "type": "bool"
            },
            {
              "internalType": "bool",
              "name": "paused",
              "type": "bool"
            }
          ],
          "internalType": "struct Listings.Listing[]",
          "name": "",
          "type": "tuple[]"
        }
      ],
      "stateMutability": "view",
      "type": "function"
    },
    {
      "inputs": [
        {
          "internalType": "address",
          "name": "renter",
          "type": "address"
        },
        {
          "internalType": "uint256",
          "name": "offset",
          "type": "uint256"
        },
        {
          "internalType": "uint256",
          "name": "limit",
          "type": "uint256"
        }
      ],
      "name": "userRentalAgreements",
      "outputs": [
        {
          "internalType": "uint256[]",
          "name": "",
          "type": "uint256[]"
        },
        {
          "components": [
            {
              "components": [
                {
                  "components": [
                    {
                      "internalType": "bytes4",
                      "name": "class",
                      "type": "bytes4"
                    },
                    {
                      "internalType": "bytes",
                      "name": "data",
                      "type": "bytes"
                    }
                  ],
                  "internalType": "struct Assets.AssetId",
                  "name": "id",
                  "type": "tuple"
                },
                {
                  "internalType": "uint256",
                  "name": "value",
                  "type": "uint256"
                }
              ],
              "internalType": "struct Assets.Asset",
              "name": "warpedAsset",
              "type": "tuple"
            },
            {
              "internalType": "bytes32",
              "name": "collectionId",
              "type": "bytes32"
            },
            {
              "internalType": "uint256",
              "name": "listingId",
              "type": "uint256"
            },
            {
              "internalType": "address",
              "name": "renter",
              "type": "address"
            },
            {
              "internalType": "uint32",
              "name": "startTime",
              "type": "uint32"
            },
            {
              "internalType": "uint32",
              "name": "endTime",
              "type": "uint32"
            }
          ],
          "internalType": "struct Rentings.Agreement[]",
          "name": "",
          "type": "tuple[]"
        }
      ],
      "stateMutability": "view",
      "type": "function"
    },
    {
      "inputs": [
        {
          "internalType": "address",
          "name": "renter",
          "type": "address"
        }
      ],
      "name": "userRentalCount",
      "outputs": [
        {
          "internalType": "uint256",
          "name": "",
          "type": "uint256"
        }
      ],
      "stateMutability": "view",
      "type": "function"
    },
    {
      "inputs": [
        {
          "internalType": "address",
          "name": "warper",
          "type": "address"
        }
      ],
      "name": "warperController",
      "outputs": [
        {
          "internalType": "address",
          "name": "",
          "type": "address"
        }
      ],
      "stateMutability": "view",
      "type": "function"
    },
    {
      "inputs": [
        {
          "internalType": "address",
          "name": "warper",
          "type": "address"
        }
      ],
      "name": "warperInfo",
      "outputs": [
        {
          "components": [
            {
              "internalType": "address",
              "name": "original",
              "type": "address"
            },
            {
              "internalType": "contract IWarperController",
              "name": "controller",
              "type": "address"
            },
            {
              "internalType": "string",
              "name": "name",
              "type": "string"
            },
            {
              "internalType": "uint256",
              "name": "universeId",
              "type": "uint256"
            },
            {
              "internalType": "bool",
              "name": "paused",
              "type": "bool"
            }
          ],
          "internalType": "struct Warpers.Warper",
          "name": "",
          "type": "tuple"
        }
      ],
      "stateMutability": "view",
      "type": "function"
    },
    {
      "inputs": [],
      "name": "warperPresetFactory",
      "outputs": [
        {
          "internalType": "address",
          "name": "",
          "type": "address"
        }
      ],
      "stateMutability": "view",
      "type": "function"
    },
    {
      "inputs": [
        {
          "internalType": "uint256",
          "name": "listingId",
          "type": "uint256"
        }
      ],
      "name": "withdrawAsset",
      "outputs": [],
      "stateMutability": "nonpayable",
      "type": "function"
    },
    {
      "inputs": [
        {
          "internalType": "address",
          "name": "token",
          "type": "address"
        },
        {
          "internalType": "uint256",
          "name": "amount",
          "type": "uint256"
        },
        {
          "internalType": "address",
          "name": "to",
          "type": "address"
        }
      ],
      "name": "withdrawFunds",
      "outputs": [],
      "stateMutability": "nonpayable",
      "type": "function"
    },
    {
      "inputs": [
        {
          "internalType": "address",
          "name": "token",
          "type": "address"
        },
        {
          "internalType": "uint256",
          "name": "amount",
          "type": "uint256"
        },
        {
          "internalType": "address",
          "name": "to",
          "type": "address"
        }
      ],
      "name": "withdrawProtocolFunds",
      "outputs": [],
      "stateMutability": "nonpayable",
      "type": "function"
    },
    {
      "inputs": [
        {
          "internalType": "uint256",
          "name": "universeId",
          "type": "uint256"
        },
        {
          "internalType": "address",
          "name": "token",
          "type": "address"
        },
        {
          "internalType": "uint256",
          "name": "amount",
          "type": "uint256"
        },
        {
          "internalType": "address",
          "name": "to",
          "type": "address"
        }
      ],
      "name": "withdrawUniverseFunds",
      "outputs": [],
      "stateMutability": "nonpayable",
      "type": "function"
    }
  ],
  "bytecode": "0x60a0604052306080523480156200001557600080fd5b50600054610100900460ff16620000335760005460ff16156200003d565b6200003d620000e2565b620000a55760405162461bcd60e51b815260206004820152602e60248201527f496e697469616c697a61626c653a20636f6e747261637420697320616c72656160448201526d191e481a5b9a5d1a585b1a5e995960921b606482015260840160405180910390fd5b600054610100900460ff16158015620000c8576000805461ffff19166101011790555b8015620000db576000805461ff00191690555b506200010f565b6000620000fa306200010060201b62002bf31760201c565b15905090565b6001600160a01b03163b151590565b608051615b6362000147600039600081816110450152818161108e015281816112ca0152818161130a01526114990152615b636000f3fe6080604052600436106102885760003560e01c8063719a3d0b1161015a578063a75ea55d116100c1578063e3d670d71161007a578063e3d670d714610863578063e528b08114610883578063ebf03f49146108a3578063f1f56a1f146108c3578063f4ba2046146108f0578063fee5f37f1461091057600080fd5b8063a75ea55d146107b0578063a9b07c26146107d0578063ae07477f146107e5578063c1e58a2114610805578063c55dae6314610825578063c7b015601461084357600080fd5b806388b22ef41161011357806388b22ef4146106db5780638c2c4714146106fb5780638d92fdf31461071b5780638f36001f1461073b578063a0d18bb31461076d578063a5c5ad111461079b57600080fd5b8063719a3d0b14610609578063729941351461062957806378a2c9cd146106565780637bb98a68146106765780638468d2281461068b578063882080d3146106ab57600080fd5b806347c6b45e116101fe57806352d1902d116101b757806352d1902d1461052a578063553b01091461053f578063554310241461055457806361b25b9114610581578063662c1ff8146105ae5780636eabf0bb146105db57600080fd5b806347c6b45e146104695780634bd22a1b146104895780634d3084d3146104a95780634f1ef286146104d7578063506cf01e146104ea57806350f771561461050a57600080fd5b80633253d503116102505780633253d5031461039c57806332756bcf146103bc57806333a93203146103dc5780633659cfe61461040957806339b1ea381461042957806343d7c7781461044957600080fd5b80630e540ec01461028d57806312cd849a146102af5780631e347878146102e2578063255829cf1461030257806328df759614610330575b600080fd5b34801561029957600080fd5b506102ad6102a836600461419a565b610930565b005b3480156102bb57600080fd5b506102cf6102ca3660046141c5565b6109c8565b6040519081526020015b60405180910390f35b3480156102ee57600080fd5b506102cf6102fd366004614205565b610cbd565b34801561030e57600080fd5b50609854600160a01b900461ffff1660405161ffff90911681526020016102d9565b34801561033c57600080fd5b5061035061034b366004614235565b610d51565b6040516102d99190600060c082019050825182526020830151602083015260408301516040830152606083015160608301526080830151608083015260a083015160a083015292915050565b3480156103a857600080fd5b506102ad6103b7366004614251565b610e88565b3480156103c857600080fd5b506102ad6103d736600461426e565b610eec565b3480156103e857600080fd5b506103fc6103f73660046142a4565b610fbd565b6040516102d991906142d8565b34801561041557600080fd5b506102ad610424366004614251565b61103b565b34801561043557600080fd5b506102cf610444366004614251565b611123565b34801561045557600080fd5b506102ad61046436600461419a565b611130565b34801561047557600080fd5b506102ad610484366004614300565b6111fc565b34801561049557600080fd5b506102cf6104a4366004614251565b61121c565b3480156104b557600080fd5b506104c96104c4366004614342565b611229565b6040516102d99291906144f0565b6102ad6104e53660046146b4565b6112c0565b3480156104f657600080fd5b506102ad610505366004614251565b611390565b34801561051657600080fd5b506102ad61052536600461419a565b6113f4565b34801561053657600080fd5b506102cf61148c565b34801561054b57600080fd5b506102cf61153f565b34801561056057600080fd5b5061057461056f366004614251565b611550565b6040516102d9919061475a565b34801561058d57600080fd5b506105a161059c36600461419a565b61167b565b6040516102d9919061476d565b3480156105ba57600080fd5b506105ce6105c936600461419a565b611695565b6040516102d9919061482c565b3480156105e757600080fd5b506105fb6105f636600461483f565b611821565b6040516102d9929190614874565b34801561061557600080fd5b506104c961062436600461483f565b6118b5565b34801561063557600080fd5b50610649610644366004614342565b61193d565b6040516102d99190614910565b34801561066257600080fd5b506102cf610671366004614205565b6119c6565b34801561068257600080fd5b506105a16119de565b34801561069757600080fd5b506102cf6106a636600461419a565b6119f9565b3480156106b757600080fd5b506106cb6106c6366004614923565b611a06565b60405190151581526020016102d9565b3480156106e757600080fd5b506102cf6106f6366004614251565b611aa7565b34801561070757600080fd5b506102ad610716366004614951565b611ab4565b34801561072757600080fd5b506102ad61073636600461419a565b611cd9565b34801561074757600080fd5b5060a3546001600160a01b03165b6040516001600160a01b0390911681526020016102d9565b34801561077957600080fd5b5061078d61078836600461483f565b612097565b6040516102d9929190614963565b3480156107a757600080fd5b506105a161211f565b3480156107bc57600080fd5b506102ad6107cb366004614300565b61212b565b3480156107dc57600080fd5b506102cf6121b5565b3480156107f157600080fd5b506102cf6108003660046149e6565b6121c1565b34801561081157600080fd5b506102ad610820366004614251565b6123a7565b34801561083157600080fd5b506098546001600160a01b0316610755565b34801561084f57600080fd5b506102ad61085e366004614a6e565b61245c565b34801561086f57600080fd5b506102cf61087e366004614251565b6124ef565b34801561088f57600080fd5b506102ad61089e366004614aad565b612508565b3480156108af57600080fd5b506107556108be366004614251565b612932565b3480156108cf57600080fd5b506108e36108de36600461419a565b612963565b6040516102d99190614af8565b3480156108fc57600080fd5b506102cf61090b366004614251565b612b94565b34801561091c57600080fd5b5061078d61092b366004614b0b565b612ba1565b8061093c60a982612c02565b600082815260ad602052604090206005015482906001600160a01b0316336001600160a01b03161461098157604051636523fa7f60e11b815260040160405180910390fd5b600083815260ad6020526040902061099890612c3b565b60405183907f62c9649045e00f9c2e96e4e578db9430301ac82a17718531f90e97e6a69202e490600090a2505050565b60006109da6060840160408501614251565b6001600160a01b0316336001600160a01b031614610a0b57604051635f4ecea960e11b815260040160405180910390fd5b604051630199f13960e01b815273__$e5879ada6f69714d7fc0d88dbcc568b31e$__90630199f13990610a4b90869060989060a99060a390600401614ba9565b60006040518083038186803b158015610a6357600080fd5b505af4158015610a77573d6000803e3d6000fd5b50505050610a8c83610a863390565b84612c77565b600080610ab98535610aa46040880160208901614251565b610ab46060890160408a01614251565b612e99565b91509150600042905060006040518060c0016040528084815260200185815260200188600001358152602001886040016020810190610af89190614251565b6001600160a01b0316815263ffffffff84166020820152604001610b2260808a0160608b01614bd3565b610b2c9085614c06565b63ffffffff16905260405163a3f3af0760e01b815290915060009073__$e5879ada6f69714d7fc0d88dbcc568b31e$__9063a3f3af0790610b749060af908690600401614c2e565b602060405180830381865af4158015610b91573d6000803e3d6000fd5b505050506040513d601f19601f82011682018060405250810190610bb59190614ca4565b60a08301518935600090815260ad60205260409020919250610bd7919061303d565b73__$e5879ada6f69714d7fc0d88dbcc568b31e$__63c017140260af610c0360608c0160408d01614251565b8860026040518563ffffffff1660e01b8152600401610c259493929190614cbd565b60006040518083038186803b158015610c3d57600080fd5b505af4158015610c51573d6000803e3d6000fd5b50505050816040015182606001516001600160a01b0316827f76f9ffd08d0be80de00e3be8630a8aef939934c79fec4eedfb31e823e3be27bf856000015186608001518760a00151604051610ca893929190614ce1565b60405180910390a49450505050505b92915050565b60405163ab5d399360e01b815260af60048201526001600160a01b03821660248201526044810183905260009073__$e5879ada6f69714d7fc0d88dbcc568b31e$__9063ab5d399390606401602060405180830381865af4158015610d26573d6000803e3d6000fd5b505050506040513d601f19601f82011682018060405250810190610d4a9190614ca4565b9392505050565b610d8a6040518060c001604052806000815260200160008152602001600081526020016000815260200160008152602001600081525090565b604051630199f13960e01b815273__$e5879ada6f69714d7fc0d88dbcc568b31e$__90630199f13990610dca90859060989060a99060a390600401614ba9565b60006040518083038186803b158015610de257600080fd5b505af4158015610df6573d6000803e3d6000fd5b5050609e54604051639dd6945b60e01b815273__$e5879ada6f69714d7fc0d88dbcc568b31e$__9350639dd6945b9250610e4791869160989160a99160a3916001600160a01b031690600401614d11565b60c060405180830381865af4158015610e64573d6000803e3d6000fd5b505050506040513d601f19601f82011682018060405250810190610cb79190614d4d565b80610e938133613085565b6001600160a01b038216600090815260a860205260409020610eb490613103565b6040516001600160a01b038316907f2a08260ffc9feb9cd743cb3dd526a959666260abda15ed904061f3babce487ba90600090a25050565b6097546001600160a01b03166001600160a01b03166312d9a6ad6000336040516001600160e01b031960e085901b16815260048101929092526001600160a01b0316602482015260440160006040518083038186803b158015610f4e57600080fd5b505afa158015610f62573d6000803e3d6000fd5b50506098805461ffff60a01b1916600160a01b61ffff8616908102919091179091556040519081527f1b1669b1469af2b2bb8295fdaf1c1ff4cd9d41c56dc31e80d6c67e05854f9e209250602001905060405180910390a150565b60405163029d842960e21b815260009073__$e5879ada6f69714d7fc0d88dbcc568b31e$__90630a7610a490610ffa9060af908690600401614e6b565b602060405180830381865af4158015611017573d6000803e3d6000fd5b505050506040513d601f19601f82011682018060405250810190610cb79190614e84565b6001600160a01b037f000000000000000000000000000000000000000000000000000000000000000016300361108c5760405162461bcd60e51b815260040161108390614ea5565b60405180910390fd5b7f00000000000000000000000000000000000000000000000000000000000000006001600160a01b03166110d5600080516020615ae7833981519152546001600160a01b031690565b6001600160a01b0316146110fb5760405162461bcd60e51b815260040161108390614ef1565b61110481613139565b60408051600080825260208201909252611120918391906131af565b50565b6000610cb760a98361331a565b8061113c60a982612c02565b600082815260ad602052604090206005015482906001600160a01b0316336001600160a01b03161461118157604051636523fa7f60e11b815260040160405180910390fd5b600083815260ad6020908152604091829020600581018054600160e81b60ff60e81b19821617918290559351600160c01b90910463ffffffff16815290926001600160a01b03169186917fc0c0619fe5bf378f25472067afca13995576b95e1351cefa4bce7c45929abe27910160405180910390a350505050565b336000908152609d602052604090206112179084848461333d565b505050565b6000610cb76099836133b5565b604051631d823e1d60e21b815260a960048201526024810183905260448101829052606090819073__$23c70d15f703c3ae387c840540427b8a00$__90637608f87490606401600060405180830381865af415801561128c573d6000803e3d6000fd5b505050506040513d6000823e601f3d908101601f191682016040526112b491908101906150db565b915091505b9250929050565b6001600160a01b037f00000000000000000000000000000000000000000000000000000000000000001630036113085760405162461bcd60e51b815260040161108390614ea5565b7f00000000000000000000000000000000000000000000000000000000000000006001600160a01b0316611351600080516020615ae7833981519152546001600160a01b031690565b6001600160a01b0316146113775760405162461bcd60e51b815260040161108390614ef1565b61138082613139565b61138c828260016131af565b5050565b8061139b8133613085565b6001600160a01b038216600090815260a8602052604090206113bc906133cb565b6040516001600160a01b038316907f1eaf28a93e1ad5dabb8e3983d0abb01359e7eafa0982af55e81d715704d25f4e90600090a25050565b8061140060a982612c02565b600082815260ad602052604090206005015482906001600160a01b0316336001600160a01b03161461144557604051636523fa7f60e11b815260040160405180910390fd5b600083815260ad6020526040902061145c906133fd565b60405183907fccf05f4102545965ec08932c92c4db5980b2c27c5fc913e64756615f59e8e68990600090a2505050565b6000306001600160a01b037f0000000000000000000000000000000000000000000000000000000000000000161461152c5760405162461bcd60e51b815260206004820152603860248201527f555550535570677261646561626c653a206d757374206e6f742062652063616c60448201527f6c6564207468726f7567682064656c656761746563616c6c00000000000000006064820152608401611083565b50600080516020615ae783398151915290565b600061154b609f613440565b905090565b6040805160a081018252600080825260208201819052606092820183905291810182905260808101919091528161158860a38261344e565b6001600160a01b03808416600090815260a86020908152604091829020825160a08101845281548516815260018201549094169184019190915260028101805491928401916115d690615275565b80601f016020809104026020016040519081016040528092919081815260200182805461160290615275565b801561164f5780601f106116245761010080835404028352916020019161164f565b820191906000526020600020905b81548152906001019060200180831161163257829003601f168201915b50505091835250506003820154602082015260049091015460ff16151560409091015291505b50919050565b6000818152609c60205260409020606090610cb790613480565b6040805161014081018252600061010082018181526060610120840181905260c0840191825260e08401839052908352602083018290529282018190529181018290526080810182905260a0810191909152600082815260b060205260409081902081516101408101909252805460e01b6001600160e01b0319166101008301908152600182018054849260c0840192859284929184916101208801919061173c90615275565b80601f016020809104026020016040519081016040528092919081815260200182805461176890615275565b80156117b55780601f1061178a576101008083540402835291602001916117b5565b820191906000526020600020905b81548152906001019060200180831161179857829003601f168201915b50505091909252505050815260029190910154602091820152908252600383015490820152600482015460408201526005909101546001600160a01b038116606083015263ffffffff600160a01b820481166080840152600160c01b9091041660a09091015292915050565b604051634cf7b3fb60e01b8152606090819073__$e5879ada6f69714d7fc0d88dbcc568b31e$__90634cf7b3fb906118649060af90899089908990600401614cbd565b600060405180830381865af4158015611881573d6000803e3d6000fd5b505050506040513d6000823e601f3d908101601f191682016040526118a991908101906152a9565b91509150935093915050565b60405163f7596f9960e01b8152606090819073__$23c70d15f703c3ae387c840540427b8a00$__9063f7596f99906118f89060a990899089908990600401614cbd565b600060405180830381865af4158015611915573d6000803e3d6000fd5b505050506040513d6000823e601f3d908101601f191682016040526118a991908101906150db565b6040516376946fcf60e01b8152609f6004820152602481018390526044810182905260609073__$48805a21cd2d79ca776bf2c16e4893ad10$__906376946fcf90606401600060405180830381865af415801561199e573d6000803e3d6000fd5b505050506040513d6000823e601f3d908101601f19168201604052610d4a9190810190615457565b6000828152609c60205260408120610d4a90836133b5565b336000908152609d6020526040902060609061154b90613480565b6000610cb760a383613565565b600082611a1460a38261344e565b609e546001600160a01b03858116600090815260a860205260409081902060030154905163c8cb083f60e01b81526004810191909152858216602482015291169063c8cb083f90604401602060405180830381865afa158015611a7b573d6000803e3d6000fd5b505050506040513d601f19601f82011682018060405250810190611a9f919061548b565b949350505050565b6000610cb760af8361357e565b600054610100900460ff16611acf5760005460ff1615611ad3565b303b155b611b365760405162461bcd60e51b815260206004820152602e60248201527f496e697469616c697a61626c653a20636f6e747261637420697320616c72656160448201526d191e481a5b9a5d1a585b1a5e995960921b6064820152608401611083565b600054610100900460ff16158015611b58576000805461ffff19166101011790555b611b606135a1565b611b7060a0830160808401614251565b609780546001600160a01b0319166001600160a01b03929092169190911790556040805180820190915280611bab60c0850160a08601614251565b6001600160a01b03168152602001611bc960e0850160c0860161426e565b61ffff908116909152815160988054602094850151909316600160a01b026001600160b01b03199093166001600160a01b0390921691909117919091179055611c1490830183614251565b60a380546001600160a01b0319166001600160a01b0392909216919091179055611c446040830160208401614251565b609f80546001600160a01b0319166001600160a01b0392909216919091179055611c746060830160408401614251565b60aa80546001600160a01b0319166001600160a01b0392909216919091179055611ca46080830160608401614251565b609e80546001600160a01b0319166001600160a01b0392909216919091179055801561138c576000805461ff00191690555050565b600081815260ad602052604090206005015481906001600160a01b0316336001600160a01b031614611d1e57604051636523fa7f60e11b815260040160405180910390fd5b600082815260ad602052604080822081516101808101909252805460e01b6001600160e01b031916610140830190815260018201805484926101008401928592849291849161016088019190611d7390615275565b80601f0160208091040260200160405190810160405280929190818152602001828054611d9f90615275565b8015611dec5780601f10611dc157610100808354040283529160200191611dec565b820191906000526020600020905b815481529060010190602001808311611dcf57829003601f168201915b50505050508152505081526020016002820154815250508152602001600382016040518060400160405290816000820160009054906101000a900460e01b6001600160e01b0319166001600160e01b0319168152602001600182018054611e5290615275565b80601f0160208091040260200160405190810160405280929190818152602001828054611e7e90615275565b8015611ecb5780601f10611ea057610100808354040283529160200191611ecb565b820191906000526020600020905b815481529060010190602001808311611eae57829003601f168201915b505050919092525050508152600591909101546001600160a01b038116602083015263ffffffff600160a01b820481166040840152600160c01b82048116606084015260ff600160e01b830481161515608080860191909152600160e81b84048216151560a0860152600160f01b90930416151560c090930192909252820151919250908116429091161015611f745760405163dcfbeafb60e01b815260040160405180910390fd5b604051633598a33560e21b815260a960048201526024810184905273__$23c70d15f703c3ae387c840540427b8a00$__9063d6628cd49060440160006040518083038186803b158015611fc657600080fd5b505af4158015611fda573d6000803e3d6000fd5b5050825160405163221efb0360e11b815273__$48805a21cd2d79ca776bf2c16e4893ad10$__935063443df606925061201891609f916004016154a8565b60006040518083038186803b15801561203057600080fd5b505af4158015612044573d6000803e3d6000fd5b5050505080604001516001600160a01b0316837f1e5a15ab85db192d73c1e02de45c46144e19ffe3bd2ece777303173365ecb9b3836000015160405161208a91906154c1565b60405180910390a3505050565b604051632277a89360e11b8152606090819073__$f390c19a6588bf1782f680f4e6750cf906$__906344ef5126906120da9060a390899089908990600401614cbd565b600060405180830381865af41580156120f7573d6000803e3d6000fd5b505050506040513d6000823e601f3d908101601f191682016040526118a991908101906154d4565b606061154b6099613480565b6097546001600160a01b03166001600160a01b03166312d9a6ad6000336040516001600160e01b031960e085901b16815260048101929092526001600160a01b0316602482015260440160006040518083038186803b15801561218d57600080fd5b505afa1580156121a1573d6000803e3d6000fd5b50611217925060999150859050848461333d565b600061154b60a961360e565b60006121df6121d76121d28761567c565b61361c565b60a39061363a565b6121f76121ef60208601866156cc565b60a99061366c565b604051631daa22cf60e11b815273__$48805a21cd2d79ca776bf2c16e4893ad10$__90633b54459e9061223390609f90899033906004016156e9565b60006040518083038186803b15801561224b57600080fd5b505af415801561225f573d6000803e3d6000fd5b5050505060006040518061010001604052808761227b9061567c565b815260200161228987615744565b8152602001336001600160a01b0316815263ffffffff861660208201526000604080830182905286151560608401526080830182905260a09092018190529051637bc13e0160e01b81529192509073__$23c70d15f703c3ae387c840540427b8a00$__90637bc13e01906123049060a9908690600401615750565b602060405180830381865af4158015612321573d6000803e3d6000fd5b505050506040513d601f19601f820116820180604052508101906123459190614ca4565b905081604001516001600160a01b0316817f2aeb4abaf0fe7ca83b75bc43cd2fb6c99366bc042383e06da11e1a268b47d8ce84600001518560200151866060015160405161239593929190615801565b60405180910390a39695505050505050565b806123b28133613085565b604051635e327ed560e01b815260a360048201526001600160a01b038316602482015273__$f390c19a6588bf1782f680f4e6750cf906$__90635e327ed59060440160006040518083038186803b15801561240c57600080fd5b505af4158015612420573d6000803e3d6000fd5b50506040516001600160a01b03851692507f752612ff761620ec780457bda227d89213d24d8914934d4e45c16bcb4d2b158c9150600090a25050565b609e5484906001600160a01b0316637dc330dc82336040516001600160e01b031960e085901b16815260048101929092526001600160a01b0316602482015260440160006040518083038186803b1580156124b657600080fd5b505afa1580156124ca573d6000803e3d6000fd5b5050506000868152609c602052604090206124e8915085858561333d565b5050505050565b336000908152609d60205260408120610cb790836133b5565b609e546020820135906001600160a01b0316637dc330dc82336040516001600160e01b031960e085901b16815260048101929092526001600160a01b0316602482015260440160006040518083038186803b15801561256657600080fd5b505afa15801561257a573d6000803e3d6000fd5b505050506001600160a01b0383163b15806125ac57506125aa6001600160a01b038416630b3888fd60e31b6136fe565b155b156125cd5760405160016217fc1360e31b0319815260040160405180910390fd5b6000836001600160a01b031663e846a5a96040518163ffffffff1660e01b8152600401602060405180830381865afa15801561260d573d6000803e3d6000fd5b505050506040513d601f19601f82011682018060405250810190612631919061583d565b905061263e609f8261371a565b6000846001600160a01b0316635a70a2836040518163ffffffff1660e01b8152600401602060405180830381865afa15801561267e573d6000803e3d6000fd5b505050506040513d601f19601f820116820180604052508101906126a2919061585a565b90506001600160a01b03811630146126de57604051630391492160e41b81526001600160a01b0382166004820152306024820152604401611083565b60006126eb609f846137a9565b90506000866001600160a01b031663f46c73c66040518163ffffffff1660e01b8152600401602060405180830381865afa15801561272d573d6000803e3d6000fd5b505050506040513d601f19601f82011682018060405250810190612751919061585a565b6040805160a0810182526001600160a01b0380841682528516602082015291925073__$f390c19a6588bf1782f680f4e6750cf906$__9163c73a080a9160a3918b91810161279f8c80615877565b8080601f01602080910402602001604051908101604052809392919081815260200183838082843760009201919091525050509082525060208c810135908201526040908101906127f69060608e01908e016158bd565b15158152506040518463ffffffff1660e01b8152600401612819939291906158da565b60006040518083038186803b15801561283157600080fd5b505af4158015612845573d6000803e3d6000fd5b5050505061285d81609f61382490919063ffffffff16565b6128e457604051635fbd140f60e01b8152609f60048201526001600160e01b0319851660248201526001600160a01b038216604482015273__$48805a21cd2d79ca776bf2c16e4893ad10$__90635fbd140f9060640160006040518083038186803b1580156128cb57600080fd5b505af41580156128df573d6000803e3d6000fd5b505050505b806001600160a01b0316876001600160a01b031687602001357fa14bdeeb833f4488ecf5ee14fc30ccd266c23a9a363fc328eb7df0bb6af7ed6860405160405180910390a450505050505050565b60008161294060a38261344e565b50506001600160a01b03908116600090815260a860205260409020600101541690565b61296b61410d565b600082815260ad60205260409081902081516101808101909252805460e01b6001600160e01b0319166101408301908152600182018054849261010084019285928492918491610160880191906129c190615275565b80601f01602080910402602001604051908101604052809291908181526020018280546129ed90615275565b8015612a3a5780601f10612a0f57610100808354040283529160200191612a3a565b820191906000526020600020905b815481529060010190602001808311612a1d57829003601f168201915b50505050508152505081526020016002820154815250508152602001600382016040518060400160405290816000820160009054906101000a900460e01b6001600160e01b0319166001600160e01b0319168152602001600182018054612aa090615275565b80601f0160208091040260200160405190810160405280929190818152602001828054612acc90615275565b8015612b195780601f10612aee57610100808354040283529160200191612b19565b820191906000526020600020905b815481529060010190602001808311612afc57829003601f168201915b505050919092525050508152600591909101546001600160a01b038116602083015263ffffffff600160a01b820481166040840152600160c01b820416606083015260ff600160e01b8204811615156080840152600160e81b82048116151560a0840152600160f01b90910416151560c09091015292915050565b6000610cb760a383613833565b60405163ef6c202d60e01b815260a36004820152602481018490526044810183905260648101829052606090819073__$f390c19a6588bf1782f680f4e6750cf906$__9063ef6c202d906084016120da565b6001600160a01b03163b151590565b60008181526004830160205260409020612c1b90613856565b61138c5760405163068bb67560e51b815260048101829052602401611083565b6005810154600160f01b900460ff16612c675760405163b42960fd60e01b815260040160405180910390fd5b600501805460ff60f01b19169055565b609e54604051639dd6945b60e01b815260009173__$e5879ada6f69714d7fc0d88dbcc568b31e$__91639dd6945b91612cc991889160989160a99160a3916001600160a01b0390911690600401614d11565b60c060405180830381865af4158015612ce6573d6000803e3d6000fd5b505050506040513d601f19601f82011682018060405250810190612d0a9190614d4d565b90506000612d1e60a0860160808701614251565b90508282600001511115612d4557604051631d5a07f360e21b815260040160405180910390fd5b8435600090815260ad602052604080822060608501519185015190918391612d6d9190615948565b60058301549091506001600160a01b03811690600160e01b900460ff1615612da957612da46001600160a01b038616898385613883565b612dd9565b6001600160a01b0381166000908152609d60205260409020612dcc9086846138f4565b612dd68285615948565b93505b600060a881612dee60408d0160208e01614251565b6001600160a01b03166001600160a01b0316815260200190815260200160002060030154905060008760a001518860800151612e2a9190615948565b6000838152609c60205260409020909150612e469088836138f4565b612e508187615948565b6020890151909650612e669060999089906138f4565b6020880151612e759087615948565b9550612e8c6001600160a01b0388168b3089613883565b5050505050505050505050565b604080516080810182526000918101828152606080830152815260208101829052600085815260ad60205260408082208151608081018352815460e01b6001600160e01b0319169281019283526001820180549193849290918491606085019190612f0390615275565b80601f0160208091040260200160405190810160405280929190818152602001828054612f2f90615275565b8015612f7c5780601f10612f5157610100808354040283529160200191612f7c565b820191906000526020600020905b815481529060010190602001808311612f5f57829003601f168201915b505050919092525050508152600291909101546020918201526001600160a01b03808816600090815260a8909252604091829020600101549151929350169061301c9063c95eb64d60e01b90612fda9085908a908a90602401615960565b60408051601f198184030181529190526020810180516001600160e01b03166001600160e01b0319909316929092179091526001600160a01b03831690613918565b80602001905181019061302f9190615993565b909890975095505050505050565b600582015463ffffffff808316600160c01b909204161061305c575050565b6005909101805463ffffffff909216600160c01b0263ffffffff60c01b19909216919091179055565b609e546001600160a01b03838116600090815260a8602052604090819020600301549051631f70cc3760e21b815260048101919091528382166024820152911690637dc330dc9060440160006040518083038186803b1580156130e757600080fd5b505afa1580156130fb573d6000803e3d6000fd5b505050505050565b600481015460ff16156131295760405163651c69e160e01b815260040160405180910390fd5b600401805460ff19166001179055565b6097546001600160a01b03166001600160a01b03166312d9a6ad6000336040516001600160e01b031960e085901b16815260048101929092526001600160a01b0316602482015260440160006040518083038186803b15801561319b57600080fd5b505afa1580156124e8573d6000803e3d6000fd5b7f4910fdfa16fed3260ed0e7147f7cc6da11a60208b5b9406d12a635614ffd91435460ff16156131e2576112178361393d565b826001600160a01b03166352d1902d6040518163ffffffff1660e01b8152600401602060405180830381865afa92505050801561323c575060408051601f3d908101601f1916820190925261323991810190614ca4565b60015b61329f5760405162461bcd60e51b815260206004820152602e60248201527f45524331393637557067726164653a206e657720696d706c656d656e7461746960448201526d6f6e206973206e6f74205555505360901b6064820152608401611083565b600080516020615ae7833981519152811461330e5760405162461bcd60e51b815260206004820152602960248201527f45524331393637557067726164653a20756e737570706f727465642070726f786044820152681a58589b195555525160ba1b6064820152608401611083565b506112178383836139d9565b6001600160a01b03811660009081526005830160205260408120610d4a906139fe565b81600003613361576040516305a4a8e760e01b815260048101839052602401611083565b600061336d85856133b5565b90508083111561339357604051639266535160e01b815260048101829052602401611083565b6133a08585858403613a08565b506124e86001600160a01b0385168385613a1e565b6000806133c28484613a4e565b95945050505050565b600481015460ff166133f057604051633587233b60e11b815260040160405180910390fd5b600401805460ff19169055565b6005810154600160f01b900460ff161561342a57604051637892dcf360e01b815260040160405180910390fd5b600501805460ff60f01b1916600160f01b179055565b6000610cb7826001016139fe565b6134588282613824565b61138c57604051634f59bc1f60e11b81526001600160a01b0382166004820152602401611083565b6060600061348d83613a73565b90506000816001600160401b038111156134a9576134a9614562565b6040519080825280602002602001820160405280156134ee57816020015b60408051808201909152600080825260208201528152602001906001900390816134c75790505b50905060005b8281101561355d576000806135098784613a7e565b915091506040518060400160405280836001600160a01b031681526020018281525084848151811061353d5761353d6159cf565b602002602001018190525050508080613555906159e5565b9150506134f4565b509392505050565b60008181526003830160205260408120610d4a906139fe565b6001600160a01b03811660009081526002830160205260408120610d4a906139fe565b600054610100900460ff1661360c5760405162461bcd60e51b815260206004820152602b60248201527f496e697469616c697a61626c653a20636f6e7472616374206973206e6f74206960448201526a6e697469616c697a696e6760a81b6064820152608401611083565b565b6000610cb7826002016139fe565b6000816000015160200151806020019051810190610cb7919061585a565b6136448282613a8d565b61138c5760405163ee84f40b60e01b81526001600160a01b0382166004820152602401611083565b6001820154604051631582016d60e01b81526001600160a01b0390911690631582016d9061369e9084906004016159fe565b602060405180830381865afa1580156136bb573d6000803e3d6000fd5b505050506040513d601f19601f820116820180604052508101906136df919061548b565b61138c57806040516380f3229160e01b815260040161108391906159fe565b600061370983613aba565b8015610d4a5750610d4a8383613aed565b81546040516303de1a5960e51b81526001600160a01b0390911690637bc34b20906137499084906004016159fe565b602060405180830381865afa158015613766573d6000803e3d6000fd5b505050506040513d601f19601f8201168201806040525081019061378a919061548b565b61138c578060405163191e817360e21b815260040161108391906159fe565b8154604051630b42144760e41b81526000916001600160a01b03169063b4214470906137d99085906004016159fe565b6040805180830381865afa1580156137f5573d6000803e3d6000fd5b505050506040513d601f19601f820116820180604052508101906138199190615a13565b602001519392505050565b6000610d4a6001840183613bde565b6001600160a01b03811660009081526004830160205260408120610d4a906139fe565b60058101546000906001600160a01b031615801590610cb757505060050154600160e81b900460ff161590565b6040516001600160a01b03808516602483015283166044820152606481018290526138ee9085906323b872dd60e01b906084015b60408051601f198184030181529190526020810180516001600160e01b03166001600160e01b031990931692909217909152613c00565b50505050565b600061390084846133b5565b90506124e8836139108484615948565b869190613a08565b6060610d4a8383604051806060016040528060278152602001615b0760279139613cd2565b6001600160a01b0381163b6139aa5760405162461bcd60e51b815260206004820152602d60248201527f455243313936373a206e657720696d706c656d656e746174696f6e206973206e60448201526c1bdd08184818dbdb9d1c9858dd609a1b6064820152608401611083565b600080516020615ae783398151915280546001600160a01b0319166001600160a01b0392909216919091179055565b6139e283613d66565b6000825111806139ef5750805b15611217576138ee8383613da6565b6000610cb7825490565b6000611a9f846001600160a01b03851684613e52565b6040516001600160a01b03831660248201526044810182905261121790849063a9059cbb60e01b906064016138b7565b6000808080613a66866001600160a01b038716613e6f565b9097909650945050505050565b6000610cb782613ea9565b6000808080613a668686613eb4565b6001600160a01b038116600090815260048301602052604081208190613ab2906139fe565b119392505050565b6000613acd826301ffc9a760e01b613aed565b8015610cb75750613ae6826001600160e01b0319613aed565b1592915050565b6000806301ffc9a760e01b83604051602401613b0991906159fe565b604051602081830303815290604052906001600160e01b0319166020820180516001600160e01b0383818316178352505050509050600080856001600160a01b031661753084604051613b5c9190615a71565b6000604051808303818686fa925050503d8060008114613b98576040519150601f19603f3d011682016040523d82523d6000602084013e613b9d565b606091505b5091509150602081511015613bb85760009350505050610cb7565b818015613bd4575080806020019051810190613bd4919061548b565b9695505050505050565b6001600160a01b03811660009081526001830160205260408120541515610d4a565b6000613c55826040518060400160405280602081526020017f5361666545524332303a206c6f772d6c6576656c2063616c6c206661696c6564815250856001600160a01b0316613edf9092919063ffffffff16565b8051909150156112175780806020019051810190613c73919061548b565b6112175760405162461bcd60e51b815260206004820152602a60248201527f5361666545524332303a204552433230206f7065726174696f6e20646964206e6044820152691bdd081cdd58d8d9595960b21b6064820152608401611083565b60606001600160a01b0384163b613cfb5760405162461bcd60e51b815260040161108390615a8d565b600080856001600160a01b031685604051613d169190615a71565b600060405180830381855af49150503d8060008114613d51576040519150601f19603f3d011682016040523d82523d6000602084013e613d56565b606091505b5091509150613bd4828286613eee565b613d6f8161393d565b6040516001600160a01b038216907fbc7cd75a20ee27fd9adebab32041f755214dbc6bffa90cc0225b39da2e5c2d3b90600090a250565b60606001600160a01b0383163b613dcf5760405162461bcd60e51b815260040161108390615a8d565b600080846001600160a01b031684604051613dea9190615a71565b600060405180830381855af49150503d8060008114613e25576040519150601f19603f3d011682016040523d82523d6000602084013e613e2a565b606091505b50915091506133c28282604051806060016040528060278152602001615b0760279139613eee565b60008281526002840160205260408120829055611a9f8484613f27565b6000818152600283016020526040812054819080613e9e57613e918585613f33565b9250600091506112b99050565b6001925090506112b9565b6000610cb7826139fe565b60008080613ec28585613f3f565b600081815260029690960160205260409095205494959350505050565b6060611a9f8484600085613f4b565b60608315613efd575081610d4a565b825115613f0d5782518084602001fd5b8160405162461bcd60e51b81526004016110839190615ad3565b6000610d4a838361407c565b6000610d4a83836140cb565b6000610d4a83836140e3565b606082471015613fac5760405162461bcd60e51b815260206004820152602660248201527f416464726573733a20696e73756666696369656e742062616c616e636520666f6044820152651c8818d85b1b60d21b6064820152608401611083565b6001600160a01b0385163b6140035760405162461bcd60e51b815260206004820152601d60248201527f416464726573733a2063616c6c20746f206e6f6e2d636f6e74726163740000006044820152606401611083565b600080866001600160a01b0316858760405161401f9190615a71565b60006040518083038185875af1925050503d806000811461405c576040519150601f19603f3d011682016040523d82523d6000602084013e614061565b606091505b5091509150614071828286613eee565b979650505050505050565b60008181526001830160205260408120546140c357508154600181810184556000848152602080822090930184905584548482528286019093526040902091909155610cb7565b506000610cb7565b60008181526001830160205260408120541515610d4a565b60008260000182815481106140fa576140fa6159cf565b9060005260206000200154905092915050565b60408051610180810190915260006101408201818152606061016084015261010083019081526101208301919091528190815260200161416a604051806040016040528060006001600160e01b0319168152602001606081525090565b815260006020820181905260408201819052606082018190526080820181905260a0820181905260c09091015290565b6000602082840312156141ac57600080fd5b5035919050565b600060a0828403121561167557600080fd5b60008060c083850312156141d857600080fd5b6141e284846141b3565b9460a0939093013593505050565b6001600160a01b038116811461112057600080fd5b6000806040838503121561421857600080fd5b82359150602083013561422a816141f0565b809150509250929050565b600060a0828403121561424757600080fd5b610d4a83836141b3565b60006020828403121561426357600080fd5b8135610d4a816141f0565b60006020828403121561428057600080fd5b813561ffff81168114610d4a57600080fd5b60006040828403121561167557600080fd5b6000602082840312156142b657600080fd5b81356001600160401b038111156142cc57600080fd5b611a9f84828501614292565b60208101600383106142fa57634e487b7160e01b600052602160045260246000fd5b91905290565b60008060006060848603121561431557600080fd5b8335614320816141f0565b9250602084013591506040840135614337816141f0565b809150509250925092565b6000806040838503121561435557600080fd5b50508035926020909101359150565b600081518084526020808501945080840160005b8381101561439457815187529582019590820190600101614378565b509495945050505050565b60005b838110156143ba5781810151838201526020016143a2565b838111156138ee5750506000910152565b600081518084526143e381602086016020860161439f565b601f01601f19169290920160200192915050565b63ffffffff60e01b81511682526000602082015160406020850152611a9f60408501826143cb565b600081516040845261443460408501826143f7565b602093840151949093019390935250919050565b6000610100825181855261445e8286018261441f565b9150506020830151848203602086015261447882826143f7565b91505060018060a01b03604084015116604085015263ffffffff606084015116606085015260808301516144b4608086018263ffffffff169052565b5060a08301516144c860a086018215159052565b5060c08301516144dc60c086018215159052565b5060e083015161355d60e086018215159052565b6040815260006145036040830185614364565b6020838203818501528185518084528284019150828160051b85010183880160005b8381101561455357601f19878403018552614541838351614448565b94860194925090850190600101614525565b50909998505050505050505050565b634e487b7160e01b600052604160045260246000fd5b604080519081016001600160401b038111828210171561459a5761459a614562565b60405290565b60405161010081016001600160401b038111828210171561459a5761459a614562565b60405160c081016001600160401b038111828210171561459a5761459a614562565b60405160a081016001600160401b038111828210171561459a5761459a614562565b604051601f8201601f191681016001600160401b038111828210171561462f5761462f614562565b604052919050565b60006001600160401b0382111561465057614650614562565b50601f01601f191660200190565b600082601f83011261466f57600080fd5b813561468261467d82614637565b614607565b81815284602083860101111561469757600080fd5b816020850160208301376000918101602001919091529392505050565b600080604083850312156146c757600080fd5b82356146d2816141f0565b915060208301356001600160401b038111156146ed57600080fd5b6146f98582860161465e565b9150509250929050565b600060018060a01b0380835116845280602084015116602085015250604082015160a0604085015261473860a08501826143cb565b9050606083015160608501526080830151151560808501528091505092915050565b602081526000610d4a6020830184614703565b602080825282518282018190526000919060409081850190868401855b828110156147b857815180516001600160a01b0316855286015186850152928401929085019060010161478a565b5091979650505050505050565b6000815160c084526147da60c085018261441f565b9050602083015160208501526040830151604085015260018060a01b036060840151166060850152608083015163ffffffff80821660808701528060a08601511660a087015250508091505092915050565b602081526000610d4a60208301846147c5565b60008060006060848603121561485457600080fd5b833561485f816141f0565b95602085013595506040909401359392505050565b6040815260006148876040830185614364565b6020838203818501528185518084528284019150828160051b85010183880160005b8381101561455357601f198784030185526148c58383516147c5565b948601949250908501906001016148a9565b600081518084526020808501945080840160005b838110156143945781516001600160a01b0316875295820195908201906001016148eb565b602081526000610d4a60208301846148d7565b6000806040838503121561493657600080fd5b8235614941816141f0565b9150602083013561422a816141f0565b600060e0828403121561167557600080fd5b60408152600061497660408301856148d7565b6020838203818501528185518084528284019150828160051b85010183880160005b8381101561455357601f198784030185526149b4838351614703565b94860194925090850190600101614998565b63ffffffff8116811461112057600080fd5b801515811461112057600080fd5b600080600080608085870312156149fc57600080fd5b84356001600160401b0380821115614a1357600080fd5b614a1f88838901614292565b95506020870135915080821115614a3557600080fd5b50614a4287828801614292565b9350506040850135614a53816149c6565b91506060850135614a63816149d8565b939692955090935050565b60008060008060808587031215614a8457600080fd5b843593506020850135614a96816141f0565b9250604085013591506060850135614a63816141f0565b60008060408385031215614ac057600080fd5b8235614acb816141f0565b915060208301356001600160401b03811115614ae657600080fd5b83016060818603121561422a57600080fd5b602081526000610d4a6020830184614448565b600080600060608486031215614b2057600080fd5b505081359360208301359350604090920135919050565b803582526020810135614b49816141f0565b6001600160a01b039081166020840152604082013590614b68826141f0565b9081166040840152606082013590614b7f826149c6565b63ffffffff8216606085015260808301359150614b9b826141f0565b808216608085015250505050565b6101008101614bb88287614b37565b8460a08301528360c08301528260e083015295945050505050565b600060208284031215614be557600080fd5b8135610d4a816149c6565b634e487b7160e01b600052601160045260246000fd5b600063ffffffff808316818516808303821115614c2557614c25614bf0565b01949350505050565b828152604060208201526000825160c06040840152614c5161010084018261441f565b9050602084015160608401526040840151608084015260018060a01b0360608501511660a0840152608084015163ffffffff80821660c08601528060a08701511660e08601525050809150509392505050565b600060208284031215614cb657600080fd5b5051919050565b9384526001600160a01b039290921660208401526040830152606082015260800190565b606081526000614cf4606083018661441f565b63ffffffff94851660208401529290931660409091015292915050565b6101208101614d208288614b37565b60a082019590955260c081019390935260e08301919091526001600160a01b031661010090910152919050565b600060c08284031215614d5f57600080fd5b60405160c081018181106001600160401b0382111715614d8157614d81614562565b8060405250825181526020830151602082015260408301516040820152606083015160608201526080830151608082015260a083015160a08201528091505092915050565b6001600160e01b03198116811461112057600080fd5b60008135614de981614dc6565b6001600160e01b0319168352602082013536839003601e19018112614e0d57600080fd5b820180356001600160401b03811115614e2557600080fd5b803603841315614e3457600080fd5b60406020860152806040860152806020830160608701376000606082870101526060601f19601f8301168601019250505092915050565b828152604060208201526000611a9f6040830184614ddc565b600060208284031215614e9657600080fd5b815160038110610d4a57600080fd5b6020808252602c908201527f46756e6374696f6e206d7573742062652063616c6c6564207468726f7567682060408201526b19195b1959d85d1958d85b1b60a21b606082015260800190565b6020808252602c908201527f46756e6374696f6e206d7573742062652063616c6c6564207468726f7567682060408201526b6163746976652070726f787960a01b606082015260800190565b60006001600160401b03821115614f5657614f56614562565b5060051b60200190565b600082601f830112614f7157600080fd5b81516020614f8161467d83614f3d565b82815260059290921b84018101918181019086841115614fa057600080fd5b8286015b84811015614fbb5780518352918301918301614fa4565b509695505050505050565b6000614fd461467d84614637565b9050828152838383011115614fe857600080fd5b610d4a83602083018461439f565b60006040828403121561500857600080fd5b615010614578565b9050815161501d81614dc6565b815260208201516001600160401b0381111561503857600080fd5b8201601f8101841361504957600080fd5b61505884825160208401614fc6565b60208301525092915050565b60006040828403121561507657600080fd5b61507e614578565b905081516001600160401b0381111561509657600080fd5b6150a284828501614ff6565b8252506020820151602082015292915050565b80516150c0816141f0565b919050565b80516150c0816149c6565b80516150c0816149d8565b600080604083850312156150ee57600080fd5b82516001600160401b038082111561510557600080fd5b61511186838701614f60565b935060209150818501518181111561512857600080fd5b8501601f8101871361513957600080fd5b805161514761467d82614f3d565b81815260059190911b8201840190848101908983111561516657600080fd5b8584015b83811015615264578051868111156151825760008081fd5b8501610100818d03601f190181131561519b5760008081fd5b6151a36145a0565b89830151898111156151b55760008081fd5b6151c38f8c83870101615064565b8252506040830151898111156151d95760008081fd5b6151e78f8c83870101614ff6565b8b8301525060606151f98185016150b5565b6040830152608061520b8186016150c5565b8284015260a0915061521e8286016150c5565b9083015260c061522f8582016150d0565b8284015260e091506152428286016150d0565b908301526152518484016150d0565b908201528552505091860191860161516a565b508096505050505050509250929050565b600181811c9082168061528957607f821691505b60208210810361167557634e487b7160e01b600052602260045260246000fd5b600080604083850312156152bc57600080fd5b82516001600160401b03808211156152d357600080fd5b6152df86838701614f60565b93506020915081850151818111156152f657600080fd5b8501601f8101871361530757600080fd5b805161531561467d82614f3d565b81815260059190911b8201840190848101908983111561533457600080fd5b8584015b83811015615264578051868111156153505760008081fd5b850160c0818d03601f19018113156153685760008081fd5b6153706145c3565b89830151898111156153825760008081fd5b6153908f8c83870101615064565b82525060408301518a82015260608084015160408301526080808501516153b6816141f0565b80838501525060a09150818501516153cd816149c6565b9083015292820151926153df846149c6565b810192909252508352918601918601615338565b600082601f83011261540457600080fd5b8151602061541461467d83614f3d565b82815260059290921b8401810191818101908684111561543357600080fd5b8286015b84811015614fbb57805161544a816141f0565b8352918301918301615437565b60006020828403121561546957600080fd5b81516001600160401b0381111561547f57600080fd5b611a9f848285016153f3565b60006020828403121561549d57600080fd5b8151610d4a816149d8565b828152604060208201526000611a9f604083018461441f565b602081526000610d4a602083018461441f565b60008060408084860312156154e857600080fd5b83516001600160401b03808211156154ff57600080fd5b61550b878388016153f3565b945060209150818601518181111561552257600080fd5b8601601f8101881361553357600080fd5b805161554161467d82614f3d565b81815260059190911b8201840190848101908a83111561556057600080fd5b8584015b8381101561561c5780518681111561557b57600080fd5b850160a0818e03601f1901121561559157600080fd5b6155996145e5565b888201516155a6816141f0565b8152818a01516155b5816141f0565b818a01526060820151888111156155cc5760008081fd5b8201603f81018f136155de5760008081fd5b6155ee8f8b8301518d8401614fc6565b8b83015250608080830151606083015261560a60a084016150d0565b90820152845250918601918601615564565b50809750505050505050509250929050565b60006040828403121561564057600080fd5b615648614578565b9050813561565581614dc6565b815260208201356001600160401b0381111561567057600080fd5b6150588482850161465e565b60006040823603121561568e57600080fd5b615696614578565b82356001600160401b038111156156ac57600080fd5b6156b83682860161562e565b825250602092830135928101929092525090565b6000602082840312156156de57600080fd5b8135610d4a81614dc6565b8381526060602082015260008335603e1985360301811261570957600080fd5b6040606084015261571f60a08401868301614ddc565b60209590950135608084015250506001600160a01b0391909116604090910152919050565b6000610cb7368361562e565b828152604060208201526000825161010080604085015261577561014085018361441f565b91506020850151603f1985840301606086015261579283826143f7565b60408701516001600160a01b03166080870152606087015163ffffffff811660a0880152909350905050608085015163ffffffff811660c08601525060a085015180151560e08601525060c085015180151585830152505060e084015180151561012085015250949350505050565b606081526000615814606083018661441f565b828103602084015261582681866143f7565b91505063ffffffff83166040830152949350505050565b60006020828403121561584f57600080fd5b8151610d4a81614dc6565b60006020828403121561586c57600080fd5b8151610d4a816141f0565b6000808335601e1984360301811261588e57600080fd5b8301803591506001600160401b038211156158a857600080fd5b6020019150368190038213156112b957600080fd5b6000602082840312156158cf57600080fd5b8135610d4a816149d8565b838152600060018060a01b0380851660208401526060604084015280845116606084015280602085015116608084015250604083015160a0808401526159246101008401826143cb565b9050606084015160c08401526080840151151560e084015280915050949350505050565b6000821982111561595b5761595b614bf0565b500190565b606081526000615973606083018661441f565b6001600160a01b0394851660208401529290931660409091015292915050565b600080604083850312156159a657600080fd5b8251915060208301516001600160401b038111156159c357600080fd5b6146f985828601615064565b634e487b7160e01b600052603260045260246000fd5b6000600182016159f7576159f7614bf0565b5060010190565b6001600160e01b031991909116815260200190565b600060408284031215615a2557600080fd5b604051604081018181106001600160401b0382111715615a4757615a47614562565b6040528251615a55816141f0565b81526020830151615a65816141f0565b60208201529392505050565b60008251615a8381846020870161439f565b9190910192915050565b60208082526026908201527f416464726573733a2064656c65676174652063616c6c20746f206e6f6e2d636f6040820152651b9d1c9858dd60d21b606082015260800190565b602081526000610d4a60208301846143cb56fe360894a13ba1a3210667c828492db98dca3e2076cc3735a920a3ca505d382bbc416464726573733a206c6f772d6c6576656c2064656c65676174652063616c6c206661696c6564a2646970667358221220baa4405c97aa3b3a415455ef6cb605cecfa919c452322141ae73e86d4227207b64736f6c634300080d0033",
  "linkReferences": {
    "contracts/asset/Assets.sol": {
      "Assets": [
        {
          "length": 20,
          "start": 6827
        },
        {
          "length": 20,
          "start": 8500
        },
        {
          "length": 20,
          "start": 9037
        },
        {
          "length": 20,
          "start": 10717
        }
      ]
    },
    "contracts/listing/Listings.sol": {
      "Listings": [
        {
          "length": 20,
          "start": 5017
        },
        {
          "length": 20,
          "start": 6672
        },
        {
          "length": 20,
          "start": 8408
        },
        {
          "length": 20,
          "start": 9248
        }
      ]
    },
    "contracts/renting/Rentings.sol": {
      "Rentings": [
        {
          "length": 20,
          "start": 2913
        },
        {
          "length": 20,
          "start": 3216
        },
        {
          "length": 20,
          "start": 3360
        },
        {
          "length": 20,
          "start": 3635
        },
        {
          "length": 20,
          "start": 3808
        },
        {
          "length": 20,
          "start": 3921
        },
        {
          "length": 20,
          "start": 4374
        },
        {
          "length": 20,
          "start": 6524
        },
        {
          "length": 20,
          "start": 11731
        }
      ]
    },
    "contracts/warper/Warpers.sol": {
      "Warpers": [
        {
          "length": 20,
          "start": 8690
        },
        {
          "length": 20,
          "start": 9502
        },
        {
          "length": 20,
          "start": 10427
        },
        {
          "length": 20,
          "start": 11544
        }
      ]
    }
  },
  "deployedLinkReferences": {
    "contracts/asset/Assets.sol": {
      "Assets": [
        {
          "length": 20,
          "start": 6500
        },
        {
          "length": 20,
          "start": 8173
        },
        {
          "length": 20,
          "start": 8710
        },
        {
          "length": 20,
          "start": 10390
        }
      ]
    },
    "contracts/listing/Listings.sol": {
      "Listings": [
        {
          "length": 20,
          "start": 4690
        },
        {
          "length": 20,
          "start": 6345
        },
        {
          "length": 20,
          "start": 8081
        },
        {
          "length": 20,
          "start": 8921
        }
      ]
    },
    "contracts/renting/Rentings.sol": {
      "Rentings": [
        {
          "length": 20,
          "start": 2586
        },
        {
          "length": 20,
          "start": 2889
        },
        {
          "length": 20,
          "start": 3033
        },
        {
          "length": 20,
          "start": 3308
        },
        {
          "length": 20,
          "start": 3481
        },
        {
          "length": 20,
          "start": 3594
        },
        {
          "length": 20,
          "start": 4047
        },
        {
          "length": 20,
          "start": 6197
        },
        {
          "length": 20,
          "start": 11404
        }
      ]
    },
    "contracts/warper/Warpers.sol": {
      "Warpers": [
        {
          "length": 20,
          "start": 8363
        },
        {
          "length": 20,
          "start": 9175
        },
        {
          "length": 20,
          "start": 10100
        },
        {
          "length": 20,
          "start": 11217
        }
      ]
    }
  }
}