{
  "_format": "hh-sol-artifact-1",
  "contractName": "Metahub",
  "sourceName": "contracts/metahub/Metahub.sol",
  "abi": [
    {
      "inputs": [],
      "stateMutability": "nonpayable",
      "type": "constructor"
    },
    {
      "inputs": [],
      "name": "AssetIsLocked",
      "type": "error"
    },
    {
      "inputs": [],
      "name": "CallerIsNotAssetLister",
      "type": "error"
    },
    {
      "inputs": [],
      "name": "CallerIsNotRenter",
      "type": "error"
    },
    {
      "inputs": [
        {
          "internalType": "uint256",
          "name": "balance",
          "type": "uint256"
        }
      ],
      "name": "InsufficientBalance",
      "type": "error"
    },
    {
      "inputs": [],
      "name": "InvalidWarperInterface",
      "type": "error"
    },
    {
      "inputs": [
        {
          "internalType": "uint256",
          "name": "amount",
          "type": "uint256"
        }
      ],
      "name": "InvalidWithdrawalAmount",
      "type": "error"
    },
    {
      "inputs": [],
      "name": "ListingIsNotPaused",
      "type": "error"
    },
    {
      "inputs": [],
      "name": "ListingIsPaused",
      "type": "error"
    },
    {
      "inputs": [
        {
          "internalType": "uint256",
          "name": "listingId",
          "type": "uint256"
        }
      ],
      "name": "NotListed",
      "type": "error"
    },
    {
      "inputs": [],
      "name": "RentalFeeSlippage",
      "type": "error"
    },
    {
      "inputs": [
        {
          "internalType": "address",
          "name": "asset",
          "type": "address"
        }
      ],
      "name": "UnsupportedAsset",
      "type": "error"
    },
    {
      "inputs": [
        {
          "internalType": "bytes4",
          "name": "assetClass",
          "type": "bytes4"
        }
      ],
      "name": "UnsupportedAssetClass",
      "type": "error"
    },
    {
      "inputs": [
        {
          "internalType": "bytes4",
          "name": "strategyId",
          "type": "bytes4"
        }
      ],
      "name": "UnsupportedListingStrategy",
      "type": "error"
    },
    {
      "inputs": [
        {
          "internalType": "address",
          "name": "provided",
          "type": "address"
        },
        {
          "internalType": "address",
          "name": "required",
          "type": "address"
        }
      ],
      "name": "WarperHasIncorrectMetahubReference",
      "type": "error"
    },
    {
      "inputs": [],
      "name": "WarperIsNotPaused",
      "type": "error"
    },
    {
      "inputs": [
        {
          "internalType": "address",
          "name": "warper",
          "type": "address"
        }
      ],
      "name": "WarperIsNotRegistered",
      "type": "error"
    },
    {
      "inputs": [],
      "name": "WarperIsPaused",
      "type": "error"
    },
    {
      "anonymous": false,
      "inputs": [
        {
          "indexed": false,
          "internalType": "address",
          "name": "previousAdmin",
          "type": "address"
        },
        {
          "indexed": false,
          "internalType": "address",
          "name": "newAdmin",
          "type": "address"
        }
      ],
      "name": "AdminChanged",
      "type": "event"
    },
    {
      "anonymous": false,
      "inputs": [
        {
          "indexed": true,
          "internalType": "uint256",
          "name": "listingId",
          "type": "uint256"
        },
        {
          "indexed": true,
          "internalType": "address",
          "name": "lister",
          "type": "address"
        },
        {
          "indexed": false,
          "internalType": "uint32",
          "name": "unlocksAt",
          "type": "uint32"
        }
      ],
      "name": "AssetDelisted",
      "type": "event"
    },
    {
      "anonymous": false,
      "inputs": [
        {
          "indexed": true,
          "internalType": "uint256",
          "name": "listingId",
          "type": "uint256"
        },
        {
          "indexed": true,
          "internalType": "address",
          "name": "lister",
          "type": "address"
        },
        {
          "components": [
            {
              "components": [
                {
                  "internalType": "bytes4",
                  "name": "class",
                  "type": "bytes4"
                },
                {
                  "internalType": "bytes",
                  "name": "data",
                  "type": "bytes"
                }
              ],
              "internalType": "struct Assets.AssetId",
              "name": "id",
              "type": "tuple"
            },
            {
              "internalType": "uint256",
              "name": "value",
              "type": "uint256"
            }
          ],
          "indexed": false,
          "internalType": "struct Assets.Asset",
          "name": "asset",
          "type": "tuple"
        },
        {
          "components": [
            {
              "internalType": "bytes4",
              "name": "strategy",
              "type": "bytes4"
            },
            {
              "internalType": "bytes",
              "name": "data",
              "type": "bytes"
            }
          ],
          "indexed": false,
          "internalType": "struct Listings.Params",
          "name": "params",
          "type": "tuple"
        },
        {
          "indexed": false,
          "internalType": "uint32",
          "name": "maxLockPeriod",
          "type": "uint32"
        }
      ],
      "name": "AssetListed",
      "type": "event"
    },
    {
      "anonymous": false,
      "inputs": [
        {
          "indexed": true,
          "internalType": "uint256",
          "name": "rentalId",
          "type": "uint256"
        },
        {
          "indexed": true,
          "internalType": "address",
          "name": "renter",
          "type": "address"
        },
        {
          "indexed": true,
          "internalType": "uint256",
          "name": "listingId",
          "type": "uint256"
        },
        {
          "components": [
            {
              "components": [
                {
                  "internalType": "bytes4",
                  "name": "class",
                  "type": "bytes4"
                },
                {
                  "internalType": "bytes",
                  "name": "data",
                  "type": "bytes"
                }
              ],
              "internalType": "struct Assets.AssetId",
              "name": "id",
              "type": "tuple"
            },
            {
              "internalType": "uint256",
              "name": "value",
              "type": "uint256"
            }
          ],
          "indexed": false,
          "internalType": "struct Assets.Asset",
          "name": "warpedAsset",
          "type": "tuple"
        },
        {
          "indexed": false,
          "internalType": "uint32",
          "name": "startTime",
          "type": "uint32"
        },
        {
          "indexed": false,
          "internalType": "uint32",
          "name": "endTime",
          "type": "uint32"
        }
      ],
      "name": "AssetRented",
      "type": "event"
    },
    {
      "anonymous": false,
      "inputs": [
        {
          "indexed": true,
          "internalType": "uint256",
          "name": "listingId",
          "type": "uint256"
        },
        {
          "indexed": true,
          "internalType": "address",
          "name": "lister",
          "type": "address"
        },
        {
          "components": [
            {
              "components": [
                {
                  "internalType": "bytes4",
                  "name": "class",
                  "type": "bytes4"
                },
                {
                  "internalType": "bytes",
                  "name": "data",
                  "type": "bytes"
                }
              ],
              "internalType": "struct Assets.AssetId",
              "name": "id",
              "type": "tuple"
            },
            {
              "internalType": "uint256",
              "name": "value",
              "type": "uint256"
            }
          ],
          "indexed": false,
          "internalType": "struct Assets.Asset",
          "name": "asset",
          "type": "tuple"
        }
      ],
      "name": "AssetWithdrawn",
      "type": "event"
    },
    {
      "anonymous": false,
      "inputs": [
        {
          "indexed": true,
          "internalType": "address",
          "name": "beacon",
          "type": "address"
        }
      ],
      "name": "BeaconUpgraded",
      "type": "event"
    },
    {
      "anonymous": false,
      "inputs": [
        {
          "indexed": true,
          "internalType": "uint256",
          "name": "listingId",
          "type": "uint256"
        }
      ],
      "name": "ListingPaused",
      "type": "event"
    },
    {
      "anonymous": false,
      "inputs": [
        {
          "indexed": true,
          "internalType": "uint256",
          "name": "listingId",
          "type": "uint256"
        }
      ],
      "name": "ListingUnpaused",
      "type": "event"
    },
    {
      "anonymous": false,
      "inputs": [
        {
          "indexed": true,
          "internalType": "address",
          "name": "paymentToken",
          "type": "address"
        },
        {
          "indexed": false,
          "internalType": "uint256",
          "name": "amount",
          "type": "uint256"
        }
      ],
      "name": "ProtocolEarned",
      "type": "event"
    },
    {
      "anonymous": false,
      "inputs": [
        {
          "indexed": false,
          "internalType": "uint16",
          "name": "rentalFeePercent",
          "type": "uint16"
        }
      ],
      "name": "ProtocolRentalFeeChanged",
      "type": "event"
    },
    {
      "anonymous": false,
      "inputs": [
        {
          "indexed": true,
          "internalType": "uint256",
          "name": "universeId",
          "type": "uint256"
        },
        {
          "indexed": true,
          "internalType": "address",
          "name": "paymentToken",
          "type": "address"
        },
        {
          "indexed": false,
          "internalType": "uint256",
          "name": "amount",
          "type": "uint256"
        }
      ],
      "name": "UniverseEarned",
      "type": "event"
    },
    {
      "anonymous": false,
      "inputs": [
        {
          "indexed": true,
          "internalType": "address",
          "name": "implementation",
          "type": "address"
        }
      ],
      "name": "Upgraded",
      "type": "event"
    },
    {
      "anonymous": false,
      "inputs": [
        {
          "indexed": true,
          "internalType": "address",
          "name": "user",
          "type": "address"
        },
        {
          "indexed": true,
          "internalType": "enum IPaymentManager.EarningType",
          "name": "earningType",
          "type": "uint8"
        },
        {
          "indexed": true,
          "internalType": "address",
          "name": "paymentToken",
          "type": "address"
        },
        {
          "indexed": false,
          "internalType": "uint256",
          "name": "amount",
          "type": "uint256"
        }
      ],
      "name": "UserEarned",
      "type": "event"
    },
    {
      "anonymous": false,
      "inputs": [
        {
          "indexed": true,
          "internalType": "address",
          "name": "warper",
          "type": "address"
        }
      ],
      "name": "WarperDeregistered",
      "type": "event"
    },
    {
      "anonymous": false,
      "inputs": [
        {
          "indexed": true,
          "internalType": "address",
          "name": "warper",
          "type": "address"
        }
      ],
      "name": "WarperPaused",
      "type": "event"
    },
    {
      "anonymous": false,
      "inputs": [
        {
          "indexed": true,
          "internalType": "uint256",
          "name": "universeId",
          "type": "uint256"
        },
        {
          "indexed": true,
          "internalType": "address",
          "name": "warper",
          "type": "address"
        },
        {
          "indexed": true,
          "internalType": "address",
          "name": "original",
          "type": "address"
        }
      ],
      "name": "WarperRegistered",
      "type": "event"
    },
    {
      "anonymous": false,
      "inputs": [
        {
          "indexed": true,
          "internalType": "address",
          "name": "warper",
          "type": "address"
        }
      ],
      "name": "WarperUnpaused",
      "type": "event"
    },
    {
      "inputs": [
        {
          "internalType": "address",
          "name": "original",
          "type": "address"
        }
      ],
      "name": "assetListingCount",
      "outputs": [
        {
          "internalType": "uint256",
          "name": "",
          "type": "uint256"
        }
      ],
      "stateMutability": "view",
      "type": "function"
    },
    {
      "inputs": [
        {
          "internalType": "address",
          "name": "original",
          "type": "address"
        },
        {
          "internalType": "uint256",
          "name": "offset",
          "type": "uint256"
        },
        {
          "internalType": "uint256",
          "name": "limit",
          "type": "uint256"
        }
      ],
      "name": "assetListings",
      "outputs": [
        {
          "internalType": "uint256[]",
          "name": "",
          "type": "uint256[]"
        },
        {
          "components": [
            {
              "components": [
                {
                  "components": [
                    {
                      "internalType": "bytes4",
                      "name": "class",
                      "type": "bytes4"
                    },
                    {
                      "internalType": "bytes",
                      "name": "data",
                      "type": "bytes"
                    }
                  ],
                  "internalType": "struct Assets.AssetId",
                  "name": "id",
                  "type": "tuple"
                },
                {
                  "internalType": "uint256",
                  "name": "value",
                  "type": "uint256"
                }
              ],
              "internalType": "struct Assets.Asset",
              "name": "asset",
              "type": "tuple"
            },
            {
              "components": [
                {
                  "internalType": "bytes4",
                  "name": "strategy",
                  "type": "bytes4"
                },
                {
                  "internalType": "bytes",
                  "name": "data",
                  "type": "bytes"
                }
              ],
              "internalType": "struct Listings.Params",
              "name": "params",
              "type": "tuple"
            },
            {
              "internalType": "address",
              "name": "lister",
              "type": "address"
            },
            {
              "internalType": "uint32",
              "name": "maxLockPeriod",
              "type": "uint32"
            },
            {
              "internalType": "uint32",
              "name": "lockedTill",
              "type": "uint32"
            },
            {
              "internalType": "bool",
              "name": "immediatePayout",
              "type": "bool"
            },
            {
              "internalType": "bool",
              "name": "delisted",
              "type": "bool"
            },
            {
              "internalType": "bool",
              "name": "paused",
              "type": "bool"
            }
          ],
          "internalType": "struct Listings.Listing[]",
          "name": "",
          "type": "tuple[]"
        }
      ],
      "stateMutability": "view",
      "type": "function"
    },
    {
      "inputs": [
        {
          "components": [
            {
              "internalType": "bytes4",
              "name": "class",
              "type": "bytes4"
            },
            {
              "internalType": "bytes",
              "name": "data",
              "type": "bytes"
            }
          ],
          "internalType": "struct Assets.AssetId",
          "name": "warpedAssetId",
          "type": "tuple"
        }
      ],
      "name": "assetRentalStatus",
      "outputs": [
        {
          "internalType": "enum Rentings.RentalStatus",
          "name": "",
          "type": "uint8"
        }
      ],
      "stateMutability": "view",
      "type": "function"
    },
    {
      "inputs": [
        {
          "internalType": "address",
          "name": "original",
          "type": "address"
        }
      ],
      "name": "assetWarperCount",
      "outputs": [
        {
          "internalType": "uint256",
          "name": "",
          "type": "uint256"
        }
      ],
      "stateMutability": "view",
      "type": "function"
    },
    {
      "inputs": [
        {
          "internalType": "address",
          "name": "original",
          "type": "address"
        },
        {
          "internalType": "uint256",
          "name": "offset",
          "type": "uint256"
        },
        {
          "internalType": "uint256",
          "name": "limit",
          "type": "uint256"
        }
      ],
      "name": "assetWarpers",
      "outputs": [
        {
          "internalType": "address[]",
          "name": "",
          "type": "address[]"
        },
        {
          "components": [
            {
              "internalType": "address",
              "name": "original",
              "type": "address"
            },
            {
              "internalType": "contract IWarperController",
              "name": "controller",
              "type": "address"
            },
            {
              "internalType": "string",
              "name": "name",
              "type": "string"
            },
            {
              "internalType": "uint256",
              "name": "universeId",
              "type": "uint256"
            },
            {
              "internalType": "bool",
              "name": "paused",
              "type": "bool"
            }
          ],
          "internalType": "struct Warpers.Warper[]",
          "name": "",
          "type": "tuple[]"
        }
      ],
      "stateMutability": "view",
      "type": "function"
    },
    {
      "inputs": [
        {
          "internalType": "address",
          "name": "account",
          "type": "address"
        },
        {
          "internalType": "address",
          "name": "token",
          "type": "address"
        }
      ],
      "name": "balance",
      "outputs": [
        {
          "internalType": "uint256",
          "name": "",
          "type": "uint256"
        }
      ],
      "stateMutability": "view",
      "type": "function"
    },
    {
      "inputs": [
        {
          "internalType": "address",
          "name": "account",
          "type": "address"
        }
      ],
      "name": "balances",
      "outputs": [
        {
          "components": [
            {
              "internalType": "address",
              "name": "token",
              "type": "address"
            },
            {
              "internalType": "uint256",
              "name": "amount",
              "type": "uint256"
            }
          ],
          "internalType": "struct Accounts.Balance[]",
          "name": "",
          "type": "tuple[]"
        }
      ],
      "stateMutability": "view",
      "type": "function"
    },
    {
      "inputs": [],
      "name": "baseToken",
      "outputs": [
        {
          "internalType": "address",
          "name": "",
          "type": "address"
        }
      ],
      "stateMutability": "view",
      "type": "function"
    },
    {
      "inputs": [
        {
          "internalType": "bytes32",
          "name": "warpedCollectionId",
          "type": "bytes32"
        },
        {
          "internalType": "address",
          "name": "renter",
          "type": "address"
        }
      ],
      "name": "collectionRentedValue",
      "outputs": [
        {
          "internalType": "uint256",
          "name": "",
          "type": "uint256"
        }
      ],
      "stateMutability": "view",
      "type": "function"
    },
    {
      "inputs": [
        {
          "internalType": "uint256",
          "name": "listingId",
          "type": "uint256"
        }
      ],
      "name": "delistAsset",
      "outputs": [],
      "stateMutability": "nonpayable",
      "type": "function"
    },
    {
      "inputs": [
        {
          "internalType": "address",
          "name": "warper",
          "type": "address"
        }
      ],
      "name": "deregisterWarper",
      "outputs": [],
      "stateMutability": "nonpayable",
      "type": "function"
    },
    {
      "inputs": [
        {
          "components": [
            {
              "internalType": "uint256",
              "name": "listingId",
              "type": "uint256"
            },
            {
              "internalType": "address",
              "name": "warper",
              "type": "address"
            },
            {
              "internalType": "address",
              "name": "renter",
              "type": "address"
            },
            {
              "internalType": "uint32",
              "name": "rentalPeriod",
              "type": "uint32"
            },
            {
              "internalType": "address",
              "name": "paymentToken",
              "type": "address"
            }
          ],
          "internalType": "struct Rentings.Params",
          "name": "rentingParams",
          "type": "tuple"
        }
      ],
      "name": "estimateRent",
      "outputs": [
        {
          "components": [
            {
              "internalType": "uint256",
              "name": "total",
              "type": "uint256"
            },
            {
              "internalType": "uint256",
              "name": "protocolFee",
              "type": "uint256"
            },
            {
              "internalType": "uint256",
              "name": "listerBaseFee",
              "type": "uint256"
            },
            {
              "internalType": "uint256",
              "name": "listerPremium",
              "type": "uint256"
            },
            {
              "internalType": "uint256",
              "name": "universeBaseFee",
              "type": "uint256"
            },
            {
              "internalType": "uint256",
              "name": "universePremium",
              "type": "uint256"
            }
          ],
          "internalType": "struct Rentings.RentalFees",
          "name": "",
          "type": "tuple"
        }
      ],
      "stateMutability": "view",
      "type": "function"
    },
    {
      "inputs": [
        {
          "components": [
            {
              "internalType": "contract IWarperPresetFactory",
              "name": "warperPresetFactory",
              "type": "address"
            },
            {
              "internalType": "contract IAssetClassRegistry",
              "name": "assetClassRegistry",
              "type": "address"
            },
            {
              "internalType": "contract IListingStrategyRegistry",
              "name": "listingStrategyRegistry",
              "type": "address"
            },
            {
              "internalType": "contract IUniverseRegistry",
              "name": "universeRegistry",
              "type": "address"
            },
            {
              "internalType": "contract IACL",
              "name": "acl",
              "type": "address"
            },
            {
              "internalType": "contract IERC20Upgradeable",
              "name": "baseToken",
              "type": "address"
            },
            {
              "internalType": "uint16",
              "name": "rentalFeePercent",
              "type": "uint16"
            }
          ],
          "internalType": "struct Metahub.MetahubInitParams",
          "name": "params",
          "type": "tuple"
        }
      ],
      "name": "initialize",
      "outputs": [],
      "stateMutability": "nonpayable",
      "type": "function"
    },
    {
      "inputs": [
        {
          "internalType": "address",
          "name": "warper",
          "type": "address"
        },
        {
          "internalType": "address",
          "name": "account",
          "type": "address"
        }
      ],
      "name": "isWarperAdmin",
      "outputs": [
        {
          "internalType": "bool",
          "name": "",
          "type": "bool"
        }
      ],
      "stateMutability": "view",
      "type": "function"
    },
    {
      "inputs": [
        {
          "components": [
            {
              "components": [
                {
                  "internalType": "bytes4",
                  "name": "class",
                  "type": "bytes4"
                },
                {
                  "internalType": "bytes",
                  "name": "data",
                  "type": "bytes"
                }
              ],
              "internalType": "struct Assets.AssetId",
              "name": "id",
              "type": "tuple"
            },
            {
              "internalType": "uint256",
              "name": "value",
              "type": "uint256"
            }
          ],
          "internalType": "struct Assets.Asset",
          "name": "asset",
          "type": "tuple"
        },
        {
          "components": [
            {
              "internalType": "bytes4",
              "name": "strategy",
              "type": "bytes4"
            },
            {
              "internalType": "bytes",
              "name": "data",
              "type": "bytes"
            }
          ],
          "internalType": "struct Listings.Params",
          "name": "params",
          "type": "tuple"
        },
        {
          "internalType": "uint32",
          "name": "maxLockPeriod",
          "type": "uint32"
        },
        {
          "internalType": "bool",
          "name": "immediatePayout",
          "type": "bool"
        }
      ],
      "name": "listAsset",
      "outputs": [
        {
          "internalType": "uint256",
          "name": "",
          "type": "uint256"
        }
      ],
      "stateMutability": "nonpayable",
      "type": "function"
    },
    {
      "inputs": [],
      "name": "listingCount",
      "outputs": [
        {
          "internalType": "uint256",
          "name": "",
          "type": "uint256"
        }
      ],
      "stateMutability": "view",
      "type": "function"
    },
    {
      "inputs": [
        {
          "internalType": "uint256",
          "name": "listingId",
          "type": "uint256"
        }
      ],
      "name": "listingInfo",
      "outputs": [
        {
          "components": [
            {
              "components": [
                {
                  "components": [
                    {
                      "internalType": "bytes4",
                      "name": "class",
                      "type": "bytes4"
                    },
                    {
                      "internalType": "bytes",
                      "name": "data",
                      "type": "bytes"
                    }
                  ],
                  "internalType": "struct Assets.AssetId",
                  "name": "id",
                  "type": "tuple"
                },
                {
                  "internalType": "uint256",
                  "name": "value",
                  "type": "uint256"
                }
              ],
              "internalType": "struct Assets.Asset",
              "name": "asset",
              "type": "tuple"
            },
            {
              "components": [
                {
                  "internalType": "bytes4",
                  "name": "strategy",
                  "type": "bytes4"
                },
                {
                  "internalType": "bytes",
                  "name": "data",
                  "type": "bytes"
                }
              ],
              "internalType": "struct Listings.Params",
              "name": "params",
              "type": "tuple"
            },
            {
              "internalType": "address",
              "name": "lister",
              "type": "address"
            },
            {
              "internalType": "uint32",
              "name": "maxLockPeriod",
              "type": "uint32"
            },
            {
              "internalType": "uint32",
              "name": "lockedTill",
              "type": "uint32"
            },
            {
              "internalType": "bool",
              "name": "immediatePayout",
              "type": "bool"
            },
            {
              "internalType": "bool",
              "name": "delisted",
              "type": "bool"
            },
            {
              "internalType": "bool",
              "name": "paused",
              "type": "bool"
            }
          ],
          "internalType": "struct Listings.Listing",
          "name": "",
          "type": "tuple"
        }
      ],
      "stateMutability": "view",
      "type": "function"
    },
    {
      "inputs": [
        {
          "internalType": "uint256",
          "name": "offset",
          "type": "uint256"
        },
        {
          "internalType": "uint256",
          "name": "limit",
          "type": "uint256"
        }
      ],
      "name": "listings",
      "outputs": [
        {
          "internalType": "uint256[]",
          "name": "",
          "type": "uint256[]"
        },
        {
          "components": [
            {
              "components": [
                {
                  "components": [
                    {
                      "internalType": "bytes4",
                      "name": "class",
                      "type": "bytes4"
                    },
                    {
                      "internalType": "bytes",
                      "name": "data",
                      "type": "bytes"
                    }
                  ],
                  "internalType": "struct Assets.AssetId",
                  "name": "id",
                  "type": "tuple"
                },
                {
                  "internalType": "uint256",
                  "name": "value",
                  "type": "uint256"
                }
              ],
              "internalType": "struct Assets.Asset",
              "name": "asset",
              "type": "tuple"
            },
            {
              "components": [
                {
                  "internalType": "bytes4",
                  "name": "strategy",
                  "type": "bytes4"
                },
                {
                  "internalType": "bytes",
                  "name": "data",
                  "type": "bytes"
                }
              ],
              "internalType": "struct Listings.Params",
              "name": "params",
              "type": "tuple"
            },
            {
              "internalType": "address",
              "name": "lister",
              "type": "address"
            },
            {
              "internalType": "uint32",
              "name": "maxLockPeriod",
              "type": "uint32"
            },
            {
              "internalType": "uint32",
              "name": "lockedTill",
              "type": "uint32"
            },
            {
              "internalType": "bool",
              "name": "immediatePayout",
              "type": "bool"
            },
            {
              "internalType": "bool",
              "name": "delisted",
              "type": "bool"
            },
            {
              "internalType": "bool",
              "name": "paused",
              "type": "bool"
            }
          ],
          "internalType": "struct Listings.Listing[]",
          "name": "",
          "type": "tuple[]"
        }
      ],
      "stateMutability": "view",
      "type": "function"
    },
    {
      "inputs": [
        {
          "internalType": "uint256",
          "name": "listingId",
          "type": "uint256"
        }
      ],
      "name": "pauseListing",
      "outputs": [],
      "stateMutability": "nonpayable",
      "type": "function"
    },
    {
      "inputs": [
        {
          "internalType": "address",
          "name": "warper",
          "type": "address"
        }
      ],
      "name": "pauseWarper",
      "outputs": [],
      "stateMutability": "nonpayable",
      "type": "function"
    },
    {
      "inputs": [
        {
          "internalType": "address",
          "name": "token",
          "type": "address"
        }
      ],
      "name": "protocolBalance",
      "outputs": [
        {
          "internalType": "uint256",
          "name": "",
          "type": "uint256"
        }
      ],
      "stateMutability": "view",
      "type": "function"
    },
    {
      "inputs": [],
      "name": "protocolBalances",
      "outputs": [
        {
          "components": [
            {
              "internalType": "address",
              "name": "token",
              "type": "address"
            },
            {
              "internalType": "uint256",
              "name": "amount",
              "type": "uint256"
            }
          ],
          "internalType": "struct Accounts.Balance[]",
          "name": "",
          "type": "tuple[]"
        }
      ],
      "stateMutability": "view",
      "type": "function"
    },
    {
      "inputs": [],
      "name": "protocolRentalFeePercent",
      "outputs": [
        {
          "internalType": "uint16",
          "name": "",
          "type": "uint16"
        }
      ],
      "stateMutability": "view",
      "type": "function"
    },
    {
      "inputs": [],
      "name": "proxiableUUID",
      "outputs": [
        {
          "internalType": "bytes32",
          "name": "",
          "type": "bytes32"
        }
      ],
      "stateMutability": "view",
      "type": "function"
    },
    {
      "inputs": [
        {
          "internalType": "address",
          "name": "warper",
          "type": "address"
        },
        {
          "components": [
            {
              "internalType": "string",
              "name": "name",
              "type": "string"
            },
            {
              "internalType": "uint256",
              "name": "universeId",
              "type": "uint256"
            },
            {
              "internalType": "bool",
              "name": "paused",
              "type": "bool"
            }
          ],
          "internalType": "struct IWarperManager.WarperRegistrationParams",
          "name": "params",
          "type": "tuple"
        }
      ],
      "name": "registerWarper",
      "outputs": [],
      "stateMutability": "nonpayable",
      "type": "function"
    },
    {
      "inputs": [
        {
          "components": [
            {
              "internalType": "uint256",
              "name": "listingId",
              "type": "uint256"
            },
            {
              "internalType": "address",
              "name": "warper",
              "type": "address"
            },
            {
              "internalType": "address",
              "name": "renter",
              "type": "address"
            },
            {
              "internalType": "uint32",
              "name": "rentalPeriod",
              "type": "uint32"
            },
            {
              "internalType": "address",
              "name": "paymentToken",
              "type": "address"
            }
          ],
          "internalType": "struct Rentings.Params",
          "name": "rentingParams",
          "type": "tuple"
        },
        {
          "internalType": "uint256",
          "name": "maxPaymentAmount",
          "type": "uint256"
        }
      ],
      "name": "rent",
      "outputs": [
        {
          "internalType": "uint256",
          "name": "",
          "type": "uint256"
        }
      ],
      "stateMutability": "nonpayable",
      "type": "function"
    },
    {
      "inputs": [
        {
          "internalType": "uint256",
          "name": "rentalId",
          "type": "uint256"
        }
      ],
      "name": "rentalAgreementInfo",
      "outputs": [
        {
          "components": [
            {
              "components": [
                {
                  "components": [
                    {
                      "internalType": "bytes4",
                      "name": "class",
                      "type": "bytes4"
                    },
                    {
                      "internalType": "bytes",
                      "name": "data",
                      "type": "bytes"
                    }
                  ],
                  "internalType": "struct Assets.AssetId",
                  "name": "id",
                  "type": "tuple"
                },
                {
                  "internalType": "uint256",
                  "name": "value",
                  "type": "uint256"
                }
              ],
              "internalType": "struct Assets.Asset",
              "name": "warpedAsset",
              "type": "tuple"
            },
            {
              "internalType": "bytes32",
              "name": "collectionId",
              "type": "bytes32"
            },
            {
              "internalType": "uint256",
              "name": "listingId",
              "type": "uint256"
            },
            {
              "internalType": "address",
              "name": "renter",
              "type": "address"
            },
            {
              "internalType": "uint32",
              "name": "startTime",
              "type": "uint32"
            },
            {
              "internalType": "uint32",
              "name": "endTime",
              "type": "uint32"
            }
          ],
          "internalType": "struct Rentings.Agreement",
          "name": "",
          "type": "tuple"
        }
      ],
      "stateMutability": "view",
      "type": "function"
    },
    {
      "inputs": [
        {
          "internalType": "uint16",
          "name": "rentalFeePercent",
          "type": "uint16"
        }
      ],
      "name": "setProtocolRentalFeePercent",
      "outputs": [],
      "stateMutability": "nonpayable",
      "type": "function"
    },
    {
      "inputs": [],
      "name": "supportedAssetCount",
      "outputs": [
        {
          "internalType": "uint256",
          "name": "",
          "type": "uint256"
        }
      ],
      "stateMutability": "view",
      "type": "function"
    },
    {
      "inputs": [
        {
          "internalType": "uint256",
          "name": "offset",
          "type": "uint256"
        },
        {
          "internalType": "uint256",
          "name": "limit",
          "type": "uint256"
        }
      ],
      "name": "supportedAssets",
      "outputs": [
        {
          "internalType": "address[]",
          "name": "",
          "type": "address[]"
        }
      ],
      "stateMutability": "view",
      "type": "function"
    },
    {
      "inputs": [
        {
          "internalType": "uint256",
          "name": "universeId",
          "type": "uint256"
        },
        {
          "internalType": "address",
          "name": "token",
          "type": "address"
        }
      ],
      "name": "universeBalance",
      "outputs": [
        {
          "internalType": "uint256",
          "name": "",
          "type": "uint256"
        }
      ],
      "stateMutability": "view",
      "type": "function"
    },
    {
      "inputs": [
        {
          "internalType": "uint256",
          "name": "universeId",
          "type": "uint256"
        }
      ],
      "name": "universeBalances",
      "outputs": [
        {
          "components": [
            {
              "internalType": "address",
              "name": "token",
              "type": "address"
            },
            {
              "internalType": "uint256",
              "name": "amount",
              "type": "uint256"
            }
          ],
          "internalType": "struct Accounts.Balance[]",
          "name": "",
          "type": "tuple[]"
        }
      ],
      "stateMutability": "view",
      "type": "function"
    },
    {
      "inputs": [
        {
          "internalType": "uint256",
          "name": "universeId",
          "type": "uint256"
        }
      ],
      "name": "universeWarperCount",
      "outputs": [
        {
          "internalType": "uint256",
          "name": "",
          "type": "uint256"
        }
      ],
      "stateMutability": "view",
      "type": "function"
    },
    {
      "inputs": [
        {
          "internalType": "uint256",
          "name": "universeId",
          "type": "uint256"
        },
        {
          "internalType": "uint256",
          "name": "offset",
          "type": "uint256"
        },
        {
          "internalType": "uint256",
          "name": "limit",
          "type": "uint256"
        }
      ],
      "name": "universeWarpers",
      "outputs": [
        {
          "internalType": "address[]",
          "name": "",
          "type": "address[]"
        },
        {
          "components": [
            {
              "internalType": "address",
              "name": "original",
              "type": "address"
            },
            {
              "internalType": "contract IWarperController",
              "name": "controller",
              "type": "address"
            },
            {
              "internalType": "string",
              "name": "name",
              "type": "string"
            },
            {
              "internalType": "uint256",
              "name": "universeId",
              "type": "uint256"
            },
            {
              "internalType": "bool",
              "name": "paused",
              "type": "bool"
            }
          ],
          "internalType": "struct Warpers.Warper[]",
          "name": "",
          "type": "tuple[]"
        }
      ],
      "stateMutability": "view",
      "type": "function"
    },
    {
      "inputs": [
        {
          "internalType": "uint256",
          "name": "listingId",
          "type": "uint256"
        }
      ],
      "name": "unpauseListing",
      "outputs": [],
      "stateMutability": "nonpayable",
      "type": "function"
    },
    {
      "inputs": [
        {
          "internalType": "address",
          "name": "warper",
          "type": "address"
        }
      ],
      "name": "unpauseWarper",
      "outputs": [],
      "stateMutability": "nonpayable",
      "type": "function"
    },
    {
      "inputs": [
        {
          "internalType": "address",
          "name": "newImplementation",
          "type": "address"
        }
      ],
      "name": "upgradeTo",
      "outputs": [],
      "stateMutability": "nonpayable",
      "type": "function"
    },
    {
      "inputs": [
        {
          "internalType": "address",
          "name": "newImplementation",
          "type": "address"
        },
        {
          "internalType": "bytes",
          "name": "data",
          "type": "bytes"
        }
      ],
      "name": "upgradeToAndCall",
      "outputs": [],
      "stateMutability": "payable",
      "type": "function"
    },
    {
      "inputs": [
        {
          "internalType": "address",
          "name": "lister",
          "type": "address"
        }
      ],
      "name": "userListingCount",
      "outputs": [
        {
          "internalType": "uint256",
          "name": "",
          "type": "uint256"
        }
      ],
      "stateMutability": "view",
      "type": "function"
    },
    {
      "inputs": [
        {
          "internalType": "address",
          "name": "lister",
          "type": "address"
        },
        {
          "internalType": "uint256",
          "name": "offset",
          "type": "uint256"
        },
        {
          "internalType": "uint256",
          "name": "limit",
          "type": "uint256"
        }
      ],
      "name": "userListings",
      "outputs": [
        {
          "internalType": "uint256[]",
          "name": "",
          "type": "uint256[]"
        },
        {
          "components": [
            {
              "components": [
                {
                  "components": [
                    {
                      "internalType": "bytes4",
                      "name": "class",
                      "type": "bytes4"
                    },
                    {
                      "internalType": "bytes",
                      "name": "data",
                      "type": "bytes"
                    }
                  ],
                  "internalType": "struct Assets.AssetId",
                  "name": "id",
                  "type": "tuple"
                },
                {
                  "internalType": "uint256",
                  "name": "value",
                  "type": "uint256"
                }
              ],
              "internalType": "struct Assets.Asset",
              "name": "asset",
              "type": "tuple"
            },
            {
              "components": [
                {
                  "internalType": "bytes4",
                  "name": "strategy",
                  "type": "bytes4"
                },
                {
                  "internalType": "bytes",
                  "name": "data",
                  "type": "bytes"
                }
              ],
              "internalType": "struct Listings.Params",
              "name": "params",
              "type": "tuple"
            },
            {
              "internalType": "address",
              "name": "lister",
              "type": "address"
            },
            {
              "internalType": "uint32",
              "name": "maxLockPeriod",
              "type": "uint32"
            },
            {
              "internalType": "uint32",
              "name": "lockedTill",
              "type": "uint32"
            },
            {
              "internalType": "bool",
              "name": "immediatePayout",
              "type": "bool"
            },
            {
              "internalType": "bool",
              "name": "delisted",
              "type": "bool"
            },
            {
              "internalType": "bool",
              "name": "paused",
              "type": "bool"
            }
          ],
          "internalType": "struct Listings.Listing[]",
          "name": "",
          "type": "tuple[]"
        }
      ],
      "stateMutability": "view",
      "type": "function"
    },
    {
      "inputs": [
        {
          "internalType": "address",
          "name": "renter",
          "type": "address"
        },
        {
          "internalType": "uint256",
          "name": "offset",
          "type": "uint256"
        },
        {
          "internalType": "uint256",
          "name": "limit",
          "type": "uint256"
        }
      ],
      "name": "userRentalAgreements",
      "outputs": [
        {
          "internalType": "uint256[]",
          "name": "",
          "type": "uint256[]"
        },
        {
          "components": [
            {
              "components": [
                {
                  "components": [
                    {
                      "internalType": "bytes4",
                      "name": "class",
                      "type": "bytes4"
                    },
                    {
                      "internalType": "bytes",
                      "name": "data",
                      "type": "bytes"
                    }
                  ],
                  "internalType": "struct Assets.AssetId",
                  "name": "id",
                  "type": "tuple"
                },
                {
                  "internalType": "uint256",
                  "name": "value",
                  "type": "uint256"
                }
              ],
              "internalType": "struct Assets.Asset",
              "name": "warpedAsset",
              "type": "tuple"
            },
            {
              "internalType": "bytes32",
              "name": "collectionId",
              "type": "bytes32"
            },
            {
              "internalType": "uint256",
              "name": "listingId",
              "type": "uint256"
            },
            {
              "internalType": "address",
              "name": "renter",
              "type": "address"
            },
            {
              "internalType": "uint32",
              "name": "startTime",
              "type": "uint32"
            },
            {
              "internalType": "uint32",
              "name": "endTime",
              "type": "uint32"
            }
          ],
          "internalType": "struct Rentings.Agreement[]",
          "name": "",
          "type": "tuple[]"
        }
      ],
      "stateMutability": "view",
      "type": "function"
    },
    {
      "inputs": [
        {
          "internalType": "address",
          "name": "renter",
          "type": "address"
        }
      ],
      "name": "userRentalCount",
      "outputs": [
        {
          "internalType": "uint256",
          "name": "",
          "type": "uint256"
        }
      ],
      "stateMutability": "view",
      "type": "function"
    },
    {
      "inputs": [
        {
          "internalType": "address",
          "name": "warper",
          "type": "address"
        }
      ],
      "name": "warperController",
      "outputs": [
        {
          "internalType": "address",
          "name": "",
          "type": "address"
        }
      ],
      "stateMutability": "view",
      "type": "function"
    },
    {
      "inputs": [
        {
          "internalType": "address",
          "name": "warper",
          "type": "address"
        }
      ],
      "name": "warperInfo",
      "outputs": [
        {
          "components": [
            {
              "internalType": "address",
              "name": "original",
              "type": "address"
            },
            {
              "internalType": "contract IWarperController",
              "name": "controller",
              "type": "address"
            },
            {
              "internalType": "string",
              "name": "name",
              "type": "string"
            },
            {
              "internalType": "uint256",
              "name": "universeId",
              "type": "uint256"
            },
            {
              "internalType": "bool",
              "name": "paused",
              "type": "bool"
            }
          ],
          "internalType": "struct Warpers.Warper",
          "name": "",
          "type": "tuple"
        }
      ],
      "stateMutability": "view",
      "type": "function"
    },
    {
      "inputs": [],
      "name": "warperPresetFactory",
      "outputs": [
        {
          "internalType": "address",
          "name": "",
          "type": "address"
        }
      ],
      "stateMutability": "view",
      "type": "function"
    },
    {
      "inputs": [
        {
          "internalType": "uint256",
          "name": "listingId",
          "type": "uint256"
        }
      ],
      "name": "withdrawAsset",
      "outputs": [],
      "stateMutability": "nonpayable",
      "type": "function"
    },
    {
      "inputs": [
        {
          "internalType": "address",
          "name": "token",
          "type": "address"
        },
        {
          "internalType": "uint256",
          "name": "amount",
          "type": "uint256"
        },
        {
          "internalType": "address",
          "name": "to",
          "type": "address"
        }
      ],
      "name": "withdrawFunds",
      "outputs": [],
      "stateMutability": "nonpayable",
      "type": "function"
    },
    {
      "inputs": [
        {
          "internalType": "address",
          "name": "token",
          "type": "address"
        },
        {
          "internalType": "uint256",
          "name": "amount",
          "type": "uint256"
        },
        {
          "internalType": "address",
          "name": "to",
          "type": "address"
        }
      ],
      "name": "withdrawProtocolFunds",
      "outputs": [],
      "stateMutability": "nonpayable",
      "type": "function"
    },
    {
      "inputs": [
        {
          "internalType": "uint256",
          "name": "universeId",
          "type": "uint256"
        },
        {
          "internalType": "address",
          "name": "token",
          "type": "address"
        },
        {
          "internalType": "uint256",
          "name": "amount",
          "type": "uint256"
        },
        {
          "internalType": "address",
          "name": "to",
          "type": "address"
        }
      ],
      "name": "withdrawUniverseFunds",
      "outputs": [],
      "stateMutability": "nonpayable",
      "type": "function"
    }
  ],
  "bytecode": "0x60a0604052306080523480156200001557600080fd5b50600054610100900460ff16620000335760005460ff16156200003d565b6200003d620000e2565b620000a55760405162461bcd60e51b815260206004820152602e60248201527f496e697469616c697a61626c653a20636f6e747261637420697320616c72656160448201526d191e481a5b9a5d1a585b1a5e995960921b606482015260840160405180910390fd5b600054610100900460ff16158015620000c8576000805461ffff19166101011790555b8015620000db576000805461ff00191690555b506200010f565b6000620000fa306200010060201b62002cc61760201c565b15905090565b6001600160a01b03163b151590565b608051615d3362000147600039600081816110da015281816111230152818161135f0152818161139f015261152e0152615d336000f3fe6080604052600436106102ae5760003560e01c80636eabf0bb11610175578063a75ea55d116100dc578063c55dae6311610095578063ebf03f491161006f578063ebf03f4914610914578063f1f56a1f14610934578063f4ba204614610961578063fee5f37f1461098157600080fd5b8063c55dae63146108b6578063c7b01560146108d4578063e528b081146108f457600080fd5b8063a75ea55d14610801578063a9b07c2614610821578063ae07477f14610836578063b203bb9914610856578063b995dbae14610876578063c1e58a211461089657600080fd5b806388b22ef41161012e57806388b22ef41461072c5780638c2c47141461074c5780638d92fdf31461076c5780638f36001f1461078c578063a0d18bb3146107be578063a5c5ad11146107ec57600080fd5b80636eabf0bb14610641578063719a3d0b1461066f578063729941351461068f57806378a2c9cd146106bc5780638468d228146106dc578063882080d3146106fc57600080fd5b806347c6b45e1161021957806352d1902d116101d257806352d1902d1461057d578063553b01091461059257806355431024146105a757806360ca9350146105d457806361b25b91146105f4578063662c1ff81461061457600080fd5b806347c6b45e146104bc5780634bd22a1b146104dc5780634d3084d3146104fc5780634f1ef2861461052a578063506cf01e1461053d57806350f771561461055d57600080fd5b80633253d5031161026b5780633253d503146103ef57806332756bcf1461040f57806333a932031461042f5780633659cfe61461045c57806339b1ea381461047c57806343d7c7781461049c57600080fd5b80630e540ec0146102b357806312cd849a146102d55780631e34787814610308578063255829cf1461032857806327e235e31461035657806328df759614610383575b600080fd5b3480156102bf57600080fd5b506102d36102ce36600461436a565b6109a1565b005b3480156102e157600080fd5b506102f56102f0366004614395565b610a39565b6040519081526020015b60405180910390f35b34801561031457600080fd5b506102f56103233660046143d5565b610d2e565b34801561033457600080fd5b50609854600160a01b900461ffff1660405161ffff90911681526020016102ff565b34801561036257600080fd5b50610376610371366004614405565b610dc2565b6040516102ff9190614422565b34801561038f57600080fd5b506103a361039e36600461447a565b610de6565b6040516102ff9190600060c082019050825182526020830151602083015260408301516040830152606083015160608301526080830151608083015260a083015160a083015292915050565b3480156103fb57600080fd5b506102d361040a366004614405565b610f1d565b34801561041b57600080fd5b506102d361042a366004614496565b610f81565b34801561043b57600080fd5b5061044f61044a3660046144cc565b611052565b6040516102ff9190614500565b34801561046857600080fd5b506102d3610477366004614405565b6110d0565b34801561048857600080fd5b506102f5610497366004614405565b6111b8565b3480156104a857600080fd5b506102d36104b736600461436a565b6111c5565b3480156104c857600080fd5b506102d36104d7366004614528565b611291565b3480156104e857600080fd5b506102f56104f7366004614405565b6112b1565b34801561050857600080fd5b5061051c61051736600461456a565b6112be565b6040516102ff929190614718565b6102d36105383660046148dc565b611355565b34801561054957600080fd5b506102d3610558366004614405565b611425565b34801561056957600080fd5b506102d361057836600461436a565b611489565b34801561058957600080fd5b506102f5611521565b34801561059e57600080fd5b506102f56115d4565b3480156105b357600080fd5b506105c76105c2366004614405565b6115e5565b6040516102ff9190614982565b3480156105e057600080fd5b506102f56105ef366004614405565b611710565b34801561060057600080fd5b5061037661060f36600461436a565b61171d565b34801561062057600080fd5b5061063461062f36600461436a565b611737565b6040516102ff91906149fc565b34801561064d57600080fd5b5061066161065c366004614a0f565b6118c3565b6040516102ff929190614a44565b34801561067b57600080fd5b5061051c61068a366004614a0f565b611957565b34801561069b57600080fd5b506106af6106aa36600461456a565b6119df565b6040516102ff9190614ae0565b3480156106c857600080fd5b506102f56106d73660046143d5565b611a68565b3480156106e857600080fd5b506102f56106f736600461436a565b611a80565b34801561070857600080fd5b5061071c610717366004614af3565b611a8d565b60405190151581526020016102ff565b34801561073857600080fd5b506102f5610747366004614405565b611b2e565b34801561075857600080fd5b506102d3610767366004614b21565b611b3b565b34801561077857600080fd5b506102d361078736600461436a565b611d60565b34801561079857600080fd5b5060a3546001600160a01b03165b6040516001600160a01b0390911681526020016102ff565b3480156107ca57600080fd5b506107de6107d9366004614a0f565b61211e565b6040516102ff929190614b33565b3480156107f857600080fd5b506103766121a6565b34801561080d57600080fd5b506102d361081c366004614528565b6121b2565b34801561082d57600080fd5b506102f561223c565b34801561084257600080fd5b506102f5610851366004614bb6565b612248565b34801561086257600080fd5b506102f5610871366004614af3565b61242e565b34801561088257600080fd5b5061051c610891366004614a0f565b612450565b3480156108a257600080fd5b506102d36108b1366004614405565b612493565b3480156108c257600080fd5b506098546001600160a01b03166107a6565b3480156108e057600080fd5b506102d36108ef366004614c3e565b612548565b34801561090057600080fd5b506102d361090f366004614c7d565b6125db565b34801561092057600080fd5b506107a661092f366004614405565b612a05565b34801561094057600080fd5b5061095461094f36600461436a565b612a36565b6040516102ff9190614cc8565b34801561096d57600080fd5b506102f561097c366004614405565b612c67565b34801561098d57600080fd5b506107de61099c366004614cdb565b612c74565b806109ad60a982612cd5565b600082815260ad602052604090206005015482906001600160a01b0316336001600160a01b0316146109f257604051636523fa7f60e11b815260040160405180910390fd5b600083815260ad60205260409020610a0990612d0e565b60405183907f62c9649045e00f9c2e96e4e578db9430301ac82a17718531f90e97e6a69202e490600090a2505050565b6000610a4b6060840160408501614405565b6001600160a01b0316336001600160a01b031614610a7c57604051635f4ecea960e11b815260040160405180910390fd5b604051630199f13960e01b815273__$e5879ada6f69714d7fc0d88dbcc568b31e$__90630199f13990610abc90869060989060a99060a390600401614d79565b60006040518083038186803b158015610ad457600080fd5b505af4158015610ae8573d6000803e3d6000fd5b50505050610afd83610af73390565b84612d4a565b600080610b2a8535610b156040880160208901614405565b610b256060890160408a01614405565b613046565b91509150600042905060006040518060c0016040528084815260200185815260200188600001358152602001886040016020810190610b699190614405565b6001600160a01b0316815263ffffffff84166020820152604001610b9360808a0160608b01614da3565b610b9d9085614dd6565b63ffffffff16905260405163a3f3af0760e01b815290915060009073__$e5879ada6f69714d7fc0d88dbcc568b31e$__9063a3f3af0790610be59060b0908690600401614dfe565b602060405180830381865af4158015610c02573d6000803e3d6000fd5b505050506040513d601f19601f82011682018060405250810190610c269190614e74565b60a08301518935600090815260ad60205260409020919250610c4891906131ea565b73__$e5879ada6f69714d7fc0d88dbcc568b31e$__63c017140260b0610c7460608c0160408d01614405565b8860026040518563ffffffff1660e01b8152600401610c969493929190614e8d565b60006040518083038186803b158015610cae57600080fd5b505af4158015610cc2573d6000803e3d6000fd5b50505050816040015182606001516001600160a01b0316827f76f9ffd08d0be80de00e3be8630a8aef939934c79fec4eedfb31e823e3be27bf856000015186608001518760a00151604051610d1993929190614eb1565b60405180910390a49450505050505b92915050565b60405163ab5d399360e01b815260b060048201526001600160a01b03821660248201526044810183905260009073__$e5879ada6f69714d7fc0d88dbcc568b31e$__9063ab5d399390606401602060405180830381865af4158015610d97573d6000803e3d6000fd5b505050506040513d601f19601f82011682018060405250810190610dbb9190614e74565b9392505050565b6001600160a01b0381166000908152609d60205260409020606090610d2890613232565b610e1f6040518060c001604052806000815260200160008152602001600081526020016000815260200160008152602001600081525090565b604051630199f13960e01b815273__$e5879ada6f69714d7fc0d88dbcc568b31e$__90630199f13990610e5f90859060989060a99060a390600401614d79565b60006040518083038186803b158015610e7757600080fd5b505af4158015610e8b573d6000803e3d6000fd5b5050609e54604051639dd6945b60e01b815273__$e5879ada6f69714d7fc0d88dbcc568b31e$__9350639dd6945b9250610edc91869160989160a99160a3916001600160a01b031690600401614ee1565b60c060405180830381865af4158015610ef9573d6000803e3d6000fd5b505050506040513d601f19601f82011682018060405250810190610d289190614f1d565b80610f288133613317565b6001600160a01b038216600090815260a860205260409020610f4990613395565b6040516001600160a01b038316907f2a08260ffc9feb9cd743cb3dd526a959666260abda15ed904061f3babce487ba90600090a25050565b6097546001600160a01b03166001600160a01b03166312d9a6ad6000336040516001600160e01b031960e085901b16815260048101929092526001600160a01b0316602482015260440160006040518083038186803b158015610fe357600080fd5b505afa158015610ff7573d6000803e3d6000fd5b50506098805461ffff60a01b1916600160a01b61ffff8616908102919091179091556040519081527f1b1669b1469af2b2bb8295fdaf1c1ff4cd9d41c56dc31e80d6c67e05854f9e209250602001905060405180910390a150565b60405163029d842960e21b815260009073__$e5879ada6f69714d7fc0d88dbcc568b31e$__90630a7610a49061108f9060b090869060040161503b565b602060405180830381865af41580156110ac573d6000803e3d6000fd5b505050506040513d601f19601f82011682018060405250810190610d289190615054565b6001600160a01b037f00000000000000000000000000000000000000000000000000000000000000001630036111215760405162461bcd60e51b815260040161111890615075565b60405180910390fd5b7f00000000000000000000000000000000000000000000000000000000000000006001600160a01b031661116a600080516020615cb7833981519152546001600160a01b031690565b6001600160a01b0316146111905760405162461bcd60e51b8152600401611118906150c1565b611199816133cb565b604080516000808252602082019092526111b591839190613441565b50565b6000610d2860a9836135ac565b806111d160a982612cd5565b600082815260ad602052604090206005015482906001600160a01b0316336001600160a01b03161461121657604051636523fa7f60e11b815260040160405180910390fd5b600083815260ad6020908152604091829020600581018054600160e81b60ff60e81b19821617918290559351600160c01b90910463ffffffff16815290926001600160a01b03169186917fc0c0619fe5bf378f25472067afca13995576b95e1351cefa4bce7c45929abe27910160405180910390a350505050565b336000908152609d602052604090206112ac908484846135cf565b505050565b6000610d28609983613647565b604051631d823e1d60e21b815260a960048201526024810183905260448101829052606090819073__$23c70d15f703c3ae387c840540427b8a00$__90637608f87490606401600060405180830381865af4158015611321573d6000803e3d6000fd5b505050506040513d6000823e601f3d908101601f1916820160405261134991908101906152ab565b915091505b9250929050565b6001600160a01b037f000000000000000000000000000000000000000000000000000000000000000016300361139d5760405162461bcd60e51b815260040161111890615075565b7f00000000000000000000000000000000000000000000000000000000000000006001600160a01b03166113e6600080516020615cb7833981519152546001600160a01b031690565b6001600160a01b03161461140c5760405162461bcd60e51b8152600401611118906150c1565b611415826133cb565b61142182826001613441565b5050565b806114308133613317565b6001600160a01b038216600090815260a8602052604090206114519061365d565b6040516001600160a01b038316907f1eaf28a93e1ad5dabb8e3983d0abb01359e7eafa0982af55e81d715704d25f4e90600090a25050565b8061149560a982612cd5565b600082815260ad602052604090206005015482906001600160a01b0316336001600160a01b0316146114da57604051636523fa7f60e11b815260040160405180910390fd5b600083815260ad602052604090206114f19061368f565b60405183907fccf05f4102545965ec08932c92c4db5980b2c27c5fc913e64756615f59e8e68990600090a2505050565b6000306001600160a01b037f000000000000000000000000000000000000000000000000000000000000000016146115c15760405162461bcd60e51b815260206004820152603860248201527f555550535570677261646561626c653a206d757374206e6f742062652063616c60448201527f6c6564207468726f7567682064656c656761746563616c6c00000000000000006064820152608401611118565b50600080516020615cb783398151915290565b60006115e0609f6136d2565b905090565b6040805160a081018252600080825260208201819052606092820183905291810182905260808101919091528161161d60a3826136e0565b6001600160a01b03808416600090815260a86020908152604091829020825160a081018452815485168152600182015490941691840191909152600281018054919284019161166b90615445565b80601f016020809104026020016040519081016040528092919081815260200182805461169790615445565b80156116e45780601f106116b9576101008083540402835291602001916116e4565b820191906000526020600020905b8154815290600101906020018083116116c757829003601f168201915b50505091835250506003820154602082015260049091015460ff16151560409091015291505b50919050565b6000610d2860a983613712565b6000818152609c60205260409020606090610d2890613232565b6040805161014081018252600061010082018181526060610120840181905260c0840191825260e08401839052908352602083018290529282018190529181018290526080810182905260a0810191909152600082815260b160205260409081902081516101408101909252805460e01b6001600160e01b0319166101008301908152600182018054849260c084019285928492918491610120880191906117de90615445565b80601f016020809104026020016040519081016040528092919081815260200182805461180a90615445565b80156118575780601f1061182c57610100808354040283529160200191611857565b820191906000526020600020905b81548152906001019060200180831161183a57829003601f168201915b50505091909252505050815260029190910154602091820152908252600383015490820152600482015460408201526005909101546001600160a01b038116606083015263ffffffff600160a01b820481166080840152600160c01b9091041660a09091015292915050565b604051634cf7b3fb60e01b8152606090819073__$e5879ada6f69714d7fc0d88dbcc568b31e$__90634cf7b3fb906119069060b090899089908990600401614e8d565b600060405180830381865af4158015611923573d6000803e3d6000fd5b505050506040513d6000823e601f3d908101601f1916820160405261194b9190810190615479565b91509150935093915050565b60405163f7596f9960e01b8152606090819073__$23c70d15f703c3ae387c840540427b8a00$__9063f7596f999061199a9060a990899089908990600401614e8d565b600060405180830381865af41580156119b7573d6000803e3d6000fd5b505050506040513d6000823e601f3d908101601f1916820160405261194b91908101906152ab565b6040516376946fcf60e01b8152609f6004820152602481018390526044810182905260609073__$48805a21cd2d79ca776bf2c16e4893ad10$__906376946fcf90606401600060405180830381865af4158015611a40573d6000803e3d6000fd5b505050506040513d6000823e601f3d908101601f19168201604052610dbb9190810190615627565b6000828152609c60205260408120610dbb9083613647565b6000610d2860a383613735565b600082611a9b60a3826136e0565b609e546001600160a01b03858116600090815260a860205260409081902060030154905163c8cb083f60e01b81526004810191909152858216602482015291169063c8cb083f90604401602060405180830381865afa158015611b02573d6000803e3d6000fd5b505050506040513d601f19601f82011682018060405250810190611b26919061565b565b949350505050565b6000610d2860b08361374e565b600054610100900460ff16611b565760005460ff1615611b5a565b303b155b611bbd5760405162461bcd60e51b815260206004820152602e60248201527f496e697469616c697a61626c653a20636f6e747261637420697320616c72656160448201526d191e481a5b9a5d1a585b1a5e995960921b6064820152608401611118565b600054610100900460ff16158015611bdf576000805461ffff19166101011790555b611be7613771565b611bf760a0830160808401614405565b609780546001600160a01b0319166001600160a01b03929092169190911790556040805180820190915280611c3260c0850160a08601614405565b6001600160a01b03168152602001611c5060e0850160c08601614496565b61ffff908116909152815160988054602094850151909316600160a01b026001600160b01b03199093166001600160a01b0390921691909117919091179055611c9b90830183614405565b60a380546001600160a01b0319166001600160a01b0392909216919091179055611ccb6040830160208401614405565b609f80546001600160a01b0319166001600160a01b0392909216919091179055611cfb6060830160408401614405565b60aa80546001600160a01b0319166001600160a01b0392909216919091179055611d2b6080830160608401614405565b609e80546001600160a01b0319166001600160a01b03929092169190911790558015611421576000805461ff00191690555050565b600081815260ad602052604090206005015481906001600160a01b0316336001600160a01b031614611da557604051636523fa7f60e11b815260040160405180910390fd5b600082815260ad602052604080822081516101808101909252805460e01b6001600160e01b031916610140830190815260018201805484926101008401928592849291849161016088019190611dfa90615445565b80601f0160208091040260200160405190810160405280929190818152602001828054611e2690615445565b8015611e735780601f10611e4857610100808354040283529160200191611e73565b820191906000526020600020905b815481529060010190602001808311611e5657829003601f168201915b50505050508152505081526020016002820154815250508152602001600382016040518060400160405290816000820160009054906101000a900460e01b6001600160e01b0319166001600160e01b0319168152602001600182018054611ed990615445565b80601f0160208091040260200160405190810160405280929190818152602001828054611f0590615445565b8015611f525780601f10611f2757610100808354040283529160200191611f52565b820191906000526020600020905b815481529060010190602001808311611f3557829003601f168201915b505050919092525050508152600591909101546001600160a01b038116602083015263ffffffff600160a01b820481166040840152600160c01b82048116606084015260ff600160e01b830481161515608080860191909152600160e81b84048216151560a0860152600160f01b90930416151560c090930192909252820151919250908116429091161015611ffb5760405163dcfbeafb60e01b815260040160405180910390fd5b604051633598a33560e21b815260a960048201526024810184905273__$23c70d15f703c3ae387c840540427b8a00$__9063d6628cd49060440160006040518083038186803b15801561204d57600080fd5b505af4158015612061573d6000803e3d6000fd5b5050825160405163221efb0360e11b815273__$48805a21cd2d79ca776bf2c16e4893ad10$__935063443df606925061209f91609f91600401615678565b60006040518083038186803b1580156120b757600080fd5b505af41580156120cb573d6000803e3d6000fd5b5050505080604001516001600160a01b0316837f1e5a15ab85db192d73c1e02de45c46144e19ffe3bd2ece777303173365ecb9b383600001516040516121119190615691565b60405180910390a3505050565b604051632277a89360e11b8152606090819073__$f390c19a6588bf1782f680f4e6750cf906$__906344ef5126906121619060a390899089908990600401614e8d565b600060405180830381865af415801561217e573d6000803e3d6000fd5b505050506040513d6000823e601f3d908101601f1916820160405261194b91908101906156a4565b60606115e06099613232565b6097546001600160a01b03166001600160a01b03166312d9a6ad6000336040516001600160e01b031960e085901b16815260048101929092526001600160a01b0316602482015260440160006040518083038186803b15801561221457600080fd5b505afa158015612228573d6000803e3d6000fd5b506112ac92506099915085905084846135cf565b60006115e060a96137de565b600061226661225e6122598761584c565b6137ec565b60a39061380a565b61227e612276602086018661589c565b60a99061383c565b604051631daa22cf60e11b815273__$48805a21cd2d79ca776bf2c16e4893ad10$__90633b54459e906122ba90609f90899033906004016158b9565b60006040518083038186803b1580156122d257600080fd5b505af41580156122e6573d6000803e3d6000fd5b505050506000604051806101000160405280876123029061584c565b815260200161231087615914565b8152602001336001600160a01b0316815263ffffffff861660208201526000604080830182905286151560608401526080830182905260a09092018190529051637bc13e0160e01b81529192509073__$23c70d15f703c3ae387c840540427b8a00$__90637bc13e019061238b9060a9908690600401615920565b602060405180830381865af41580156123a8573d6000803e3d6000fd5b505050506040513d601f19601f820116820180604052508101906123cc9190614e74565b905081604001516001600160a01b0316817f2aeb4abaf0fe7ca83b75bc43cd2fb6c99366bc042383e06da11e1a268b47d8ce84600001518560200151866060015160405161241c939291906159d1565b60405180910390a39695505050505050565b6001600160a01b0382166000908152609d60205260408120610dbb9083613647565b6040516337c5f58760e11b8152606090819073__$23c70d15f703c3ae387c840540427b8a00$__90636f8beb0e9061199a9060a990899089908990600401614e8d565b8061249e8133613317565b604051635e327ed560e01b815260a360048201526001600160a01b038316602482015273__$f390c19a6588bf1782f680f4e6750cf906$__90635e327ed59060440160006040518083038186803b1580156124f857600080fd5b505af415801561250c573d6000803e3d6000fd5b50506040516001600160a01b03851692507f752612ff761620ec780457bda227d89213d24d8914934d4e45c16bcb4d2b158c9150600090a25050565b609e5484906001600160a01b0316637dc330dc82336040516001600160e01b031960e085901b16815260048101929092526001600160a01b0316602482015260440160006040518083038186803b1580156125a257600080fd5b505afa1580156125b6573d6000803e3d6000fd5b5050506000868152609c602052604090206125d491508585856135cf565b5050505050565b609e546020820135906001600160a01b0316637dc330dc82336040516001600160e01b031960e085901b16815260048101929092526001600160a01b0316602482015260440160006040518083038186803b15801561263957600080fd5b505afa15801561264d573d6000803e3d6000fd5b505050506001600160a01b0383163b158061267f575061267d6001600160a01b038416630b3888fd60e31b6138ce565b155b156126a05760405160016217fc1360e31b0319815260040160405180910390fd5b6000836001600160a01b031663e846a5a96040518163ffffffff1660e01b8152600401602060405180830381865afa1580156126e0573d6000803e3d6000fd5b505050506040513d601f19601f820116820180604052508101906127049190615a0d565b9050612711609f826138ea565b6000846001600160a01b0316635a70a2836040518163ffffffff1660e01b8152600401602060405180830381865afa158015612751573d6000803e3d6000fd5b505050506040513d601f19601f820116820180604052508101906127759190615a2a565b90506001600160a01b03811630146127b157604051630391492160e41b81526001600160a01b0382166004820152306024820152604401611118565b60006127be609f84613979565b90506000866001600160a01b031663f46c73c66040518163ffffffff1660e01b8152600401602060405180830381865afa158015612800573d6000803e3d6000fd5b505050506040513d601f19601f820116820180604052508101906128249190615a2a565b6040805160a0810182526001600160a01b0380841682528516602082015291925073__$f390c19a6588bf1782f680f4e6750cf906$__9163c73a080a9160a3918b9181016128728c80615a47565b8080601f01602080910402602001604051908101604052809392919081815260200183838082843760009201919091525050509082525060208c810135908201526040908101906128c99060608e01908e01615a8d565b15158152506040518463ffffffff1660e01b81526004016128ec93929190615aaa565b60006040518083038186803b15801561290457600080fd5b505af4158015612918573d6000803e3d6000fd5b5050505061293081609f6139f490919063ffffffff16565b6129b757604051635fbd140f60e01b8152609f60048201526001600160e01b0319851660248201526001600160a01b038216604482015273__$48805a21cd2d79ca776bf2c16e4893ad10$__90635fbd140f9060640160006040518083038186803b15801561299e57600080fd5b505af41580156129b2573d6000803e3d6000fd5b505050505b806001600160a01b0316876001600160a01b031687602001357fa14bdeeb833f4488ecf5ee14fc30ccd266c23a9a363fc328eb7df0bb6af7ed6860405160405180910390a450505050505050565b600081612a1360a3826136e0565b50506001600160a01b03908116600090815260a860205260409020600101541690565b612a3e6142dd565b600082815260ad60205260409081902081516101808101909252805460e01b6001600160e01b031916610140830190815260018201805484926101008401928592849291849161016088019190612a9490615445565b80601f0160208091040260200160405190810160405280929190818152602001828054612ac090615445565b8015612b0d5780601f10612ae257610100808354040283529160200191612b0d565b820191906000526020600020905b815481529060010190602001808311612af057829003601f168201915b50505050508152505081526020016002820154815250508152602001600382016040518060400160405290816000820160009054906101000a900460e01b6001600160e01b0319166001600160e01b0319168152602001600182018054612b7390615445565b80601f0160208091040260200160405190810160405280929190818152602001828054612b9f90615445565b8015612bec5780601f10612bc157610100808354040283529160200191612bec565b820191906000526020600020905b815481529060010190602001808311612bcf57829003601f168201915b505050919092525050508152600591909101546001600160a01b038116602083015263ffffffff600160a01b820481166040840152600160c01b820416606083015260ff600160e01b8204811615156080840152600160e81b82048116151560a0840152600160f01b90910416151560c09091015292915050565b6000610d2860a383613a03565b60405163ef6c202d60e01b815260a36004820152602481018490526044810183905260648101829052606090819073__$f390c19a6588bf1782f680f4e6750cf906$__9063ef6c202d90608401612161565b6001600160a01b03163b151590565b60008181526004830160205260409020612cee90613a26565b6114215760405163068bb67560e51b815260048101829052602401611118565b6005810154600160f01b900460ff16612d3a5760405163b42960fd60e01b815260040160405180910390fd5b600501805460ff60f01b19169055565b609e54604051639dd6945b60e01b815260009173__$e5879ada6f69714d7fc0d88dbcc568b31e$__91639dd6945b91612d9c91889160989160a99160a3916001600160a01b0390911690600401614ee1565b60c060405180830381865af4158015612db9573d6000803e3d6000fd5b505050506040513d601f19601f82011682018060405250810190612ddd9190614f1d565b90506000612df160a0860160808701614405565b90508282600001511115612e1857604051631d5a07f360e21b815260040160405180910390fd5b8435600090815260ad602052604080822060608501519185015190918391612e409190615b18565b60058301549091506001600160a01b03811690600160e01b900460ff1615612e7c57612e776001600160a01b038616898385613a53565b612eac565b6001600160a01b0381166000908152609d60205260409020612e9f908684613ac4565b612ea98285615b18565b93505b600060a881612ec160408d0160208e01614405565b6001600160a01b03166001600160a01b0316815260200190815260200160002060030154905060008760a001518860800151612efd9190615b18565b6000838152609c60205260409020909150612f19908883613ac4565b612f238187615b18565b6020890151909650612f39906099908990613ac4565b6020880151612f489087615b18565b9550612f5f6001600160a01b0388168b3089613a53565b6001600160a01b0387166000846001600160a01b03167fbf41aad4c3074058a613f4e88cea850e86e57d902b608bb02fb715b64929a40f87604051612fa691815260200190565b60405180910390a4866001600160a01b0316827fd0d3e2b6da184374c29ef6b5894d81d6a59fb7e85ee392823a4f18bcfb6c40bd83604051612fea91815260200190565b60405180910390a3866001600160a01b03167f89b3c2ca51e9018064501bde534fc91ebacdce4784a91350b4e0759fc6f286fc896020015160405161303191815260200190565b60405180910390a25050505050505050505050565b604080516080810182526000918101828152606080830152815260208101829052600085815260ad60205260408082208151608081018352815460e01b6001600160e01b03191692810192835260018201805491938492909184916060850191906130b090615445565b80601f01602080910402602001604051908101604052809291908181526020018280546130dc90615445565b80156131295780601f106130fe57610100808354040283529160200191613129565b820191906000526020600020905b81548152906001019060200180831161310c57829003601f168201915b505050919092525050508152600291909101546020918201526001600160a01b03808816600090815260a890925260409182902060010154915192935016906131c99063c95eb64d60e01b906131879085908a908a90602401615b30565b60408051601f198184030181529190526020810180516001600160e01b03166001600160e01b0319909316929092179091526001600160a01b03831690613ae8565b8060200190518101906131dc9190615b63565b909890975095505050505050565b600582015463ffffffff808316600160c01b9092041610613209575050565b6005909101805463ffffffff909216600160c01b0263ffffffff60c01b19909216919091179055565b6060600061323f83613b0d565b90506000816001600160401b0381111561325b5761325b61478a565b6040519080825280602002602001820160405280156132a057816020015b60408051808201909152600080825260208201528152602001906001900390816132795790505b50905060005b8281101561330f576000806132bb8784613b18565b915091506040518060400160405280836001600160a01b03168152602001828152508484815181106132ef576132ef615b9f565b60200260200101819052505050808061330790615bb5565b9150506132a6565b509392505050565b609e546001600160a01b03838116600090815260a8602052604090819020600301549051631f70cc3760e21b815260048101919091528382166024820152911690637dc330dc9060440160006040518083038186803b15801561337957600080fd5b505afa15801561338d573d6000803e3d6000fd5b505050505050565b600481015460ff16156133bb5760405163651c69e160e01b815260040160405180910390fd5b600401805460ff19166001179055565b6097546001600160a01b03166001600160a01b03166312d9a6ad6000336040516001600160e01b031960e085901b16815260048101929092526001600160a01b0316602482015260440160006040518083038186803b15801561342d57600080fd5b505afa1580156125d4573d6000803e3d6000fd5b7f4910fdfa16fed3260ed0e7147f7cc6da11a60208b5b9406d12a635614ffd91435460ff1615613474576112ac83613b34565b826001600160a01b03166352d1902d6040518163ffffffff1660e01b8152600401602060405180830381865afa9250505080156134ce575060408051601f3d908101601f191682019092526134cb91810190614e74565b60015b6135315760405162461bcd60e51b815260206004820152602e60248201527f45524331393637557067726164653a206e657720696d706c656d656e7461746960448201526d6f6e206973206e6f74205555505360901b6064820152608401611118565b600080516020615cb783398151915281146135a05760405162461bcd60e51b815260206004820152602960248201527f45524331393637557067726164653a20756e737570706f727465642070726f786044820152681a58589b195555525160ba1b6064820152608401611118565b506112ac838383613bd0565b6001600160a01b03811660009081526005830160205260408120610dbb90613bf5565b816000036135f3576040516305a4a8e760e01b815260048101839052602401611118565b60006135ff8585613647565b90508083111561362557604051639266535160e01b815260048101829052602401611118565b6136328585858403613bff565b506125d46001600160a01b0385168385613c15565b6000806136548484613c45565b95945050505050565b600481015460ff1661368257604051633587233b60e11b815260040160405180910390fd5b600401805460ff19169055565b6005810154600160f01b900460ff16156136bc57604051637892dcf360e01b815260040160405180910390fd5b600501805460ff60f01b1916600160f01b179055565b6000610d2882600101613bf5565b6136ea82826139f4565b61142157604051634f59bc1f60e11b81526001600160a01b0382166004820152602401611118565b6001600160a01b03811660009081526006830160205260408120610dbb90613bf5565b60008181526003830160205260408120610dbb90613bf5565b6001600160a01b03811660009081526002830160205260408120610dbb90613bf5565b600054610100900460ff166137dc5760405162461bcd60e51b815260206004820152602b60248201527f496e697469616c697a61626c653a20636f6e7472616374206973206e6f74206960448201526a6e697469616c697a696e6760a81b6064820152608401611118565b565b6000610d2882600201613bf5565b6000816000015160200151806020019051810190610d289190615a2a565b6138148282613c5d565b6114215760405163ee84f40b60e01b81526001600160a01b0382166004820152602401611118565b6001820154604051631582016d60e01b81526001600160a01b0390911690631582016d9061386e908490600401615bce565b602060405180830381865afa15801561388b573d6000803e3d6000fd5b505050506040513d601f19601f820116820180604052508101906138af919061565b565b61142157806040516380f3229160e01b81526004016111189190615bce565b60006138d983613c8a565b8015610dbb5750610dbb8383613cbd565b81546040516303de1a5960e51b81526001600160a01b0390911690637bc34b2090613919908490600401615bce565b602060405180830381865afa158015613936573d6000803e3d6000fd5b505050506040513d601f19601f8201168201806040525081019061395a919061565b565b611421578060405163191e817360e21b81526004016111189190615bce565b8154604051630b42144760e41b81526000916001600160a01b03169063b4214470906139a9908590600401615bce565b6040805180830381865afa1580156139c5573d6000803e3d6000fd5b505050506040513d601f19601f820116820180604052508101906139e99190615be3565b602001519392505050565b6000610dbb6001840183613dae565b6001600160a01b03811660009081526004830160205260408120610dbb90613bf5565b60058101546000906001600160a01b031615801590610d2857505060050154600160e81b900460ff161590565b6040516001600160a01b0380851660248301528316604482015260648101829052613abe9085906323b872dd60e01b906084015b60408051601f198184030181529190526020810180516001600160e01b03166001600160e01b031990931692909217909152613dd0565b50505050565b6000613ad08484613647565b90506125d483613ae08484615b18565b869190613bff565b6060610dbb8383604051806060016040528060278152602001615cd760279139613ea2565b6000610d2882613f36565b6000808080613b278686613f41565b9097909650945050505050565b6001600160a01b0381163b613ba15760405162461bcd60e51b815260206004820152602d60248201527f455243313936373a206e657720696d706c656d656e746174696f6e206973206e60448201526c1bdd08184818dbdb9d1c9858dd609a1b6064820152608401611118565b600080516020615cb783398151915280546001600160a01b0319166001600160a01b0392909216919091179055565b613bd983613f6c565b600082511180613be65750805b156112ac57613abe8383613fac565b6000610d28825490565b6000611b26846001600160a01b03851684614058565b6040516001600160a01b0383166024820152604481018290526112ac90849063a9059cbb60e01b90606401613a87565b6000808080613b27866001600160a01b038716614075565b6001600160a01b038116600090815260048301602052604081208190613c8290613bf5565b119392505050565b6000613c9d826301ffc9a760e01b613cbd565b8015610d285750613cb6826001600160e01b0319613cbd565b1592915050565b6000806301ffc9a760e01b83604051602401613cd99190615bce565b604051602081830303815290604052906001600160e01b0319166020820180516001600160e01b0383818316178352505050509050600080856001600160a01b031661753084604051613d2c9190615c41565b6000604051808303818686fa925050503d8060008114613d68576040519150601f19603f3d011682016040523d82523d6000602084013e613d6d565b606091505b5091509150602081511015613d885760009350505050610d28565b818015613da4575080806020019051810190613da4919061565b565b9695505050505050565b6001600160a01b03811660009081526001830160205260408120541515610dbb565b6000613e25826040518060400160405280602081526020017f5361666545524332303a206c6f772d6c6576656c2063616c6c206661696c6564815250856001600160a01b03166140af9092919063ffffffff16565b8051909150156112ac5780806020019051810190613e43919061565b565b6112ac5760405162461bcd60e51b815260206004820152602a60248201527f5361666545524332303a204552433230206f7065726174696f6e20646964206e6044820152691bdd081cdd58d8d9595960b21b6064820152608401611118565b60606001600160a01b0384163b613ecb5760405162461bcd60e51b815260040161111890615c5d565b600080856001600160a01b031685604051613ee69190615c41565b600060405180830381855af49150503d8060008114613f21576040519150601f19603f3d011682016040523d82523d6000602084013e613f26565b606091505b5091509150613da48282866140be565b6000610d2882613bf5565b60008080613f4f85856140f7565b600081815260029690960160205260409095205494959350505050565b613f7581613b34565b6040516001600160a01b038216907fbc7cd75a20ee27fd9adebab32041f755214dbc6bffa90cc0225b39da2e5c2d3b90600090a250565b60606001600160a01b0383163b613fd55760405162461bcd60e51b815260040161111890615c5d565b600080846001600160a01b031684604051613ff09190615c41565b600060405180830381855af49150503d806000811461402b576040519150601f19603f3d011682016040523d82523d6000602084013e614030565b606091505b50915091506136548282604051806060016040528060278152602001615cd7602791396140be565b60008281526002840160205260408120829055611b268484614103565b60008181526002830160205260408120548190806140a457614097858561410f565b92506000915061134e9050565b60019250905061134e565b6060611b26848460008561411b565b606083156140cd575081610dbb565b8251156140dd5782518084602001fd5b8160405162461bcd60e51b81526004016111189190615ca3565b6000610dbb838361424c565b6000610dbb8383614276565b6000610dbb83836142c5565b60608247101561417c5760405162461bcd60e51b815260206004820152602660248201527f416464726573733a20696e73756666696369656e742062616c616e636520666f6044820152651c8818d85b1b60d21b6064820152608401611118565b6001600160a01b0385163b6141d35760405162461bcd60e51b815260206004820152601d60248201527f416464726573733a2063616c6c20746f206e6f6e2d636f6e74726163740000006044820152606401611118565b600080866001600160a01b031685876040516141ef9190615c41565b60006040518083038185875af1925050503d806000811461422c576040519150601f19603f3d011682016040523d82523d6000602084013e614231565b606091505b50915091506142418282866140be565b979650505050505050565b600082600001828154811061426357614263615b9f565b9060005260206000200154905092915050565b60008181526001830160205260408120546142bd57508154600181810184556000848152602080822090930184905584548482528286019093526040902091909155610d28565b506000610d28565b60008181526001830160205260408120541515610dbb565b60408051610180810190915260006101408201818152606061016084015261010083019081526101208301919091528190815260200161433a604051806040016040528060006001600160e01b0319168152602001606081525090565b815260006020820181905260408201819052606082018190526080820181905260a0820181905260c09091015290565b60006020828403121561437c57600080fd5b5035919050565b600060a0828403121561170a57600080fd5b60008060c083850312156143a857600080fd5b6143b28484614383565b9460a0939093013593505050565b6001600160a01b03811681146111b557600080fd5b600080604083850312156143e857600080fd5b8235915060208301356143fa816143c0565b809150509250929050565b60006020828403121561441757600080fd5b8135610dbb816143c0565b602080825282518282018190526000919060409081850190868401855b8281101561446d57815180516001600160a01b0316855286015186850152928401929085019060010161443f565b5091979650505050505050565b600060a0828403121561448c57600080fd5b610dbb8383614383565b6000602082840312156144a857600080fd5b813561ffff81168114610dbb57600080fd5b60006040828403121561170a57600080fd5b6000602082840312156144de57600080fd5b81356001600160401b038111156144f457600080fd5b611b26848285016144ba565b602081016003831061452257634e487b7160e01b600052602160045260246000fd5b91905290565b60008060006060848603121561453d57600080fd5b8335614548816143c0565b925060208401359150604084013561455f816143c0565b809150509250925092565b6000806040838503121561457d57600080fd5b50508035926020909101359150565b600081518084526020808501945080840160005b838110156145bc578151875295820195908201906001016145a0565b509495945050505050565b60005b838110156145e25781810151838201526020016145ca565b83811115613abe5750506000910152565b6000815180845261460b8160208601602086016145c7565b601f01601f19169290920160200192915050565b63ffffffff60e01b81511682526000602082015160406020850152611b2660408501826145f3565b600081516040845261465c604085018261461f565b602093840151949093019390935250919050565b6000610100825181855261468682860182614647565b915050602083015184820360208601526146a0828261461f565b91505060018060a01b03604084015116604085015263ffffffff606084015116606085015260808301516146dc608086018263ffffffff169052565b5060a08301516146f060a086018215159052565b5060c083015161470460c086018215159052565b5060e083015161330f60e086018215159052565b60408152600061472b604083018561458c565b6020838203818501528185518084528284019150828160051b85010183880160005b8381101561477b57601f19878403018552614769838351614670565b9486019492509085019060010161474d565b50909998505050505050505050565b634e487b7160e01b600052604160045260246000fd5b604080519081016001600160401b03811182821017156147c2576147c261478a565b60405290565b60405161010081016001600160401b03811182821017156147c2576147c261478a565b60405160c081016001600160401b03811182821017156147c2576147c261478a565b60405160a081016001600160401b03811182821017156147c2576147c261478a565b604051601f8201601f191681016001600160401b03811182821017156148575761485761478a565b604052919050565b60006001600160401b038211156148785761487861478a565b50601f01601f191660200190565b600082601f83011261489757600080fd5b81356148aa6148a58261485f565b61482f565b8181528460208386010111156148bf57600080fd5b816020850160208301376000918101602001919091529392505050565b600080604083850312156148ef57600080fd5b82356148fa816143c0565b915060208301356001600160401b0381111561491557600080fd5b61492185828601614886565b9150509250929050565b600060018060a01b0380835116845280602084015116602085015250604082015160a0604085015261496060a08501826145f3565b9050606083015160608501526080830151151560808501528091505092915050565b602081526000610dbb602083018461492b565b6000815160c084526149aa60c0850182614647565b9050602083015160208501526040830151604085015260018060a01b036060840151166060850152608083015163ffffffff80821660808701528060a08601511660a087015250508091505092915050565b602081526000610dbb6020830184614995565b600080600060608486031215614a2457600080fd5b8335614a2f816143c0565b95602085013595506040909401359392505050565b604081526000614a57604083018561458c565b6020838203818501528185518084528284019150828160051b85010183880160005b8381101561477b57601f19878403018552614a95838351614995565b94860194925090850190600101614a79565b600081518084526020808501945080840160005b838110156145bc5781516001600160a01b031687529582019590820190600101614abb565b602081526000610dbb6020830184614aa7565b60008060408385031215614b0657600080fd5b8235614b11816143c0565b915060208301356143fa816143c0565b600060e0828403121561170a57600080fd5b604081526000614b466040830185614aa7565b6020838203818501528185518084528284019150828160051b85010183880160005b8381101561477b57601f19878403018552614b8483835161492b565b94860194925090850190600101614b68565b63ffffffff811681146111b557600080fd5b80151581146111b557600080fd5b60008060008060808587031215614bcc57600080fd5b84356001600160401b0380821115614be357600080fd5b614bef888389016144ba565b95506020870135915080821115614c0557600080fd5b50614c12878288016144ba565b9350506040850135614c2381614b96565b91506060850135614c3381614ba8565b939692955090935050565b60008060008060808587031215614c5457600080fd5b843593506020850135614c66816143c0565b9250604085013591506060850135614c33816143c0565b60008060408385031215614c9057600080fd5b8235614c9b816143c0565b915060208301356001600160401b03811115614cb657600080fd5b8301606081860312156143fa57600080fd5b602081526000610dbb6020830184614670565b600080600060608486031215614cf057600080fd5b505081359360208301359350604090920135919050565b803582526020810135614d19816143c0565b6001600160a01b039081166020840152604082013590614d38826143c0565b9081166040840152606082013590614d4f82614b96565b63ffffffff8216606085015260808301359150614d6b826143c0565b808216608085015250505050565b6101008101614d888287614d07565b8460a08301528360c08301528260e083015295945050505050565b600060208284031215614db557600080fd5b8135610dbb81614b96565b634e487b7160e01b600052601160045260246000fd5b600063ffffffff808316818516808303821115614df557614df5614dc0565b01949350505050565b828152604060208201526000825160c06040840152614e21610100840182614647565b9050602084015160608401526040840151608084015260018060a01b0360608501511660a0840152608084015163ffffffff80821660c08601528060a08701511660e08601525050809150509392505050565b600060208284031215614e8657600080fd5b5051919050565b9384526001600160a01b039290921660208401526040830152606082015260800190565b606081526000614ec46060830186614647565b63ffffffff94851660208401529290931660409091015292915050565b6101208101614ef08288614d07565b60a082019590955260c081019390935260e08301919091526001600160a01b031661010090910152919050565b600060c08284031215614f2f57600080fd5b60405160c081018181106001600160401b0382111715614f5157614f5161478a565b8060405250825181526020830151602082015260408301516040820152606083015160608201526080830151608082015260a083015160a08201528091505092915050565b6001600160e01b0319811681146111b557600080fd5b60008135614fb981614f96565b6001600160e01b0319168352602082013536839003601e19018112614fdd57600080fd5b820180356001600160401b03811115614ff557600080fd5b80360384131561500457600080fd5b60406020860152806040860152806020830160608701376000606082870101526060601f19601f8301168601019250505092915050565b828152604060208201526000611b266040830184614fac565b60006020828403121561506657600080fd5b815160038110610dbb57600080fd5b6020808252602c908201527f46756e6374696f6e206d7573742062652063616c6c6564207468726f7567682060408201526b19195b1959d85d1958d85b1b60a21b606082015260800190565b6020808252602c908201527f46756e6374696f6e206d7573742062652063616c6c6564207468726f7567682060408201526b6163746976652070726f787960a01b606082015260800190565b60006001600160401b038211156151265761512661478a565b5060051b60200190565b600082601f83011261514157600080fd5b815160206151516148a58361510d565b82815260059290921b8401810191818101908684111561517057600080fd5b8286015b8481101561518b5780518352918301918301615174565b509695505050505050565b60006151a46148a58461485f565b90508281528383830111156151b857600080fd5b610dbb8360208301846145c7565b6000604082840312156151d857600080fd5b6151e06147a0565b905081516151ed81614f96565b815260208201516001600160401b0381111561520857600080fd5b8201601f8101841361521957600080fd5b61522884825160208401615196565b60208301525092915050565b60006040828403121561524657600080fd5b61524e6147a0565b905081516001600160401b0381111561526657600080fd5b615272848285016151c6565b8252506020820151602082015292915050565b8051615290816143c0565b919050565b805161529081614b96565b805161529081614ba8565b600080604083850312156152be57600080fd5b82516001600160401b03808211156152d557600080fd5b6152e186838701615130565b93506020915081850151818111156152f857600080fd5b8501601f8101871361530957600080fd5b80516153176148a58261510d565b81815260059190911b8201840190848101908983111561533657600080fd5b8584015b83811015615434578051868111156153525760008081fd5b8501610100818d03601f190181131561536b5760008081fd5b6153736147c8565b89830151898111156153855760008081fd5b6153938f8c83870101615234565b8252506040830151898111156153a95760008081fd5b6153b78f8c838701016151c6565b8b8301525060606153c9818501615285565b604083015260806153db818601615295565b8284015260a091506153ee828601615295565b9083015260c06153ff8582016152a0565b8284015260e091506154128286016152a0565b908301526154218484016152a0565b908201528552505091860191860161533a565b508096505050505050509250929050565b600181811c9082168061545957607f821691505b60208210810361170a57634e487b7160e01b600052602260045260246000fd5b6000806040838503121561548c57600080fd5b82516001600160401b03808211156154a357600080fd5b6154af86838701615130565b93506020915081850151818111156154c657600080fd5b8501601f810187136154d757600080fd5b80516154e56148a58261510d565b81815260059190911b8201840190848101908983111561550457600080fd5b8584015b83811015615434578051868111156155205760008081fd5b850160c0818d03601f19018113156155385760008081fd5b6155406147eb565b89830151898111156155525760008081fd5b6155608f8c83870101615234565b82525060408301518a8201526060808401516040830152608080850151615586816143c0565b80838501525060a091508185015161559d81614b96565b9083015292820151926155af84614b96565b810192909252508352918601918601615508565b600082601f8301126155d457600080fd5b815160206155e46148a58361510d565b82815260059290921b8401810191818101908684111561560357600080fd5b8286015b8481101561518b57805161561a816143c0565b8352918301918301615607565b60006020828403121561563957600080fd5b81516001600160401b0381111561564f57600080fd5b611b26848285016155c3565b60006020828403121561566d57600080fd5b8151610dbb81614ba8565b828152604060208201526000611b266040830184614647565b602081526000610dbb6020830184614647565b60008060408084860312156156b857600080fd5b83516001600160401b03808211156156cf57600080fd5b6156db878388016155c3565b94506020915081860151818111156156f257600080fd5b8601601f8101881361570357600080fd5b80516157116148a58261510d565b81815260059190911b8201840190848101908a83111561573057600080fd5b8584015b838110156157ec5780518681111561574b57600080fd5b850160a0818e03601f1901121561576157600080fd5b61576961480d565b88820151615776816143c0565b8152818a0151615785816143c0565b818a015260608201518881111561579c5760008081fd5b8201603f81018f136157ae5760008081fd5b6157be8f8b8301518d8401615196565b8b8301525060808083015160608301526157da60a084016152a0565b90820152845250918601918601615734565b50809750505050505050509250929050565b60006040828403121561581057600080fd5b6158186147a0565b9050813561582581614f96565b815260208201356001600160401b0381111561584057600080fd5b61522884828501614886565b60006040823603121561585e57600080fd5b6158666147a0565b82356001600160401b0381111561587c57600080fd5b615888368286016157fe565b825250602092830135928101929092525090565b6000602082840312156158ae57600080fd5b8135610dbb81614f96565b8381526060602082015260008335603e198536030181126158d957600080fd5b604060608401526158ef60a08401868301614fac565b60209590950135608084015250506001600160a01b0391909116604090910152919050565b6000610d2836836157fe565b8281526040602082015260008251610100806040850152615945610140850183614647565b91506020850151603f19858403016060860152615962838261461f565b60408701516001600160a01b03166080870152606087015163ffffffff811660a0880152909350905050608085015163ffffffff811660c08601525060a085015180151560e08601525060c085015180151585830152505060e084015180151561012085015250949350505050565b6060815260006159e46060830186614647565b82810360208401526159f6818661461f565b91505063ffffffff83166040830152949350505050565b600060208284031215615a1f57600080fd5b8151610dbb81614f96565b600060208284031215615a3c57600080fd5b8151610dbb816143c0565b6000808335601e19843603018112615a5e57600080fd5b8301803591506001600160401b03821115615a7857600080fd5b60200191503681900382131561134e57600080fd5b600060208284031215615a9f57600080fd5b8135610dbb81614ba8565b838152600060018060a01b0380851660208401526060604084015280845116606084015280602085015116608084015250604083015160a080840152615af46101008401826145f3565b9050606084015160c08401526080840151151560e084015280915050949350505050565b60008219821115615b2b57615b2b614dc0565b500190565b606081526000615b436060830186614647565b6001600160a01b0394851660208401529290931660409091015292915050565b60008060408385031215615b7657600080fd5b8251915060208301516001600160401b03811115615b9357600080fd5b61492185828601615234565b634e487b7160e01b600052603260045260246000fd5b600060018201615bc757615bc7614dc0565b5060010190565b6001600160e01b031991909116815260200190565b600060408284031215615bf557600080fd5b604051604081018181106001600160401b0382111715615c1757615c1761478a565b6040528251615c25816143c0565b81526020830151615c35816143c0565b60208201529392505050565b60008251615c538184602087016145c7565b9190910192915050565b60208082526026908201527f416464726573733a2064656c65676174652063616c6c20746f206e6f6e2d636f6040820152651b9d1c9858dd60d21b606082015260800190565b602081526000610dbb60208301846145f356fe360894a13ba1a3210667c828492db98dca3e2076cc3735a920a3ca505d382bbc416464726573733a206c6f772d6c6576656c2064656c65676174652063616c6c206661696c6564a26469706673582212204d1416d2e99c2ba65aab7017aa7264ee806a89d74f1609e99049155a6d47d1f264736f6c634300080d0033",
  "linkReferences": {
    "contracts/asset/Assets.sol": {
      "Assets": [
        {
          "length": 20,
          "start": 6989
        },
        {
          "length": 20,
          "start": 8635
        },
        {
          "length": 20,
          "start": 9172
        },
        {
          "length": 20,
          "start": 10928
        }
      ]
    },
    "contracts/listing/Listings.sol": {
      "Listings": [
        {
          "length": 20,
          "start": 5166
        },
        {
          "length": 20,
          "start": 6834
        },
        {
          "length": 20,
          "start": 8543
        },
        {
          "length": 20,
          "start": 9383
        },
        {
          "length": 20,
          "start": 9643
        }
      ]
    },
    "contracts/renting/Rentings.sol": {
      "Rentings": [
        {
          "length": 20,
          "start": 3026
        },
        {
          "length": 20,
          "start": 3329
        },
        {
          "length": 20,
          "start": 3473
        },
        {
          "length": 20,
          "start": 3748
        },
        {
          "length": 20,
          "start": 3957
        },
        {
          "length": 20,
          "start": 4070
        },
        {
          "length": 20,
          "start": 4523
        },
        {
          "length": 20,
          "start": 6686
        },
        {
          "length": 20,
          "start": 11942
        }
      ]
    },
    "contracts/warper/Warpers.sol": {
      "Warpers": [
        {
          "length": 20,
          "start": 8825
        },
        {
          "length": 20,
          "start": 9738
        },
        {
          "length": 20,
          "start": 10638
        },
        {
          "length": 20,
          "start": 11755
        }
      ]
    }
  },
  "deployedLinkReferences": {
    "contracts/asset/Assets.sol": {
      "Assets": [
        {
          "length": 20,
          "start": 6662
        },
        {
          "length": 20,
          "start": 8308
        },
        {
          "length": 20,
          "start": 8845
        },
        {
          "length": 20,
          "start": 10601
        }
      ]
    },
    "contracts/listing/Listings.sol": {
      "Listings": [
        {
          "length": 20,
          "start": 4839
        },
        {
          "length": 20,
          "start": 6507
        },
        {
          "length": 20,
          "start": 8216
        },
        {
          "length": 20,
          "start": 9056
        },
        {
          "length": 20,
          "start": 9316
        }
      ]
    },
    "contracts/renting/Rentings.sol": {
      "Rentings": [
        {
          "length": 20,
          "start": 2699
        },
        {
          "length": 20,
          "start": 3002
        },
        {
          "length": 20,
          "start": 3146
        },
        {
          "length": 20,
          "start": 3421
        },
        {
          "length": 20,
          "start": 3630
        },
        {
          "length": 20,
          "start": 3743
        },
        {
          "length": 20,
          "start": 4196
        },
        {
          "length": 20,
          "start": 6359
        },
        {
          "length": 20,
          "start": 11615
        }
      ]
    },
    "contracts/warper/Warpers.sol": {
      "Warpers": [
        {
          "length": 20,
          "start": 8498
        },
        {
          "length": 20,
          "start": 9411
        },
        {
          "length": 20,
          "start": 10311
        },
        {
          "length": 20,
          "start": 11428
        }
      ]
    }
  }
}