{
  "_format": "hh-sol-artifact-1",
  "contractName": "Assets",
  "sourceName": "contracts/asset/Assets.sol",
  "abi": [
    {
      "inputs": [
        {
          "internalType": "address",
          "name": "asset",
          "type": "address"
        }
      ],
      "name": "AssetIsAlreadyRegistered",
      "type": "error"
    },
    {
      "inputs": [
        {
          "internalType": "bytes4",
          "name": "assetClass",
          "type": "bytes4"
        }
      ],
      "name": "UnsupportedAssetClass",
      "type": "error"
    },
    {
      "inputs": [],
      "name": "ASSET_ID_TYPEHASH",
      "outputs": [
        {
          "internalType": "bytes32",
          "name": "",
          "type": "bytes32"
        }
      ],
      "stateMutability": "view",
      "type": "function"
    },
    {
      "inputs": [],
      "name": "ASSET_TYPEHASH",
      "outputs": [
        {
          "internalType": "bytes32",
          "name": "",
          "type": "bytes32"
        }
      ],
      "stateMutability": "view",
      "type": "function"
    },
    {
      "inputs": [],
      "name": "ERC1155",
      "outputs": [
        {
          "internalType": "bytes4",
          "name": "",
          "type": "bytes4"
        }
      ],
      "stateMutability": "view",
      "type": "function"
    },
    {
      "inputs": [],
      "name": "ERC721",
      "outputs": [
        {
          "internalType": "bytes4",
          "name": "",
          "type": "bytes4"
        }
      ],
      "stateMutability": "view",
      "type": "function"
    }
  ],
  "bytecode": "0x610c3d61003a600b82828239805160001a60731461002d57634e487b7160e01b600052600060045260246000fd5b30600052607381538281f3fe73000000000000000000000000000000000000000030146080604052600436106100925760003560e01c806376946fcf1161006557806376946fcf1461013e5780638425abff1461015e57806388f38d7114610185578063fcd0d9d3146101ba57600080fd5b80632d255471146100975780633b54459e146100dc578063443df606146100fe5780635fbd140f1461011e575b600080fd5b6100be7f973bb64086f173ec8099b7ed3d43da984f4a332e4417a08bc6a286e6402b058681565b6040516001600160e01b031990911681526020015b60405180910390f35b8180156100e857600080fd5b506100fc6100f7366004610871565b6101e1565b005b81801561010a57600080fd5b506100fc6101193660046108cc565b610286565b81801561012a57600080fd5b506100fc610139366004610913565b6102e6565b61015161014c366004610948565b6103e4565b6040516100d39190610974565b6100be7f73ad2146b3d3a286642c794379d750360a2d53a3459a11b3e5d6cc900f55f44a81565b6101ac7fe572bf63c99d807e749180ef2e095adf03b28545e8b411e85f0b71d2fcf65f8681565b6040519081526020016100d3565b6101ac7fd0325d50510c4735ebac5dadfd746297546c6215b3b01fbcc9ccab1427fef91581565b60006101ec836104e2565b6001600160a01b038082166000908152600387016020526040908190208054600190910154915193945082169291169061027d9063e4f75ad360e01b9061023b90889088908690602401610a64565b60408051601f198184030181529190526020810180516001600160e01b03166001600160e01b0319909316929092179091526001600160a01b03841690610506565b50505050505050565b6000610291826104e2565b6001600160a01b03808216600090815260038601602052604090819020805460019091015491519394508216929116906102de906334dede8760e11b9061023b9087908590602401610a97565b505050505050565b6102f3600184018261052b565b6103205760405163d4e22b2960e01b81526001600160a01b03821660048201526024015b60405180910390fd5b8254604051630b42144760e41b81526001600160e01b0319841660048201526000916001600160a01b03169063b4214470906024016040805180830381865afa158015610371573d6000803e3d6000fd5b505050506040513d601f19601f820116820180604052508101906103959190610ac1565b80516001600160a01b0393841660009081526003909601602090815260409096206001810180549286166001600160a01b03199384161790559590910151855493169216919091179092555050565b606060006103f485600101610540565b90508084106104135750506040805160008152602081019091526104db565b61041d8482610b36565b8311156104315761042e8482610b36565b92505b60008367ffffffffffffffff81111561044c5761044c6106e5565b604051908082528060200260200182016040528015610475578160200160208202803683370190505b50905060005b848110156104d65761049a6104908288610b4d565b600189019061054a565b8282815181106104ac576104ac610b65565b6001600160a01b0390921660209283029190910190910152806104ce81610b7b565b91505061047b565b509150505b9392505050565b60008160000151602001518060200190518101906105009190610b94565b92915050565b60606104db8383604051806060016040528060278152602001610be160279139610556565b60006104db836001600160a01b038416610633565b6000610500825490565b60006104db8383610682565b60606001600160a01b0384163b6105be5760405162461bcd60e51b815260206004820152602660248201527f416464726573733a2064656c65676174652063616c6c20746f206e6f6e2d636f6044820152651b9d1c9858dd60d21b6064820152608401610317565b600080856001600160a01b0316856040516105d99190610bb1565b600060405180830381855af49150503d8060008114610614576040519150601f19603f3d011682016040523d82523d6000602084013e610619565b606091505b50915091506106298282866106ac565b9695505050505050565b600081815260018301602052604081205461067a57508154600181810184556000848152602080822090930184905584548482528286019093526040902091909155610500565b506000610500565b600082600001828154811061069957610699610b65565b9060005260206000200154905092915050565b606083156106bb5750816104db565b8251156106cb5782518084602001fd5b8160405162461bcd60e51b81526004016103179190610bcd565b634e487b7160e01b600052604160045260246000fd5b6040805190810167ffffffffffffffff8111828210171561071e5761071e6106e5565b60405290565b604051601f8201601f1916810167ffffffffffffffff8111828210171561074d5761074d6106e5565b604052919050565b80356001600160e01b03198116811461076d57600080fd5b919050565b60006040828403121561078457600080fd5b61078c6106fb565b9050813567ffffffffffffffff808211156107a657600080fd5b90830190604082860312156107ba57600080fd5b6107c26106fb565b6107cb83610755565b8152602080840135838111156107e057600080fd5b80850194505086601f8501126107f557600080fd5b833583811115610807576108076106e5565b610819601f8201601f19168301610724565b9350808452878282870101111561082f57600080fd5b80828601838601376000908401820152818101929092528352928301359282019290925292915050565b6001600160a01b038116811461086e57600080fd5b50565b60008060006060848603121561088657600080fd5b83359250602084013567ffffffffffffffff8111156108a457600080fd5b6108b086828701610772565b92505060408401356108c181610859565b809150509250925092565b600080604083850312156108df57600080fd5b82359150602083013567ffffffffffffffff8111156108fd57600080fd5b61090985828601610772565b9150509250929050565b60008060006060848603121561092857600080fd5b8335925061093860208501610755565b915060408401356108c181610859565b60008060006060848603121561095d57600080fd5b505081359360208301359350604090920135919050565b6020808252825182820181905260009190848201906040850190845b818110156109b55783516001600160a01b031683529284019291840191600101610990565b50909695505050505050565b60005b838110156109dc5781810151838201526020016109c4565b838111156109eb576000848401525b50505050565b60008151808452610a098160208601602086016109c1565b601f01601f19169290920160200192915050565b600081516040845263ffffffff60e01b81511660408501526020810151905060406060850152610a5060808501826109f1565b602093840151949093019390935250919050565b606081526000610a776060830186610a1d565b6001600160a01b0394851660208401529290931660409091015292915050565b604081526000610aaa6040830185610a1d565b905060018060a01b03831660208301529392505050565b600060408284031215610ad357600080fd5b6040516040810181811067ffffffffffffffff82111715610af657610af66106e5565b6040528251610b0481610859565b81526020830151610b1481610859565b60208201529392505050565b634e487b7160e01b600052601160045260246000fd5b600082821015610b4857610b48610b20565b500390565b60008219821115610b6057610b60610b20565b500190565b634e487b7160e01b600052603260045260246000fd5b600060018201610b8d57610b8d610b20565b5060010190565b600060208284031215610ba657600080fd5b81516104db81610859565b60008251610bc38184602087016109c1565b9190910192915050565b6020815260006104db60208301846109f156fe416464726573733a206c6f772d6c6576656c2064656c65676174652063616c6c206661696c6564a264697066735822122049bc68ae6bd5c2f6a595687afe5ba0dcf909b51622420e4dc428e3d6a074cdad64736f6c634300080d0033",
  "linkReferences": {},
  "deployedLinkReferences": {}
}