{
  "_format": "hh-sol-artifact-1",
  "contractName": "Assets",
  "sourceName": "contracts/asset/Assets.sol",
  "abi": [
    {
      "inputs": [
        {
          "internalType": "address",
          "name": "asset",
          "type": "address"
        }
      ],
      "name": "AssetIsAlreadyRegistered",
      "type": "error"
    },
    {
      "inputs": [
        {
          "internalType": "bytes4",
          "name": "assetClass",
          "type": "bytes4"
        }
      ],
      "name": "UnsupportedAssetClass",
      "type": "error"
    },
    {
      "inputs": [],
      "name": "ASSET_ID_TYPEHASH",
      "outputs": [
        {
          "internalType": "bytes32",
          "name": "",
          "type": "bytes32"
        }
      ],
      "stateMutability": "view",
      "type": "function"
    },
    {
      "inputs": [],
      "name": "ASSET_TYPEHASH",
      "outputs": [
        {
          "internalType": "bytes32",
          "name": "",
          "type": "bytes32"
        }
      ],
      "stateMutability": "view",
      "type": "function"
    },
    {
      "inputs": [],
      "name": "ERC1155",
      "outputs": [
        {
          "internalType": "bytes4",
          "name": "",
          "type": "bytes4"
        }
      ],
      "stateMutability": "view",
      "type": "function"
    },
    {
      "inputs": [],
      "name": "ERC721",
      "outputs": [
        {
          "internalType": "bytes4",
          "name": "",
          "type": "bytes4"
        }
      ],
      "stateMutability": "view",
      "type": "function"
    }
  ],
  "bytecode": "0x610c2061003a600b82828239805160001a60731461002d57634e487b7160e01b600052600060045260246000fd5b30600052607381538281f3fe73000000000000000000000000000000000000000030146080604052600436106100925760003560e01c806376946fcf1161006557806376946fcf1461013e5780638425abff1461015e57806388f38d7114610185578063fcd0d9d3146101ba57600080fd5b80632d255471146100975780633b54459e146100dc578063443df606146100fe5780635fbd140f1461011e575b600080fd5b6100be7f973bb64086f173ec8099b7ed3d43da984f4a332e4417a08bc6a286e6402b058681565b6040516001600160e01b031990911681526020015b60405180910390f35b8180156100e857600080fd5b506100fc6100f7366004610854565b6101e1565b005b81801561010a57600080fd5b506100fc6101193660046108af565b610286565b81801561012a57600080fd5b506100fc6101393660046108f6565b6102e6565b61015161014c36600461092b565b6103e4565b6040516100d39190610957565b6100be7f73ad2146b3d3a286642c794379d750360a2d53a3459a11b3e5d6cc900f55f44a81565b6101ac7fe572bf63c99d807e749180ef2e095adf03b28545e8b411e85f0b71d2fcf65f8681565b6040519081526020016100d3565b6101ac7fd0325d50510c4735ebac5dadfd746297546c6215b3b01fbcc9ccab1427fef91581565b60006101ec836104c5565b6001600160a01b038082166000908152600387016020526040908190208054600190910154915193945082169291169061027d9063e4f75ad360e01b9061023b90889088908690602401610a47565b60408051601f198184030181529190526020810180516001600160e01b03166001600160e01b0319909316929092179091526001600160a01b038416906104e9565b50505050505050565b6000610291826104c5565b6001600160a01b03808216600090815260038601602052604090819020805460019091015491519394508216929116906102de906334dede8760e11b9061023b9087908590602401610a7a565b505050505050565b6102f3600184018261050e565b6103205760405163d4e22b2960e01b81526001600160a01b03821660048201526024015b60405180910390fd5b8254604051630b42144760e41b81526001600160e01b0319841660048201526000916001600160a01b03169063b4214470906024016040805180830381865afa158015610371573d6000803e3d6000fd5b505050506040513d601f19601f820116820180604052508101906103959190610aa4565b80516001600160a01b0393841660009081526003909601602090815260409096206001810180549286166001600160a01b03199384161790559590910151855493169216919091179092555050565b606060006103f485600101610523565b90506104008482610b19565b831115610414576104118482610b19565b92505b60008367ffffffffffffffff81111561042f5761042f6106c8565b604051908082528060200260200182016040528015610458578160200160208202803683370190505b50905060005b848110156104b95761047d6104738288610b30565b600189019061052d565b82828151811061048f5761048f610b48565b6001600160a01b0390921660209283029190910190910152806104b181610b5e565b91505061045e565b509150505b9392505050565b60008160000151602001518060200190518101906104e39190610b77565b92915050565b60606104be8383604051806060016040528060278152602001610bc460279139610539565b60006104be836001600160a01b038416610616565b60006104e3825490565b60006104be8383610665565b60606001600160a01b0384163b6105a15760405162461bcd60e51b815260206004820152602660248201527f416464726573733a2064656c65676174652063616c6c20746f206e6f6e2d636f6044820152651b9d1c9858dd60d21b6064820152608401610317565b600080856001600160a01b0316856040516105bc9190610b94565b600060405180830381855af49150503d80600081146105f7576040519150601f19603f3d011682016040523d82523d6000602084013e6105fc565b606091505b509150915061060c82828661068f565b9695505050505050565b600081815260018301602052604081205461065d575081546001818101845560008481526020808220909301849055845484825282860190935260409020919091556104e3565b5060006104e3565b600082600001828154811061067c5761067c610b48565b9060005260206000200154905092915050565b6060831561069e5750816104be565b8251156106ae5782518084602001fd5b8160405162461bcd60e51b81526004016103179190610bb0565b634e487b7160e01b600052604160045260246000fd5b6040805190810167ffffffffffffffff81118282101715610701576107016106c8565b60405290565b604051601f8201601f1916810167ffffffffffffffff81118282101715610730576107306106c8565b604052919050565b80356001600160e01b03198116811461075057600080fd5b919050565b60006040828403121561076757600080fd5b61076f6106de565b9050813567ffffffffffffffff8082111561078957600080fd5b908301906040828603121561079d57600080fd5b6107a56106de565b6107ae83610738565b8152602080840135838111156107c357600080fd5b80850194505086601f8501126107d857600080fd5b8335838111156107ea576107ea6106c8565b6107fc601f8201601f19168301610707565b9350808452878282870101111561081257600080fd5b80828601838601376000908401820152818101929092528352928301359282019290925292915050565b6001600160a01b038116811461085157600080fd5b50565b60008060006060848603121561086957600080fd5b83359250602084013567ffffffffffffffff81111561088757600080fd5b61089386828701610755565b92505060408401356108a48161083c565b809150509250925092565b600080604083850312156108c257600080fd5b82359150602083013567ffffffffffffffff8111156108e057600080fd5b6108ec85828601610755565b9150509250929050565b60008060006060848603121561090b57600080fd5b8335925061091b60208501610738565b915060408401356108a48161083c565b60008060006060848603121561094057600080fd5b505081359360208301359350604090920135919050565b6020808252825182820181905260009190848201906040850190845b818110156109985783516001600160a01b031683529284019291840191600101610973565b50909695505050505050565b60005b838110156109bf5781810151838201526020016109a7565b838111156109ce576000848401525b50505050565b600081518084526109ec8160208601602086016109a4565b601f01601f19169290920160200192915050565b600081516040845263ffffffff60e01b81511660408501526020810151905060406060850152610a3360808501826109d4565b602093840151949093019390935250919050565b606081526000610a5a6060830186610a00565b6001600160a01b0394851660208401529290931660409091015292915050565b604081526000610a8d6040830185610a00565b905060018060a01b03831660208301529392505050565b600060408284031215610ab657600080fd5b6040516040810181811067ffffffffffffffff82111715610ad957610ad96106c8565b6040528251610ae78161083c565b81526020830151610af78161083c565b60208201529392505050565b634e487b7160e01b600052601160045260246000fd5b600082821015610b2b57610b2b610b03565b500390565b60008219821115610b4357610b43610b03565b500190565b634e487b7160e01b600052603260045260246000fd5b600060018201610b7057610b70610b03565b5060010190565b600060208284031215610b8957600080fd5b81516104be8161083c565b60008251610ba68184602087016109a4565b9190910192915050565b6020815260006104be60208301846109d456fe416464726573733a206c6f772d6c6576656c2064656c65676174652063616c6c206661696c6564a26469706673582212209289032313d6296c4458614b9907c7324d9f7db344867a1fe9c23874cbca212264736f6c634300080d0033",
  "linkReferences": {},
  "deployedLinkReferences": {}
}